:100000000000022081BE0100A9BE0100ABBE0100BC
:10001000ADBE0100AFBE0100B1BE01000000000096
:10002000000000000000000000000000B3BE01005E
:10003000B5BE010000000000B7BE0100B9BE01005E
:10004000BBBE010061BA000049BD01000DBD010049
:1000500021BD0100BBBE01008DA60100F59201008B
:10006000F9B7010001B8010009B80100BBBE0100E9
:10007000BBBE0100BBBE0100BBBE0100BBBE010098
:10008000BBBE0100BBBE0100BBBE0100BBBE010088
:10009000BBBE0100BBBE0100BBBE0100BBBE010078
:1000A000BBBE0100BBBE010011B8010019B80100C0
:1000B000BBBE0100BBBE010000000000000000004C
:1000C000BBBE0100BBBE0100BBBE010035BD0100CF
:1000D000BBBE0100BBBE0100BBBE010000000000B2
:1000E0000000000000000000000000000000000010
:1000F0000000000000000000000000000000000000
:1001000000000000000000000000000000000000EF
:1001100000000000000000000000000000000000DF
:1001200000000000000000000000000000000000CF
:1001300000000000000000000000000000000000BF
:1001400000000000000000000000000000000000AF
:10015000000000000000000000000000000000009F
:10016000000000000000000000000000000000008F
:10017000000000000000000000000000000000007F
:10018000000000000000000000000000000000006F
:10019000000000000000000000000000000000005F
:1001A000000000000000000000000000000000004F
:1001B000000000000000000000000000000000003F
:1001C000000000000000000000000000000000002F
:1001D000000000000000000000000000000000001F
:1001E000000000000000000000000000000000000F
:1001F00000000000000000000000000000000000FF
:1002000030B490F800F020F007016FF0000C10F00F
:10021000070491F820F040F048804FF000046FF0A0
:100220000700D1E9002391F840F000F1080082FABC
:100230004CF2A4FA8CF283FA4CF3A2FA8CF34BBB87
:10024000D1E9022382FA4CF200F10800A4FA8CF200
:1002500083FA4CF3A2FA8CF3E3B9D1E9042382FACE
:100260004CF200F10800A4FA8CF283FA4CF3A2FAE3
:100270008CF37BB9D1E9062301F1200182FA4CF21B
:1002800000F10800A4FA8CF283FA4CF3A2FA8CF382
:10029000002BC6D0002A04BF04301A4612BAB2FAA4
:1002A00082F200EBD20030BC7047D1E9002304F0A9
:1002B0000305C4F100004FEAC50514F0040F91F8DE
:1002C00040F00CFA05F562EA05021CBF63EA05037B
:1002D00062464FF00004AAE70000000000000000A2
:1002E00002780B78012A28BF9A4240F0D8806DE945
:1002F000044540EA0104CDE902676FF0000C4FEAC3
:1003000044721AB380EA010414F0070F6BD100F0B5
:10031000070420F0070004F0030521F007014FEA6D
:10032000C505F0E8042314F0040FF1E804670CFAA3
:1003300005F462EA040266EA04060BD063EA0403E9
:10034000624667EA0407664604E000BFF0E804235B
:10035000F1E8046782FA4CF582EA0604A4FA8CF408
:100360006CBB83FA4CF583EA0705A5FA8CF595B9C1
:1003700050E9022351E9026782FA4CF582EA060449
:10038000A4FA8CF483FA4CF583EA0705A5FA8CF5F8
:100390002543DBD09CB92DBAB5FA85F424F00704C7
:1003A00027FA04F1DDE9026723FA04F303F0FF0002
:1003B00001F0FF01FDE80445A0EB0100704724BAFD
:1003C000B4FA84F424F0070426FA04F1DDE90267A4
:1003D00022FA04F202F0FF0001F0FF01FDE80445FB
:1003E000A0EB0100704714F0030F3CD110F00304A0
:1003F00028D150F8082B51F8083B82FA4CF582EAD4
:100400000305A5FA8CF55DB950F8042C51F8043CAD
:1004100082FA4CF582EA0305A5FA8CF5002DE8D0A6
:100420002DBAB5FA85F424F0070423FA04F122FA70
:1004300004F202F0FF0001F0FF01FDE80445A0EB2B
:10044000010070474FEAC40420F0030050F8082B65
:1004500021F0030151F8083B0CFA04F462EA0402AB
:1004600063EA0403C9E710F003041DD0A1EB040103
:1004700020F00300E40750F8042B06D012D28B784A
:100480005FFAA2F4E41A06D12BB1CB785FFAB2F48A
:10049000E41A00D133B920465DF8104B7047A2EB47
:1004A0000300704701F1040150F8042BCC0721F040
:1004B000030151F8043B48D824D222F07F4482FA49
:1004C0004CF594EA1325A5FA8CF50AD165B951F8D3
:1004D000043B84EA0204B4EB036F0ED150F8042B02
:1004E000EBE74FEA132355E035F07F454DD108780F
:1004F000FDE80445C0F1000070474FEA126203F0C6
:10050000FF0347E002EA1C4482FA4CF594EA1345E3
:10051000A5FA8CF50AD165B951F8043B84EA0204C6
:10052000B4EB034F0CD150F8042BEBE74FEA134325
:1005300030E015EA1C4528D10B884FEA124229E029
:100540004FEA124203EA1C4324E002F0FF0482FA5D
:100550004CF594EA1365A5FA8CF50AD165B951F802
:10056000043B84EA0204B4EB032F09D150F8042BB6
:10057000EBE74FEA13630DE015F0FF0F05D10B68B1
:100580004FEA122223F07F4304E04FF00000FDE821
:100590000445704712BA1BBA82FA4CF482EA03048B
:1005A000A4FA8CF5B5FA85F402FA04F203FA04F31E
:1005B0004FEA1260FDE80445A0EB1360704700BFEE
:1005C00001F0FF01102A2BDB10F0070F08D010F804
:1005D000013B013A8B422DD010F0070F42B3F6D108
:1005E000F0B441EA012141EA014122F007047FF021
:1005F00000070023F0E80256083C85EA010586EA78
:10060000010685FA47F5A3FA87F586FA47F6A5FAB3
:1006100087F68EB9EED1F0BC01F0FF0102F00702BF
:1006200032B110F8013B013A83EA010313B1F8D16A
:100630000020704701387047002D06BF354603384B
:10064000073815F0010F07D1013015F4807F02BF84
:10065000013015F4C03F0130F0BC0138704700BFD5
:100660002DE9F0419FED1E7B214C04609FED1E5B48
:1006700000F502644FF07E55DFED1E6A03F1FF3C8A
:1006800080ED027B4FF00008256000F62807012668
:1006900000F5036500F5046EBCF1030F04ED025B89
:1006A000C0F82488C7ED006A80F82C6885ED007BCF
:1006B0000EED027B05D89C193441C0F81838C0F8FB
:1006C0001C4892B207EE902A00F61402F8EE677A00
:1006D00000F501631160C3ED007ABDE8F08100BF51
:1006E0000000000000000000030000000200000005
:1006F000A0490300000000002DE9F04F044683B03C
:10070000C0682BF0A5F98046206989462BF0A0F936
:100710006569CDE9000128462BF09AF9024601F1FE
:10072000004306460F464046494623F0FDF92BF0AC
:10073000F1FCE062824624F0A1FB8346504623F0A0
:100740003DFF824658462BF095F942464B462BF02A
:10075000E9F98046504689462BF08CF932463B46F3
:100760002BF0E0F902460B46404649462BF022F8B2
:1007700002460B46DDE9000123F0D6F92BF0CAFC56
:10078000002D07EE900A19DDF5EEC07AF1EE10FAB1
:100790001DDD11A7D7E9006717EE900A2BF06AF963
:1007A00002460B46304639462BF004F832463B46AB
:1007B0002BF002F82BF0AEFC07EE900AE388C4EDB4
:1007C0000A7A43F00203E38003B0BDE8F08F04A788
:1007D000D7E90067E0E700BFEA2E4454FB21F93F68
:1007E000EA2E4454FB21F9BF2DE9F0412DED028B97
:1007F000002408EE103A5C4B0360446005460F4647
:100800001646BDF8208010F0E5FC584B2B6003F134
:100810002C023833EB60AA606F612C8205F12C004A
:1008200017F056FD05F1300017F052FD9FED507A9C
:10083000504B68696E63C7EE087AA5F80480EC61D6
:100840002C852C83C0F80045B0EE677ABEEECE7AD8
:1008500017EE101A9FED427BB1F5004F83ED007B40
:1008600083ED027B234678DB013341FA03F4B4F5D0
:10087000004FF9DA072B15DC04FA03F10029B8BFA1
:100880000F31091107EE901ADFED396AC0F80C3507
:10089000F8EEE77AC0F8084586EEA77AC5ED097A42
:1008A00085ED087A00230222C0F804353249C0F8E9
:1008B0001025C0F84835C0F82835C0F84C35C0F8C8
:1008C0002C3540F201136B830123C0F8143530241A
:1008D00004238842C0F80032C0F8044321D02749DD
:1008E00088422DD0264A90420ED0326801235268A9
:1008F0002B7605F10801C0F8003530469047BDEC75
:10090000028B2846BDE8F0811E4A1F4C95601F4AA5
:100910009168A2F54062C1F8C840C2F884315360C2
:10092000E3E71A4B174A99681560A3F540634FF047
:100930008052174CC1F8B040C3F880211A60D4E748
:10094000104B144C5D60114B9968A3F54063C1F8DE
:10095000C440C3F884215A60C7E70C468EE700BF45
:100960000080008000800080404E0300405B030058
:10097000002474495018002000C0014000100240BB
:1009800000200240741A0020A19C010000ED00E04C
:10099000F99B01004D9C010010B5012104462FF088
:1009A000C7F82BF067F806A3D3E900232BF0BAF8B9
:1009B0002BF0B0FB014620462DF083F8012010BD3E
:1009C000399D52A246DF913F10B5012104462FF018
:1009D000AFF82BF04FF806A3D3E900232BF0CCF9A6
:1009E0002BF098FB014620462DF06BF8012010BD3E
:1009F000399D52A246DF913F82B010B59FED0A7B30
:100A0000014601F110040498C86081ED087B20467E
:100A100002A981E80C0011F093FB2046BDE81040CC
:100A200002B011F0DDBA00BF0000000000000000BD
:100A3000C1F30A5C2DE9F041ACF2FF35132D0246FB
:100A40000B460C46064622DC002D4CDBDFF8D4803A
:100A500048FA05F801EA080C5CEA000C0F461BD0C6
:100A60002EA3D3E900232AF0A7FE002200232BF0B7
:100A7000E9FA40B1002C03DD4FF480132B411F44F1
:100A800027EA0804002621463046BDE8F081332DD0
:100A900006DDB5F5806F38D010461946BDE8F08107
:100AA000ACF2134C4FF0FF3727FA0CF73842F3D073
:100AB0001AA3D3E900232AF07FFE002200232BF0A3
:100AC000C1FA0028DFD0002C334609DD142D06D0F2
:100AD000C5F134050122AA4013449E4200D90134D5
:100AE00023EA0706CFE70DA3D3E900232AF064FE2B
:100AF000002200232BF0A6FA0028C4D0002C07DB2C
:100B0000344300D0044C0026BDE72AF055FEC5E76B
:100B100000264FF00044B6E70000F03F9C750088C7
:100B20003CE4377EFFFF0F00F8B504460D4601F0A8
:100B3000DFF906460F462046294624F0D1FB78B15E
:100B400012A3D3E90023204629462BF07BFA50B9A3
:100B500010A3D3E90023204629462BF055FA58B9B3
:100B600030463946F8BD28F081FD074F2223002684
:100B7000036039463046F8BD28F078FD2223002670
:100B800000270360ECE700BF0000F07FEF39FAFEBA
:100B9000422E864051302DD5104987C000000000FC
:100BA0002DE9F04F964B21F000459D428FB08246D3
:100BB0008B46144640F28B80924B9D420F4628D8BC
:100BC000002985A3D3E9002340F3A1812AF0F2FD97
:100BD0008D4B9D4206460F4600F08D8080A3D3E9E1
:100BE00000232AF0E7FD8046894642464B463046C0
:100BF00039462AF0DFFD7AA3D3E900232AF0DAFD93
:100C0000C4E90089C4E90201012630460FB0BDE8FD
:100C1000F08F7E4B9D4240F288807D4B9D4261D893
:100C20002E15A6F21646A5EB0659494650462BF05E
:100C300029FA2AF00DFF02460B4650464946CDE9F7
:100C400008232AF0B7FD734B00222AF06BFF894678
:100C500080462BF017FA2AF0FBFE02460B46404670
:100C60004946CDE90A232AF0A5FD6A4B00222AF065
:100C700059FFCDE90C010DF1380A03254FF00008AA
:100C80004FF000097AE9020142464B46AB46013D6E
:100C90002BF0B0F90028F5D15F4B019302230093AC
:100CA00032465B46214608A823F02CF8002F064662
:100CB000ABDA6168226801F10043E168C4E900230E
:100CC000A26801F10043C4E9022346429DE70022E5
:100CD0000023C4E900ABC4E90223002630460FB06C
:100CE000BDE8F08F02460B462AF064FDC4E902011C
:100CF000C4E90001F1E73CA3D3E900232AF05AFD3F
:100D00003BA3D3E9002306460F462AF053FD804655
:100D1000894642464B46304639462AF04BFD34A3BD
:100D2000D3E900232AF046FD6AE724F0D3FC32A37E
:100D3000D3E90023804689462AF0F4FE374B00228F
:100D40002AF03AFD2BF09EF906462AF081FE024673
:100D50000B46CDE9022320A3D3E900232AF0E2FECB
:100D600002460B46404649462AF024FD1CA3D3E91F
:100D7000002382468B46DDE902012AF0D3FE0246BB
:100D80000B4650465946CDE904232AF013FD1F2E89
:100D90008046894646DC224B721E53F82230AB4215
:100DA00040D042464B46C4E90089504659462AF095
:100DB00001FDDDE904232AF0FDFC002FC4E9020156
:100DC000BFF623AF09F10043C4E9008301F10043FA
:100DD000C4E90203764218E700004054FB21F93FC2
:100DE0003163621A61B4D03D0000601A61B4D03D35
:100DF0007370032E8A19A33B83C8C96D305FE43F2B
:100E0000FB21E93F7BD90240FB21F93FFB2139411E
:100E1000FFFFEF7F00007041B06103000000E03F82
:100E200030610300C9F30A53C3EB1553102B4FEA8B
:100E30002555B6DD56A3D3E90023DDE902012AF0EA
:100E400071FE8046894642464B46504659462AF036
:100E5000B1FC02460B4650465946CDE90623924660
:100E60009B462AF0A7FC42464B462AF0A3FC4AA325
:100E7000D3E9002380468946DDE902012AF052FECB
:100E800042464B462AF096FC0B46024659465046CF
:100E9000CDE904232AF08EFCC1F30A53ED1A312D5B
:100EA000804689467FF77DAF3EA3D3E90023DDE985
:100EB00002012AF037FE8046894642464B46DDE96C
:100EC00006012AF077FC82468B4652465B46DDE9F6
:100ED00006012AF06FFC42464B462AF06BFC33A316
:100EE000D3E9002380468946DDE902012AF01AFE93
:100EF00042464B462AF05EFC02460B465046594697
:100F0000CDE904232AF056FC8046894649E72AF0B9
:100F100053FC234B9D4206460F4618D01AA3D3E933
:100F200000232AF049FC8046894642464B4630461B
:100F300039462AF03FFC14A3D3E900232AF03CFCF5
:100F4000C4E90089C4E902014FF0FF365DE610A351
:100F5000D3E900232AF030FC0FA3D3E9002306468F
:100F60000F462AF029FC8046894642464B463046C9
:100F700039462AF01FFC08A3D3E900232AF01CFC01
:100F8000DEE700BFAFF300803163621A61B4D03D89
:100F90000000601A61B4D03D7370032E8A19A33B20
:100FA000FB21F93F0000002E8A19A33BC1492025EF
:100FB0009A837B390000000070B51646C1F30A52CF
:100FC00004460D460B464ABB21F00043034324D0A0
:100FD000334B00222AF0A6FD324B9E4204460D46BA
:100FE00046DBC1F30A520B46363A4CF250318E4280
:100FF0001CDC164440F2FE72964217DC002E29DCFF
:1010000016F1350F2CDB6FF31E53363643EA0651CB
:101010002046254B00222AF085FD70BD40F2FF7C62
:101020006245E2D102462AF0C7FB70BD002D14A133
:10103000D1E9000105DB12A3D3E900232AF072FDF8
:1010400070BD0FA3D3E900230FA1D1E900012AF05D
:1010500069FDF5E76FF31E53204643EA065170BD64
:10106000002D0BA1D1E9000102DA0BA1D1E90001A9
:1010700007A3D3E900232AF055FD70BDAFF300802C
:101080009C7500883CE4377E9C7500883CE437FE04
:1010900059F3F8C21F6EA50159F3F8C21F6EA5815E
:1010A00000005043B03CFFFF0000903C00000000F7
:1010B000F8B504460D4625F03FF8224606460F4691
:1010C0002B46204629462AF0C7FF48B92046294624
:1010D00024F000FB09A3D3E900232AF0B3FF10B9E1
:1010E00030463946F8BD28F0C1FA034F00262223C6
:1010F000036039463046F8BD0000F07F7DF8B98FB7
:10110000CE338640000000002DE9F04F83B0CDE9DA
:10111000002321F00043B3F1795F04460D4604D269
:101120002AF0B0FF002800F0858022462B4620469A
:1011300029462AF0F7FC06460F4632463B46204633
:1011400029462AF0EFFC41A3D3E9002382468B46CF
:10115000304639462AF0E6FC3EA3D3E900232AF0C4
:1011600029FB32463B462AF0DDFC3CA3D3E90023B1
:101170002AF022FB32463B462AF0D4FC39A3D3E9BD
:1011800000232AF017FB32463B462AF0CBFC37A35C
:10119000D3E900232AF010FB0C9B804689469BB3C1
:1011A000DDE90001284B00222AF0BCFC42464B46F8
:1011B00080468946504659462AF0B4FC02460B4602
:1011C000404649462AF0F6FA32463B462AF0AAFC47
:1011D000DDE900232AF0EEFA19A3D3E9002306463D
:1011E0000F46504659462AF09DFC02460B463046B3
:1011F00039462AF0E1FA02460B46204629462AF0F3
:10120000D9FA03B0BDE8F08F02460B4630463946A6
:101210002AF088FC0AA3D3E900232AF0CBFA52462D
:101220005B462AF07FFC22462B462AF0C5FA03B023
:10123000BDE8F08F2046294603B0BDE8F08F00BF1F
:10124000495555555555C53F0000E03F7CD5CF5A0F
:101250003AD9E53DEB9C2B8AE6E55A3E7DFEB15737
:10126000E31DC73ED561C119A0012A3FA6F81011A0
:101270001111813F000000002DE9F04F23F0004ADA
:10128000044652EA0A0093B0904699460D4614D19E
:101290002319714985F4002252419842914126D286
:1012A00042464B46204629462AF086FA02460B461D
:1012B0001046194613B0BDE8F08F1F461346674A23
:1012C00000940E4621F000419142029116D9009BF4
:1012D00006F1404606F580161E43E1D14346DB1871
:1012E0005D4989F4002252419E429141D8D35C4B22
:1012F00000221046194613B0BDE8F08F13D0924576
:10130000E5D8DDF808B053D0002E15DB002B40F0F7
:101310008380534A924540F02084002FC0F211850B
:1013200022462B46C4E7002CBAD18A45B8D800F033
:101330005984DDF808B0E7E74A4A924500F2A383F2
:10134000494A924500F2A583002B40F0EF83B7F1A4
:10135000804F00F0038504932046294624F0BAF913
:101360000B4600990246002937D00498F10F013945
:1013700008435FD004980138084300F07F839FED55
:10138000347B8DED067BBAF1844F71D937498A459C
:1013900040F23D84344B029A9A4200F2F984002FC5
:1013A000C0F2F984002013B0BDE8F04F24F0B6B9C4
:1013B000002B8CD1029B009A03F1404303F580136C
:1013C000134394D0284B029A9A4240F29484002FFF
:1013D000C0F2068542464B466AE7214926F0404066
:1013E000884202D002990029BFD1002FC0F27B842D
:1013F000002EBFF65DAF029901F14049049909F54D
:10140000801959EA010917D0049901297FF450AFD6
:1014100003F100410B464BE7002304932046294685
:1014200024F058F90B46009902460029D5D0F10F57
:1014300001399FE722462B46104619462AF0BAF991
:1014400002460B462AF098FC02460B4630E700BFE6
:10145000000000000000F03F0000F0FF0000F07FFF
:101460000000F03FFFFF3F43FFFFEF3F0000F0436E
:10147000D7493140002940F0C88310461946002260
:10148000D44B2AF04FFB02468B466FF034004FEAF4
:101490002B51A1F2FF310818CF490F90CBF3130B5A
:1014A0004BF07F548B4544F4401440F3A083CB4968
:1014B0008B4540F35D849FEDB07B8DED087B9FED08
:1014C000B07B8DED047B9FEDAC7B8DED107B01300F
:1014D0000F90A4F58014002592465046DDE90423C0
:1014E00021462AF067F9A346DDE9042306460F46A4
:1014F00050462146CDE90AAB2AF05EF902460B467A
:101500000020B7492AF038FC8C46834663465A4689
:1015100030463946CDE90CBC2AF004FB64100A467B
:101520000146CDE9021244F00054DDE902AB04F5B6
:101530000023591900204FF0000A04460D462246A8
:101540002B4650465946CDE900012AF0EBFA0246F7
:101550000B46304639462AF02DF9DDE904230646CC
:101560000F46204629462AF025F902460B46DDE9BA
:101570000A012AF01FF952465B462AF0D3FA0246C6
:101580000B46304639462AF015F9DDE90C232AF0DE
:10159000C9FADDE90245CDE9040122462B46204681
:1015A00029462AF0BFFA78A3D3E9002304460D4662
:1015B0002AF0B8FA76A3D3E900232AF0FDF82246F0
:1015C0002B462AF0AFFA74A3D3E900232AF0F4F8EB
:1015D00022462B462AF0A6FA71A3D3E900232AF06B
:1015E000EBF822462B462AF09DFA6FA3D3E900239D
:1015F0002AF0E2F822462B462AF094FA6CA3D3E9AB
:1016000000232AF0D9F8224606460F462B462046EC
:1016100029462AF087FA02460B46304639462AF018
:1016200081FA524604460D465B46DDE902012AF086
:10163000C3F8DDE904232AF075FA22462B462AF086
:10164000BBF8524604460D465B46504659462AF0C2
:1016500069FA644B002206460F462AF0ADF822468E
:101660002B46CDE90A452AF0A7F80D462B465246EF
:10167000504659462AF056FA5A4BCDE9000100224D
:10168000294650462AF096F832463B462AF092F810
:1016900002460B46DDE90A012AF08CF8DDE9022357
:1016A0002AF040FA2B4606460F465246DDE9040171
:1016B0002AF038FA02460B46304639462AF07CF8C2
:1016C00006460F463246DDE900013B462AF074F833
:1016D00039A3D3E9002350460D462AF023FADDE969
:1016E0000023CDE90001294650462AF063F802465E
:1016F0000B46304639462AF05DF831A3D3E9002382
:101700002AF010FA02460B461446294650461D465A
:101710002DA3D3E900232AF005FA02460B46204602
:1017200029462AF049F8DDE910232AF045F8064653
:101730000F980F462AF08CF9324604460D463B4678
:10174000DDE900012AF038F8DDE908232AF034F851
:1017500022462B462AF030F8504622462B46CDE949
:1017600002012AF027F8DDE908232AF023F8DDE951
:10177000002339E0AFF3008000000000000000000B
:10178000000000000000F03FEF4E454A287ECA3FAF
:1017900065DBC9934A86CD3F01411DA96074D13FE5
:1017A0004D268F515555D53FFFAB6FDBB66DDB3FF7
:1017B000033333333333E33F000000E009C7EE3F28
:1017C000FD033ADC09C7EE3FF5015B14E02F3EBE96
:1017D0000000F07F000040438E98030079B60B00B4
:1017E0000000F03F0000084029F0E4FF02460B46ED
:1017F0003046394629F0DEFFCDE904010023CDE96A
:1018000000890093DDE90067404632463B46494681
:1018100029F0D0FFDDE902AB52465B462AF082F99F
:10182000424604460D464B46DDE904012AF07AF9AA
:1018300002460B462046294629F0BEFF32460446A2
:101840000D463B4650465946CDE902452AF06AF915
:1018500006460F46204629463B46324629F0ACFF55
:10186000DB4B994204460D46884640F33F8101F127
:101870003F4303F5E003034340F09782C0A3D3E95D
:101880000023DDE9020129F097FF02460B462046BE
:10189000294614461D4632463B4629F08BFF024638
:1018A0000B46204629462AF0CDFB002840F07D82D9
:1018B0004FF400734344C3F30A52C64CA2F2FF3202
:1018C0001441C3F3130AC2F11402002004EA030115
:1018D0004AF4801A4AFA02FA0B460246B8F1000F9F
:1018E00030463946B8BFCAF1000A29F063FF024604
:1018F0000B4606460F46DDE9020129F05DFF4FEA7F
:101900000A5B0D460024A0A3D3E900232046294604
:101910002AF008F93246804689463B462046294649
:1019200029F048FF02460B46DDE9020129F042FF9B
:1019300097A3D3E900232AF0F5F802460B46204688
:10194000294614461D4694A3D3E900232AF0EAF859
:1019500002460B462046294629F02EFF06460F4632
:1019600032463B464046494629F026FF42464B4612
:1019700004460D4629F01EFF02460B463046394606
:1019800029F018FF2246804689462B4620462946E4
:101990002AF0C8F882A3D3E9002306460F462AF0AE
:1019A000C1F881A3D3E9002329F004FF32463B4666
:1019B0002AF0B8F87EA3D3E9002329F0FDFE3246D1
:1019C0003B462AF0AFF87CA3D3E9002329F0F2FECE
:1019D00032463B462AF0A6F879A3D3E9002329F042
:1019E000EBFE32463B462AF09DF802460B46204667
:1019F000294629F0DFFE06460F4632463B46204682
:101A000029462AF08FF802460B46304639461646DC
:101A10001F4600224FF0804329F0CCFE02460B46C1
:101A2000304639462AF0A8F9424606460F464B464C
:101A3000204629462AF076F842464B4629F0BCFE5D
:101A400002460B463046394629F0B4FE22462B4664
:101A500029F0B0FE02460B4600205F4929F0AAFE9D
:101A60000C465C44B4F5801FC0F29B812146DDE941
:101A700006232AF057F802460B4619E49FED527BE5
:101A80008DED067B7FE4002B00F0A68102230493FA
:101A9000C4E44FEA2A52A2F2FF32142A40F33781FB
:101AA000C2F1340223FA02F101FA02F29A4200F082
:101AB0009B81002B3AD1B7F1804F00F04F81204637
:101AC000294623F007FE0B460099024600297FF4C1
:101AD000B1AC414926F04040884200F0CC810299E7
:101AE000002900F0C381002104913EE4DFF8F0C03A
:101AF00021F00043634540F21B81384B0B44034304
:101B00000AD132463B4629F055FEDDE902232AF090
:101B10008FFA00283FF4CCAEDDE906010022002355
:101B20002AF072FA003818BF01203CE4204629460A
:101B300023F0D0FD0B460099024600297FF47AACD1
:101B4000254926F04040884200F07881029900291A
:101B500000F060810099049107E4B7F1804F00F034
:101B6000FD80A2F5801297427FF4F5AB204629460E
:101B700013B0BDE8F04F22F03BBE00BFAFF30080D2
:101B8000FE822B654715973C00000000432EE63F80
:101B9000EF39FAFE422EE63F396CA80C615C20BE9C
:101BA000D0A4BE726937663EF16BD2C541BDBB3E63
:101BB0002CDE25AF6A56113F93BDBE166CC1663F41
:101BC0003E5555555555C53F000000000000F0BF7B
:101BD000FFFF8F400000F0FF0000F03F00346F3F38
:101BE000FFCB9040002B7FF45BABFFF7EBBB9FED8F
:101BF000AA7B8DED087B9FEDAA7B8DED047B9DED8F
:101C0000087B00258DED107B66E400203FE4B4499D
:101C100002988842C0F0D380B2490298884200F20C
:101C2000EC80104619460022AE4B29F0C3FD9EA35E
:101C3000D3E9002304460D4629F074FF9CA3D3E9A1
:101C4000002382468B462046294629F06BFFA64B8F
:101C5000CDE9000100222046294629F063FF024613
:101C60000B4695A1D1E9000129F0A4FD22462B469F
:101C700029F058FF02460B4600209C4929F09AFDA6
:101C800022462B4606460F462046294629F04AFFA3
:101C900002460B463046394629F044FF88A3D3E973
:101CA000002329F03FFF02460B46DDE9000129F041
:101CB00081FD04460D4622462B465046594629F0E2
:101CC0007BFD002052465B46CDE9020129F072FD02
:101CD00002460B462046294629F06CFDCDE9040159
:101CE0008CE5029904917F4900202AF045F80246CC
:101CF0000B46FFF77DBB002F4FF000024FF00003B3
:101D0000BFF6D6AA424609F10043FFF7D1BA002B2D
:101D10007FF40CAFC2F114024AFA02F101FA02F2A6
:101D200052457DD06F4A92453FF4F7AAFFF70FBBAB
:101D30006E4A934200F28880DDE900239346924682
:101D4000E0E522462B46674900202AF015F80246B6
:101D50000B46FFF7ADBAB7F1804F3DD122462B4677
:101D60002046294629F0DEFE02460B46FFF7A0BAC0
:101D70009FED557B8DED087B9FED557B8DED107BA9
:101D80009FED557B4FF480258DED047BFFF7A4BBC1
:101D9000002F7FF707AB002013B0BDE8F04F23F012
:101DA000C7BC5246FFF708F961E6DDE906010022EB
:101DB00000232AF029F9003818BF0120ECE7DDE9FB
:101DC0000601002200232AF01FF9003818BF012065
:101DD000002FBFF6E8AADFE702230493FFF7BCBA9F
:101DE00000220023FFF764BA002BB4D001F00101F8
:101DF000C1F102030493FFF711BBDDE906010022E4
:101E000000232AF001F9003818BF0120002FC3DC9D
:101E1000FFF7C9BA002FFFF664AF0491FFF7EBBAE2
:101E2000304B9A453FF479AAB7F1804F96D001F034
:101E30000101C1F102030493FFF78EBA002F0BDBFF
:101E400000990491FFF7D7BA1B15A3F2FE334FF4A4
:101E5000801242FA03F32DE52249002029F08CFF7D
:101E6000009B049302460B46FFF7C5BA002FD4DA55
:101E70000021049137E7002F01DB0021CDE719494C
:101E8000002029F079FF0023049302460B46FFF758
:101E9000B2BA00BFAFF300800000000000000000F5
:101EA000000000000000F03F000000604715F73F11
:101EB00044DF5DF80BAE543E555555555555D53F4D
:101EC000FE822B654715F73F0000004003B8E23F54
:101ED00006D0CF43EBFD4C3E000000000000F83F71
:101EE000FFFFEF3F0000F03F0000D03F0000E03F69
:101EF0002DE9F047D04F21F00042BA4286B00446A7
:101F00000D464FEAD1760DD9CC4FBA426FD9C1F305
:101F100013030343024640F04481002E64D00020A6
:101F2000002161E0C64B9A4200F21281C54B9A42F1
:101F300040F2248122462B462046294629F0F2FD14
:101F4000A7A3D3E9002306460F4629F0EBFDA6A37D
:101F5000D3E9002329F02EFC32463B4629F0E2FD6E
:101F6000A3A3D3E9002329F027FC32463B4629F0FE
:101F7000D9FDA1A3D3E9002329F01CFC32463B463E
:101F800029F0D0FD9EA3D3E9002329F015FC3246A9
:101F90003B4629F0C7FD02460B462046294629F05C
:101FA00009FCCDE90201DDE90289204642464B46A3
:101FB000294629F0B7FD002206460F464FF0804320
:101FC0004046494629F0F6FB02460B463046394664
:101FD00029F0D2FE22462B4629F0ECFB02460B46A6
:101FE0000020994929F0E6FB06B0BDE8F08786A3FA
:101FF000D3E900232AF026F80746002840F0D780CE
:1020000083A3D3E900232046294629F0FDFF0028B9
:1020100040F0DF808D4B204603EBC60629467EA3A9
:10202000D3E9002329F07EFDD6E9082329F0C4FB7B
:102030002AF028F8824629F00BFD79A3D3E9002382
:1020400006460F4629F06EFD02460B4620462946FD
:1020500029F0B0FB74A3D3E90023804689463046BB
:10206000394629F05FFDCDE90001DDE90023404656
:10207000494629F09FFB02460B4604460D4629F0CF
:1020800051FD57A3D3E9002306460F4629F04AFD28
:1020900055A3D3E9002329F08DFB32463B4629F0B6
:1020A00041FD53A3D3E9002329F086FB32463B468A
:1020B00029F038FD50A3D3E9002329F07BFB3246F9
:1020C0003B4629F02FFD4EA3D3E9002329F074FBF2
:1020D00032463B4629F026FD02460B46204629465D
:1020E00029F068FB06460F462046294632463B4605
:1020F000CDE9026729F016FDCDE90401BAF1000F20
:102100003FF451AF32463B4600204FF0804129F06A
:1021100051FB02460B46DDE9040129F02DFE024683
:102120000B46DDE9000129F045FB42464B4629F00C
:1021300041FB02460B460020434929F03BFB6FF46C
:102140007F72924539DB01EB0A5106B0BDE8F0879A
:102150003F4B9A423FF65EAF3C4C04EBC604D4E9D9
:10216000002329F027FB94ED047B86F0010A8DED16
:10217000007B80468946AAEB060A76E72CA3D3E9C2
:10218000002329F019FB304B002229F05BFF0028C7
:102190003FF4D0AE2C4B00222046294629F00CFB00
:1021A00022E70B4629F008FB06B0BDE8F0870020C7
:1021B00006B0BDE8F04723F0BBBA0AF57A7A01EB26
:1021C0000A5100224FF0B87329F0ACFC06B0BDE80C
:1021D000F087384606B0BDE8F04723F09FBA00BF4D
:1021E000D0A4BE726937663EF16BD2C541BDBB3E1D
:1021F0002CDE25AF6A56113F93BDBE166CC1663FFB
:102200003E5555555555C53FEF39FAFE422E86408D
:1022100051302DD5104987C0FE822B654715F73FF9
:102220000000E0FE422EE63F763C7935EF39EA3D8C
:102230009C7500883CE4377E412E8640FFFFEF7F8F
:10224000422ED63FFFFFEF3D0000F03FD8150300C0
:10225000B1A2F03F00000000B1F5801F2DE9F84366
:1022600004460D460B4619DA21F00042024353D0D2
:10227000002959DB364B002229F054FC354A0D4623
:102280002B46934204466FF035010CDD22462B4667
:102290002046294629F090FABDE8F8832D4A93425A
:1022A0004FF00001F2DC1815A0F2FF300844C70F10
:1022B00000EBD070C3F3130629F0CAFBC7F57F7398
:1022C000033346EA03551CA3D3E90023804689461D
:1022D00029F028FC02460B462046294614461D4696
:1022E00000F022FB16A3D3E9002329F01BFC2246B1
:1022F0002B4629F061FA14A3D3E9002304460D46C6
:102300004046494629F00EFC02460B462046294627
:1023100029F052FABDE8F883002200230E4900207C
:1023200029F02AFDBDE8F883024629F043FA00228D
:10233000002329F021FDAFE7362BF111F3FE593DC3
:102340000EE526157BCBDB3F00609F501344D33F47
:1023500000005043FFFFEF7F000050C3000000006B
:10236000C1F30A5C2DE9F041ACF2FF35132D0246B2
:102370000B460C46064622DC002D42DBDFF8E480EB
:1023800048FA05F801EA080C5CEA000C0F461BD07D
:1023900032A3D3E9002329F00FFA0022002329F009
:1023A00051FE40B1002C03DA4FF480132B411F443F
:1023B00027EA0804002621463046BDE8F081332D87
:1023C00006DDB5F5806F2CD010461946BDE8F081CA
:1023D000ACF2134C4FF0FF3727FA0CF73842F3D02A
:1023E0001EA3D3E9002329F0E7F90022002329F0F6
:1023F00029FE0028DFD0002C33461CDB23EA070629
:10240000D9E716A3D3E9002329F0D6F90022002347
:1024100029F018FE0028CED0002C05DB002634461B
:10242000C9E729F0C9F9D1E724F0004426430DD1CA
:102430004FF00044BFE7142D06D0C5F1340501224A
:10244000AA4013449E42D9D90134D7E7024C002652
:10245000B1E700BFAFF300800000F0BF9C750088BB
:102460003CE4377EFFFF0F002DE9F84F99465342B9
:102470005F4F134329F0004E4EEAD373BB429046A0
:1024800004460D463DD84642064321F0004A4AEA3A
:10249000D676BE4203468B4633D809F1404606F550
:1024A000801616433DD04FEAA97606F0020653EA9D
:1024B0000A0346EAD1762CD052EA0E0235D0BE4548
:1024C00046D0BA4531D0AAEB0E0ABAF1747F4FEA72
:1024D0002A5339DAB9F1000F46DA3C3344DA0020E6
:1024E0000021012E58D0022E49D086B134A3D3E961
:1024F000002329F05FF934A3D3E9002329F05AF926
:1025000005E022462B464046494629F055F9BDE8EC
:10251000F88F022E10D0032EF9D12DA1D1E90001A0
:10252000F5E7BDE8F84F00F067B8BBF1000F07DB37
:1025300029A1D1E90001EAE723A1D1E90001E6E7F9
:1025400027A1D1E90001E2E723A1D1E90001C8E711
:10255000F24506F1FF3623D0022E29D8254B03EB96
:10256000C603D3E90601D2E742464B462046294638
:1025700029F002FC23F0AEF800F03EF8B1E710A31A
:10258000D3E9002329F016F902460B460EA1D1E942
:10259000000129F00FF9BAE701F100431946B6E747
:1025A000022E08D8134B03EBC603D3E90001AEE7B4
:1025B00000200021ABE70CA1D1E90001A7E700BF93
:1025C000075C143326A6A13C182D4454FB21094076
:1025D000182D4454FB2109C0182D4454FB21F93F08
:1025E000182D4454FB21F9BF182D4454FB21E93F19
:1025F0000000F07F201603002DE9F84FC04B21F0BA
:1026000000469E4204460D468A460ED9BD4B9E4268
:1026100000F2AE8000F0A980BAF1000F40F3E8802C
:102620009BA1D1E90001BDE8F88FB74B9E4200F2B3
:10263000B680A3F1DE739E4240F2A2804FF0FF3BD2
:1026400022462B462046294629F06CFA02460B46C4
:102650008046894629F066FA8FA3D3E9002306460F
:102660000F4629F05FFA8EA3D3E9002329F0A4F8DE
:1026700032463B4629F056FA8BA3D3E9002329F0D2
:102680009BF832463B4629F04DFA89A3D3E9002353
:1026900029F092F832463B4629F044FA86A3D3E962
:1026A000002329F089F832463B4629F03BFA84A3FF
:1026B000D3E9002329F080F842464B4629F032FA4C
:1026C00081A3D3E90023804689463046394629F064
:1026D00029FA7FA3D3E9002329F06CF832463B4660
:1026E00029F020FA7CA3D3E9002329F063F83246CD
:1026F0003B4629F017FA7AA3D3E9002329F05AF8C8
:1027000032463B4629F00EFA77A3D3E9002329F09D
:1027100051F832463B4629F005FA02460B46404640
:10272000494629F049F822462B4629F0FBF9BBF12E
:10273000FF3F02460B4660D0744E06EBCB06D6E94F
:10274000082329F037F822462B4629F033F80246B1
:102750000B46D6E9000129F02DF8BAF1000F0DDA89
:1027600001F100431946BDE8F88F00283FF454AF4B
:1027700022462B462046294629F01EF8BDE8F88F50
:102780005BA3D3E9002329F017F8614B002229F05D
:1027900059FC00283FF452AF20462946EEE722F0CC
:1027A00099FF5C4B9E4204460D462CD8A3F550235E
:1027B0009E4253D802460B4628F0FEFF544B00229F
:1027C00028F0F8FF02460B462046294614461D46CF
:1027D00000224FF0804328F0EFFF02460B462046D0
:1027E000294629F0C9FA4FF0000B04460D4627E7A9
:1027F00041A1D1E90001BDE8F88F2046294628F023
:10280000D9FFBDE8F88F444B9E421CD2434B0022B7
:1028100028F0D0FF02460B462046294614461D46A6
:1028200000223E4B29F07EF9394B002228F0C4FFEC
:1028300002460B462046294629F09EFA4FF0020B2D
:1028400004460D46FCE622462B463549002029F079
:1028500093FA4FF0030B04460D46F1E62C4B002291
:1028600028F0A8FF02460B462046294614461D467E
:102870000022274B28F0A0FF02460B46204629469F
:1028800029F07AFA4FF0010B04460D46D8E600BF56
:10289000182D4454FB21F93F11DA22E33AAD903F61
:1028A000EB0D76244B7BA93F513DD0A0660DB13F87
:1028B0006E204CC5CD45B73FFF8300922449C23FEF
:1028C0000D5555555555D53F2F6C6A2C44B4A2BFB4
:1028D0009AFDDE522DDEAD3F6D9A74AFF2B0B33F7C
:1028E000711623FEC671BC3FC4EB98999999C93FF4
:1028F0009C7500883CE4377E182D4454FB21F9BFB9
:10290000FFFF0F440000F07FFFFFDB3F6016030076
:102910000000F03FFFFFF23F008003400000F83F5F
:102920000000F0BF000000002DE9F04FB1F5801F5E
:1029300087B002460B460D4680F2838021F00044AA
:10294000044300F020810029C0F26081D64B0022B0
:1029500029F0E8F80D460B46D4498D426FF0350654
:10296000024673DC2C15C5F3130505F51521A4F2F9
:10297000FF3401F6647101F48011344404EB115406
:1029800081F07F5181F4401141EA05031046194658
:102990000022C74B28F00EFFAB1CC3F31303022B1E
:1029A00082468B464FF0000257DC002329F022FBC1
:1029B000002840F0F180A8A3D3E9002350465946EF
:1029C00029F0B0F802460B460020BA4928F0F2FE82
:1029D000524606460F465B465046594629F0A2F835
:1029E00002460B463046394629F09CF806460F460B
:1029F000002C00F00281204629F02AF898A3D3E9A0
:102A000000238046894629F08DF897A3D3E9002357
:102A100004460D464046494629F084F802460B46D6
:102A20003046394628F0C6FE52465B4628F0C2FEC4
:102A300002460B462046294628F0BCFE07B0BDE8FA
:102A4000F08F9A498D424FF000068BDD10461946F3
:102A500028F0B2FE07B0BDE8F08F4FF0804328F0B9
:102A6000ABFE02460B465046594629F085F906460C
:102A700020460F4628F0ECFF3246CDE904013B46E4
:102A800030463946CDE9026729F04CF802460B463C
:102A9000CDE9002329F046F875A3D3E900230646C3
:102AA0000F4629F03FF874A3D3E9002328F084FEF1
:102AB00032463B4629F036F871A3D3E9002328F0CB
:102AC0007BFE32463B4629F02DF86FA3D3E9002365
:102AD00028F072FEDDE9002329F024F86CA3D3E985
:102AE0000023CDE900013046394629F01BF86AA3DE
:102AF000D3E9002328F060FE32463B4629F012F865
:102B000067A3D3E9002328F057FE32463B4629F05D
:102B100009F8A5F5C22802460B46C5F5D725DDE91B
:102B2000000128F049FEA8F27A48513545EA080527
:102B3000002D06460F464BDD5E4B0022504659469F
:102B400028F0F0FF52465B4628F0ECFF80468946AD
:102B50003046394642464B4628F02EFEDDE9022338
:102B600028F0E0FF06460F46002C56D102460B46E1
:102B70004046494628F01EFE02460B46504659463E
:102B800028F018FE66E7002200234B49002029F0B8
:102B9000F3F807B0BDE8F08F002C57D0204628F09E
:102BA00057FF2FA3D3E9002306460F4628F0BAFFAC
:102BB0002DA3D3E9002304460D463046394628F0BC
:102BC000B1FF02460B462046294628F0F5FD41E7B5
:102BD00002460B465046594628F0ECFDDDE902233B
:102BE00028F0A0FF06460F463CB1DDE904891CA38E
:102BF000D3E900234046494605E732463B46504666
:102C0000594628F0D7FD07B0BDE8F08F28F0D2FD77
:102C10000022002329F0B0F81CE711A3D3E9002318
:102C2000DDE9040128F07EFF0FA3D3E90023044669
:102C30000D46DDE9040128F075FF32463B4628F0D9
:102C4000BBFD02460B4640464946EBE6002000210C
:102C500000E700BFAFF30080555555555555D53F9A
:102C60000000E0FE422EE63F763C7935EF39EA3D42
:102C700044523EDF12F1C23FDE03CB966446C73FAB
:102C8000599322942449D23F935555555555E53FC4
:102C90009FC678D0099AC33FAF788E1DC571CC3FCF
:102CA00004FA97999999D93F00005043FFFFEF7FAD
:102CB0000000F03F0000E03F000050C300000000B3
:102CC0002DE9F04F21F00048B8F1795F85B09246C8
:102CD0009B4606460F466DD229F0D4F9002800F035
:102CE000EE8032463B463046394628F01BFF76A33D
:102CF000D3E9002304460D4628F014FF74A3D3E95A
:102D0000002328F059FD22462B4628F00BFF72A322
:102D1000D3E9002328F04EFD22462B4628F002FF7F
:102D20006FA3D3E9002328F047FD22462B4628F065
:102D3000F9FE6DA3D3E9002328F03CFD22462B4683
:102D400028F0F0FE6AA3D3E9002328F035FD2246DF
:102D50002B4628F0E7FECDE90001694B0022204612
:102D6000294628F0DFFEDDE900238046894620461B
:102D7000294628F0D7FE44464D46804689465246AD
:102D80005B463046394628F0CDFE02460B464046AB
:102D9000494628F00FFD02460B462046294628F0FA
:102DA00009FD02460B460020564928F003FD05B0F8
:102DB000BDE8F08F02460B4628F0B4FE42A3D3E9EB
:102DC000002304460D4628F0ADFE41A3D3E90023BD
:102DD00028F0F2FC22462B4628F0A4FE3EA3D3E9BD
:102DE000002328F0E7FC22462B4628F09BFE3CA35C
:102DF000D3E9002328F0E0FC22462B4628F092FE7F
:102E000039A3D3E9002328F0D5FC22462B4628F02D
:102E100089FE37A3D3E9002328F0CEFC2B462246B7
:102E200028F080FE384B9845CDE9000195D9374B05
:102E300098453BD8A8F5001300223249002090465F
:102E4000994628F0B7FCCDE902012D4B002220461F
:102E5000294628F067FE42464B4628F0ABFCDDE9E8
:102E60000023804689462046294628F05BFE4446DA
:102E70004D468046894652465B463046394628F0E4
:102E800051FE02460B464046494628F093FC024656
:102E90000B462046294628F08DFC02460B46DDE90C
:102EA000020128F087FC05B0BDE8F08F9FED127B92
:102EB000DFF85C908DED027B4FF00008C5E711490B
:102EC000002005B0BDE8F08FD43888BEE9FAA8BD6F
:102ED000C4B1B4BD9EEE213EAD529C804F7E923E69
:102EE0009015CB19A001FA3E7751C1166CC1563F1F
:102EF0004C5555555555A53F000000000000E73FD3
:102F00000000E03F0000F03F3233D33F0000E93FD4
:102F10000000D23F000000002DE9F04FBE4B21F031
:102F2000004A9A4583B004460D4612D90AF1404A38
:102F30000AF5801A5AEA000A00F0FD8002460B46A4
:102F400028F038FC02460B4628F016FF03B0BDE817
:102F5000F08FB24B9A458B460FD8BAF1795F80F06B
:102F6000658191A3D3E9002328F026FCAC4B002215
:102F700029F068F8002840F012812046294622F006
:102F8000A9FB02460B460020A54928F013FCA54BDF
:102F9000002228F0C7FD86A3D3E9002304460D468E
:102FA00028F0C0FD84A3D3E9002328F005FC2246C5
:102FB0002B4628F0B7FD82A3D3E9002328F0FAFBC3
:102FC00022462B4628F0AEFD7FA3D3E9002328F04C
:102FD000F3FB22462B4628F0A5FD7DA3D3E9002371
:102FE00028F0E8FB22462B4628F09CFD7AA3D3E983
:102FF000002328F0E1FB22462B4628F093FD78A31E
:10300000D3E90023CDE900012046294628F08AFDB6
:1030100075A3D3E9002328F0CDFB22462B4628F0E8
:1030200081FD73A3D3E9002328F0C6FB22462B467B
:1030300028F078FD70A3D3E9002328F0BBFB2246DB
:103040002B4628F06FFD764B002228F0B5FB064694
:103050000F462046294621F0CBFB3B468046894659
:103060003246DDE9000128F087FE6F4B9A45CDE935
:10307000000146464F4677D832464B4630464946D1
:1030800028F09AFBDDE9002328F04CFD4FF0000802
:10309000CDE9000142464B464046494628F042FDF4
:1030A00002460B462046294628F084FB4246044649
:1030B0000D464B463046494628F07EFB02460B46FD
:1030C0002046294628F058FE02460B4628F074FB9D
:1030D00002460B464AA1D1E9000128F06BFB0246EB
:1030E0000B46DDE9000128F065FB424604460D462B
:1030F0004B464046394628F05FFB02460B4642A14C
:10310000D1E9000128F056FB02460B46204629462D
:1031100028F050FB02460B463BA1D1E9000128F004
:1031200049FBBBF1000F3FF711AF01F10043194616
:1031300003B0BDE8F08F36A3D3E9002328F0F2FCFA
:1031400002460B462046294614461D462CA3D3E9C9
:10315000002328F0E7FC02460B462046294628F0CB
:103160002BFB03B0BDE8F08F02460B4640464946B4
:1031700028F0D8FC42464B4628F01EFB02460B4680
:1031800028F01AFB1EA3D3E9002328F013FB024604
:103190000B461FA1D1E9000128F00CFBC1E7204636
:1031A0002946D3E6AFF300809C7500883CE4377E67
:1031B00009F7FD0DE13D023F88B20175E0EF493F9F
:1031C0003B8F68B52882A43F5544880E55C1C93F3E
:1031D0007D6FEB0312D6D43F555555555555C53F18
:1031E00082922EB1C5B8B33F59018D1B6C06E63FE4
:1031F000C88A599CE52A00404B2D8A1C273A034077
:10320000075C143326A6913C182D4454FB21E93F5A
:10321000182D4454FB21F93FFFFFEF3FFFFFDF3F35
:103220000000F03F0000E03F3233EF3F02460B4624
:1032300028F078FC37A3D3E9002306460F4628F090
:1032400071FC36A3D3E9002328F0B6FA32463B4698
:1032500028F068FC33A3D3E9002328F0ABFA324608
:103260003B4628F05FFC31A3D3E9002328F0A4FA01
:1032700032463B4628F056FC2EA3D3E9002328F023
:1032800099FA32463B4628F04DFC2CA3D3E90023A3
:1032900028F092FA32463B4628F044FC29A3D3E9B1
:1032A0000023804689463046394628F03BFC27A358
:1032B000D3E9002328F07EFA32463B4628F032FC60
:1032C00024A3D3E9002328F077FA32463B4628F0BE
:1032D00029FC22A3D3E9002328F06CFA32463B46AE
:1032E00028F020FC0A4B002228F066FA02460B4622
:1032F0004046494628F040FD22462B4628F012FC65
:1033000022462B4628F058FA03B0BDE8F08F00BFE4
:103310000000F03F09F7FD0DE13D023F88B2017565
:10332000E0EF493F3B8F68B52882A43F5544880EA3
:1033300055C1C93F7D6FEB0312D6D43F5555555546
:103340005555C53F82922EB1C5B8B33F59018D1B6B
:103350006C06E63FC88A599CE52A00404B2D8A1C22
:10336000273A0340000000002DE9F84FC44E21F039
:103370000043B34204460D460DD903F1404303F523
:103380008013034340F0B980002940F3C08000203F
:103390000021BDE8F88FBB4EB34208D8BA4A934229
:1033A00000F2BA809CA1D1E90001BDE8F88F0029A4
:1033B000C0F2708122462B46B449002028F0FAF969
:1033C000B34B002228F0AEFB04460D4621F010FA64
:1033D00093A3D3E90023894680462946204628F056
:1033E000A1FB91A3D3E9002328F0E6F922462B465E
:1033F00028F098FB8EA3D3E9002328F0DBF92246BE
:103400002B4628F08FFB8CA3D3E9002328F0D4F9B6
:1034100022462B4628F086FB89A3D3E9002328F017
:10342000C9F922462B4628F07DFB87A3D3E9002368
:1034300028F0C2F922462B4628F074FB84A3D3E976
:10344000002382468B462046294628F06BFB82A348
:10345000D3E9002328F0AEF922462B4628F062FB80
:103460007FA3D3E9002328F0A7F922462B4628F0B2
:1034700059FB7DA3D3E9002328F09CF922462B4673
:1034800028F050FB814B002228F096F902460B46AB
:103490005046594628F070FC42464B4628F042FB05
:1034A000002682468B4632464B463046494628F037
:1034B00039FB02460B462046294628F07BF9324666
:1034C00004460D464B464046494628F075F90246EB
:1034D0000B462046294628F04FFC02460B46504634
:1034E000594628F069F932464B4628F065F90246FC
:1034F0000B4628F061F9BDE8F88F02460B4628F02C
:1035000059F902460B4628F037FCBDE8F88F58A160
:10351000D1E90001BDE8F88F02460B4628F002FB16
:103520003FA3D3E9002306460F4628F0FBFA3EA34B
:10353000D3E9002328F040F932463B4628F0F2FA5E
:103540003BA3D3E9002328F035F932463B4628F067
:10355000E9FA39A3D3E9002328F02EF932463B4695
:1035600028F0E0FA36A3D3E9002328F023F9324605
:103570003B4628F0D7FA34A3D3E9002328F01CF9FE
:1035800032463B4628F0CEFA31A3D3E900238046E9
:1035900089463046394628F0C5FA2FA3D3E90023DF
:1035A00028F008F932463B4628F0BCFA2CA3D3E9B0
:1035B000002328F001F932463B4628F0B3FA2AA34B
:1035C000D3E9002328F0F6F832463B4628F0AAFA61
:1035D0002E4B002228F0F0F802460B4640464946A2
:1035E00028F0CAFB22462B4628F09CFA02460B46DE
:1035F00021A1D1E9000128F0DDF802460B46204662
:10360000294628F0D7F802460B4603A1D1E900016C
:1036100028F0D0F8BDE8F88F182D4454FB21F93F6D
:1036200009F7FD0DE13D023F88B20175E0EF493F2A
:103630003B8F68B52882A43F5544880E55C1C93FC9
:103640007D6FEB0312D6D43F555555555555C53FA3
:1036500082922EB1C5B8B33F59018D1B6C06E63F6F
:10366000C88A599CE52A00404B2D8A1C273A034002
:10367000182D4454FB210940075C143326A6913CC5
:10368000FFFFEF3FFFFFDF3F0000603C0000F03F27
:103690000000E03F5E4B002228F08EF85D4B0022D8
:1036A00028F040FA42A3D3E9002304460D4628F04F
:1036B00039FA41A3D3E9002328F07EF822462B46AD
:1036C00028F030FA3EA3D3E9002328F073F822460D
:1036D0002B4628F027FA3CA3D3E9002328F06CF806
:1036E00022462B4628F01EFA39A3D3E9002328F0FE
:1036F00061F822462B4628F015FA37A3D3E90023B8
:1037000028F05AF822462B4628F00CFA34A3D3E9C5
:10371000002306460F462046294628F003FA32A326
:10372000D3E9002328F046F822462B4628F0FAF980
:103730002FA3D3E9002328F03FF822462B4628F098
:10374000F1F92DA3D3E9002328F034F822462B46C3
:1037500028F0E8F92E4B002228F02EF88046894602
:103760002046294621F044F8424604460D464B4681
:103770003046394628F000FB22462B4628F0D2F985
:103780001FA3D3E9002328F015F822462B4628F082
:1037900013F802460B4628F00FF802460B461AA112
:1037A000D1E9000128F006F8BDE8F88FAFF30080FA
:1037B00009F7FD0DE13D023F88B20175E0EF493F99
:1037C0003B8F68B52882A43F5544880E55C1C93F38
:1037D0007D6FEB0312D6D43F555555555555C53F12
:1037E00082922EB1C5B8B33F59018D1B6C06E63FDE
:1037F000C88A599CE52A00404B2D8A1C273A034071
:10380000075C143326A6913C182D4454FB21094033
:103810000000F03F0000E03F2DE9F04F9B46D64B03
:1038200021F000479F4287B09246804689460E4667
:1038300051D828F027FC0446002871D1109B42463D
:10384000013313433B4300F0E581109B012B00F053
:10385000EE8152465B464046494627F0ADFF0B4697
:103860000246C64900201F4628F086FA42464B46CB
:10387000804689462046394627F09CFF02460B4683
:103880005046594627F096FF22464B4628F04AF903
:1038900002460B4616462046224639461F464B46F0
:1038A00028F040F9B64B002227F086FF02460B466F
:1038B0003046394627F080FF42464B4628F032F921
:1038C00022464B4627F078FF04460D4620462946FF
:1038D00007B0BDE8F08FAB4B9F4221D9002905DA34
:1038E00001F1004399460BF100439B4642464B468B
:1038F00083A1D1E9000127F05DFF52465B460446F3
:103900000D4681A1D1E9000127F054FF22462B4644
:1039100027F052FF4FF0000A804689464FF0000B17
:1039200042464B464046494628F0FCF802460B46C4
:10393000CDE9002328F0F6F8DDE9002304460D4622
:103940004046494628F0EEF871A3D3E90023CDE9BB
:1039500002012046294628F0E5F86FA3D3E90023A9
:1039600027F02AFF22462B4628F0DCF86CA3D3E987
:10397000002327F021FF22462B4628F0D3F86AA324
:10398000D3E9002327F018FF22462B4628F0CAF877
:1039900067A3D3E9002327F00FFF22462B4628F028
:1039A000C1F865A3D3E9002327F006FFDDE9002372
:1039B00028F0B8F862A3D3E90023CDE9040120463A
:1039C000294628F0AFF860A3D3E9002327F0F4FEDE
:1039D00022462B4628F0A6F85DA3D3E9002327F062
:1039E000EBFE22462B4628F09DF85BA3D3E900238B
:1039F00027F0E2FE22462B4628F094F858A3D3E99C
:103A0000002327F0D9FE22462B4628F08BF856A338
:103A1000D3E9002327F0D0FE02460B46DDE904017E
:103A200027F0CAFEDDE9022328F07CF852465B4607
:103A300027F0C2FEDDE9002328F074F852465B4609
:103A400027F0BAFE4AA3D3E9002304460D46DDE978
:103A5000020128F067F822462B4627F0ADFE824689
:103A60008B465B4640464946524627F0A5FE454BED
:103A70009F4204460D4600F28780109B012B37D0F1
:103A8000002602460B460F4600203C49CDE9006760
:103A900028F072F942460D4604464B46DDE9000126
:103AA00027F088FE02460B465046594627F082FE14
:103AB0002B46324628F036F82B4680468946324659
:103AC000DDE9000128F02EF82D4B002227F074FECE
:103AD00002460B464046494627F06EFE22462B46DC
:103AE00028F020F82B46324627F066FE04460D46A5
:103AF0002046294607B0BDE8F08F00BFAFF3008035
:103B0000182D4454FB21E93F075C143326A6813C61
:103B1000D47ABF74702AFB3EE9A7F0320FB8123F87
:103B200068108D1AF726303F1583E0FEC8DB573F3B
:103B300093846EE9E326823FFE41B31BBAA1AB3FFB
:103B4000735360DBCB75F3BEA69237A0887E143F1B
:103B50000165F2F2D844433F280356C9226D6D3FF8
:103B600037D60684F464963F7AFE10111111C13FD6
:103B7000635555555555D53FFFFF2F3E0000F0BF0B
:103B80000000F03F2794E53F109827F061FF2246A0
:103B9000CDE900012B462046294627F0C3FF024607
:103BA0000B462046294614461D46DDE9002327F032
:103BB00003FE02460B462046294628F0DDF8524611
:103BC0005B4627F0F7FD02460B464046494627F084
:103BD000F1FD02460B4627F0EFFD02460B46DDE9FC
:103BE000000127F0E7FD4FEAA67808F00208044636
:103BF000C8F101000D4627F02BFF02460B46204678
:103C0000294627F08FFF04460D462046294607B077
:103C1000BDE8F08F4046494621F05CFD02460B4668
:103C20000020044928F0A8F804460D4660E7444601
:103C30004D465DE70000F03F2DE9D04FD04E21F01A
:103C40000043B34284B082468B4601F0004411D950
:103C5000CC4EB34240F2C980CB4EB34240F2BD805D
:103C6000C1F31302024300F0D48102460B4627F051
:103C7000A3FDE4E0C54A934200F2E480C44A9342C3
:103C800040F245810024C34B00225046594627F09C
:103C900049FF06460F4632463B465046594627F0F6
:103CA00041FF9FA3D3E900238046894627F03AFFCE
:103CB0009DA3D3E9002327F07FFD42464B4627F022
:103CC00031FF9BA3D3E9002327F074FD42464B4606
:103CD00027F028FF98A3D3E9002327F06DFD424683
:103CE0004B4627F01FFF96A3D3E9002327F062FD80
:103CF00042464B4627F016FFA74B002227F05CFDFB
:103D000002460B4630463946CDE9002327F00AFF2C
:103D100002460B460020A14927F04CFD06460F46FF
:103D200032463B46DDE9000127F044FD32463B4682
:103D300006460F465046594627F0F4FE02460B460B
:103D40000020974927F036FD02460B46304639469B
:103D500028F012F842464B4627F0E4FE02460B4696
:103D6000002C5ED0DDE9026732463B4627F022FD9B
:103D700052465B4627F0D6FE32463B4627F01AFDF8
:103D80004B46424627F016FD631C06460F4600F0E0
:103D90003181012C00F00A81631C392B4FEA045653
:103DA00000F2A480132C00F3458152465B464FF489
:103DB000001727F0FFFC47FA04F4C4F17F594FF0D5
:103DC000000809F5401902460B464046494627F0CF
:103DD000F1FC711804B0BDE8D08F5BA3D3E90023D8
:103DE00028F030F9002840F04681002C53D058A329
:103DF000D3E900235046594627F0DEFC0022002379
:103E000028F002F9002840F0078153A3D3E90023EA
:103E10005046594627F086FE02460B46002061496F
:103E200044E05046594627F07DFE42464B4627F077
:103E3000C1FC02460B465046594627F0BBFC04B075
:103E4000BDE8D08F584A934200F2E98044A3D3E9F9
:103E50000023002C00F0C48027F0AEFC0FF20819FC
:103E6000D9E9008906460F464FF0FF3442464B46DB
:103E70003046394627F09EFC82468B4652465B46CA
:103E80003046394627F096FC42464B4627F092FCD6
:103E9000CDE90201F7E630A3D3E9002350465946A5
:103EA00027F040FE0B463B490246002027F084FCE9
:103EB00028F0E8F8044627F0CBFD29A3D3E9002336
:103EC0008046894627F02EFE02460B46504659464C
:103ED00027F070FC26A3D3E9002306460F46404690
:103EE000494627F01FFE80468946BFE752465B469B
:103EF00027F060FC02460B460020274927F05AFCB9
:103F0000731819460022244B27F054FC97E71AA394
:103F1000D3E9002327F050FC02460B4687E700BF99
:103F20002DC3096EB7FD8ABE3952E686CACFD03E90
:103F3000B7DBAA9E19CE143F8555FE19A0015A3F42
:103F4000F41011111111A13FEF39FAFE422E8640F3
:103F500059F3F8C21F6EA501FE822B654715F73F86
:103F60000000E0FE422EE63F763C7935EF39EABDAF
:103F7000763C7935EF39EA3D9C7500883CE4377E24
:103F800079684340412E8640FFFFEF7F422ED63FA7
:103F9000FFFF8F3C0000E03F0000F03F00000840C2
:103FA000000018400000E0BFB1A2F03F3A4B0022F1
:103FB0005046594628F028F800284DD0374B504637
:103FC0005946002227F0F8FB02460B463046394698
:103FD00027F0F0FB00224FF0404327F0A3FD2EE72F
:103FE00027F0E8FB0FF2A009D9E9008906460F4641
:103FF00001243BE702460B465046594627F0DAFBC0
:10400000264B002227F08EFD244B002227F0D2FB06
:1040100015E7002C3FF413AF214900200FE71CA344
:10402000D3E9002327F07EFD02460B46002044B36F
:104030001C493BE7C4F57F7403342305002227F0B5
:10404000BBFB02460B465046594627F0B3FB164BC6
:10405000002227F0B1FBBCE632463B4650465946AB
:1040600027F0A8FB02460B4627F0A6FB0E4B0022CA
:1040700027F0A2FBE3E6002004B0BDE8D04F21F01A
:1040800057BB064912E700BF763C7935EF39EA3D68
:10409000FE822B654715F73F0000D0BF0000E03FD0
:1040A0000000F0BF0000E0BF0000F03F0000000093
:1040B000594A2DE9F84321F00046964204460D4640
:1040C0005CD8564B0029ACBFDFF86891DFF86C91E3
:1040D0009E424FF0000812D9514B9E4240F28E8012
:1040E000504B9E4256D901339E4250D048A3D3E94B
:1040F00000232046294627F015FDBDE8F8834A4BEA
:104100009E425ED842A3D3E9002327F055FB474BDC
:10411000002227F097FFB8BB2046294621F0DAFAA3
:10412000FFF78AFD04460D4622462B4620462946C7
:1041300027F042FB224606460F462B4620462946DC
:1041400027F0F0FC02460B462046294614461D4641
:104150000022364B27F030FB02460B46204629460C
:1041600027F00AFE02460B463046394627F022FB6E
:1041700042464B4627F0D6FCBDE8F88302460B4684
:1041800027F01AFBBDE8F88320462946FAE7284BBA
:104190009842ABD82046294621F09CFA254B0022B4
:1041A00027F0C0FCFDF7A4FE04460D4622462B4630
:1041B0004046494627F0B6FC22462B4627F0B2FC83
:1041C000E0E721F087FAFFF737FD184B002204469D
:1041D0000D4627F0F1FA0B4617498E420246A3D945
:1041E0002046294627F0C8FD22462B4627F0E4FA50
:1041F00042464B4627F096FCBDE8F88321F06AFA68
:10420000FDF776FE42464B4627F08CFCBAE700BF2E
:104210003374AC3C1F7BAC7FFFFFEF7FFFFF35406B
:10422000412E8640CD338640FFFF2F3E0000F03FF9
:104230007DF8B98F0000E03FFFFFEF3F0000E0BFD7
:1042400038B5124B1D682A6B04461AB10023C2E927
:10425000044338BD18200EF009F80246286378B1EF
:1042600001200021C2E90401094B0A480A49916072
:10427000C2E900030B2393810023C2E9044338BD44
:10428000064B0748462122F089FF00BFCC000020E2
:1042900034126DE60E33CDABECDE050020330300A7
:1042A000383303001C4B10B51C68226B8AB11369AC
:1042B0001A4954691A4803FB01F100FB0411A3FBDE
:1042C0000030013341EB0001C2E9043121F000402C
:1042D00010BD18200DF0CAFF0246206388B1114CB2
:1042E000114B0E48114991609FED097BC2E90043D3
:1042F0000B2393810E4B014682ED047BC2E904310E
:1043000010BD0C4B0C48522122F048FFAFF3008047
:104310000100000000000000CC0000202DF45158E6
:104320002D7F954C0E33CDAB34126DE6ECDE0500DF
:104330002E7F954C2033030038330300000000002B
:104340002DE9F04F9FB00F46002107921A910022ED
:104350000021CDE9041283463A461992904612F89C
:1043600001ABBAF12D0F5FD801A151F82AF000BFBF
:10437000B9450000294400002944000029440000F8
:104380002944000029440000294400002944000079
:10439000294400005B4300005B4300005B430000D6
:1043A0005B4300005B4300002944000029440000F7
:1043B0002944000029440000294400002944000049
:1043C0002944000029440000294400002944000039
:1043D0002944000029440000294400002944000029
:1043E0002944000029440000294400002944000019
:1043F0005B430000294400002944000029440000D8
:1044000029440000294400002944000029440000F8
:104410002944000029440000294400007548000098
:10442000294400008F48000000220892BAF1300FA2
:1044300000F0858000230993BAF12F0F564640F211
:1044400012854FF0000940464D464C4618E0082CB6
:10445000C8BF09EB890900F10100C8BF0AEB490A8E
:104460001990C8BFAAF1300990F800A0D8BFA3F1F5
:104470003005BAF12F0F04F10104564640F3A8802D
:1044800005EB8503BAF1390F0AEB4303DFDDAC49D5
:10449000012225F07DF8002868D11998431C199352
:1044A000417818460A46002C40F0EB80302A08BFBD
:1044B000034640F0D7851946013319931A78302AFC
:1044C000F9D0C0F101000144A2F13100082800F246
:1044D000C68101310F910021303A98460A9101249A
:1044E00005EB850502EB450500210133199318788A
:1044F000A0F13002092A01F1010600F27E84002AAF
:1045000000F08C870F98012E30440F9000F08487C4
:1045100004F1010C604606E075000130061B013E07
:10452000B14240F38F84461E082E05EB8506F3DD6D
:104530001028DCBF09EB89094FEA4909EDE798F833
:10454000012002F0DF02582A18BF434600F012840F
:104550000133199393F800A0BAF1300FF8D09846C0
:10456000BAF1000F0ED00123099365E7BAF1650F88
:104570001AD0BAF1450F17D0002C2FD1099B002B70
:1045800000F0BC804FF000084FF00009079A0AB114
:10459000199B1360089BB3B109F10043994640464B
:1045A00049461FB0BDE8F08F002C78D10A940F94D3
:1045B000099B002B40F0E2824FF000084FF0000909
:1045C000079B03B11F60404649461FB0BDE8F08F0E
:1045D0005B49012224F0DCFF00284ED0284627F05A
:1045E00027FA092CCDE9040140F3CD820023102CD9
:1045F000A2460E93A8BF4FF0100A0A9412930F938D
:10460000504B03EBCA0353E9122327F08BFA0646FB
:1046100048460F4627F00CFA02460B46304639460C
:1046200027F0CAF80F2CCDE9040100F3AC800E9BF3
:10463000002B00F0A8820E9B40F38E82162B40F3D5
:1046400065840E9AC4F125039342C0F29C803D4DCF
:10465000C4F10F0405EBC401DDE90423D1E9000135
:1046600027F060FA0E9B1C1B05EBC405D5E900235F
:1046700027F058FA8046894688E7199A531C1993FF
:104680005178A1F13000092800F2DE8002460028AE
:1046900000F0BD8601210A94A4460F91D4E30021C5
:1046A000199B0A940F918C465A1C19925E782B2EF6
:1046B00000F0C7802D2E00F0BE804FF0000AA6F15A
:1046C0003007092F37D8302E199A40F0E580013293
:1046D00019921678302EFAD0A6F13100082840F24F
:1046E000D98000221292002C34D1099A0A437FF417
:1046F00049AFBCF1000F40F03F841F46692E00F027
:10470000188400F31184492E00F013844E2E7FF498
:1047100053AF0D4919A825F011F900283FF44CAF0B
:10472000199B1B78282B00F06D85084821F0A8F90B
:10473000804689462AE7002219931292D3E700BFE8
:10474000A433030000170300B43303000433030051
:10475000002312930A9A1346002A08BF23460A939D
:104760000F9A129B102CA3EB020328460E93A2462D
:10477000A8BF4FF0100A27F05BF9092CCDE904011E
:104780003FF73EAF53E70E9BA4EB0A0A9A44BAF1F7
:10479000000F40F3A9802AF00F071AF00F0A40F02B
:1047A0004283B7F59A7F00F3DC83102FDFF880A1F6
:1047B0004FEA271600F04C85DDE904234FF0000C8A
:1047C0005746E14616F0010F1046194607D0D7E9C3
:1047D000002327F0A7F94FF0010C02460B46761094
:1047E000012E09F1010907F10807EBD1BCF1000F17
:1047F00001D0CDE90423059BA3F1547305930AEB83
:10480000C90ADDE90423DAE9000127F08BF9454BF9
:10481000CDE904010B400A4643498B4200F2A183D3
:10482000A1F580118B4240F2AF84404B4FF0FF3234
:10483000CDE904235AE04FF0010A9A1C19929E78A0
:104840003DE74FF0000AF8E701F0DF0145297FF46A
:10485000C5AE00210A940F914FF0010C24E702F03D
:10486000DF02452A7FF48EAE00240A940F944FF0A5
:10487000010C19E70022089208F10102199298F838
:1048800001A0BAF1000F3FF497AE9046CEE50122A9
:104890000892F1E7A6F13007501C199056782F2E98
:1048A00040F3F68286460E9208E0013019909EF899
:1048B00001602F2EA2F1300706DD864607EB870246
:1048C000392E06EB4202F0DD0E9A801A082840F3DA
:1048D000DF8244F61F621292BAF1000F3FF403AF79
:1048E000129A52421292FEE640F0D98200230993B6
:1048F0000A9A009523464146584625F053FD1390E9
:10490000002800F02E830F9B129A9B1A0E9A002A01
:10491000A8BF00230F9322EAE272002314921E46DE
:104920009946DAE00000F07F0000A07CFFFFEF7FF7
:10493000F0170300D21A1F2AA4EB020400F3968199
:1049400001239340109300231593099B25443C4475
:10495000A7421D443B46A8BF2346AB42A8BF2B46F7
:10496000002B02DDE41AED1AFF1A0F9B002B00F357
:104970001D81002C00F334810E9B002B00F36C8111
:10498000002D00F35A81002F08DD31463A46584683
:1049900025F010FF0646002800F058811A9952466B
:1049A000584625F09BFF8146002800F04F810023E8
:1049B000C268C3603146129225F06EFF0028C0F233
:1049C000E883059B984600F08C833146484626F0E4
:1049D00021F900224FF0804304460D4627F01EFBCC
:1049E000002800F0D380129B002B40F04C81049BE8
:1049F000002B40F0EF81C8F31303002B40F08A81B5
:104A0000A94B00222046294627F0FEFA002840F054
:104A10003883A64B00222046294627F083F80A4611
:104A20000146CDE9101202F100430C900D93A04F06
:104A3000A04B08EA07079F42DDE90C4500F04281E0
:104A4000099B13B3B7F1D46F1FD893A3D3E9002305
:104A5000DDE9100127F0E2FAA0B1DDE9100127F04D
:104A600039FB012838BF012026F0E2FF129BCDE977
:104A70001001002B40F0878201F10043169017933C
:104A8000DDE9164505F1D663DD1BDDE90A0125F0F8
:104A9000DFFF02460B462046294627F043F8DDE9B2
:104AA0000A2326F089FECDE904010C46099B23B9AF
:104AB0007F4B23409F4200F036811A99584625F0DB
:104AC000FFFB5146584625F0FBFB3146584625F082
:104AD000F7FB4946584625F0F3FB139C584661689E
:104AE00025F0AEFB8246002800F0B0802269023239
:104AF000920004F10C010C3022F088FA9DED047B49
:104B00001CAB01931BAB0093584653EC172B8DED58
:104B10000A7B26F023F81A9000286AD00121584613
:104B200025F004FD0646002800F090801B9B002B1A
:104B30007FDB0F9A149D9F18099A1C9C9B1A234493
:104B40005D4A013B9342C4F13604FFF6F3AE002305
:104B5000159301231093F8E61633FFF614AE0F9B5E
:104B6000129A9A1A554B03EBC203DDE90401D3E90B
:104B7000002327F001F98046894607E5A446002472
:104B8000199B214690E5DDE90489FFE4474B204667
:104B90002946002226F0C6FF129BCDE91001002B0A
:104BA0006CD101F100430C900D9340E731461A4659
:104BB000584625F087FD06461A98D6B1024631467A
:104BC000584625F0C9FC034612931A988BB101464A
:104BD000584625F075FB129B1A93002C7FF7CCAE3C
:104BE0001A992246584625F0E5FD1A9000287FF4D0
:104BF000C3AE5746CDF83890B2462223DFF8B090C6
:104C0000CBF800304FF000080146584625F058FB1D
:104C10003946584625F054FB5146584625F050FB7E
:104C20001399584625F04CFB0E99584625F048FB41
:104C3000ACE4149A0F9FD51A7EE751462A4658468F
:104C400025F0B8FD824600287FF49DAE57461A989D
:104C5000CDF83890B246D0E75146149A584625F020
:104C600031FD824600287FF48BAEEFE7144AD21A5A
:104C7000012303FA02F21592109366E69DED107B74
:104C80008DED0C7BD3E69FED067B8DED0C7B8DEDE2
:104C9000107BCCE6AFF300800000C0FFFFFFDF41D8
:104CA000000000000000F03F0000F03F0000E03F87
:104CB0000000F07F0000E07F02FCFFFF0017030010
:104CC000E2FBFFFFA8F154730593DDE9044520469C
:104CD000294625F0BDFEDDE90C2326F023FF224600
:104CE0002B4626F069FDB44AB44B0A409A42CDE9FE
:104CF000040140F29480DDE90A0103F15473994202
:104D000002D1B0F1FF3FA1D0AD4C4FF0FF33CDE960
:104D10000434D2E69FED9E7B8DED0C7B9FED9E7B58
:104D20008DED107B83E6DDE910783846414627F0AB
:104D300059FA26F0C9FE02460B463846414626F08F
:104D400039FD049F129DC4F313043D432C430746D1
:104D500088462DD192A3D3E9002327F055F90028E6
:104D60003FF4ABAECDF83890DDE904895746B24642
:104D70001A9849E70293089B01931AAB0093914A52
:104D80001BAB19A9584622F0BDFC10F00F050446D4
:104D90003FF4F8AB062D40F0218108F1010319938F
:104DA00000234FF000084FF000090893FFF7EEBB17
:104DB0007DA3D3E9002327F027F90028D2D17CA3D3
:104DC000D3E900233846414627F03CF900283FF458
:104DD00074AEC7E7049B012B9CD14346002B99D1AD
:104DE0005746CDF83890B24622231A98CBF80030B7
:104DF0004FF000084FF0000906E700F0DF004528FB
:104E000000F0B380002C7FF4A3AC099B19434FF052
:104E100000084FF000093FF4D3ABFFF7B7BB01F137
:104E20005474059442E6684901EBCA01DDE90423A4
:104E3000D1E9000126F076FECDE90401002F3FF410
:104E400055ADAEE401398C44BCF1080F0CF10104FE
:104E50007FF746AB102CDCBF09EB890902EB49094F
:104E60000021FFF742BB59490122404624F090FB44
:104E700040B9814619980346013019905A784D4639
:104E8000FFF714BB099B002B3FF496ABFFF77ABBEF
:104E900044F61F629742A8BF174612971CE5CAF155
:104EA000000A4FEA2A171AF00F0A0DD0464B03EBFF
:104EB000CA03DDE90401D3E9002326F05DFFCDE953
:104EC0000401002F3FF412AD1F2F00F30581DDE92F
:104ED000042317F0100118BF6A2117F0010F099180
:104EE0003B4E104619460FD0D6E9002326F01AFE95
:104EF0007F1002460B4600F0D28017F0010F06F13A
:104F0000080610461946EFD17F10F6E70E982E4995
:104F100001EBC001DDE90423D1E9000126F002FE26
:104F200080468946FFF732BB6E2E3FF4F2ABFFF7A7
:104F300043BB284919A824F001FD00283FF43CABED
:104F4000199B2549013B19A8199324F0F7FC10B9C6
:104F5000199B01331993DFF860904FF00008FFF7B9
:104F600015BB2223CBF80030F5E7002C00F03A8285
:104F70004FF0010CFFF798BB4FF000084FF000090D
:104F80001F46FFF71DBB9DED107B8DED167B77E572
:104F9000000000000000F0BF000000000000F03F33
:104FA0009535A094FFFFCF3F9535A094FFFFDF3FDD
:104FB00035E5AF350000E03F0000F07FFFFF9F7C4C
:104FC000FFFFEF7FA016030000170300A4330300C8
:104FD000C8160300A8330300AC3303001A9A3AB191
:104FE00035211CA825F060FE1A99584625F068F96D
:104FF000013D042D00F21582DFE805F0032E2B2081
:1050000003001C9B04931B9B03F233421D9B23F460
:10501000801343EA02530593E20502D543F00043AF
:105020000593B34A1A40DDE90489002A7FF4AEAA49
:1050300024F01CFB22230360FFF7A8BA4FF0FF32D5
:105040006FF00043CDE90423E3057FF59CAD059B9C
:10505000E4E7A74B0593F7E7DDE91C121D9BCDE9BB
:105060000412D9E7A2F13103082B13D922F0200250
:10507000452A7FF407AF00230A930F930124FFF71B
:1050800097BA9FED977B8DED0C7B9FED977B8DED18
:10509000107BCCE4012103460F91FFF71CBA099B5A
:1050A000CDE904017BB1C1F30A52C2F16B03002BBD
:1050B00009DD1F2B40F3FD80342B049740F36481FE
:1050C0004FF05C730593DDE904010022002326F014
:1050D00091FF00283FF40CAC2223CBF80030FFF7FF
:1050E00051BA5746C3F31302B2461E46129BCDF87F
:1050F0003890DDF840C0DDF854E07E49DDE90A89EA
:10510000002B00F093808A4200F0FA80BEF1000F7D
:1051100000F0E0801EEA060F32D04046494625F0F6
:1051200097FC099B002B00F03781C6F30A53C3F1AB
:105130006B03002B40F353811C0504F17F530022C5
:1051400003F5401326F0EEFC02460B464046494666
:1051500026F032FB80468946674B4046494600228E
:1051600026F0E0FC624B0B4080468946002B7FF422
:10517000FFAD2223CBF80030FAE51EEA060F72D10C
:10518000099B002BE8D1F3E502F154730593FFF777
:10519000ADBBDDE90445129ACDF83890224357465D
:1051A0004B46B246DDE90A89EAD1C5F313022E4621
:1051B000002AE5D125F00044240D2405B4F1D66F72
:1051C000DED95A6912B91A69012AD9DD0E9901226C
:1051D000584625F0EFFA51460E9025F05DFB002869
:1051E000CEDD099B002B00F0AB80A4F580146FEAA4
:1051F00014536FEA035305934FF0FF330493DDE933
:105200000489A9E73D4919A81CAA24F0B3FB052885
:105210007FF48BAA1D9B43F0FF4343F4E003059307
:105220001C9B0493DDE90489FFF7B0B9A2B9DDE95D
:105230000434002B45D1099B002B00F081802C4CBD
:105240003440B4F1D66FD0D8B4F15C7F84D8CBE5CC
:105250004FF00009FFF7CFBABEF1000F8DD1049BCC
:105260001CEA030F8CD04046494625F0F1FB099B10
:10527000002B55D0C6F30A53C3F16B03002B40F348
:10528000AB801C0504F17F53002203F5401326F088
:1052900049FC02460B464046494626F08BFA00225E
:1052A00000238046894626F0A5FE00283FF454AF2F
:1052B0009AE54FF0FF3202FA03F3049A1A4004927F
:1052C00001E7BEF1000F7FF458AF13EA0C0F3FF473
:1052D00057AFC8E7049B1CEA030F3FF451AF1CE72C
:1052E000000000000000E0BF000000000000E03F00
:1052F0000000F07FFFFF0F0000005039B4160300DC
:10530000DDE90445099B214653BB234601332ED0DA
:10531000BEF1000F6AD01EEA060F3FF429ADFCE68D
:1053200002460B464046494626F044FA0022002336
:105330008046894626F05EFE00283FF419AD53E50D
:105340003E4A1A983240A2F580126FEA12536FEA71
:10535000035305934FF0FF330493DDE9048953E4CD
:10536000364A3240B2F1D46F20D9621C27D1344A78
:10537000964240D0314A324002F580130593002313
:105380000493DDE90489FBE6C2F14B024FF0FF33E1
:1053900093400B40059396E602460B46404649462D
:1053A00026F00AFA804689461A982DE4120DC2F1B9
:1053B0006B024FF0FF3000FA02F29442D7D0BEF1F8
:1053C000000F04D01EEA060F3FF4C6AEA5E611EAB0
:1053D0000C0F3FF4C1AEA0E602460B465BE7024667
:1053E0000B46B3E600293FF449AEC1E514EA0C0FC1
:1053F0003FF4BEAC91E60131BCD122231A98DFF80C
:105400003C90CBF800304FF00008FFF7FDBB0F9049
:105410000A940121FFF769B8A44615E53146FFF764
:1054200064B8E10505D54FF000430593DDE9048933
:10543000FEE54FF000084FF00009F9E50000F07FAD
:10544000FFFFEF7F014BFEF77BBF00BF280100206D
:1054500010B4054C8446134620685DF8044B0A4698
:105460006146FEF76DBF00BFCC00002010B4054CB4
:10547000054B84460A4620685DF8044B6146FEF7FA
:105480005FBF00BFCC000020280100202DE9F041C3
:10549000DFF8A480044613462DED028B0A46D8F8A7
:1054A00000002146FEF74CFF02460B4604460D461F
:1054B00026F0D2FD50BB2046294626F02BFE08EEF2
:1054C000100ADFED1A7AB0EEC87AB4EE677AF1EE20
:1054D00010FA15DD25F00047154B4FF0FF3220463E
:1054E000394626F0B9FD38B9114B4FF0FF3220464E
:1054F000394626F093FD18B1D8F8003022221A6000
:1055000018EE100ABDEC028BBDE8F081002D0948B1
:1055100006DA21F0E1FA07EE900AB1EE678AEFE7CA
:10552000BDEC028BBDE8F04121F0D6BAFFFF7F7FD2
:10553000FFFFEF7F04330300CC0000202DE9F84388
:10554000264F274B04460A4638682146FEF7F8FEE8
:1055500002460B4604460D4626F07EFD88BB2046DB
:10556000294626F0D7FD07EE100ADFED1E7AB0EED1
:10557000C77AB4EE677AF1EE10FA064617DD25F029
:105580000049194B4FF0FF322046494626F064FD92
:1055900038B9154B204649464FF0FF3226F03EFD04
:1055A00028B13B6822221A603046BDE8F88316F025
:1055B000FF4FF9D10D4B2B40002BF2D13046BDE807
:1055C000F883002D0A4804DA21F086FA80F00046BC
:1055D000EAE7BDE8F84321F07FBA00BFCC00002025
:1055E00028010020FFFF7F7FFFFFEF7F0000F07F9B
:1055F000043303000348044B834202D0034B03B13E
:1056000018477047C0020020C002002000000000C0
:105610000548064B1B1AD90F01EBA301491002D014
:10562000034B03B118477047C0020020C00200209E
:105630000000000010B5064C237843B9FFF7DAFFED
:10564000044B13B10448AFF300800123237010BD55
:105650006018002000000000107A030008B5044B19
:105660001BB104490448AFF30080BDE80840CFE710
:105670000000000064180020107A0300A3F5803AAF
:10568000704700BF154B002B08BF114B9D46FFF71D
:10569000F5FF00218B460F461148124A121A23F0DB
:1056A000D5FE0C4B002B00D098470B4B002B00D0A5
:1056B00098470020002104000D000B4805F00CFB6A
:1056C00024F0A8FB2000290002F07CFB24F006F95E
:1056D00000000800000000000000000000000220A0
:1056E00000040020381D0020E56F02006FF47D707B
:1056F000704700BF08460CF093BB00BF08B50249D5
:1057000028F00AFA012008BD7A46030038B50121C5
:1057100005462AF024FA441E032C0CD8094B0A49EA
:1057200053F8243003EB4303284601EBC30128F070
:1057300064FA012038BD054A012128461BF09CF877
:10574000ECE700BF444603002808002018180300B7
:1057500070B5012106462AF002FA041E0B4D0EDB3D
:10576000D5F82433A3420ADD04EB440405EBC4015D
:10577000304601F54A7128F040FA012070BD044A14
:10578000012130461BF078F8EEE700BF000500204D
:105790002818030008B5024928F02FFA012008BD97
:1057A0005017002002F0BABC02F072BC10B50446DB
:1057B00005F01AF90146204628F0AEF9012010BD87
:1057C00008B50EF019FE08BD08B52022024806F003
:1057D000F9FA40EAE07008BD080E0020014806F022
:1057E00033BB00BF080E002010B50121044628F08D
:1057F00031F901682046B1F90220043128F074F92A
:10580000012010BD10B58AB004460DF107030C4805
:1058100002AA03A904F098F860B1029A03A92046ED
:1058200028F062F920469DF8071028F0DCF90220E4
:105830000AB010BD204628F03EF901200AB010BD84
:1058400014000020074B10B50446D3F83009036854
:10585000DB6A9847B0FA80F14909204628F0C3F97D
:10586000012010BD00050020074B10B50446D3F8F9
:10587000300903689B6A9847B0FA80F149092046CD
:1058800028F0B1F9012010BD0005002010B501215C
:1058900004462AF064F9074B0146D3F8300903683F
:1058A0001B6A9847B0FA80F14909204628F09BF915
:1058B000012010BD00050020074B10B50446D3F8A9
:1058C00030090368DB699847B0FA80F1490920463E
:1058D00028F089F9012010BD00050020074B10B504
:1058E0000446D3F82C0903681B6B9847B0FA80F183
:1058F0004909204628F077F9012010BD0005002055
:10590000074B10B50446D3F82C090368DB6A9847A7
:10591000B0FA80F14909204628F065F9012010BD50
:105920000005002010B5012104462AF018F9074BA4
:105930000146D3F82C0903685B6A9847B0FA80F1F6
:105940004909204628F04FF9012010BD000500202C
:1059500010B5012104462AF002F9074B0146D3F89D
:105960002C090368DB699847B0FA80F149092046A1
:1059700028F039F9012010BD0005002010B50446BB
:1059800082B002F05FFE01AA012120462AF0AAF8A7
:10599000019A0146044803F053FF0146204628F0CF
:1059A00022F9012002B010BD1400002030B583B0F0
:1059B0006A46012104462AF095F8009A0023014620
:1059C00001A807F0E7FE01A9074806F05BFA0546C3
:1059D00001A807F0D7FEB5FA85F12046490928F05D
:1059E00002F9012003B030BD080E002030B58BB0A5
:1059F0001849044601A806F001FA174901A807F062
:105A000005FF40B101A807F0BDFE204628F053F87D
:105A100001200BB030BD01A807F012FF2028F1DCF7
:105A200001A807F00DFF054601A807F005FF2A466B
:105A3000014602A821F0EAFA01A807F0A3FE002D12
:105A4000E3DB20462A4602A928F04EF801200BB0DD
:105A500030BD00BF080E0020B418002010B5044669
:105A6000044806F02FF90146204628F031F80120BD
:105A700010BD00BFF00D0020064B10B50446D3F852
:105A8000300903685B6A98470146204628F020F8F1
:105A9000012010BD00050020064B10B50446D3F8C8
:105AA0002C0903689B6A98470146204628F010F8A5
:105AB000012010BD00050020064B10B50446D3F8A8
:105AC0002C0903681B6A98470146204628F000F815
:105AD000012010BD0005002010B5012104462AF068
