:100000000000022029B9010051B9010053B90100D3
:1000100055B9010057B9010059B9010000000000AD
:100020000000000000000000000000005BB90100BB
:100030005DB90100000000005FB9010061B9010075
:1000400063B9010005B60000F1B70100B5B70100C2
:10005000C9B7010063B9010035A101009D8D010000
:10006000A1B20100A9B20100B1B2010063B901005F
:1000700063B9010063B9010063B9010063B901000C
:1000800063B9010063B9010063B9010063B90100FC
:1000900063B9010063B9010063B9010063B90100EC
:1000A00063B9010063B90100B9B20100C1B2010036
:1000B00063B9010063B90100000000000000000006
:1000C00063B9010063B9010063B90100DDB7010044
:1000D00063B9010063B9010063B9010000000000C9
:1000E0000000000000000000000000000000000010
:1000F0000000000000000000000000000000000000
:1001000000000000000000000000000000000000EF
:1001100000000000000000000000000000000000DF
:1001200000000000000000000000000000000000CF
:1001300000000000000000000000000000000000BF
:1001400000000000000000000000000000000000AF
:10015000000000000000000000000000000000009F
:10016000000000000000000000000000000000008F
:10017000000000000000000000000000000000007F
:10018000000000000000000000000000000000006F
:10019000000000000000000000000000000000005F
:1001A000000000000000000000000000000000004F
:1001B000000000000000000000000000000000003F
:1001C000000000000000000000000000000000002F
:1001D000000000000000000000000000000000001F
:1001E000000000000000000000000000000000000F
:1001F00000000000000000000000000000000000FF
:1002000030B490F800F020F007016FF0000C10F00F
:10021000070491F820F040F048804FF000046FF0A0
:100220000700D1E9002391F840F000F1080082FABC
:100230004CF2A4FA8CF283FA4CF3A2FA8CF34BBB87
:10024000D1E9022382FA4CF200F10800A4FA8CF200
:1002500083FA4CF3A2FA8CF3E3B9D1E9042382FACE
:100260004CF200F10800A4FA8CF283FA4CF3A2FAE3
:100270008CF37BB9D1E9062301F1200182FA4CF21B
:1002800000F10800A4FA8CF283FA4CF3A2FA8CF382
:10029000002BC6D0002A04BF04301A4612BAB2FAA4
:1002A00082F200EBD20030BC7047D1E9002304F0A9
:1002B0000305C4F100004FEAC50514F0040F91F8DE
:1002C00040F00CFA05F562EA05021CBF63EA05037B
:1002D00062464FF00004AAE70000000000000000A2
:1002E00002780B78012A28BF9A4240F0D8806DE945
:1002F000044540EA0104CDE902676FF0000C4FEAC3
:1003000044721AB380EA010414F0070F6BD100F0B5
:10031000070420F0070004F0030521F007014FEA6D
:10032000C505F0E8042314F0040FF1E804670CFAA3
:1003300005F462EA040266EA04060BD063EA0403E9
:10034000624667EA0407664604E000BFF0E804235B
:10035000F1E8046782FA4CF582EA0604A4FA8CF408
:100360006CBB83FA4CF583EA0705A5FA8CF595B9C1
:1003700050E9022351E9026782FA4CF582EA060449
:10038000A4FA8CF483FA4CF583EA0705A5FA8CF5F8
:100390002543DBD09CB92DBAB5FA85F424F00704C7
:1003A00027FA04F1DDE9026723FA04F303F0FF0002
:1003B00001F0FF01FDE80445A0EB0100704724BAFD
:1003C000B4FA84F424F0070426FA04F1DDE90267A4
:1003D00022FA04F202F0FF0001F0FF01FDE80445FB
:1003E000A0EB0100704714F0030F3CD110F00304A0
:1003F00028D150F8082B51F8083B82FA4CF582EAD4
:100400000305A5FA8CF55DB950F8042C51F8043CAD
:1004100082FA4CF582EA0305A5FA8CF5002DE8D0A6
:100420002DBAB5FA85F424F0070423FA04F122FA70
:1004300004F202F0FF0001F0FF01FDE80445A0EB2B
:10044000010070474FEAC40420F0030050F8082B65
:1004500021F0030151F8083B0CFA04F462EA0402AB
:1004600063EA0403C9E710F003041DD0A1EB040103
:1004700020F00300E40750F8042B06D012D28B784A
:100480005FFAA2F4E41A06D12BB1CB785FFAB2F48A
:10049000E41A00D133B920465DF8104B7047A2EB47
:1004A0000300704701F1040150F8042BCC0721F040
:1004B000030151F8043B48D824D222F07F4482FA49
:1004C0004CF594EA1325A5FA8CF50AD165B951F8D3
:1004D000043B84EA0204B4EB036F0ED150F8042B02
:1004E000EBE74FEA132355E035F07F454DD108780F
:1004F000FDE80445C0F1000070474FEA126203F0C6
:10050000FF0347E002EA1C4482FA4CF594EA1345E3
:10051000A5FA8CF50AD165B951F8043B84EA0204C6
:10052000B4EB034F0CD150F8042BEBE74FEA134325
:1005300030E015EA1C4528D10B884FEA124229E029
:100540004FEA124203EA1C4324E002F0FF0482FA5D
:100550004CF594EA1365A5FA8CF50AD165B951F802
:10056000043B84EA0204B4EB032F09D150F8042BB6
:10057000EBE74FEA13630DE015F0FF0F05D10B68B1
:100580004FEA122223F07F4304E04FF00000FDE821
:100590000445704712BA1BBA82FA4CF482EA03048B
:1005A000A4FA8CF5B5FA85F402FA04F203FA04F31E
:1005B0004FEA1260FDE80445A0EB1360704700BFEE
:1005C00001F0FF01102A2BDB10F0070F08D010F804
:1005D000013B013A8B422DD010F0070F42B3F6D108
:1005E000F0B441EA012141EA014122F007047FF021
:1005F00000070023F0E80256083C85EA010586EA78
:10060000010685FA47F5A3FA87F586FA47F6A5FAB3
:1006100087F68EB9EED1F0BC01F0FF0102F00702BF
:1006200032B110F8013B013A83EA010313B1F8D16A
:100630000020704701387047002D06BF354603384B
:10064000073815F0010F07D1013015F4807F02BF84
:10065000013015F4C03F0130F0BC0138704700BFD5
:100660002DE9F0419FED1E7B214C04609FED1E5B48
:1006700000F502644FF07E55DFED1E6A03F1FF3C8A
:1006800080ED027B4FF00008256000F62807012668
:1006900000F5036500F5046EBCF1030F04ED025B89
:1006A000C0F82488C7ED006A80F82C6885ED007BCF
:1006B0000EED027B05D89C193441C0F81838C0F8FB
:1006C0001C4892B207EE902A00F61402F8EE677A00
:1006D00000F501631160C3ED007ABDE8F08100BF51
:1006E0000000000000000000030000000200000005
:1006F0007C400300000000002DE9F04F044683B069
:10070000C0682AF0E5FE8046206989462AF0E0FEAE
:100710006569CDE9000128462AF0DAFE024601F1BA
:10072000004306460F464046494622F03DFF2BF067
:1007300031FAE062824624F0E1F88346504623F025
:100740007DFC824658462AF0D5FE42464B462AF0AA
:1007500029FF8046504689462AF0CCFE32463B4669
:100760002AF020FF02460B46404649462AF062FD29
:1007700002460B46DDE9000122F016FF2BF00AFAD3
:10078000002D07EE900A19DDF5EEC07AF1EE10FAB1
:100790001DDD11A7D7E9006717EE900A2AF0AAFE1F
:1007A00002460B46304639462AF044FD32463B4667
:1007B0002AF042FD2BF0EEF907EE900AE388C4ED33
:1007C0000A7A43F00203E38003B0BDE8F08F04A788
:1007D000D7E90067E0E700BFEA2E4454FB21F93F68
:1007E000EA2E4454FB21F9BF2DE9F0412DED028B97
:1007F000002408EE103A5C4B0360446005460F4647
:100800001646BDF8208010F09BFA584B2B6003F180
:100810002C023833EB60AA606F612C8205F12C004A
:1008200017F0AAFA05F1300017F0A6FA9FED507AFA
:10083000504B68696E63C7EE087AA5F80480EC61D6
:100840002C852C83C0F80045B0EE677ABEEECE7AD8
:1008500017EE101A9FED427BB1F5004F83ED007B40
:1008600083ED027B234678DB013341FA03F4B4F5D0
:10087000004FF9DA072B15DC04FA03F10029B8BFA1
:100880000F31091107EE901ADFED396AC0F80C3507
:10089000F8EEE77AC0F8084586EEA77AC5ED097A42
:1008A00085ED087A00230222C0F804353249C0F8E9
:1008B0001025C0F84835C0F82835C0F84C35C0F8C8
:1008C0002C3540F201136B830123C0F8143530241A
:1008D00004238842C0F80032C0F8044321D02749DD
:1008E00088422DD0264A90420ED0326801235268A9
:1008F0002B7605F10801C0F8003530469047BDEC75
:10090000028B2846BDE8F0811E4A1F4C95601F4AA5
:100910009168A2F54062C1F8C840C2F884315360C2
:10092000E3E71A4B174A99681560A3F540634FF047
:100930008052174CC1F8B040C3F880211A60D4E748
:10094000104B144C5D60114B9968A3F54063C1F8DE
:10095000C440C3F884215A60C7E70C468EE700BF45
:1009600000800080008000801C4503001C520300B2
:10097000002474495018002000C0014000100240BB
:1009800000200240A41A00204997010000ED00E079
:10099000A1960100F596010010B5012104462EF044
:1009A00007FE2AF0A7FD06A3D3E900232AF0FAFDEB
:1009B0002BF0F0F8014620462CF0C3FD012010BDBD
:1009C000399D52A246DF913F10B5012104462EF019
:1009D000EFFD2AF08FFD06A3D3E900232AF00CFFD8
:1009E0002BF0D8F8014620462CF0ABFD012010BDBD
:1009F000399D52A246DF913F82B010B59FED0A7B30
:100A0000014601F110040498C86081ED087B20467E
:100A100002A981E80C0011F049F92046BDE8104018
:100A200002B011F093B800BF000000000000000009
:100A3000C1F30A5C2DE9F041ACF2FF35132D0246FB
:100A40000B460C46064622DC002D4CDBDFF8D4803A
:100A500048FA05F801EA080C5CEA000C0F461BD0C6
:100A60002EA3D3E900232AF0E7FB002200232BF07A
:100A700029F840B1002C03DD4FF480132B411F44B3
:100A800027EA0804002621463046BDE8F081332DD0
:100A900006DDB5F5806F38D010461946BDE8F08107
:100AA000ACF2134C4FF0FF3727FA0CF73842F3D073
:100AB0001AA3D3E900232AF0BFFB002200232BF066
:100AC00001F80028DFD0002C334609DD142D06D0B4
:100AD000C5F134050122AA4013449E4200D90134D5
:100AE00023EA0706CFE70DA3D3E900232AF0A4FBEE
:100AF000002200232AF0E6FF0028C4D0002C07DBE8
:100B0000344300D0044C0026BDE72AF095FBC5E72E
:100B100000264FF00044B6E70000F03F9C750088C7
:100B20003CE4377EFFFF0F00F8B504460D4601F0A8
:100B3000DFF906460F462046294624F011F978B120
:100B400012A3D3E90023204629462AF0BBFF50B95F
:100B500010A3D3E90023204629462AF095FF58B96F
:100B600030463946F8BD28F0C1FA074F2223002647
:100B7000036039463046F8BD28F0B8FA2223002633
:100B800000270360ECE700BF0000F07FEF39FAFEBA
:100B9000422E864051302DD5104987C000000000FC
:100BA0002DE9F04F964B21F000459D428FB08246D3
:100BB0008B46144640F28B80924B9D420F4628D8BC
:100BC000002985A3D3E9002340F3A1812AF032FB59
:100BD0008D4B9D4206460F4600F08D8080A3D3E9E1
:100BE00000232AF027FB8046894642464B46304682
:100BF00039462AF01FFB7AA3D3E900232AF01AFB17
:100C0000C4E90089C4E90201012630460FB0BDE8FD
:100C1000F08F7E4B9D4240F288807D4B9D4261D893
:100C20002E15A6F21646A5EB0659494650462AF05F
:100C300069FF2AF04DFC02460B4650464946CDE975
:100C400008232AF0F7FA734B00222AF0ABFC8946FE
:100C500080462AF057FF2AF03BFC02460B464046EE
:100C60004946CDE90A232AF0E5FA6A4B00222AF028
:100C700099FCCDE90C010DF1380A03254FF000086D
:100C80004FF000097AE9020142464B46AB46013D6E
:100C90002AF0F0FE0028F5D15F4B01930223009368
:100CA00032465B46214608A822F06CFD002F06461E
:100CB000ABDA6168226801F10043E168C4E900230E
:100CC000A26801F10043C4E9022346429DE70022E5
:100CD0000023C4E900ABC4E90223002630460FB06C
:100CE000BDE8F08F02460B462AF0A4FAC4E90201DF
:100CF000C4E90001F1E73CA3D3E900232AF09AFA02
:100D00003BA3D3E9002306460F462AF093FA804618
:100D1000894642464B46304639462AF08BFA34A380
:100D2000D3E900232AF086FA6AE724F013FA32A303
:100D3000D3E90023804689462AF034FC374B002251
:100D40002AF07AFA2AF0DEFE06462AF0C1FB0246B5
:100D50000B46CDE9022320A3D3E900232AF022FC8D
:100D600002460B46404649462AF064FA1CA3D3E9E2
:100D7000002382468B46DDE902012AF013FC02467D
:100D80000B4650465946CDE904232AF053FA1F2E4C
:100D90008046894646DC224B721E53F82230AB4215
:100DA00040D042464B46C4E90089504659462AF095
:100DB00041FADDE904232AF03DFA002FC4E90201DB
:100DC000BFF623AF09F10043C4E9008301F10043FA
:100DD000C4E90203764218E700004054FB21F93FC2
:100DE0003163621A61B4D03D0000601A61B4D03D35
:100DF0007370032E8A19A33B83C8C96D305FE43F2B
:100E0000FB21E93F7BD90240FB21F93FFB2139411E
:100E1000FFFFEF7F000070418C5803000000E03FAF
:100E20000C580300C9F30A53C3EB1553102B4FEAB8
:100E30002555B6DD56A3D3E90023DDE902012AF0EA
:100E4000B1FB8046894642464B46504659462AF0F9
:100E5000F1F902460B4650465946CDE90623924623
:100E60009B462AF0E7F942464B462AF0E3F94AA3AB
:100E7000D3E9002380468946DDE902012AF092FB8E
:100E800042464B462AF0D6F90B4602465946504692
:100E9000CDE904232AF0CEF9C1F30A53ED1A312D1E
:100EA000804689467FF77DAF3EA3D3E90023DDE985
:100EB00002012AF077FB8046894642464B46DDE92F
:100EC00006012AF0B7F982468B4652465B46DDE9B9
:100ED00006012AF0AFF942464B462AF0ABF933A39C
:100EE000D3E9002380468946DDE902012AF05AFB56
:100EF00042464B462AF09EF902460B46504659465A
:100F0000CDE904232AF096F98046894649E72AF07C
:100F100093F9234B9D4206460F4618D01AA3D3E9F6
:100F200000232AF089F98046894642464B463046DE
:100F300039462AF07FF914A3D3E900232AF07CF97B
:100F4000C4E90089C4E902014FF0FF365DE610A351
:100F5000D3E900232AF070F90FA3D3E90023064652
:100F60000F462AF069F98046894642464B4630468C
:100F700039462AF05FF908A3D3E900232AF05CF987
:100F8000DEE700BFAFF300803163621A61B4D03D89
:100F90000000601A61B4D03D7370032E8A19A33B20
:100FA000FB21F93F0000002E8A19A33BC1492025EF
:100FB0009A837B390000000070B51646C1F30A52CF
:100FC00004460D460B464ABB21F00043034324D0A0
:100FD000334B00222AF0E6FA324B9E4204460D467D
:100FE00046DBC1F30A520B46363A4CF250318E4280
:100FF0001CDC164440F2FE72964217DC002E29DCFF
:1010000016F1350F2CDB6FF31E53363643EA0651CB
:101010002046254B00222AF0C5FA70BD40F2FF7C25
:101020006245E2D102462AF007F970BD002D14A1F5
:10103000D1E9000105DB12A3D3E900232AF0B2FABB
:1010400070BD0FA3D3E900230FA1D1E900012AF05D
:10105000A9FAF5E76FF31E53204643EA065170BD27
:10106000002D0BA1D1E9000102DA0BA1D1E90001A9
:1010700007A3D3E900232AF095FA70BDAFF30080EF
:101080009C7500883CE4377E9C7500883CE437FE04
:1010900059F3F8C21F6EA50159F3F8C21F6EA5815E
:1010A00000005043B03CFFFF0000903C00000000F7
:1010B000F8B504460D4624F07FFD224606460F464D
:1010C0002B46204629462AF007FD48B920462946E6
:1010D00024F040F809A3D3E900232AF0F3FC10B967
:1010E00030463946F8BD28F001F8034F0026222388
:1010F000036039463046F8BD0000F07F7DF8B98FB7
:10110000CE338640000000002DE9F04F83B0CDE9DA
:10111000002321F00043B3F1795F04460D4604D269
:101120002AF0F0FC002800F0858022462B4620465D
:1011300029462AF037FA06460F4632463B462046F5
:1011400029462AF02FFA41A3D3E9002382468B4691
:10115000304639462AF026FA3EA3D3E900232AF086
:1011600069F832463B462AF01DFA3CA3D3E9002336
:101170002AF062F832463B462AF014FA39A3D3E942
:1011800000232AF057F832463B462AF00BFA37A3E1
:10119000D3E900232AF050F80C9B804689469BB384
:1011A000DDE90001284B00222AF0FCF942464B46BB
:1011B00080468946504659462AF0F4F902460B46C5
:1011C000404649462AF036F832463B462AF0EAF9CC
:1011D000DDE900232AF02EF819A3D3E900230646FF
:1011E0000F46504659462AF0DDF902460B46304676
:1011F00039462AF021F802460B46204629462AF0B5
:1012000019F803B0BDE8F08F02460B463046394668
:101210002AF0C8F90AA3D3E900232AF00BF85246B2
:101220005B462AF0BFF922462B462AF005F803B0A8
:10123000BDE8F08F2046294603B0BDE8F08F00BF1F
:10124000495555555555C53F0000E03F7CD5CF5A0F
:101250003AD9E53DEB9C2B8AE6E55A3E7DFEB15737
:10126000E31DC73ED561C119A0012A3FA6F81011A0
:101270001111813F000000002DE9F04F23F0004ADA
:10128000044652EA0A0093B0904699460D4614D19E
:101290002319714985F4002252419842914126D286
:1012A00042464B462046294629F0C6FF02460B46D9
:1012B0001046194613B0BDE8F08F1F461346674A23
:1012C00000940E4621F000419142029116D9009BF4
:1012D00006F1404606F580161E43E1D14346DB1871
:1012E0005D4989F4002252419E429141D8D35C4B22
:1012F00000221046194613B0BDE8F08F13D0924576
:10130000E5D8DDF808B053D0002E15DB002B40F0F7
:101310008380534A924540F02084002FC0F211850B
:1013200022462B46C4E7002CBAD18A45B8D800F033
:101330005984DDF808B0E7E74A4A924500F2A383F2
:10134000494A924500F2A583002B40F0EF83B7F1A4
:10135000804F00F0038504932046294623F0FAFECF
:101360000B4600990246002937D00498F10F013945
:1013700008435FD004980138084300F07F839FED55
:10138000347B8DED067BBAF1844F71D937498A459C
:1013900040F23D84344B029A9A4200F2F984002FC5
:1013A000C0F2F984002013B0BDE8F04F23F0F6BE80
:1013B000002B8CD1029B009A03F1404303F580136C
:1013C000134394D0284B029A9A4240F29484002FFF
:1013D000C0F2068542464B466AE7214926F0404066
:1013E000884202D002990029BFD1002FC0F27B842D
:1013F000002EBFF65DAF029901F14049049909F54D
:10140000801959EA010917D0049901297FF450AFD6
:1014100003F100410B464BE7002304932046294685
:1014200023F098FE0B46009902460029D5D0F10F13
:1014300001399FE722462B461046194629F0FAFE4D
:1014400002460B462AF0D8F902460B4630E700BFA9
:10145000000000000000F03F0000F0FF0000F07FFF
:101460000000F03FFFFF3F43FFFFEF3F0000F0436E
:10147000D7493140002940F0C88310461946002260
:10148000D44B2AF08FF802468B466FF034004FEAB7
:101490002B51A1F2FF310818CF490F90CBF3130B5A
:1014A0004BF07F548B4544F4401440F3A083CB4968
:1014B0008B4540F35D849FEDB07B8DED087B9FED08
:1014C000B07B8DED047B9FEDAC7B8DED107B01300F
:1014D0000F90A4F58014002592465046DDE90423C0
:1014E000214629F0A7FEA346DDE9042306460F4660
:1014F00050462146CDE90AAB29F09EFE02460B4636
:101500000020B7492AF078F98C46834663465A464C
:1015100030463946CDE90CBC2AF044F864100A463E
:101520000146CDE9021244F00054DDE902AB04F5B6
:101530000023591900204FF0000A04460D462246A8
:101540002B4650465946CDE900012AF02BF80246B9
:101550000B463046394629F06DFEDDE90423064688
:101560000F462046294629F065FE02460B46DDE976
:101570000A0129F05FFE52465B462AF013F8024644
:101580000B463046394629F055FEDDE90C232AF09A
:1015900009F8DDE90245CDE9040122462B46204643
:1015A000294629F0FFFF78A3D3E9002304460D461E
:1015B00029F0F8FF76A3D3E9002329F03DFE224667
:1015C0002B4629F0EFFF74A3D3E9002329F034FE62
:1015D00022462B4629F0E6FF71A3D3E9002329F028
:1015E0002BFE22462B4629F0DDFF6FA3D3E9002313
:1015F00029F022FE22462B4629F0D4FF6CA3D3E922
:10160000002329F019FE224606460F462B462046A7
:10161000294629F0C7FF02460B463046394629F0D5
:10162000C1FF524604460D465B46DDE9020129F042
:1016300003FEDDE9042329F0B5FF22462B4629F0FD
:10164000FBFD524604460D465B465046594629F07E
:10165000A9FF644B002206460F4629F0EDFD224605
:101660002B46CDE90A4529F0E7FD0D462B465246AB
:101670005046594629F096FF5A4BCDE90001002209
:101680002946504629F0D6FD32463B4629F0D2FD88
:1016900002460B46DDE90A0129F0CCFDDDE9022313
:1016A00029F080FF2B4606460F465246DDE904012D
:1016B00029F078FF02460B463046394629F0BCFD3A
:1016C00006460F463246DDE900013B4629F0B4FDEF
:1016D00039A3D3E9002350460D4629F063FFDDE925
:1016E0000023CDE900012946504629F0A3FD02461A
:1016F0000B463046394629F09DFD31A3D3E900233E
:1017000029F050FF02460B461446294650461D4616
:101710002DA3D3E9002329F045FF02460B462046BE
:10172000294629F089FDDDE9102329F085FD0646CB
:101730000F980F4629F0CCFE324604460D463B4634
:10174000DDE9000129F078FDDDE9082329F074FDC9
:1017500022462B4629F070FD504622462B46CDE905
:10176000020129F067FDDDE9082329F063FDDDE9C9
:10177000002339E0AFF3008000000000000000000B
:10178000000000000000F03FEF4E454A287ECA3FAF
:1017900065DBC9934A86CD3F01411DA96074D13FE5
:1017A0004D268F515555D53FFFAB6FDBB66DDB3FF7
:1017B000033333333333E33F000000E009C7EE3F28
:1017C000FD033ADC09C7EE3FF5015B14E02F3EBE96
:1017D0000000F07F000040438E98030079B60B00B4
:1017E0000000F03F0000084029F024FD02460B46AF
:1017F0003046394629F01EFDCDE904010023CDE92C
:1018000000890093DDE90067404632463B46494681
:1018100029F010FDDDE902AB52465B4629F0C2FE1D
:10182000424604460D464B46DDE9040129F0BAFE66
:1018300002460B462046294629F0FEFC3246044665
:101840000D463B4650465946CDE9024529F0AAFED1
:1018500006460F46204629463B46324629F0ECFC18
:10186000DB4B994204460D46884640F33F8101F127
:101870003F4303F5E003034340F09782C0A3D3E95D
:101880000023DDE9020129F0D7FC02460B46204681
:10189000294614461D4632463B4629F0CBFC0246FB
:1018A0000B46204629462AF00DF9002840F07D829B
:1018B0004FF400734344C3F30A52C64CA2F2FF3202
:1018C0001441C3F3130AC2F11402002004EA030115
:1018D0004AF4801A4AFA02FA0B460246B8F1000F9F
:1018E00030463946B8BFCAF1000A29F0A3FC0246C7
:1018F0000B4606460F46DDE9020129F09DFC4FEA42
:101900000A5B0D460024A0A3D3E900232046294604
:1019100029F048FE3246804689463B462046294605
:1019200029F088FC02460B46DDE9020129F082FC21
:1019300097A3D3E9002329F035FE02460B46204643
:10194000294614461D4694A3D3E9002329F02AFE14
:1019500002460B462046294629F06EFC06460F46F5
:1019600032463B464046494629F066FC42464B46D5
:1019700004460D4629F05EFC02460B4630463946C9
:1019800029F058FC2246804689462B4620462946A7
:1019900029F008FE82A3D3E9002306460F4629F06A
:1019A00001FE81A3D3E9002329F044FC32463B46E3
:1019B00029F0F8FD7EA3D3E9002329F03DFC32464F
:1019C0003B4629F0EFFD7CA3D3E9002329F032FC4C
:1019D00032463B4629F0E6FD79A3D3E9002329F0FE
:1019E0002BFC32463B4629F0DDFD02460B462046E5
:1019F000294629F01FFC06460F4632463B46204644
:101A0000294629F0CFFD02460B4630463946164698
:101A10001F4600224FF0804329F00CFC02460B4683
:101A20003046394629F0E8FE424606460F464B4608
:101A30002046294629F0B6FD42464B4629F0FCFBDC
:101A400002460B463046394629F0F4FB22462B4627
:101A500029F0F0FB02460B4600205F4929F0EAFB23
:101A60000C465C44B4F5801FC0F29B812146DDE941
:101A7000062329F097FD02460B4619E49FED527BA1
:101A80008DED067B7FE4002B00F0A68102230493FA
:101A9000C4E44FEA2A52A2F2FF32142A40F33781FB
:101AA000C2F1340223FA02F101FA02F29A4200F082
:101AB0009B81002B3AD1B7F1804F00F04F81204637
:101AC000294623F047FB0B460099024600297FF484
:101AD000B1AC414926F04040884200F0CC810299E7
:101AE000002900F0C381002104913EE4DFF8F0C03A
:101AF00021F00043634540F21B81384B0B44034304
:101B00000AD132463B4629F095FBDDE9022329F054
:101B1000CFFF00283FF4CCAEDDE906010022002310
:101B200029F0B2FF003818BF01203CE420462946C6
:101B300023F010FB0B460099024600297FF47AAC93
:101B4000254926F04040884200F07881029900291A
:101B500000F060810099049107E4B7F1804F00F034
:101B6000FD80A2F5801297427FF4F5AB204629460E
:101B700013B0BDE8F04F22F07BBB00BFAFF3008095
:101B8000FE822B654715973C00000000432EE63F80
:101B9000EF39FAFE422EE63F396CA80C615C20BE9C
:101BA000D0A4BE726937663EF16BD2C541BDBB3E63
:101BB0002CDE25AF6A56113F93BDBE166CC1663F41
:101BC0003E5555555555C53F000000000000F0BF7B
:101BD000FFFF8F400000F0FF0000F03F00346F3F38
:101BE000FFCB9040002B7FF45BABFFF7EBBB9FED8F
:101BF000AA7B8DED087B9FEDAA7B8DED047B9DED8F
:101C0000087B00258DED107B66E400203FE4B4499D
:101C100002988842C0F0D380B2490298884200F20C
:101C2000EC80104619460022AE4B29F003FB9EA320
:101C3000D3E9002304460D4629F0B4FC9CA3D3E964
:101C4000002382468B462046294629F0ABFCA64B52
:101C5000CDE9000100222046294629F0A3FC0246D6
:101C60000B4695A1D1E9000129F0E4FA22462B4662
:101C700029F098FC02460B4600209C4929F0DAFA2C
:101C800022462B4606460F462046294629F08AFC66
:101C900002460B463046394629F084FC88A3D3E936
:101CA000002329F07FFC02460B46DDE9000129F004
:101CB000C1FA04460D4622462B465046594629F0A5
:101CC000BBFA002052465B46CDE9020129F0B2FA88
:101CD00002460B462046294629F0ACFACDE904011C
:101CE0008CE5029904917F49002029F085FD024688
:101CF0000B46FFF77DBB002F4FF000024FF00003B3
:101D0000BFF6D6AA424609F10043FFF7D1BA002B2D
:101D10007FF40CAFC2F114024AFA02F101FA02F2A6
:101D200052457DD06F4A92453FF4F7AAFFF70FBBAB
:101D30006E4A934200F28880DDE900239346924682
:101D4000E0E522462B466749002029F055FD024672
:101D50000B46FFF7ADBAB7F1804F3DD122462B4677
:101D60002046294629F01EFC02460B46FFF7A0BA82
:101D70009FED557B8DED087B9FED557B8DED107BA9
:101D80009FED557B4FF480258DED047BFFF7A4BBC1
:101D9000002F7FF707AB002013B0BDE8F04F23F012
:101DA00007BA5246FFF708F961E6DDE906010022AD
:101DB000002329F069FE003818BF0120ECE7DDE9B7
:101DC00006010022002329F05FFE003818BF012021
:101DD000002FBFF6E8AADFE702230493FFF7BCBA9F
:101DE00000220023FFF764BA002BB4D001F00101F8
:101DF000C1F102030493FFF711BBDDE906010022E4
:101E0000002329F041FE003818BF0120002FC3DC59
:101E1000FFF7C9BA002FFFF664AF0491FFF7EBBAE2
:101E2000304B9A453FF479AAB7F1804F96D001F034
:101E30000101C1F102030493FFF78EBA002F0BDBFF
:101E400000990491FFF7D7BA1B15A3F2FE334FF4A4
:101E5000801242FA03F32DE52249002029F0CCFC40
:101E6000009B049302460B46FFF7C5BA002FD4DA55
:101E70000021049137E7002F01DB0021CDE719494C
:101E8000002029F0B9FC0023049302460B46FFF71B
:101E9000B2BA00BFAFF300800000000000000000F5
:101EA000000000000000F03F000000604715F73F11
:101EB00044DF5DF80BAE543E555555555555D53F4D
:101EC000FE822B654715F73F0000004003B8E23F54
:101ED00006D0CF43EBFD4C3E000000000000F83F71
:101EE000FFFFEF3F0000F03F0000D03F0000E03F69
:101EF0002DE9F047D04F21F00042BA4286B00446A7
:101F00000D464FEAD1760DD9CC4FBA426FD9C1F305
:101F100013030343024640F04481002E64D00020A6
:101F2000002161E0C64B9A4200F21281C54B9A42F1
:101F300040F2248122462B462046294629F032FBD6
:101F4000A7A3D3E9002306460F4629F02BFBA6A33F
:101F5000D3E9002329F06EF932463B4629F022FBF3
:101F6000A3A3D3E9002329F067F932463B4629F0C1
:101F700019FBA1A3D3E9002329F05CF932463B46C3
:101F800029F010FB9EA3D3E9002329F055F932462E
:101F90003B4629F007FB02460B462046294629F01E
:101FA00049F9CDE90201DDE90289204642464B4666
:101FB000294629F0F7FA002206460F464FF08043E3
:101FC0004046494629F036F902460B463046394626
:101FD00029F012FC22462B4629F02CF902460B462A
:101FE0000020994929F026F906B0BDE8F08786A3BC
:101FF000D3E9002329F066FD0746002840F0D7808A
:1020000083A3D3E900232046294629F03DFD00287B
:1020100040F0DF808D4B204603EBC60629467EA3A9
:10202000D3E9002329F0BEFAD6E9082329F004F900
:1020300029F068FD824629F04BFA79A3D3E9002301
:1020400006460F4629F0AEFA02460B4620462946C0
:1020500029F0F0F874A3D3E900238046894630467E
:10206000394629F09FFACDE90001DDE90023404619
:10207000494629F0DFF802460B4604460D4629F092
:1020800091FA57A3D3E9002306460F4629F08AFAAE
:1020900055A3D3E9002329F0CDF832463B4629F079
:1020A00081FA53A3D3E9002329F0C6F832463B4610
:1020B00029F078FA50A3D3E9002329F0BBF832467F
:1020C0003B4629F06FFA4EA3D3E9002329F0B4F878
:1020D00032463B4629F066FA02460B462046294620
:1020E00029F0A8F806460F462046294632463B46C8
:1020F000CDE9026729F056FACDE90401BAF1000FE3
:102100003FF451AF32463B4600204FF0804129F06A
:1021100091F802460B46DDE9040129F06DFB024609
:102120000B46DDE9000129F085F842464B4629F0CF
:1021300081F802460B460020434929F07BF86FF4F2
:102140007F72924539DB01EB0A5106B0BDE8F0879A
:102150003F4B9A423FF65EAF3C4C04EBC604D4E9D9
:10216000002329F067F894ED047B86F0010A8DEDD9
:10217000007B80468946AAEB060A76E72CA3D3E9C2
:10218000002329F059F8304B002229F09BFC00284D
:102190003FF4D0AE2C4B00222046294629F04CF8C3
:1021A00022E70B4629F048F806B0BDE8F08700208A
:1021B00006B0BDE8F04722F0FBBF0AF57A7A01EBE2
:1021C0000A5100224FF0B87329F0ECF906B0BDE8CF
:1021D000F087384606B0BDE8F04722F0DFBF00BF09
:1021E000D0A4BE726937663EF16BD2C541BDBB3E1D
:1021F0002CDE25AF6A56113F93BDBE166CC1663FFB
:102200003E5555555555C53FEF39FAFE422E86408D
:1022100051302DD5104987C0FE822B654715F73FF9
:102220000000E0FE422EE63F763C7935EF39EA3D8C
:102230009C7500883CE4377E412E8640FFFFEF7F8F
:10224000422ED63FFFFFEF3D0000F03F3810030065
:10225000B1A2F03F00000000B1F5801F2DE9F84366
:1022600004460D460B4619DA21F00042024353D0D2
:10227000002959DB364B002229F094F9354A0D46E6
:102280002B46934204466FF035010CDD22462B4667
:102290002046294628F0D0FFBDE8F8832D4A934216
:1022A0004FF00001F2DC1815A0F2FF300844C70F10
:1022B00000EBD070C3F3130629F00AF9C7F57F735A
:1022C000033346EA03551CA3D3E90023804689461D
:1022D00029F068F902460B462046294614461D4659
:1022E00000F022FB16A3D3E9002329F05BF9224674
:1022F0002B4628F0A1FF14A3D3E9002304460D4682
:102300004046494629F04EF902460B4620462946EA
:1023100028F092FFBDE8F883002200230E49002038
:1023200029F06AFABDE8F883024628F083FF00220C
:10233000002329F061FAAFE7362BF111F3FE593D86
:102340000EE526157BCBDB3F00609F501344D33F47
:1023500000005043FFFFEF7F000050C3000000006B
:10236000C1F30A5C2DE9F041ACF2FF35132D0246B2
:102370000B460C46064622DC002D42DBDFF8E480EB
:1023800048FA05F801EA080C5CEA000C0F461BD07D
:1023900032A3D3E9002328F04FFF0022002329F0C5
:1023A00091FB40B1002C03DA4FF480132B411F4402
:1023B00027EA0804002621463046BDE8F081332D87
:1023C00006DDB5F5806F2CD010461946BDE8F081CA
:1023D000ACF2134C4FF0FF3727FA0CF73842F3D02A
:1023E0001EA3D3E9002328F027FF0022002329F0B1
:1023F00069FB0028DFD0002C33461CDB23EA0706EC
:10240000D9E716A3D3E9002328F016FF0022002302
:1024100029F058FB0028CED0002C05DB00263446DE
:10242000C9E728F009FFD1E724F0004426430DD185
:102430004FF00044BFE7142D06D0C5F1340501224A
:10244000AA4013449E42D9D90134D7E7024C002652
:10245000B1E700BFAFF300800000F0BF9C750088BB
:102460003CE4377EFFFF0F002DE9F84F99465342B9
:102470005F4F134329F0004E4EEAD373BB429046A0
:1024800004460D463DD84642064321F0004A4AEA3A
:10249000D676BE4203468B4633D809F1404606F550
:1024A000801616433DD04FEAA97606F0020653EA9D
:1024B0000A0346EAD1762CD052EA0E0235D0BE4548
:1024C00046D0BA4531D0AAEB0E0ABAF1747F4FEA72
:1024D0002A5339DAB9F1000F46DA3C3344DA0020E6
:1024E0000021012E58D0022E49D086B134A3D3E961
:1024F000002328F09FFE34A3D3E9002328F09AFE9E
:1025000005E022462B464046494628F095FEBDE8A8
:10251000F88F022E10D0032EF9D12DA1D1E90001A0
:10252000F5E7BDE8F84F00F067B8BBF1000F07DB37
:1025300029A1D1E90001EAE723A1D1E90001E6E7F9
:1025400027A1D1E90001E2E723A1D1E90001C8E711
:10255000F24506F1FF3623D0022E29D8254B03EB96
:10256000C603D3E90601D2E742464B462046294638
:1025700029F042F922F0EEFD00F03EF8B1E710A399
:10258000D3E9002328F056FE02460B460EA1D1E9FE
:10259000000128F04FFEBAE701F100431946B6E703
:1025A000022E08D8134B03EBC603D3E90001AEE7B4
:1025B00000200021ABE70CA1D1E90001A7E700BF93
:1025C000075C143326A6A13C182D4454FB21094076
:1025D000182D4454FB2109C0182D4454FB21F93F08
:1025E000182D4454FB21F9BF182D4454FB21E93F19
:1025F0000000F07F801003002DE9F84FC04B21F060
:1026000000469E4204460D468A460ED9BD4B9E4268
:1026100000F2AE8000F0A980BAF1000F40F3E8802C
:102620009BA1D1E90001BDE8F88FB74B9E4200F2B3
:10263000B680A3F1DE739E4240F2A2804FF0FF3BD2
:1026400022462B462046294628F0ACFF02460B4680
:102650008046894628F0A6FF8FA3D3E900230646CB
:102660000F4628F09FFF8EA3D3E9002328F0E4FD56
:1026700032463B4628F096FF8BA3D3E9002328F08F
:10268000DBFD32463B4628F08DFF89A3D3E90023CA
:1026900028F0D2FD32463B4628F084FF86A3D3E9DA
:1026A000002328F0C9FD32463B4628F07BFF84A377
:1026B000D3E9002328F0C0FD42464B4628F072FFC4
:1026C00081A3D3E90023804689463046394628F065
:1026D00069FF7FA3D3E9002328F0ACFD32463B46D7
:1026E00028F060FF7CA3D3E9002328F0A3FD324645
:1026F0003B4628F057FF7AA3D3E9002328F09AFD40
:1027000032463B4628F04EFF77A3D3E9002328F05A
:1027100091FD32463B4628F045FF02460B464046B7
:10272000494628F089FD22462B4628F03BFFBBF1A5
:10273000FF3F02460B4660D0744E06EBCB06D6E94F
:10274000082328F077FD22462B4628F073FD024629
:102750000B46D6E9000128F06DFDBAF1000F0DDA45
:1027600001F100431946BDE8F88F00283FF454AF4B
:1027700022462B462046294628F05EFDBDE8F88F0C
:102780005BA3D3E9002328F057FD614B002229F019
:1027900099F900283FF452AF20462946EEE722F08F
:1027A000D9FC5C4B9E4204460D462CD8A3F5502321
:1027B0009E4253D802460B4628F03EFD544B002261
:1027C00028F038FD02460B462046294614461D4691
:1027D00000224FF0804328F02FFD02460B46204692
:1027E000294629F009F84FF0000B04460D4627E76B
:1027F00041A1D1E90001BDE8F88F2046294628F023
:1028000019FDBDE8F88F444B9E421CD2434B002279
:1028100028F010FD02460B462046294614461D4668
:1028200000223E4B28F0BEFE394B002228F004FD6A
:1028300002460B462046294628F0DEFF4FF0020BE9
:1028400004460D46FCE622462B463549002028F07A
:10285000D3FF4FF0030B04460D46F1E62C4B00224C
:1028600028F0E8FC02460B462046294614461D4641
:102870000022274B28F0E0FC02460B462046294662
:1028800028F0BAFF4FF0010B04460D46D8E600BF12
:10289000182D4454FB21F93F11DA22E33AAD903F61
:1028A000EB0D76244B7BA93F513DD0A0660DB13F87
:1028B0006E204CC5CD45B73FFF8300922449C23FEF
:1028C0000D5555555555D53F2F6C6A2C44B4A2BFB4
:1028D0009AFDDE522DDEAD3F6D9A74AFF2B0B33F7C
:1028E000711623FEC671BC3FC4EB98999999C93FF4
:1028F0009C7500883CE4377E182D4454FB21F9BFB9
:10290000FFFF0F440000F07FFFFFDB3FC01003001C
:102910000000F03FFFFFF23F008003400000F83F5F
:102920000000F0BF000000002DE9F04FB1F5801F5E
:1029300087B002460B460D4680F2838021F00044AA
:10294000044300F020810029C0F26081D64B0022B0
:1029500028F028FE0D460B46D4498D426FF035060F
:10296000024673DC2C15C5F3130505F51521A4F2F9
:10297000FF3401F6647101F48011344404EB115406
:1029800081F07F5181F4401141EA05031046194658
:102990000022C74B28F04EFCAB1CC3F31303022BE1
:1029A00082468B464FF0000257DC002329F062F884
:1029B000002840F0F180A8A3D3E9002350465946EF
:1029C00028F0F0FD02460B460020BA4928F032FC00
:1029D000524606460F465B465046594628F0E2FDF1
:1029E00002460B463046394628F0DCFD06460F46C7
:1029F000002C00F00281204628F06AFD98A3D3E95C
:102A000000238046894628F0CDFD97A3D3E9002313
:102A100004460D464046494628F0C4FD02460B4692
:102A20003046394628F006FC52465B4628F002FC48
:102A300002460B462046294628F0FCFB07B0BDE8BD
:102A4000F08F9A498D424FF000068BDD10461946F3
:102A500028F0F2FB07B0BDE8F08F4FF0804328F07C
:102A6000EBFB02460B465046594628F0C5FE06468B
:102A700020460F4628F02CFD3246CDE904013B46A6
:102A800030463946CDE9026728F08CFD02460B46F8
:102A9000CDE9002328F086FD75A3D3E9002306467F
:102AA0000F4628F07FFD74A3D3E9002328F0C4FB70
:102AB00032463B4628F076FD71A3D3E9002328F087
:102AC000BBFB32463B4628F06DFD6FA3D3E90023E4
:102AD00028F0B2FBDDE9002328F064FD6CA3D3E904
:102AE0000023CDE900013046394628F05BFD6AA39A
:102AF000D3E9002328F0A0FB32463B4628F052FDE4
:102B000067A3D3E9002328F097FB32463B4628F021
:102B100049FDA5F5C22802460B46C5F5D725DDE9D6
:102B2000000128F089FBA8F27A48513545EA0805EA
:102B3000002D06460F464BDD5E4B0022504659469F
:102B400028F030FD52465B4628F02CFD8046894631
:102B50003046394642464B4628F06EFBDDE90223FB
:102B600028F020FD06460F46002C56D102460B46A3
:102B70004046494628F05EFB02460B465046594601
:102B800028F058FB66E7002200234B49002028F07C
:102B900033FE07B0BDE8F08F002C57D0204628F058
:102BA00097FC2FA3D3E9002306460F4628F0FAFC32
:102BB0002DA3D3E9002304460D463046394628F0BC
:102BC000F1FC02460B462046294628F035FB41E73A
:102BD00002460B465046594628F02CFBDDE90223FD
:102BE00028F0E0FC06460F463CB1DDE904891CA351
:102BF000D3E900234046494605E732463B46504666
:102C0000594628F017FB07B0BDE8F08F28F012FBFB
:102C10000022002328F0F0FD1CE711A3D3E90023D4
:102C2000DDE9040128F0BEFC0FA3D3E9002304462C
:102C30000D46DDE9040128F0B5FC32463B4628F09C
:102C4000FBFA02460B4640464946EBE600200021CF
:102C500000E700BFAFF30080555555555555D53F9A
:102C60000000E0FE422EE63F763C7935EF39EA3D42
:102C700044523EDF12F1C23FDE03CB966446C73FAB
:102C8000599322942449D23F935555555555E53FC4
:102C90009FC678D0099AC33FAF788E1DC571CC3FCF
:102CA00004FA97999999D93F00005043FFFFEF7FAD
:102CB0000000F03F0000E03F000050C300000000B3
:102CC0002DE9F04F21F00048B8F1795F85B09246C8
:102CD0009B4606460F466DD228F014FF002800F0F0
:102CE000EE8032463B463046394628F05BFC76A300
:102CF000D3E9002304460D4628F054FC74A3D3E91D
:102D0000002328F099FA22462B4628F04BFC72A3A8
:102D1000D3E9002328F08EFA22462B4628F042FC05
:102D20006FA3D3E9002328F087FA22462B4628F028
:102D300039FC6DA3D3E9002328F07CFA22462B4608
:102D400028F030FC6AA3D3E9002328F075FA224664
:102D50002B4628F027FCCDE90001694B00222046D4
:102D6000294628F01FFCDDE90023804689462046DD
:102D7000294628F017FC44464D468046894652466F
:102D80005B463046394628F00DFC02460B4640466D
:102D9000494628F04FFA02460B462046294628F0BD
:102DA00049FA02460B460020564928F043FA05B07E
:102DB000BDE8F08F02460B4628F0F4FB42A3D3E9AE
:102DC000002304460D4628F0EDFB41A3D3E9002380
:102DD00028F032FA22462B4628F0E4FB3EA3D3E942
:102DE000002328F027FA22462B4628F0DBFB3CA3E1
:102DF000D3E9002328F020FA22462B4628F0D2FB04
:102E000039A3D3E9002328F015FA22462B4628F0EF
:102E1000C9FB37A3D3E9002328F00EFA2B4622463C
:102E200028F0C0FB384B9845CDE9000195D9374BC8
:102E300098453BD8A8F5001300223249002090465F
:102E4000994628F0F7F9CDE902012D4B00222046E2
:102E5000294628F0A7FB42464B4628F0EBF9DDE96E
:102E60000023804689462046294628F09BFB44469D
:102E70004D468046894652465B463046394628F0E4
:102E800091FB02460B464046494628F0D3F90246DC
:102E90000B462046294628F0CDF902460B46DDE9CF
:102EA000020128F0C7F905B0BDE8F08F9FED127B55
:102EB000DFF85C908DED027B4FF00008C5E711490B
:102EC000002005B0BDE8F08FD43888BEE9FAA8BD6F
:102ED000C4B1B4BD9EEE213EAD529C804F7E923E69
:102EE0009015CB19A001FA3E7751C1166CC1563F1F
:102EF0004C5555555555A53F000000000000E73FD3
:102F00000000E03F0000F03F3233D33F0000E93FD4
:102F10000000D23F000000002DE9F04FBE4B21F031
:102F2000004A9A4583B004460D4612D90AF1404A38
:102F30000AF5801A5AEA000A00F0FD8002460B46A4
:102F400028F078F902460B4628F056FC03B0BDE89D
:102F5000F08FB24B9A458B460FD8BAF1795F80F06B
:102F6000658191A3D3E9002328F066F9AC4B0022D8
:102F700028F0A8FD002840F012812046294622F0C2
:102F8000E9F802460B460020A54928F053F9A54B65
:102F9000002228F007FB86A3D3E9002304460D4650
:102FA00028F000FB84A3D3E9002328F045F922464A
:102FB0002B4628F0F7FA82A3D3E9002328F03AF948
:102FC00022462B4628F0EEFA7FA3D3E9002328F00F
:102FD00033F922462B4628F0E5FA7DA3D3E90023F6
:102FE00028F028F922462B4628F0DCFA7AA3D3E908
:102FF000002328F021F922462B4628F0D3FA78A3A3
:10300000D3E90023CDE900012046294628F0CAFA79
:1030100075A3D3E9002328F00DF922462B4628F0AA
:10302000C1FA73A3D3E9002328F006F922462B4600
:1030300028F0B8FA70A3D3E9002328F0FBF8224661
:103040002B4628F0AFFA764B002228F0F5F806461A
:103050000F462046294621F00BF93B46804689461B
:103060003246DDE9000128F0C7FB6F4B9A45CDE9F8
:10307000000146464F4677D832464B4630464946D1
:1030800028F0DAF8DDE9002328F08CFA4FF0000888
:10309000CDE9000142464B464046494628F082FAB7
:1030A00002460B462046294628F0C4F8424604460C
:1030B0000D464B463046494628F0BEF802460B46C0
:1030C0002046294628F098FB02460B4628F0B4F823
:1030D00002460B464AA1D1E9000128F0ABF80246AE
:1030E0000B46DDE9000128F0A5F8424604460D46EE
:1030F0004B464046394628F09FF802460B4642A10F
:10310000D1E9000128F096F802460B4620462946F0
:1031100028F090F802460B463BA1D1E9000128F0C7
:1031200089F8BBF1000F3FF711AF01F100431946D9
:1031300003B0BDE8F08F36A3D3E9002328F032FABC
:1031400002460B462046294614461D462CA3D3E9C9
:10315000002328F027FA02460B462046294628F08D
:103160006BF803B0BDE8F08F02460B464046494677
:1031700028F018FA42464B4628F05EF802460B4605
:1031800028F05AF81EA3D3E9002328F053F802468A
:103190000B461FA1D1E9000128F04CF8C1E72046F9
:1031A0002946D3E6AFF300809C7500883CE4377E67
:1031B00009F7FD0DE13D023F88B20175E0EF493F9F
:1031C0003B8F68B52882A43F5544880E55C1C93F3E
:1031D0007D6FEB0312D6D43F555555555555C53F18
:1031E00082922EB1C5B8B33F59018D1B6C06E63FE4
:1031F000C88A599CE52A00404B2D8A1C273A034077
:10320000075C143326A6913C182D4454FB21E93F5A
:10321000182D4454FB21F93FFFFFEF3FFFFFDF3F35
:103220000000F03F0000E03F3233EF3F02460B4624
:1032300028F0B8F937A3D3E9002306460F4628F053
:10324000B1F936A3D3E9002327F0F6FF32463B4617
:1032500028F0A8F933A3D3E9002327F0EBFF324687
:103260003B4628F09FF931A3D3E9002327F0E4FF80
:1032700032463B4628F096F92EA3D3E9002327F0E7
:10328000D9FF32463B4628F08DF92CA3D3E9002321
:1032900027F0D2FF32463B4628F084F929A3D3E930
:1032A0000023804689463046394628F07BF927A31B
:1032B000D3E9002327F0BEFF32463B4628F072F9DF
:1032C00024A3D3E9002327F0B7FF32463B4628F07A
:1032D00069F922A3D3E9002327F0ACFF32463B462D
:1032E00028F060F90A4B002227F0A6FF02460B46A1
:1032F0004046494628F080FA22462B4628F052F9EB
:1033000022462B4627F098FF03B0BDE8F08F00BFA0
:103310000000F03F09F7FD0DE13D023F88B2017565
:10332000E0EF493F3B8F68B52882A43F5544880EA3
:1033300055C1C93F7D6FEB0312D6D43F5555555546
:103340005555C53F82922EB1C5B8B33F59018D1B6B
:103350006C06E63FC88A599CE52A00404B2D8A1C22
:10336000273A0340000000002DE9F84FC44E21F039
:103370000043B34204460D460DD903F1404303F523
:103380008013034340F0B980002940F3C08000203F
:103390000021BDE8F88FBB4EB34208D8BA4A934229
:1033A00000F2BA809CA1D1E90001BDE8F88F0029A4
:1033B000C0F2708122462B46B449002027F03AFF24
:1033C000B34B002228F0EEF804460D4620F050FFE3
:1033D00093A3D3E90023894680462946204628F056
:1033E000E1F891A3D3E9002327F026FF22462B46DC
:1033F00028F0D8F88EA3D3E9002327F01BFF22463C
:103400002B4628F0CFF88CA3D3E9002327F014FF34
:1034100022462B4628F0C6F889A3D3E9002327F0DB
:1034200009FF22462B4628F0BDF887A3D3E90023E5
:1034300027F002FF22462B4628F0B4F884A3D3E9F4
:10344000002382468B462046294628F0ABF882A30B
:10345000D3E9002327F0EEFE22462B4628F0A2F8FF
:103460007FA3D3E9002327F0E7FE22462B4628F06E
:1034700099F87DA3D3E9002327F0DCFE22462B46F2
:1034800028F090F8814B002227F0D6FE02460B462A
:103490005046594628F0B0F942464B4628F082F88B
:1034A000002682468B4632464B463046494628F037
:1034B00079F802460B462046294627F0BBFE3246E5
:1034C00004460D464B464046494627F0B5FE0246A7
:1034D0000B462046294628F08FF902460B465046F7
:1034E000594627F0A9FE32464B4627F0A5FE024674
:1034F0000B4627F0A1FEBDE8F88F02460B4627F0E9
:1035000099FE02460B4628F077F9BDE8F88F58A1DE
:10351000D1E90001BDE8F88F02460B4628F042F8D9
:103520003FA3D3E9002306460F4628F03BF83EA30D
:10353000D3E9002327F080FE32463B4628F032F8DC
:103540003BA3D3E9002327F075FE32463B4628F023
:1035500029F839A3D3E9002327F06EFE32463B4613
:1035600028F020F836A3D3E9002327F063FE324683
:103570003B4628F017F834A3D3E9002327F05CFE7C
:1035800032463B4628F00EF831A3D3E900238046AB
:1035900089463046394628F005F82FA3D3E90023A1
:1035A00027F048FE32463B4627F0FCFF2CA3D3E928
:1035B000002327F041FE32463B4627F0F3FF2AA3C3
:1035C000D3E9002327F036FE32463B4627F0EAFFD8
:1035D0002E4B002227F030FE02460B46404649465D
:1035E00028F00AF922462B4627F0DCFF02460B465C
:1035F00021A1D1E9000127F01DFE02460B4620461D
:10360000294627F017FE02460B4603A1D1E9000127
:1036100027F010FEBDE8F88F182D4454FB21F93F28
:1036200009F7FD0DE13D023F88B20175E0EF493F2A
:103630003B8F68B52882A43F5544880E55C1C93FC9
:103640007D6FEB0312D6D43F555555555555C53FA3
:1036500082922EB1C5B8B33F59018D1B6C06E63F6F
:10366000C88A599CE52A00404B2D8A1C273A034002
:10367000182D4454FB210940075C143326A6913CC5
:10368000FFFFEF3FFFFFDF3F0000603C0000F03F27
:103690000000E03F5E4B002227F0CEFD5D4B002294
:1036A00027F080FF42A3D3E9002304460D4627F00C
:1036B00079FF41A3D3E9002327F0BEFD22462B4624
:1036C00027F070FF3EA3D3E9002327F0B3FD224685
:1036D0002B4627F067FF3CA3D3E9002327F0ACFD7E
:1036E00022462B4627F05EFF39A3D3E9002327F0BB
:1036F000A1FD22462B4627F055FF37A3D3E900232F
:1037000027F09AFD22462B4627F04CFF34A3D3E93D
:10371000002306460F462046294627F043FF32A3E2
:10372000D3E9002327F086FD22462B4627F03AFFF7
:103730002FA3D3E9002327F07FFD22462B4627F055
:1037400031FF2DA3D3E9002327F074FD22462B4639
:1037500027F028FF2E4B002227F06EFD8046894679
:103760002046294620F084FD424604460D464B463D
:103770003046394628F040F822462B4627F012FF03
:103780001FA3D3E9002327F055FD22462B4627F03F
:1037900053FD02460B4627F04FFD02460B461AA189
:1037A000D1E9000127F046FDBDE8F88FAFF30080B6
:1037B00009F7FD0DE13D023F88B20175E0EF493F99
:1037C0003B8F68B52882A43F5544880E55C1C93F38
:1037D0007D6FEB0312D6D43F555555555555C53F12
:1037E00082922EB1C5B8B33F59018D1B6C06E63FDE
:1037F000C88A599CE52A00404B2D8A1C273A034071
:10380000075C143326A6913C182D4454FB21094033
:103810000000F03F0000E03F2DE9F04F9B46D64B03
:1038200021F000479F4287B09246804689460E4667
:1038300051D828F067F90446002871D1109B424600
:10384000013313433B4300F0E581109B012B00F053
:10385000EE8152465B464046494627F0EDFC0B465A
:103860000246C64900201F4627F0C6FF42464B4687
:10387000804689462046394627F0DCFC02460B4646
:103880005046594627F0D6FC22464B4627F08AFE82
:1038900002460B4616462046224639461F464B46F0
:1038A00027F080FEB64B002227F0C6FC02460B46EE
:1038B0003046394627F0C0FC42464B4627F072FEA0
:1038C00022464B4627F0B8FC04460D4620462946C2
:1038D00007B0BDE8F08FAB4B9F4221D9002905DA34
:1038E00001F1004399460BF100439B4642464B468B
:1038F00083A1D1E9000127F09DFC52465B460446B6
:103900000D4681A1D1E9000127F094FC22462B4607
:1039100027F092FC4FF0000A804689464FF0000BDA
:1039200042464B464046494627F03CFE02460B467F
:10393000CDE9002327F036FEDDE9002304460D46DD
:103940004046494627F02EFE71A3D3E90023CDE976
:1039500002012046294627F025FE6FA3D3E9002364
:1039600027F06AFC22462B4627F01CFE6CA3D3E905
:10397000002327F061FC22462B4627F013FE6AA3A2
:10398000D3E9002327F058FC22462B4627F00AFEF5
:1039900067A3D3E9002327F04FFC22462B4627F0EC
:1039A00001FE65A3D3E9002327F046FCDDE90023EF
:1039B00027F0F8FD62A3D3E90023CDE904012046F6
:1039C000294627F0EFFD60A3D3E9002327F034FC5C
:1039D00022462B4627F0E6FD5DA3D3E9002327F01E
:1039E0002BFC22462B4627F0DDFD5BA3D3E9002309
:1039F00027F022FC22462B4627F0D4FD58A3D3E91A
:103A0000002327F019FC22462B4627F0CBFD56A3B6
:103A1000D3E9002327F010FC02460B46DDE9040140
:103A200027F00AFCDDE9022327F0BCFD52465B4685
:103A300027F002FCDDE9002327F0B4FD52465B4687
:103A400027F0FAFB4AA3D3E9002304460D46DDE93B
:103A5000020127F0A7FD22462B4627F0EDFB824608
:103A60008B465B4640464946524627F0E5FB454BB0
:103A70009F4204460D4600F28780109B012B37D0F1
:103A8000002602460B460F4600203C49CDE9006760
:103A900027F0B2FE42460D4604464B46DDE90001E2
:103AA00027F0C8FB02460B465046594627F0C2FB9A
:103AB0002B46324627F076FD2B4680468946324615
:103AC000DDE9000127F06EFD2D4B002227F0B4FB4D
:103AD00002460B464046494627F0AEFB22462B469F
:103AE00027F060FD2B46324627F0A6FB04460D4624
:103AF0002046294607B0BDE8F08F00BFAFF3008035
:103B0000182D4454FB21E93F075C143326A6813C61
:103B1000D47ABF74702AFB3EE9A7F0320FB8123F87
:103B200068108D1AF726303F1583E0FEC8DB573F3B
:103B300093846EE9E326823FFE41B31BBAA1AB3FFB
:103B4000735360DBCB75F3BEA69237A0887E143F1B
:103B50000165F2F2D844433F280356C9226D6D3FF8
:103B600037D60684F464963F7AFE10111111C13FD6
:103B7000635555555555D53FFFFF2F3E0000F0BF0B
:103B80000000F03F2794E53F109827F0A1FC224663
:103B9000CDE900012B462046294627F003FD0246C9
:103BA0000B462046294614461D46DDE9002327F032
:103BB00043FB02460B462046294627F01DFE52468F
:103BC0005B4627F037FB02460B464046494627F046
:103BD00031FB02460B4627F02FFB02460B46DDE980
:103BE000000127F027FB4FEAA67808F002080446F8
:103BF000C8F101000D4627F06BFC02460B4620463B
:103C0000294627F0CFFC04460D462046294607B03A
:103C1000BDE8F08F4046494621F09CFA02460B462B
:103C20000020044927F0E8FD04460D4660E74446BD
:103C30004D465DE70000F03F2DE9D04FD04E21F01A
:103C40000043B34284B082468B4601F0004411D950
:103C5000CC4EB34240F2C980CB4EB34240F2BD805D
:103C6000C1F31302024300F0D48102460B4627F051
:103C7000E3FAE4E0C54A934200F2E480C44A934286
:103C800040F245810024C34B00225046594627F09C
:103C900089FC06460F4632463B465046594627F0B9
:103CA00081FC9FA3D3E900238046894627F07AFC54
:103CB0009DA3D3E9002327F0BFFA42464B4627F0E5
:103CC00071FC9BA3D3E9002327F0B4FA42464B468C
:103CD00027F068FC98A3D3E9002327F0ADFA424609
:103CE0004B4627F05FFC96A3D3E9002327F0A2FA06
:103CF00042464B4627F056FCA74B002227F09CFA81
:103D000002460B4630463946CDE9002327F04AFCEF
:103D100002460B460020A14927F08CFA06460F46C2
:103D200032463B46DDE9000127F084FA32463B4645
:103D300006460F465046594627F034FC02460B46CD
:103D40000020974927F076FA02460B46304639465E
:103D500027F052FD42464B4627F024FC02460B4614
:103D6000002C5ED0DDE9026732463B4627F062FA5E
:103D700052465B4627F016FC32463B4627F05AFA7D
:103D80004B46424627F056FA631C06460F4600F0A3
:103D90003181012C00F00A81631C392B4FEA045653
:103DA00000F2A480132C00F3458152465B464FF489
:103DB000001727F03FFA47FA04F4C4F17F594FF097
:103DC000000809F5401902460B464046494627F0CF
:103DD00031FA711804B0BDE8D08F5BA3D3E900239A
:103DE00027F070FE002840F04681002C53D058A3E5
:103DF000D3E900235046594627F01EFA002200233B
:103E000027F042FE002840F0078153A3D3E90023A6
:103E10005046594627F0C6FB02460B460020614932
:103E200044E05046594627F0BDFB42464B4627F03A
:103E300001FA02460B465046594627F0FBF904B0FA
:103E4000BDE8D08F584A934200F2E98044A3D3E9F9
:103E50000023002C00F0C48027F0EEF90FF20819BF
:103E6000D9E9008906460F464FF0FF3442464B46DB
:103E70003046394627F0DEF982468B4652465B468D
:103E80003046394627F0D6F942464B4627F0D2F95C
:103E9000CDE90201F7E630A3D3E9002350465946A5
:103EA00027F080FB0B463B490246002027F0C4F96F
:103EB00027F028FE044627F00BFB29A3D3E90023B3
:103EC0008046894627F06EFB02460B46504659460F
:103ED00027F0B0F926A3D3E9002306460F46404653
:103EE000494627F05FFB80468946BFE752465B465E
:103EF00027F0A0F902460B460020274927F09AF93F
:103F0000731819460022244B27F094F997E71AA357
:103F1000D3E9002327F090F902460B4687E700BF5C
:103F20002DC3096EB7FD8ABE3952E686CACFD03E90
:103F3000B7DBAA9E19CE143F8555FE19A0015A3F42
:103F4000F41011111111A13FEF39FAFE422E8640F3
:103F500059F3F8C21F6EA501FE822B654715F73F86
:103F60000000E0FE422EE63F763C7935EF39EABDAF
:103F7000763C7935EF39EA3D9C7500883CE4377E24
:103F800079684340412E8640FFFFEF7F422ED63FA7
:103F9000FFFF8F3C0000E03F0000F03F00000840C2
:103FA000000018400000E0BFB1A2F03F3A4B0022F1
:103FB0005046594627F068FD00284DD0374B5046F3
:103FC0005946002227F038F902460B46304639465A
:103FD00027F030F900224FF0404327F0E3FA2EE7B4
:103FE00027F028F90FF2A009D9E9008906460F4603
:103FF00001243BE702460B465046594627F01AF982
:10400000264B002227F0CEFA244B002227F012F98B
:1040100015E7002C3FF413AF214900200FE71CA344
:10402000D3E9002327F0BEFA02460B46002044B332
:104030001C493BE7C4F57F7403342305002227F0B5
:10404000FBF802460B465046594627F0F3F8164B4C
:10405000002227F0F1F8BCE632463B46504659466E
:1040600027F0E8F802460B4627F0E6F80E4B002250
:1040700027F0E2F8E3E6002004B0BDE8D04F21F0DD
:1040800097B8064912E700BF763C7935EF39EA3D2B
:10409000FE822B654715F73F0000D0BF0000E03FD0
:1040A0000000F0BF0000E0BF0000F03F0000000093
:1040B000594A2DE9F84321F00046964204460D4640
:1040C0005CD8564B0029ACBFDFF86891DFF86C91E3
:1040D0009E424FF0000812D9514B9E4240F28E8012
:1040E000504B9E4256D901339E4250D048A3D3E94B
:1040F00000232046294627F055FABDE8F8834A4BAD
:104100009E425ED842A3D3E9002327F095F8474B9F
:10411000002227F0D7FCB8BB2046294621F01AF828
:10412000FFF78AFD04460D4622462B4620462946C7
:1041300027F082F8224606460F462B46204629469F
:1041400027F030FA02460B462046294614461D4603
:104150000022364B27F070F802460B4620462946CF
:1041600027F04AFB02460B463046394627F062F8F4
:1041700042464B4627F016FABDE8F88302460B4646
:1041800027F05AF8BDE8F88320462946FAE7284B7D
:104190009842ABD82046294620F0DCFF254B002270
:1041A00027F000FAFDF7A4FE04460D4622462B46F2
:1041B0004046494627F0F6F922462B4627F0F2F909
:1041C000E0E720F0C7FFFFF737FD184B0022044659
:1041D0000D4627F031F80B4617498E420246A3D907
:1041E0002046294627F008FB22462B4627F024F8D4
:1041F00042464B4627F0D6F9BDE8F88320F0AAFFE7
:10420000FDF776FE42464B4627F0CCF9BAE700BFF1
:104210003374AC3C1F7BAC7FFFFFEF7FFFFF35406B
:10422000412E8640CD338640FFFF2F3E0000F03FF9
:104230007DF8B98F0000E03FFFFFEF3F0000E0BFD7
:1042400038B5124B1D682A6B04461AB10023C2E927
:10425000044338BD18200DF0BFFD0246286378B135
:1042600001200021C2E90401094B0A480A49916072
:10427000C2E900030B2393810023C2E9044338BD44
:10428000064B0748462122F0C9FC00BF90000020E1
:1042900034126DE60E33CDABECDE0500702A030060
:1042A000882A03001C4B10B51C68226B8AB1136965
:1042B0001A4954691A4803FB01F100FB0411A3FBDE
:1042C0000030013341EB0001C2E9043121F000402C
:1042D00010BD18200DF080FD0246206388B1114CFE
:1042E000114B0E48114991609FED097BC2E90043D3
:1042F0000B2393810E4B014682ED047BC2E904310E
:1043000010BD0C4B0C48522122F088FCAFF300800A
:104310000100000000000000900000202DF4515822
:104320002D7F954C0E33CDAB34126DE6ECDE0500DF
:104330002E7F954C702A0300882A0300000000009D
:104340002DE9F04F9FB00F46002107921A910022ED
:104350000021CDE9041283463A461992904612F89C
:1043600001ABBAF12D0F5FD801A151F82AF000BFBF
:10437000B9450000294400002944000029440000F8
:104380002944000029440000294400002944000079
:10439000294400005B4300005B4300005B430000D6
:1043A0005B4300005B4300002944000029440000F7
:1043B0002944000029440000294400002944000049
:1043C0002944000029440000294400002944000039
:1043D0002944000029440000294400002944000029
:1043E0002944000029440000294400002944000019
:1043F0005B430000294400002944000029440000D8
:1044000029440000294400002944000029440000F8
:104410002944000029440000294400007548000098
:10442000294400008F48000000220892BAF1300FA2
:1044300000F0858000230993BAF12F0F564640F211
:1044400012854FF0000940464D464C4618E0082CB6
:10445000C8BF09EB890900F10100C8BF0AEB490A8E
:104460001990C8BFAAF1300990F800A0D8BFA3F1F5
:104470003005BAF12F0F04F10104564640F3A8802D
:1044800005EB8503BAF1390F0AEB4303DFDDAC49D5
:10449000012224F0BDFD002868D11998431C19930E
:1044A000417818460A46002C40F0EB80302A08BFBD
:1044B000034640F0D7851946013319931A78302AFC
:1044C000F9D0C0F101000144A2F13100082800F246
:1044D000C68101310F910021303A98460A9101249A
:1044E00005EB850502EB450500210133199318788A
:1044F000A0F13002092A01F1010600F27E84002AAF
:1045000000F08C870F98012E30440F9000F08487C4
:1045100004F1010C604606E075000130061B013E07
:10452000B14240F38F84461E082E05EB8506F3DD6D
:104530001028DCBF09EB89094FEA4909EDE798F833
:10454000012002F0DF02582A18BF434600F012840F
:104550000133199393F800A0BAF1300FF8D09846C0
:10456000BAF1000F0ED00123099365E7BAF1650F88
:104570001AD0BAF1450F17D0002C2FD1099B002B70
:1045800000F0BC804FF000084FF00009079A0AB114
:10459000199B1360089BB3B109F10043994640464B
:1045A00049461FB0BDE8F08F002C78D10A940F94D3
:1045B000099B002B40F0E2824FF000084FF0000909
:1045C000079B03B11F60404649461FB0BDE8F08F0E
:1045D0005B49012224F01CFD00284ED0284626F01D
:1045E00067FF092CCDE9040140F3CD820023102C94
:1045F000A2460E93A8BF4FF0100A0A9412930F938D
:10460000504B03EBCA0353E9122326F0CBFF0646B7
:1046100048460F4626F04CFF02460B4630463946C8
:1046200026F00AFE0F2CCDE9040100F3AC800E9BAE
:10463000002B00F0A8820E9B40F38E82162B40F3D5
:1046400065840E9AC4F125039342C0F29C803D4DCF
:10465000C4F10F0405EBC401DDE90423D1E9000135
:1046600026F0A0FF0E9B1C1B05EBC405D5E900231B
:1046700026F098FF8046894688E7199A531C1993BB
:104680005178A1F13000092800F2DE8002460028AE
:1046900000F0BD8601210A94A4460F91D4E30021C5
:1046A000199B0A940F918C465A1C19925E782B2EF6
:1046B00000F0C7802D2E00F0BE804FF0000AA6F15A
:1046C0003007092F37D8302E199A40F0E580013293
:1046D00019921678302EFAD0A6F13100082840F24F
:1046E000D98000221292002C34D1099A0A437FF417
:1046F00049AFBCF1000F40F03F841F46692E00F027
:10470000188400F31184492E00F013844E2E7FF498
:1047100053AF0D4919A824F051FE00283FF44CAFC7
:10472000199B1B78282B00F06D85084820F0E8FEC7
:10473000804689462AE7002219931292D3E700BFE8
:10474000F42A030060110300042B0300542A030021
:10475000002312930A9A1346002A08BF23460A939D
:104760000F9A129B102CA3EB020328460E93A2462D
:10477000A8BF4FF0100A26F09BFE092CCDE90401DA
:104780003FF73EAF53E70E9BA4EB0A0A9A44BAF1F7
:10479000000F40F3A9802AF00F071AF00F0A40F02B
:1047A0004283B7F59A7F00F3DC83102FDFF880A1F6
:1047B0004FEA271600F04C85DDE904234FF0000C8A
:1047C0005746E14616F0010F1046194607D0D7E9C3
:1047D000002326F0E7FE4FF0010C02460B46761050
:1047E000012E09F1010907F10807EBD1BCF1000F17
:1047F00001D0CDE90423059BA3F1547305930AEB83
:10480000C90ADDE90423DAE9000126F0CBFE454BB5
:10481000CDE904010B400A4643498B4200F2A183D3
:10482000A1F580118B4240F2AF84404B4FF0FF3234
:10483000CDE904235AE04FF0010A9A1C19929E78A0
:104840003DE74FF0000AF8E701F0DF0145297FF46A
:10485000C5AE00210A940F914FF0010C24E702F03D
:10486000DF02452A7FF48EAE00240A940F944FF0A5
:10487000010C19E70022089208F10102199298F838
:1048800001A0BAF1000F3FF497AE9046CEE50122A9
:104890000892F1E7A6F13007501C199056782F2E98
:1048A00040F3F68286460E9208E0013019909EF899
:1048B00001602F2EA2F1300706DD864607EB870246
:1048C000392E06EB4202F0DD0E9A801A082840F3DA
:1048D000DF8244F61F621292BAF1000F3FF403AF79
:1048E000129A52421292FEE640F0D98200230993B6
:1048F0000A9A009523464146584625F093FA1390AC
:10490000002800F02E830F9B129A9B1A0E9A002A01
:10491000A8BF00230F9322EAE272002314921E46DE
:104920009946DAE00000F07F0000A07CFFFFEF7FF7
:1049300050120300D21A1F2AA4EB020400F396813E
:1049400001239340109300231593099B25443C4475
:10495000A7421D443B46A8BF2346AB42A8BF2B46F7
:10496000002B02DDE41AED1AFF1A0F9B002B00F357
:104970001D81002C00F334810E9B002B00F36C8111
:10498000002D00F35A81002F08DD31463A46584683
:1049900025F050FC0646002800F058811A9952462E
:1049A000584625F0DBFC8146002800F04F810023AB
:1049B000C268C3603146129225F0AEFC0028C0F2F6
:1049C000E883059B984600F08C833146484625F0E5
:1049D00061FE00224FF0804304460D4627F05EF84A
:1049E000002800F0D380129B002B40F04C81049BE8
:1049F000002B40F0EF81C8F31303002B40F08A81B5
:104A0000A94B00222046294627F03EF8002840F016
:104A10003883A64B00222046294626F0C3FD0A46CD
:104A20000146CDE9101202F100430C900D93A04F06
:104A3000A04B08EA07079F42DDE90C4500F04281E0
:104A4000099B13B3B7F1D46F1FD893A3D3E9002305
:104A5000DDE9100127F022F8A0B1DDE9100127F00F
:104A600079F8012838BF012026F022FD129BCDE9FC
:104A70001001002B40F0878201F10043169017933C
:104A8000DDE9164505F1D663DD1BDDE90A0125F0F8
:104A90001FFD02460B462046294626F083FDDDE930
:104AA0000A2326F0C9FBCDE904010C46099B23B972
:104AB0007F4B23409F4200F036811A99584625F0DB
:104AC0003FF95146584625F03BF93146584625F006
:104AD00037F94946584625F033F9139C5846616822
:104AE00025F0EEF88246002800F0B08022690232FC
:104AF000920004F10C010C3021F0C8FF9DED047B05
:104B00001CAB01931BAB0093584653EC172B8DED58
:104B10000A7B25F063FD1A9000286AD001215846CF
:104B200025F044FA0646002800F090801B9B002BDD
:104B30007FDB0F9A149D9F18099A1C9C9B1A234493
:104B40005D4A013B9342C4F13604FFF6F3AE002305
:104B5000159301231093F8E61633FFF614AE0F9B5E
:104B6000129A9A1A554B03EBC203DDE90401D3E90B
:104B7000002326F041FE8046894607E5A44600242E
:104B8000199B214690E5DDE90489FFE4474B204667
:104B90002946002226F006FD129BCDE91001002BCC
:104BA0006CD101F100430C900D9340E731461A4659
:104BB000584625F0C7FA06461A98D6B1024631463D
:104BC000584625F009FA034612931A988BB101460C
:104BD000584625F0B5F8129B1A93002C7FF7CCAEFF
:104BE0001A992246584625F025FB1A9000287FF492
:104BF000C3AE5746CDF83890B2462223DFF8B090C6
:104C0000CBF800304FF000080146584625F098F8E0
:104C10003946584625F094F85146584625F090F804
:104C20001399584625F08CF80E99584625F088F8C7
:104C3000ACE4149A0F9FD51A7EE751462A4658468F
:104C400025F0F8FA824600287FF49DAE57461A9860
:104C5000CDF83890B246D0E75146149A584625F020
:104C600071FA824600287FF48BAEEFE7144AD21A1D
:104C7000012303FA02F21592109366E69DED107B74
:104C80008DED0C7BD3E69FED067B8DED0C7B8DEDE2
:104C9000107BCCE6AFF300800000C0FFFFFFDF41D8
:104CA000000000000000F03F0000F03F0000E03F87
:104CB0000000F07F0000E07F02FCFFFF60110300B6
:104CC000E2FBFFFFA8F154730593DDE9044520469C
:104CD000294625F0FDFBDDE90C2326F063FC224686
:104CE0002B4626F0A9FAB44AB44B0A409A42CDE9C1
:104CF000040140F29480DDE90A0103F15473994202
:104D000002D1B0F1FF3FA1D0AD4C4FF0FF33CDE960
:104D10000434D2E69FED9E7B8DED0C7B9FED9E7B58
:104D20008DED107B83E6DDE910783846414626F0AC
:104D300099FF26F009FC02460B463846414626F00C
:104D400079FA049F129DC4F313043D432C43074694
:104D500088462DD192A3D3E9002326F095FE0028A2
:104D60003FF4ABAECDF83890DDE904895746B24642
:104D70001A9849E70293089B01931AAB0093914A52
:104D80001BAB19A9584622F0FDF910F00F05044697
:104D90003FF4F8AB062D40F0218108F1010319938F
:104DA00000234FF000084FF000090893FFF7EEBB17
:104DB0007DA3D3E9002326F067FE0028D2D17CA38F
:104DC000D3E900233846414626F07CFE00283FF414
:104DD00074AEC7E7049B012B9CD14346002B99D1AD
:104DE0005746CDF83890B24622231A98CBF80030B7
:104DF0004FF000084FF0000906E700F0DF004528FB
:104E000000F0B380002C7FF4A3AC099B19434FF052
:104E100000084FF000093FF4D3ABFFF7B7BB01F137
:104E20005474059442E6684901EBCA01DDE90423A4
:104E3000D1E9000126F0B6FBCDE90401002F3FF4D3
:104E400055ADAEE401398C44BCF1080F0CF10104FE
:104E50007FF746AB102CDCBF09EB890902EB49094F
:104E60000021FFF742BB59490122404624F0D0F807
:104E700040B9814619980346013019905A784D4639
:104E8000FFF714BB099B002B3FF496ABFFF77ABBEF
:104E900044F61F629742A8BF174612971CE5CAF155
:104EA000000A4FEA2A171AF00F0A0DD0464B03EBFF
:104EB000CA03DDE90401D3E9002326F09DFCCDE916
:104EC0000401002F3FF412AD1F2F00F30581DDE92F
:104ED000042317F0100118BF6A2117F0010F099180
:104EE0003B4E104619460FD0D6E9002326F05AFB58
:104EF0007F1002460B4600F0D28017F0010F06F13A
:104F0000080610461946EFD17F10F6E70E982E4995
:104F100001EBC001DDE90423D1E9000126F042FBE9
:104F200080468946FFF732BB6E2E3FF4F2ABFFF7A7
:104F300043BB284919A824F041FA00283FF43CABB0
:104F4000199B2549013B19A8199324F037FA10B988
:104F5000199B01331993DFF860904FF00008FFF7B9
:104F600015BB2223CBF80030F5E7002C00F03A8285
:104F70004FF0010CFFF798BB4FF000084FF000090D
:104F80001F46FFF71DBB9DED107B8DED167B77E572
:104F9000000000000000F0BF000000000000F03F33
:104FA0009535A094FFFFCF3F9535A094FFFFDF3FDD
:104FB00035E5AF350000E03F0000F07FFFFF9F7C4C
:104FC000FFFFEF7F0011030060110300F42A0300CC
:104FD00028110300F82A0300FC2A03001A9A3AB1A8
:104FE00035211CA825F0A0FB1A99584624F0A8FEEC
:104FF000013D042D00F21582DFE805F0032E2B2081
:1050000003001C9B04931B9B03F233421D9B23F460
:10501000801343EA02530593E20502D543F00043AF
:105020000593B34A1A40DDE90489002A7FF4AEAA49
:1050300024F05CF822230360FFF7A8BA4FF0FF3298
:105040006FF00043CDE90423E3057FF59CAD059B9C
:10505000E4E7A74B0593F7E7DDE91C121D9BCDE9BB
:105060000412D9E7A2F13103082B13D922F0200250
:10507000452A7FF407AF00230A930F930124FFF71B
:1050800097BA9FED977B8DED0C7B9FED977B8DED18
:10509000107BCCE4012103460F91FFF71CBA099B5A
:1050A000CDE904017BB1C1F30A52C2F16B03002BBD
:1050B00009DD1F2B40F3FD80342B049740F36481FE
:1050C0004FF05C730593DDE904010022002326F014
:1050D000D1FC00283FF40CAC2223CBF80030FFF7C2
:1050E00051BA5746C3F31302B2461E46129BCDF87F
:1050F0003890DDF840C0DDF854E07E49DDE90A89EA
:10510000002B00F093808A4200F0FA80BEF1000F7D
:1051100000F0E0801EEA060F32D04046494625F0F6
:10512000D7F9099B002B00F03781C6F30A53C3F16E
:105130006B03002B40F353811C0504F17F530022C5
:1051400003F5401326F02EFA02460B464046494628
:1051500026F072F880468946674B40464946002251
:1051600026F020FA624B0B4080468946002B7FF4E4
:10517000FFAD2223CBF80030FAE51EEA060F72D10C
:10518000099B002BE8D1F3E502F154730593FFF777
:10519000ADBBDDE90445129ACDF83890224357465D
:1051A0004B46B246DDE90A89EAD1C5F313022E4621
:1051B000002AE5D125F00044240D2405B4F1D66F72
:1051C000DED95A6912B91A69012AD9DD0E9901226C
:1051D000584625F02FF851460E9025F09DF80028EE
:1051E000CEDD099B002B00F0AB80A4F580146FEAA4
:1051F00014536FEA035305934FF0FF330493DDE933
:105200000489A9E73D4919A81CAA24F0F3F8052848
:105210007FF48BAA1D9B43F0FF4343F4E003059307
:105220001C9B0493DDE90489FFF7B0B9A2B9DDE95D
:105230000434002B45D1099B002B00F081802C4CBD
:105240003440B4F1D66FD0D8B4F15C7F84D8CBE5CC
:105250004FF00009FFF7CFBABEF1000F8DD1049BCC
:105260001CEA030F8CD04046494625F031F9099BD2
:10527000002B55D0C6F30A53C3F16B03002B40F348
:10528000AB801C0504F17F53002203F5401326F088
:1052900089F902460B464046494625F0CBFF0022DD
:1052A00000238046894626F0E5FB00283FF454AFF2
:1052B0009AE54FF0FF3202FA03F3049A1A4004927F
:1052C00001E7BEF1000F7FF458AF13EA0C0F3FF473
:1052D00057AFC8E7049B1CEA030F3FF451AF1CE72C
:1052E000000000000000E0BF000000000000E03F00
:1052F0000000F07FFFFF0F00000050391411030081
:10530000DDE90445099B214653BB234601332ED0DA
:10531000BEF1000F6AD01EEA060F3FF429ADFCE68D
:1053200002460B464046494625F084FF00220023F2
:105330008046894626F09EFB00283FF419AD53E5D0
:105340003E4A1A983240A2F580126FEA12536FEA71
:10535000035305934FF0FF330493DDE9048953E4CD
:10536000364A3240B2F1D46F20D9621C27D1344A78
:10537000964240D0314A324002F580130593002313
:105380000493DDE90489FBE6C2F14B024FF0FF33E1
:1053900093400B40059396E602460B46404649462D
:1053A00025F04AFF804689461A982DE4120DC2F175
:1053B0006B024FF0FF3000FA02F29442D7D0BEF1F8
:1053C000000F04D01EEA060F3FF4C6AEA5E611EAB0
:1053D0000C0F3FF4C1AEA0E602460B465BE7024667
:1053E0000B46B3E600293FF449AEC1E514EA0C0FC1
:1053F0003FF4BEAC91E60131BCD122231A98DFF80C
:105400003C90CBF800304FF00008FFF7FDBB0F9049
:105410000A940121FFF769B8A44615E53146FFF764
:1054200064B8E10505D54FF000430593DDE9048933
:10543000FEE54FF000084FF00009F9E50000F07FAD
:10544000FFFFEF7F014BFEF77BBF00BFEC000020AA
:1054500010B4054C8446134620685DF8044B0A4698
:105460006146FEF76DBF00BF9000002010B4054CF0
:10547000054B84460A4620685DF8044B6146FEF7FA
:105480005FBF00BF90000020EC0000202DE9F0413C
:10549000DFF8A480044613462DED028B0A46D8F8A7
:1054A00000002146FEF74CFF02460B4604460D461F
:1054B00026F012FB50BB2046294626F06BFB08EE77
:1054C000100ADFED1A7AB0EEC87AB4EE677AF1EE20
:1054D00010FA15DD25F00047154B4FF0FF3220463E
:1054E000394626F0F9FA38B9114B4FF0FF32204611
:1054F000394626F0D3FA18B1D8F8003022221A60C3
:1055000018EE100ABDEC028BBDE8F081002D0948B1
:1055100006DA21F021F807EE900AB1EE678AEFE78C
:10552000BDEC028BBDE8F04121F016B8FFFF7F7F94
:10553000FFFFEF7F542A0300900000202DE9F8437D
:10554000264F274B04460A4638682146FEF7F8FEE8
:1055500002460B4604460D4626F0BEFA88BB20469E
:10556000294626F017FB07EE100ADFED1E7AB0EE93
:10557000C77AB4EE677AF1EE10FA064617DD25F029
:105580000049194B4FF0FF322046494626F0A4FA55
:1055900038B9154B204649464FF0FF3226F07EFAC7
:1055A00028B13B6822221A603046BDE8F88316F025
:1055B000FF4FF9D10D4B2B40002BF2D13046BDE807
:1055C000F883002D0A4804DA20F0C6FF80F0004678
:1055D000EAE7BDE8F84320F0BFBF00BF900000201D
:1055E000EC000020FFFF7F7FFFFFEF7F0000F07FD8
:1055F000542A03000348044B834202D0034B03B1F7
:105600001847704784020020840200200000000038
:105610000548064B1B1AD90F01EBA301491002D014
:10562000034B03B118477047840200208402002016
:105630000000000010B5064C237843B9FFF7DAFFED
:10564000044B13B10448AFF300800123237010BD55
:105650006018002000000000E870030008B5044B4B
:105660001BB104490448AFF30080BDE80840CFE710
:105670000000000064180020E8700300A3F5803AE1
:10568000704700BF154B002B08BF114B9D46FFF71D
:10569000F5FF00218B460F461148124A121A23F0DB
:1056A00015FC0C4B002B00D098470B4B002B00D067
:1056B00098470020002104000D000B4805F0DEF89B
:1056C00024F0E8F82000290002F04EFD23F046FE09
:1056D00000000800000000000000000000000220A0
:1056E000000400206C1D0020656A02006FF47D70CC
:1056F000704700BF08B5024927F04EFF012008BDE2
:105700007E3D030038B50121054629F068FF441E9F
:10571000032C0CD8094B0A4953F8243003EB4303FC
:10572000284601EBC30127F0A8FF012038BD054A38
:10573000012128461AF0E0FDECE700BF583D0300C8
:10574000280800207812030070B50121064629F0D0
:1057500046FF041E0B4D0EDBD5F82433A3420ADDB1
:1057600004EB440405EBC401304601F54A7127F00F
:1057700084FF012070BD044A012130461AF0BCFDAF
:10578000EEE700BF000500208812030008B50249BB
:1057900027F073FF012008BD5017002010B5044604
:1057A00004F0F4FE0146204627F0F6FE012010BD6D
:1057B00030B58BB01849044601A806F0D5F8174952
:1057C00001A807F0D9FD40B101A807F091FD2046DE
:1057D00027F0B1FE01200BB030BD01A807F0E6FDB7
:1057E0002028F1DC01A807F0E1FD054601A807F03B
:1057F000D9FD2A46014602A821F048F901A807F080
:1058000077FD002DE3DB20462A4602A927F0ACFEF7
:1058100001200BB030BD00BF080E0020E4180020AE
:1058200010B50121044627F055FE01682046B1F964
:105830000220043127F098FE012010BD30B583B05E
:105840006A460121044629F08DFE009A0023014694
:1058500001A807F055FD01A9074806F0C9F805465B
:1058600001A807F045FDB5FA85F12046490927F062
:10587000FAFE012003B030BD080E0020074B10B522
:105880000446D3F830090368DB6A9847B0FA80F120
:105890004909204627F0E7FE012010BD0005002041
:1058A000074B10B50446D3F8300903689B6A984744
:1058B000B0FA80F14909204627F0D5FE012010BD3D
:1058C0000005002010B50121044629F088FE074B91
:1058D0000146D3F8300903681B6A9847B0FA80F193
:1058E0004909204627F0BFFE012010BD0005002019
:1058F000074B10B50446D3F830090368DB699847B5
:10590000B0FA80F14909204627F0ADFE012010BD14
:1059100000050020074B10B50446D3F82C09036896
:105920001B6B9847B0FA80F14909204627F09BFE8F
:10593000012010BD00050020074B10B50446D3F828
:105940002C090368DB6A9847B0FA80F149092046C0
:1059500027F089FE012010BD0005002010B50121AF
:10596000044629F03CFE074B0146D3F82C09036896
:105970005B6A9847B0FA80F14909204627F073FE28
:10598000012010BD0005002010B50121044629F0BA
:1059900026FE074B0146D3F82C090368DB699847BC
:1059A000B0FA80F14909204627F05DFE012010BDC4
:1059B0000005002010B50446044805F055FF0146D7
:1059C000204627F0C5FD012010BD00BFF00D0020CE
:1059D000064B10B50446D3F8300903685B6A984754
:1059E0000146204627F0B4FD012010BD000500202F
:1059F000064B10B50446D3F82C0903689B6A9847F8
:105A00000146204627F0A4FD012010BD000500201E
:105A1000064B10B50446D3F82C0903681B6A984757
:105A20000146204627F094FD012010BD000500200E
:105A300010B50121044629F0D2FD0CF041FB0146CE
:105A4000204627F085FD012010BD00BF10B504469B
:105A50000EF088FA0146204627F07AFD012010BD9D
:105A600010B50121044629F0BAFDC1B2054805F080
:105A7000E9FEB0FA80F14909204627F0F4FD012043
:105A800010BD00BFF00D002010B50446054805F01C
:105A900073FEB0FA80F14909204627F0E4FD0120A9
:105AA00010BD00BFF00D002010B50446054805F0FC
:105AB000DBFDB0FA80F14909204627F0D4FD012032
:105AC00010BD00BFF00D002010B50121044629F0E3
:105AD00086FD0146054805F01DFDB0FA80F1490933
