:10000000000002207DB20100A5B20100A7B20100EC
:10001000A9B20100ABB20100ADB2010000000000C6
:10002000000000000000000000000000AFB201006E
:10003000B1B2010000000000B3B20100B5B201008E
:10004000B7B2010071AF000045B1010009B1010074
:100050001DB10100B7B20100899A0100F1860100CB
:10006000F5AB0100FDAB010005AC0100B7B201002A
:10007000B7B20100B7B20100B7B20100B7B20100D8
:10008000B7B20100B7B20100B7B20100B7B20100C8
:10009000B7B20100B7B20100B7B20100B7B20100B8
:1000A000B7B20100B7B201000DAC010015AC010000
:1000B000B7B20100B7B2010000000000000000006C
:1000C000B7B20100B7B20100B7B2010031B101000F
:1000D000B7B20100B7B20100B7B2010000000000E2
:1000E0000000000000000000000000000000000010
:1000F0000000000000000000000000000000000000
:1001000000000000000000000000000000000000EF
:1001100000000000000000000000000000000000DF
:1001200000000000000000000000000000000000CF
:1001300000000000000000000000000000000000BF
:1001400000000000000000000000000000000000AF
:10015000000000000000000000000000000000009F
:10016000000000000000000000000000000000008F
:10017000000000000000000000000000000000007F
:10018000000000000000000000000000000000006F
:10019000000000000000000000000000000000005F
:1001A000000000000000000000000000000000004F
:1001B000000000000000000000000000000000003F
:1001C000000000000000000000000000000000002F
:1001D000000000000000000000000000000000001F
:1001E000000000000000000000000000000000000F
:1001F00000000000000000000000000000000000FF
:1002000030B490F800F020F007016FF0000C10F00F
:10021000070491F820F040F048804FF000046FF0A0
:100220000700D1E9002391F840F000F1080082FABC
:100230004CF2A4FA8CF283FA4CF3A2FA8CF34BBB87
:10024000D1E9022382FA4CF200F10800A4FA8CF200
:1002500083FA4CF3A2FA8CF3E3B9D1E9042382FACE
:100260004CF200F10800A4FA8CF283FA4CF3A2FAE3
:100270008CF37BB9D1E9062301F1200182FA4CF21B
:1002800000F10800A4FA8CF283FA4CF3A2FA8CF382
:10029000002BC6D0002A04BF04301A4612BAB2FAA4
:1002A00082F200EBD20030BC7047D1E9002304F0A9
:1002B0000305C4F100004FEAC50514F0040F91F8DE
:1002C00040F00CFA05F562EA05021CBF63EA05037B
:1002D00062464FF00004AAE70000000000000000A2
:1002E00002780B78012A28BF9A4240F0D8806DE945
:1002F000044540EA0104CDE902676FF0000C4FEAC3
:1003000044721AB380EA010414F0070F6BD100F0B5
:10031000070420F0070004F0030521F007014FEA6D
:10032000C505F0E8042314F0040FF1E804670CFAA3
:1003300005F462EA040266EA04060BD063EA0403E9
:10034000624667EA0407664604E000BFF0E804235B
:10035000F1E8046782FA4CF582EA0604A4FA8CF408
:100360006CBB83FA4CF583EA0705A5FA8CF595B9C1
:1003700050E9022351E9026782FA4CF582EA060449
:10038000A4FA8CF483FA4CF583EA0705A5FA8CF5F8
:100390002543DBD09CB92DBAB5FA85F424F00704C7
:1003A00027FA04F1DDE9026723FA04F303F0FF0002
:1003B00001F0FF01FDE80445A0EB0100704724BAFD
:1003C000B4FA84F424F0070426FA04F1DDE90267A4
:1003D00022FA04F202F0FF0001F0FF01FDE80445FB
:1003E000A0EB0100704714F0030F3CD110F00304A0
:1003F00028D150F8082B51F8083B82FA4CF582EAD4
:100400000305A5FA8CF55DB950F8042C51F8043CAD
:1004100082FA4CF582EA0305A5FA8CF5002DE8D0A6
:100420002DBAB5FA85F424F0070423FA04F122FA70
:1004300004F202F0FF0001F0FF01FDE80445A0EB2B
:10044000010070474FEAC40420F0030050F8082B65
:1004500021F0030151F8083B0CFA04F462EA0402AB
:1004600063EA0403C9E710F003041DD0A1EB040103
:1004700020F00300E40750F8042B06D012D28B784A
:100480005FFAA2F4E41A06D12BB1CB785FFAB2F48A
:10049000E41A00D133B920465DF8104B7047A2EB47
:1004A0000300704701F1040150F8042BCC0721F040
:1004B000030151F8043B48D824D222F07F4482FA49
:1004C0004CF594EA1325A5FA8CF50AD165B951F8D3
:1004D000043B84EA0204B4EB036F0ED150F8042B02
:1004E000EBE74FEA132355E035F07F454DD108780F
:1004F000FDE80445C0F1000070474FEA126203F0C6
:10050000FF0347E002EA1C4482FA4CF594EA1345E3
:10051000A5FA8CF50AD165B951F8043B84EA0204C6
:10052000B4EB034F0CD150F8042BEBE74FEA134325
:1005300030E015EA1C4528D10B884FEA124229E029
:100540004FEA124203EA1C4324E002F0FF0482FA5D
:100550004CF594EA1365A5FA8CF50AD165B951F802
:10056000043B84EA0204B4EB032F09D150F8042BB6
:10057000EBE74FEA13630DE015F0FF0F05D10B68B1
:100580004FEA122223F07F4304E04FF00000FDE821
:100590000445704712BA1BBA82FA4CF482EA03048B
:1005A000A4FA8CF5B5FA85F402FA04F203FA04F31E
:1005B0004FEA1260FDE80445A0EB1360704700BFEE
:1005C00001F0FF01102A2BDB10F0070F08D010F804
:1005D000013B013A8B422DD010F0070F42B3F6D108
:1005E000F0B441EA012141EA014122F007047FF021
:1005F00000070023F0E80256083C85EA010586EA78
:10060000010685FA47F5A3FA87F586FA47F6A5FAB3
:1006100087F68EB9EED1F0BC01F0FF0102F00702BF
:1006200032B110F8013B013A83EA010313B1F8D16A
:100630000020704701387047002D06BF354603384B
:10064000073815F0010F07D1013015F4807F02BF84
:10065000013015F4C03F0130F0BC0138704700BFD5
:100660002DE9F0419FED1E7B214C04609FED1E5B48
:1006700000F502644FF07E55DFED1E6A03F1FF3C8A
:1006800080ED027B4FF00008256000F62807012668
:1006900000F5036500F5046EBCF1030F04ED025B89
:1006A000C0F82488C7ED006A80F82C6885ED007BCF
:1006B0000EED027B05D89C193441C0F81838C0F8FB
:1006C0001C4892B207EE902A00F61402F8EE677A00
:1006D00000F501631160C3ED007ABDE8F08100BF51
:1006E0000000000000000000030000000200000005
:1006F000183C0300000000002DE9F04F044683B0D1
:10070000C0682AF053FC8046206989462AF04EFCD6
:100710006569CDE9000128462AF048FC024601F14E
:10072000004306460F464046494622F0ABFC2AF0FD
:100730009FFFE062824623F04FFE8346504623F03F
:10074000EBF9824658462AF043FC42464B462AF0D3
:1007500097FC8046504689462AF03AFC32463B4692
:100760002AF08EFC02460B46404649462AF0D0FA53
:1007700002460B46DDE9000122F084FC2AF078FFF6
:10078000002D07EE900A19DDF5EEC07AF1EE10FAB1
:100790001DDD11A7D7E9006717EE900A2AF018FCB3
:1007A00002460B46304639462AF0B2FA32463B46FC
:1007B0002AF0B0FA2AF05CFF07EE900AE388C4ED55
:1007C0000A7A43F00203E38003B0BDE8F08F04A788
:1007D000D7E90067E0E700BFEA2E4454FB21F93F68
:1007E000EA2E4454FB21F9BF2DE9F0412DED028B97
:1007F000002408EE103A5C4B0360446005460F4647
:100800001646BDF820800FF051FF584B2B6003F1C6
:100810002C023833EB60AA606F612C8205F12C004A
:1008200016F054FF05F1300016F050FF9FED507A9E
:10083000504B68696E63C7EE087AA5F80480EC61D6
:100840002C852C83C0F80045B0EE677ABEEECE7AD8
:1008500017EE101A9FED427BB1F5004F83ED007B40
:1008600083ED027B234678DB013341FA03F4B4F5D0
:10087000004FF9DA072B15DC04FA03F10029B8BFA1
:100880000F31091107EE901ADFED396AC0F80C3507
:10089000F8EEE77AC0F8084586EEA77AC5ED097A42
:1008A00085ED087A00230222C0F804353249C0F8E9
:1008B0001025C0F84835C0F82835C0F84C35C0F8C8
:1008C0002C3540F201136B830123C0F8143530241A
:1008D00004238842C0F80032C0F8044321D02749DD
:1008E00088422DD0264A90420ED0326801235268A9
:1008F0002B7605F10801C0F8003530469047BDEC75
:10090000028B2846BDE8F0811E4A1F4C95601F4AA5
:100910009168A2F54062C1F8C840C2F884315360C2
:10092000E3E71A4B174A99681560A3F540634FF047
:100930008052174CC1F8B040C3F880211A60D4E748
:10094000104B144C5D60114B9968A3F54063C1F8DE
:10095000C440C3F884215A60C7E70C468EE700BF45
:100960000080008000800080B8400300B84D030084
:10097000002474496019002000C0014000100240AA
:10098000002002402C1C00209D90010000ED00E0A2
:10099000F58F01004990010010B5012104462EF0A9
:1009A0006EFC2AF015FB06A3D3E900232AF068FBAE
:1009B0002AF05EFE014620462CF014FB012010BDFB
:1009C000399D52A246DF913F10B5012104462EF019
:1009D00056FC2AF0FDFA06A3D3E900232AF07AFC9C
:1009E0002AF046FE014620462CF0FCFA012010BDFC
:1009F000399D52A246DF913F82B010B59FED0A7B30
:100A0000014601F110040498C86081ED087B20467E
:100A100002A981E80C0010F0FFFD2046BDE810405F
:100A200002B010F049BD00BF00000000000000004F
:100A3000C1F30A5C2DE9F041ACF2FF35132D0246FB
:100A40000B460C46064622DC002D4CDBDFF8D4803A
:100A500048FA05F801EA080C5CEA000C0F461BD0C6
:100A60002EA3D3E900232AF055F9002200232AF00F
:100A700097FD40B1002C03DD4FF480132B411F4440
:100A800027EA0804002621463046BDE8F081332DD0
:100A900006DDB5F5806F38D010461946BDE8F08107
:100AA000ACF2134C4FF0FF3727FA0CF73842F3D073
:100AB0001AA3D3E900232AF02DF9002200232AF0FB
:100AC0006FFD0028DFD0002C334609DD142D06D041
:100AD000C5F134050122AA4013449E4200D90134D5
:100AE00023EA0706CFE70DA3D3E900232AF012F982
:100AF000002200232AF054FD0028C4D0002C07DB7C
:100B0000344300D0044C0026BDE72AF003F9C5E7C2
:100B100000264FF00044B6E70000F03F9C750088C7
:100B20003CE4377EFFFF0F00F8B504460D4601F0A8
:100B3000DFF906460F462046294623F07FFE78B1AE
:100B400012A3D3E90023204629462AF029FD50B9F3
:100B500010A3D3E90023204629462AF003FD58B903
:100B600030463946F8BD28F02FF8074F22230026DB
:100B7000036039463046F8BD28F026F822230026C7
:100B800000270360ECE700BF0000F07FEF39FAFEBA
:100B9000422E864051302DD5104987C000000000FC
:100BA0002DE9F04F964B21F000459D428FB08246D3
:100BB0008B46144640F28B80924B9D420F4628D8BC
:100BC000002985A3D3E9002340F3A1812AF0A0F8EE
:100BD0008D4B9D4206460F4600F08D8080A3D3E9E1
:100BE00000232AF095F88046894642464B46304617
:100BF00039462AF08DF87AA3D3E900232AF088F841
:100C0000C4E90089C4E90201012630460FB0BDE8FD
:100C1000F08F7E4B9D4240F288807D4B9D4261D893
:100C20002E15A6F21646A5EB0659494650462AF05F
:100C3000D7FC2AF0BBF902460B4650464946CDE99F
:100C400008232AF065F8734B00222AF019FA894626
:100C500080462AF0C5FC2AF0A9F902460B46404618
:100C60004946CDE90A232AF053F86A4B00222AF0BC
:100C700007FACDE90C010DF1380A03254FF0000801
:100C80004FF000097AE9020142464B46AB46013D6E
:100C90002AF05EFC0028F5D15F4B019302230093FC
:100CA00032465B46214608A822F0DAFA002F0646B3
:100CB000ABDA6168226801F10043E168C4E900230E
:100CC000A26801F10043C4E9022346429DE70022E5
:100CD0000023C4E900ABC4E90223002630460FB06C
:100CE000BDE8F08F02460B462AF012F8C4E9020173
:100CF000C4E90001F1E73CA3D3E900232AF008F896
:100D00003BA3D3E9002306460F462AF001F88046AC
:100D1000894642464B463046394629F0F9FF34A30E
:100D2000D3E9002329F0F4FF6AE723F081FF32A31F
:100D3000D3E90023804689462AF0A2F9374B0022E6
:100D400029F0E8FF2AF04CFC06462AF02FF902466B
:100D50000B46CDE9022320A3D3E900232AF090F922
:100D600002460B464046494629F0D2FF1CA3D3E970
:100D7000002382468B46DDE902012AF081F9024612
:100D80000B4650465946CDE9042329F0C1FF1F2EDA
:100D90008046894646DC224B721E53F82230AB4215
:100DA00040D042464B46C4E900895046594629F096
:100DB000AFFFDDE9042329F0ABFF002FC4E90201F6
:100DC000BFF623AF09F10043C4E9008301F10043FA
:100DD000C4E90203764218E700004054FB21F93FC2
:100DE0003163621A61B4D03D0000601A61B4D03D35
:100DF0007370032E8A19A33B83C8C96D305FE43F2B
:100E0000FB21E93F7BD90240FB21F93FFB2139411E
:100E1000FFFFEF7F00007041285403000000E03F17
:100E2000A8530300C9F30A53C3EB1553102B4FEA21
:100E30002555B6DD56A3D3E90023DDE902012AF0EA
:100E40001FF98046894642464B465046594629F08E
:100E50005FFF02460B4650465946CDE906239246AF
:100E60009B4629F055FF42464B4629F051FF4AA3C5
:100E7000D3E9002380468946DDE902012AF000F922
:100E800042464B4629F044FF0B460246594650461F
:100E9000CDE9042329F03CFFC1F30A53ED1A312DAB
:100EA000804689467FF77DAF3EA3D3E90023DDE985
:100EB00002012AF0E5F88046894642464B46DDE9C4
:100EC000060129F025FF82468B4652465B46DDE946
:100ED000060129F01DFF42464B4629F019FF33A3B6
:100EE000D3E9002380468946DDE902012AF0C8F8EB
:100EF00042464B4629F00CFF02460B4650465946E7
:100F0000CDE9042329F004FF8046894649E729F00A
:100F100001FF234B9D4206460F4618D01AA3D3E982
:100F2000002329F0F7FE8046894642464B4630466C
:100F3000394629F0EDFE14A3D3E9002329F0EAFE97
:100F4000C4E90089C4E902014FF0FF365DE610A351
:100F5000D3E9002329F0DEFE0FA3D3E900230646E0
:100F60000F4629F0D7FE8046894642464B4630461A
:100F7000394629F0CDFE08A3D3E9002329F0CAFEA3
:100F8000DEE700BFAFF300803163621A61B4D03D89
:100F90000000601A61B4D03D7370032E8A19A33B20
:100FA000FB21F93F0000002E8A19A33BC1492025EF
:100FB0009A837B390000000070B51646C1F30A52CF
:100FC00004460D460B464ABB21F00043034324D0A0
:100FD000334B00222AF054F8324B9E4204460D4611
:100FE00046DBC1F30A520B46363A4CF250318E4280
:100FF0001CDC164440F2FE72964217DC002E29DCFF
:1010000016F1350F2CDB6FF31E53363643EA0651CB
:101010002046254B00222AF033F870BD40F2FF7CB9
:101020006245E2D1024629F075FE70BD002D14A183
:10103000D1E9000105DB12A3D3E900232AF020F84F
:1010400070BD0FA3D3E900230FA1D1E900012AF05D
:1010500017F8F5E76FF31E53204643EA065170BDBB
:10106000002D0BA1D1E9000102DA0BA1D1E90001A9
:1010700007A3D3E900232AF003F870BDAFF3008083
:101080009C7500883CE4377E9C7500883CE437FE04
:1010900059F3F8C21F6EA50159F3F8C21F6EA5815E
:1010A00000005043B03CFFFF0000903C00000000F7
:1010B000F8B504460D4624F0EDFA224606460F46E2
:1010C0002B46204629462AF075FA48B9204629467B
:1010D00023F0AEFD09A3D3E900232AF061FA10B989
:1010E00030463946F8BD27F06FFD034F0026222316
:1010F000036039463046F8BD0000F07F7DF8B98FB7
:10110000CE338640000000002DE9F04F83B0CDE9DA
:10111000002321F00043B3F1795F04460D4604D269
:101120002AF05EFA002800F0858022462B462046F1
:10113000294629F0A5FF06460F4632463B46204683
:10114000294629F09DFF41A3D3E9002382468B461F
:101150003046394629F094FF3EA3D3E9002329F015
:10116000D7FD32463B4629F08BFF3CA3D3E9002351
:1011700029F0D0FD32463B4629F082FF39A3D3E95E
:10118000002329F0C5FD32463B4629F079FF37A3FD
:10119000D3E9002329F0BEFD0C9B804689469BB312
:1011A000DDE90001284B002229F06AFF42464B4648
:1011B000804689465046594629F062FF02460B4652
:1011C0004046494629F0A4FD32463B4629F058FFE7
:1011D000DDE9002329F09CFD19A3D3E9002306468D
:1011E0000F465046594629F04BFF02460B46304603
:1011F000394629F08FFD02460B462046294629F044
:1012000087FD03B0BDE8F08F02460B4630463946F5
:1012100029F036FF0AA3D3E9002329F079FD5246CD
:101220005B4629F02DFF22462B4629F073FD03B0C3
:10123000BDE8F08F2046294603B0BDE8F08F00BF1F
:10124000495555555555C53F0000E03F7CD5CF5A0F
:101250003AD9E53DEB9C2B8AE6E55A3E7DFEB15737
:10126000E31DC73ED561C119A0012A3FA6F81011A0
:101270001111813F000000002DE9F04F23F0004ADA
:10128000044652EA0A0093B0904699460D4614D19E
:101290002319714985F4002252419842914126D286
:1012A00042464B462046294629F034FD02460B466D
:1012B0001046194613B0BDE8F08F1F461346674A23
:1012C00000940E4621F000419142029116D9009BF4
:1012D00006F1404606F580161E43E1D14346DB1871
:1012E0005D4989F4002252419E429141D8D35C4B22
:1012F00000221046194613B0BDE8F08F13D0924576
:10130000E5D8DDF808B053D0002E15DB002B40F0F7
:101310008380534A924540F02084002FC0F211850B
:1013200022462B46C4E7002CBAD18A45B8D800F033
:101330005984DDF808B0E7E74A4A924500F2A383F2
:10134000494A924500F2A583002B40F0EF83B7F1A4
:10135000804F00F0038504932046294623F068FC63
:101360000B4600990246002937D00498F10F013945
:1013700008435FD004980138084300F07F839FED55
:10138000347B8DED067BBAF1844F71D937498A459C
:1013900040F23D84344B029A9A4200F2F984002FC5
:1013A000C0F2F984002013B0BDE8F04F23F064BC14
:1013B000002B8CD1029B009A03F1404303F580136C
:1013C000134394D0284B029A9A4240F29484002FFF
:1013D000C0F2068542464B466AE7214926F0404066
:1013E000884202D002990029BFD1002FC0F27B842D
:1013F000002EBFF65DAF029901F14049049909F54D
:10140000801959EA010917D0049901297FF450AFD6
:1014100003F100410B464BE7002304932046294685
:1014200023F006FC0B46009902460029D5D0F10FA7
:1014300001399FE722462B461046194629F068FCE1
:1014400002460B4629F046FF02460B4630E700BF36
:10145000000000000000F03F0000F0FF0000F07FFF
:101460000000F03FFFFF3F43FFFFEF3F0000F0436E
:10147000D7493140002940F0C88310461946002260
:10148000D44B29F0FDFD02468B466FF034004FEA45
:101490002B51A1F2FF310818CF490F90CBF3130B5A
:1014A0004BF07F548B4544F4401440F3A083CB4968
:1014B0008B4540F35D849FEDB07B8DED087B9FED08
:1014C000B07B8DED047B9FEDAC7B8DED107B01300F
:1014D0000F90A4F58014002592465046DDE90423C0
:1014E000214629F015FCA346DDE9042306460F46F4
:1014F00050462146CDE90AAB29F00CFC02460B46CA
:101500000020B74929F0E6FE8C46834663465A46DA
:1015100030463946CDE90CBC29F0B2FD64100A46CC
:101520000146CDE9021244F00054DDE902AB04F5B6
:101530000023591900204FF0000A04460D462246A8
:101540002B4650465946CDE9000129F099FD024647
:101550000B463046394629F0DBFBDDE9042306461D
:101560000F462046294629F0D3FB02460B46DDE90B
:101570000A0129F0CDFB52465B4629F081FD024667
:101580000B463046394629F0C3FBDDE90C2329F030
:1015900077FDDDE90245CDE9040122462B462046D0
:1015A000294629F06DFD78A3D3E9002304460D46B2
:1015B00029F066FD76A3D3E9002329F0ABFB224690
:1015C0002B4629F05DFD74A3D3E9002329F0A2FB8B
:1015D00022462B4629F054FD71A3D3E9002329F0BC
:1015E00099FB22462B4629F04BFD6FA3D3E900233C
:1015F00029F090FB22462B4629F042FD6CA3D3E94B
:10160000002329F087FB224606460F462B4620463C
:10161000294629F035FD02460B463046394629F069
:101620002FFD524604460D465B46DDE9020129F0D6
:1016300071FBDDE9042329F023FD22462B4629F026
:1016400069FB524604460D465B465046594629F012
:1016500017FD644B002206460F4629F05BFB22462D
:101660002B46CDE90A4529F055FB0D462B4652463F
:101670005046594629F004FD5A4BCDE9000100229D
:101680002946504629F044FB32463B4629F040FBB0
:1016900002460B46DDE90A0129F03AFBDDE90223A7
:1016A00029F0EEFC2B4606460F465246DDE90401C2
:1016B00029F0E6FC02460B463046394629F02AFB63
:1016C00006460F463246DDE900013B4629F022FB83
:1016D00039A3D3E9002350460D4629F0D1FCDDE9BA
:1016E0000023CDE900012946504629F011FB0246AE
:1016F0000B463046394629F00BFB31A3D3E90023D2
:1017000029F0BEFC02460B461446294650461D46AB
:101710002DA3D3E9002329F0B3FC02460B46204653
:10172000294629F0F7FADDE9102329F0F3FA0646F5
:101730000F980F4629F03AFC324604460D463B46C8
:10174000DDE9000129F0E6FADDE9082329F0E2FAF3
:1017500022462B4629F0DEFA504622462B46CDE99A
:10176000020129F0D5FADDE9082329F0D1FADDE9F3
:10177000002339E0AFF3008000000000000000000B
:10178000000000000000F03FEF4E454A287ECA3FAF
:1017900065DBC9934A86CD3F01411DA96074D13FE5
:1017A0004D268F515555D53FFFAB6FDBB66DDB3FF7
:1017B000033333333333E33F000000E009C7EE3F28
:1017C000FD033ADC09C7EE3FF5015B14E02F3EBE96
:1017D0000000F07F000040438E98030079B60B00B4
:1017E0000000F03F0000084029F092FA02460B4644
:1017F0003046394629F08CFACDE904010023CDE9C1
:1018000000890093DDE90067404632463B46494681
:1018100029F07EFADDE902AB52465B4629F030FC46
:10182000424604460D464B46DDE9040129F028FCFA
:1018300002460B462046294629F06CFA32460446F9
:101840000D463B4650465946CDE9024529F018FC65
:1018500006460F46204629463B46324629F05AFAAC
:10186000DB4B994204460D46884640F33F8101F127
:101870003F4303F5E003034340F09782C0A3D3E95D
:101880000023DDE9020129F045FA02460B46204615
:10189000294614461D4632463B4629F039FA02468F
:1018A0000B462046294629F07BFE002840F07D8229
:1018B0004FF400734344C3F30A52C64CA2F2FF3202
:1018C0001441C3F3130AC2F11402002004EA030115
:1018D0004AF4801A4AFA02FA0B460246B8F1000F9F
:1018E00030463946B8BFCAF1000A29F011FA02465B
:1018F0000B4606460F46DDE9020129F00BFA4FEAD6
:101900000A5B0D460024A0A3D3E900232046294604
:1019100029F0B6FB3246804689463B46204629469A
:1019200029F0F6F902460B46DDE9020129F0F0F94B
:1019300097A3D3E9002329F0A3FB02460B462046D8
:10194000294614461D4694A3D3E9002329F098FBA9
:1019500002460B462046294629F0DCF906460F468A
:1019600032463B464046494629F0D4F942464B466A
:1019700004460D4629F0CCF902460B46304639465E
:1019800029F0C6F92246804689462B46204629463C
:1019900029F076FB82A3D3E9002306460F4629F0FF
:1019A0006FFB81A3D3E9002329F0B2F932463B460D
:1019B00029F066FB7EA3D3E9002329F0ABF9324678
:1019C0003B4629F05DFB7CA3D3E9002329F0A0F975
:1019D00032463B4629F054FB79A3D3E9002329F092
:1019E00099F932463B4629F04BFB02460B4620460E
:1019F000294629F08DF906460F4632463B462046D9
:101A0000294629F03DFB02460B463046394616462C
:101A10001F4600224FF0804329F07AF902460B4618
:101A20003046394629F056FC424606460F464B469C
:101A30002046294629F024FB42464B4629F06AF904
:101A400002460B463046394629F062F922462B46BB
:101A500029F05EF902460B4600205F4929F058F94B
:101A60000C465C44B4F5801FC0F29B812146DDE941
:101A7000062329F005FB02460B4619E49FED527B35
:101A80008DED067B7FE4002B00F0A68102230493FA
:101A9000C4E44FEA2A52A2F2FF32142A40F33781FB
:101AA000C2F1340223FA02F101FA02F29A4200F082
:101AB0009B81002B3AD1B7F1804F00F04F81204637
:101AC000294623F0B5F80B460099024600297FF419
:101AD000B1AC414926F04040884200F0CC810299E7
:101AE000002900F0C381002104913EE4DFF8F0C03A
:101AF00021F00043634540F21B81384B0B44034304
:101B00000AD132463B4629F003F9DDE9022329F0E8
:101B10003DFD00283FF4CCAEDDE9060100220023A4
:101B200029F020FD003818BF01203CE4204629465A
:101B300023F07EF80B460099024600297FF47AAC28
:101B4000254926F04040884200F07881029900291A
:101B500000F060810099049107E4B7F1804F00F034
:101B6000FD80A2F5801297427FF4F5AB204629460E
:101B700013B0BDE8F04F22F0E9B800BFAFF300802A
:101B8000FE822B654715973C00000000432EE63F80
:101B9000EF39FAFE422EE63F396CA80C615C20BE9C
:101BA000D0A4BE726937663EF16BD2C541BDBB3E63
:101BB0002CDE25AF6A56113F93BDBE166CC1663F41
:101BC0003E5555555555C53F000000000000F0BF7B
:101BD000FFFF8F400000F0FF0000F03F00346F3F38
:101BE000FFCB9040002B7FF45BABFFF7EBBB9FED8F
:101BF000AA7B8DED087B9FEDAA7B8DED047B9DED8F
:101C0000087B00258DED107B66E400203FE4B4499D
:101C100002988842C0F0D380B2490298884200F20C
:101C2000EC80104619460022AE4B29F071F89EA3B5
:101C3000D3E9002304460D4629F022FA9CA3D3E9F8
:101C4000002382468B462046294629F019FAA64BE6
:101C5000CDE9000100222046294629F011FA02466A
:101C60000B4695A1D1E9000129F052F822462B46F6
:101C700029F006FA02460B4600209C4929F048F854
:101C800022462B4606460F462046294629F0F8F9FB
:101C900002460B463046394629F0F2F988A3D3E9CB
:101CA000002329F0EDF902460B46DDE9000129F099
:101CB0002FF804460D4622462B465046594629F039
:101CC00029F8002052465B46CDE9020129F020F8B0
:101CD00002460B462046294629F01AF8CDE90401B0
:101CE0008CE5029904917F49002029F0F3FA02461D
:101CF0000B46FFF77DBB002F4FF000024FF00003B3
:101D0000BFF6D6AA424609F10043FFF7D1BA002B2D
:101D10007FF40CAFC2F114024AFA02F101FA02F2A6
:101D200052457DD06F4A92453FF4F7AAFFF70FBBAB
:101D30006E4A934200F28880DDE900239346924682
:101D4000E0E522462B466749002029F0C3FA024607
:101D50000B46FFF7ADBAB7F1804F3DD122462B4677
:101D60002046294629F08CF902460B46FFF7A0BA17
:101D70009FED557B8DED087B9FED557B8DED107BA9
:101D80009FED557B4FF480258DED047BFFF7A4BBC1
:101D9000002F7FF707AB002013B0BDE8F04F22F013
:101DA00075BF5246FFF708F961E6DDE9060100223A
:101DB000002329F0D7FB003818BF0120ECE7DDE94C
:101DC00006010022002329F0CDFB003818BF0120B6
:101DD000002FBFF6E8AADFE702230493FFF7BCBA9F
:101DE00000220023FFF764BA002BB4D001F00101F8
:101DF000C1F102030493FFF711BBDDE906010022E4
:101E0000002329F0AFFB003818BF0120002FC3DCEE
:101E1000FFF7C9BA002FFFF664AF0491FFF7EBBAE2
:101E2000304B9A453FF479AAB7F1804F96D001F034
:101E30000101C1F102030493FFF78EBA002F0BDBFF
:101E400000990491FFF7D7BA1B15A3F2FE334FF4A4
:101E5000801242FA03F32DE52249002029F03AFAD4
:101E6000009B049302460B46FFF7C5BA002FD4DA55
:101E70000021049137E7002F01DB0021CDE719494C
:101E8000002029F027FA0023049302460B46FFF7AF
:101E9000B2BA00BFAFF300800000000000000000F5
:101EA000000000000000F03F000000604715F73F11
:101EB00044DF5DF80BAE543E555555555555D53F4D
:101EC000FE822B654715F73F0000004003B8E23F54
:101ED00006D0CF43EBFD4C3E000000000000F83F71
:101EE000FFFFEF3F0000F03F0000D03F0000E03F69
:101EF0002DE9F047D04F21F00042BA4286B00446A7
:101F00000D464FEAD1760DD9CC4FBA426FD9C1F305
:101F100013030343024640F04481002E64D00020A6
:101F2000002161E0C64B9A4200F21281C54B9A42F1
:101F300040F2248122462B462046294629F0A0F86B
:101F4000A7A3D3E9002306460F4629F099F8A6A3D4
:101F5000D3E9002328F0DCFE32463B4629F090F816
:101F6000A3A3D3E9002328F0D5FE32463B4629F04F
:101F700087F8A1A3D3E9002328F0CAFE32463B46E6
:101F800029F07EF89EA3D3E9002328F0C3FE324651
:101F90003B4629F075F802460B462046294628F0B4
:101FA000B7FECDE90201DDE90289204642464B46F3
:101FB000294629F065F8002206460F464FF0804377
:101FC0004046494628F0A4FE02460B4630463946B4
:101FD00029F080F922462B4628F09AFE02460B464D
:101FE0000020994928F094FE06B0BDE8F08786A34A
:101FF000D3E9002329F0D4FA0746002840F0D7801F
:1020000083A3D3E900232046294629F0ABFA002810
:1020100040F0DF808D4B204603EBC60629467EA3A9
:10202000D3E9002329F02CF8D6E9082328F072FE22
:1020300029F0D6FA824628F0B9FF79A3D3E9002324
:1020400006460F4629F01CF802460B462046294654
:1020500028F05EFE74A3D3E900238046894630460B
:10206000394629F00DF8CDE90001DDE900234046AD
:10207000494628F04DFE02460B4604460D4628F020
:10208000FFFF57A3D3E9002306460F4628F0F8FFC9
:1020900055A3D3E9002328F03BFE32463B4628F007
:1020A000EFFF53A3D3E9002328F034FE32463B462A
:1020B00028F0E6FF50A3D3E9002328F029FE32469A
:1020C0003B4628F0DDFF4EA3D3E9002328F022FE93
:1020D00032463B4628F0D4FF02460B4620462946AE
:1020E00028F016FE06460F462046294632463B4655
:1020F000CDE9026728F0C4FFCDE90401BAF1000F71
:102100003FF451AF32463B4600204FF0804128F06B
:10211000FFFD02460B46DDE9040129F0DBF802462B
:102120000B46DDE9000128F0F3FD42464B4628F05E
:10213000EFFD02460B460020434928F0E9FD6FF40D
:102140007F72924539DB01EB0A5106B0BDE8F0879A
:102150003F4B9A423FF65EAF3C4C04EBC604D4E9D9
:10216000002328F0D5FD94ED047B86F0010A8DED67
:10217000007B80468946AAEB060A76E72CA3D3E9C2
:10218000002328F0C7FD304B002229F009FA00286F
:102190003FF4D0AE2C4B00222046294628F0BAFD51
:1021A00022E70B4628F0B6FD06B0BDE8F087002018
:1021B00006B0BDE8F04722F069BD0AF57A7A01EB76
:1021C0000A5100224FF0B87328F05AFF06B0BDE85C
:1021D000F087384606B0BDE8F04722F04DBD00BF9D
:1021E000D0A4BE726937663EF16BD2C541BDBB3E1D
:1021F0002CDE25AF6A56113F93BDBE166CC1663FFB
:102200003E5555555555C53FEF39FAFE422E86408D
:1022100051302DD5104987C0FE822B654715F73FF9
:102220000000E0FE422EE63F763C7935EF39EA3D8C
:102230009C7500883CE4377E412E8640FFFFEF7F8F
:10224000422ED63FFFFFEF3D0000F03F900C030011
:10225000B1A2F03F00000000B1F5801F2DE9F84366
:1022600004460D460B4619DA21F00042024353D0D2
:10227000002959DB364B002228F002FF354A0D4673
:102280002B46934204466FF035010CDD22462B4667
:102290002046294628F03EFDBDE8F8832D4A9342AA
:1022A0004FF00001F2DC1815A0F2FF300844C70F10
:1022B00000EBD070C3F3130628F078FEC7F57F73E8
:1022C000033346EA03551CA3D3E90023804689461D
:1022D00028F0D6FE02460B462046294614461D46E7
:1022E00000F022FB16A3D3E9002328F0C9FE224602
:1022F0002B4628F00FFD14A3D3E9002304460D4616
:102300004046494628F0BCFE02460B462046294678
:1023100028F000FDBDE8F883002200230E490020CC
:1023200028F0D8FFBDE8F883024628F0F1FC00222F
:10233000002328F0CFFFAFE7362BF111F3FE593D14
:102340000EE526157BCBDB3F00609F501344D33F47
:1023500000005043FFFFEF7F000050C3000000006B
:10236000C1F30A5C2DE9F041ACF2FF35132D0246B2
:102370000B460C46064622DC002D42DBDFF8E480EB
:1023800048FA05F801EA080C5CEA000C0F461BD07D
:1023900032A3D3E9002328F0BDFC0022002329F05A
:1023A000FFF840B1002C03DA4FF480132B411F4497
:1023B00027EA0804002621463046BDE8F081332D87
:1023C00006DDB5F5806F2CD010461946BDE8F081CA
:1023D000ACF2134C4FF0FF3727FA0CF73842F3D02A
:1023E0001EA3D3E9002328F095FC0022002329F046
:1023F000D7F80028DFD0002C33461CDB23EA070681
:10240000D9E716A3D3E9002328F084FC0022002397
:1024100029F0C6F80028CED0002C05DB0026344673
:10242000C9E728F077FCD1E724F0004426430DD11A
:102430004FF00044BFE7142D06D0C5F1340501224A
:10244000AA4013449E42D9D90134D7E7024C002652
:10245000B1E700BFAFF300800000F0BF9C750088BB
:102460003CE4377EFFFF0F002DE9F84F99465342B9
:102470005F4F134329F0004E4EEAD373BB429046A0
:1024800004460D463DD84642064321F0004A4AEA3A
:10249000D676BE4203468B4633D809F1404606F550
:1024A000801616433DD04FEAA97606F0020653EA9D
:1024B0000A0346EAD1762CD052EA0E0235D0BE4548
:1024C00046D0BA4531D0AAEB0E0ABAF1747F4FEA72
:1024D0002A5339DAB9F1000F46DA3C3344DA0020E6
:1024E0000021012E58D0022E49D086B134A3D3E961
:1024F000002328F00DFC34A3D3E9002328F008FCC6
:1025000005E022462B464046494628F003FCBDE83C
:10251000F88F022E10D0032EF9D12DA1D1E90001A0
:10252000F5E7BDE8F84F00F067B8BBF1000F07DB37
:1025300029A1D1E90001EAE723A1D1E90001E6E7F9
:1025400027A1D1E90001E2E723A1D1E90001C8E711
:10255000F24506F1FF3623D0022E29D8254B03EB96
:10256000C603D3E90601D2E742464B462046294638
:1025700028F0B0FE22F05CFB00F03EF8B1E710A3BB
:10258000D3E9002328F0C4FB02460B460EA1D1E993
:10259000000128F0BDFBBAE701F100431946B6E798
:1025A000022E08D8134B03EBC603D3E90001AEE7B4
:1025B00000200021ABE70CA1D1E90001A7E700BF93
:1025C000075C143326A6A13C182D4454FB21094076
:1025D000182D4454FB2109C0182D4454FB21F93F08
:1025E000182D4454FB21F9BF182D4454FB21E93F19
:1025F0000000F07FD80C03002DE9F84FC04B21F00C
:1026000000469E4204460D468A460ED9BD4B9E4268
:1026100000F2AE8000F0A980BAF1000F40F3E8802C
:102620009BA1D1E90001BDE8F88FB74B9E4200F2B3
:10263000B680A3F1DE739E4240F2A2804FF0FF3BD2
:1026400022462B462046294628F01AFD02460B4614
:102650008046894628F014FD8FA3D3E9002306465F
:102660000F4628F00DFD8EA3D3E9002328F052FB7E
:1026700032463B4628F004FD8BA3D3E9002328F023
:1026800049FB32463B4628F0FBFC89A3D3E90023F3
:1026900028F040FB32463B4628F0F2FC86A3D3E903
:1026A000002328F037FB32463B4628F0E9FC84A3A0
:1026B000D3E9002328F02EFB42464B4628F0E0FCED
:1026C00081A3D3E90023804689463046394628F065
:1026D000D7FC7FA3D3E9002328F01AFB32463B4600
:1026E00028F0CEFC7CA3D3E9002328F011FB32466E
:1026F0003B4628F0C5FC7AA3D3E9002328F008FB69
:1027000032463B4628F0BCFC77A3D3E9002328F0EF
:10271000FFFA32463B4628F0B3FC02460B464046E1
:10272000494628F0F7FA22462B4628F0A9FCBBF1CF
:10273000FF3F02460B4660D0744E06EBCB06D6E94F
:10274000082328F0E5FA22462B4628F0E1FA024653
:102750000B46D6E9000128F0DBFABAF1000F0DDADA
:1027600001F100431946BDE8F88F00283FF454AF4B
:1027700022462B462046294628F0CCFABDE8F88FA1
:102780005BA3D3E9002328F0C5FA614B002228F0AF
:1027900007FF00283FF452AF20462946EEE722F01B
:1027A00047FA5C4B9E4204460D462CD8A3F55023B5
:1027B0009E4253D802460B4628F0ACFA544B0022F6
:1027C00028F0A6FA02460B462046294614461D4626
:1027D00000224FF0804328F09DFA02460B46204627
:1027E000294628F077FD4FF0000B04460D4627E7F9
:1027F00041A1D1E90001BDE8F88F2046294628F023
:1028000087FABDE8F88F444B9E421CD2434B00220E
:1028100028F07EFA02460B462046294614461D46FD
:1028200000223E4B28F02CFC394B002228F072FA93
:1028300002460B462046294628F04CFD4FF0020B7D
:1028400004460D46FCE622462B463549002028F07A
:1028500041FD4FF0030B04460D46F1E62C4B0022E0
:1028600028F056FA02460B462046294614461D46D5
:102870000022274B28F04EFA02460B4620462946F6
:1028800028F028FD4FF0010B04460D46D8E600BFA6
:10289000182D4454FB21F93F11DA22E33AAD903F61
:1028A000EB0D76244B7BA93F513DD0A0660DB13F87
:1028B0006E204CC5CD45B73FFF8300922449C23FEF
:1028C0000D5555555555D53F2F6C6A2C44B4A2BFB4
:1028D0009AFDDE522DDEAD3F6D9A74AFF2B0B33F7C
:1028E000711623FEC671BC3FC4EB98999999C93FF4
:1028F0009C7500883CE4377E182D4454FB21F9BFB9
:10290000FFFF0F440000F07FFFFFDB3F180D0300C7
:102910000000F03FFFFFF23F008003400000F83F5F
:102920000000F0BF000000002DE9F04FB1F5801F5E
:1029300087B002460B460D4680F2838021F00044AA
:10294000044300F020810029C0F26081D64B0022B0
:1029500028F096FB0D460B46D4498D426FF03506A4
:10296000024673DC2C15C5F3130505F51521A4F2F9
:10297000FF3401F6647101F48011344404EB115406
:1029800081F07F5181F4401141EA05031046194658
:102990000022C74B28F0BCF9AB1CC3F31303022B76
:1029A00082468B464FF0000257DC002328F0D0FD12
:1029B000002840F0F180A8A3D3E9002350465946EF
:1029C00028F05EFB02460B460020BA4928F0A0F929
:1029D000524606460F465B465046594628F050FB85
:1029E00002460B463046394628F04AFB06460F465B
:1029F000002C00F00281204628F0D8FA98A3D3E9F1
:102A000000238046894628F03BFB97A3D3E90023A7
:102A100004460D464046494628F032FB02460B4626
:102A20003046394628F074F952465B4628F070F972
:102A300002460B462046294628F06AF907B0BDE851
:102A4000F08F9A498D424FF000068BDD10461946F3
:102A500028F060F907B0BDE8F08F4FF0804328F010
:102A600059F902460B465046594628F033FC0646B3
:102A700020460F4628F09AFA3246CDE904013B463B
:102A800030463946CDE9026728F0FAFA02460B468D
:102A9000CDE9002328F0F4FA75A3D3E90023064614
:102AA0000F4628F0EDFA74A3D3E9002328F032F999
:102AB00032463B4628F0E4FA71A3D3E9002328F01C
:102AC00029F932463B4628F0DBFA6FA3D3E900230D
:102AD00028F020F9DDE9002328F0D2FA6CA3D3E92D
:102AE0000023CDE900013046394628F0C9FA6AA32F
:102AF000D3E9002328F00EF932463B4628F0C0FA0D
:102B000067A3D3E9002328F005F932463B4628F0B5
:102B1000B7FAA5F5C22802460B46C5F5D725DDE96B
:102B2000000128F0F7F8A8F27A48513545EA08057F
:102B3000002D06460F464BDD5E4B0022504659469F
:102B400028F09EFA52465B4628F09AFA804689465B
:102B50003046394642464B4628F0DCF8DDE9022390
:102B600028F08EFA06460F46002C56D102460B4638
:102B70004046494628F0CCF802460B465046594696
:102B800028F0C6F866E7002200234B49002028F011
:102B9000A1FB07B0BDE8F08F002C57D0204628F0ED
:102BA00005FA2FA3D3E9002306460F4628F068FA5A
:102BB0002DA3D3E9002304460D463046394628F0BC
:102BC0005FFA02460B462046294628F0A3F841E763
:102BD00002460B465046594628F09AF8DDE9022392
:102BE00028F04EFA06460F463CB1DDE904891CA3E5
:102BF000D3E900234046494605E732463B46504666
:102C0000594628F085F807B0BDE8F08F28F080F825
:102C10000022002328F05EFB1CE711A3D3E9002368
:102C2000DDE9040128F02CFA0FA3D3E900230446C0
:102C30000D46DDE9040128F023FA32463B4628F030
:102C400069F802460B4640464946EBE60020002163
:102C500000E700BFAFF30080555555555555D53F9A
:102C60000000E0FE422EE63F763C7935EF39EA3D42
:102C700044523EDF12F1C23FDE03CB966446C73FAB
:102C8000599322942449D23F935555555555E53FC4
:102C90009FC678D0099AC33FAF788E1DC571CC3FCF
:102CA00004FA97999999D93F00005043FFFFEF7FAD
:102CB0000000F03F0000E03F000050C300000000B3
:102CC0002DE9F04F21F00048B8F1795F85B09246C8
:102CD0009B4606460F466DD228F082FC002800F085
:102CE000EE8032463B463046394628F0C9F976A395
:102CF000D3E9002304460D4628F0C2F974A3D3E9B2
:102D0000002328F007F822462B4628F0B9F972A3D1
:102D1000D3E9002327F0FCFF22462B4628F0B0F928
:102D20006FA3D3E9002327F0F5FF22462B4628F0B6
:102D3000A7F96DA3D3E9002327F0EAFF22462B462B
:102D400028F09EF96AA3D3E9002327F0E3FF224687
:102D50002B4628F095F9CDE90001694B0022204669
:102D6000294628F08DF9DDE9002380468946204672
:102D7000294628F085F944464D4680468946524604
:102D80005B463046394628F07BF902460B46404602
:102D9000494627F0BDFF02460B462046294627F04C
:102DA000B7FF02460B460020564927F0B1FF05B099
:102DB000BDE8F08F02460B4628F062F942A3D3E942
:102DC000002304460D4628F05BF941A3D3E9002314
:102DD00027F0A0FF22462B4628F052F93EA3D3E964
:102DE000002327F095FF22462B4628F049F93CA303
:102DF000D3E9002327F08EFF22462B4628F040F926
:102E000039A3D3E9002327F083FF22462B4628F07D
:102E100037F937A3D3E9002327F07CFF2B4622465E
:102E200028F02EF9384B9845CDE9000195D9374B5C
:102E300098453BD8A8F5001300223249002090465F
:102E4000994627F065FFCDE902012D4B002220466F
:102E5000294628F015F942464B4627F059FFDDE98F
:102E60000023804689462046294628F009F9444631
:102E70004D468046894652465B463046394628F0E4
:102E8000FFF802460B464046494627F041FF0246FE
:102E90000B462046294627F03BFF02460B46DDE95C
:102EA000020127F035FF05B0BDE8F08F9FED127BE2
:102EB000DFF85C908DED027B4FF00008C5E711490B
:102EC000002005B0BDE8F08FD43888BEE9FAA8BD6F
:102ED000C4B1B4BD9EEE213EAD529C804F7E923E69
:102EE0009015CB19A001FA3E7751C1166CC1563F1F
:102EF0004C5555555555A53F000000000000E73FD3
:102F00000000E03F0000F03F3233D33F0000E93FD4
:102F10000000D23F000000002DE9F04FBE4B21F031
:102F2000004A9A4583B004460D4612D90AF1404A38
:102F30000AF5801A5AEA000A00F0FD8002460B46A4
:102F400027F0E6FE02460B4628F0C4F903B0BDE8C0
:102F5000F08FB24B9A458B460FD8BAF1795F80F06B
:102F6000658191A3D3E9002327F0D4FEAC4B002266
:102F700028F016FB002840F012812046294621F057
:102F800057FE02460B460020A54927F0C1FEA54B7F
:102F9000002228F075F886A3D3E9002304460D46E5
:102FA00028F06EF884A3D3E9002327F0B3FE22466D
:102FB0002B4628F065F882A3D3E9002327F0A8FE6A
:102FC00022462B4628F05CF87FA3D3E9002327F0A4
:102FD000A1FE22462B4628F053F87DA3D3E9002317
:102FE00027F096FE22462B4628F04AF87AA3D3E92A
:102FF000002327F08FFE22462B4628F041F878A3C5
:10300000D3E90023CDE900012046294628F038F80D
:1030100075A3D3E9002327F07BFE22462B4628F038
:103020002FF873A3D3E9002327F074FE22462B4622
:1030300028F026F870A3D3E9002327F069FE224682
:103040002B4628F01DF8764B002227F063FE06463B
:103050000F462046294620F079FE3B4680468946A9
:103060003246DDE9000128F035F96F4B9A45CDE98C
:10307000000146464F4677D832464B4630464946D1
:1030800027F048FEDDE9002327F0FAFF4FF00008A3
:10309000CDE9000142464B464046494627F0F0FF45
:1030A00002460B462046294627F032FE4246044699
:1030B0000D464B463046494627F02CFE02460B464D
:1030C0002046294628F006F902460B4627F022FE44
:1030D00002460B464AA1D1E9000127F019FE02463B
:1030E0000B46DDE9000127F013FE424604460D467B
:1030F0004B464046394627F00DFE02460B4642A19C
:10310000D1E9000127F004FE02460B46204629467D
:1031100027F0FEFD02460B463BA1D1E9000127F056
:10312000F7FDBBF1000F3FF711AF01F10043194666
:1031300003B0BDE8F08F36A3D3E9002327F0A0FF4A
:1031400002460B462046294614461D462CA3D3E9C9
:10315000002327F095FF02460B462046294627F01C
:10316000D9FD03B0BDE8F08F02460B464046494604
:1031700027F086FF42464B4627F0CCFD02460B4621
:1031800027F0C8FD1EA3D3E9002327F0C1FD0246A6
:103190000B461FA1D1E9000127F0BAFDC1E7204687
:1031A0002946D3E6AFF300809C7500883CE4377E67
:1031B00009F7FD0DE13D023F88B20175E0EF493F9F
:1031C0003B8F68B52882A43F5544880E55C1C93F3E
:1031D0007D6FEB0312D6D43F555555555555C53F18
:1031E00082922EB1C5B8B33F59018D1B6C06E63FE4
:1031F000C88A599CE52A00404B2D8A1C273A034077
:10320000075C143326A6913C182D4454FB21E93F5A
:10321000182D4454FB21F93FFFFFEF3FFFFFDF3F35
:103220000000F03F0000E03F3233EF3F02460B4624
:1032300027F026FF37A3D3E9002306460F4627F0E1
:103240001FFF36A3D3E9002327F064FD32463B4637
:1032500027F016FF33A3D3E9002327F059FD3246A8
:103260003B4627F00DFF31A3D3E9002327F052FDA1
:1032700032463B4627F004FF2EA3D3E9002327F074
:1032800047FD32463B4627F0FBFE2CA3D3E9002343
:1032900027F040FD32463B4627F0F2FE29A3D3E952
:1032A0000023804689463046394627F0E9FE27A3A9
:1032B000D3E9002327F02CFD32463B4627F0E0FE01
:1032C00024A3D3E9002327F025FD32463B4627F00F
:1032D000D7FE22A3D3E9002327F01AFD32463B464E
:1032E00027F0CEFE0A4B002227F014FD02460B46C3
:1032F0004046494627F0EEFF22462B4627F0C0FE07
:1033000022462B4627F006FD03B0BDE8F08F00BF34
:103310000000F03F09F7FD0DE13D023F88B2017565
:10332000E0EF493F3B8F68B52882A43F5544880EA3
:1033300055C1C93F7D6FEB0312D6D43F5555555546
:103340005555C53F82922EB1C5B8B33F59018D1B6B
:103350006C06E63FC88A599CE52A00404B2D8A1C22
:10336000273A0340000000002DE9F84FC44E21F039
:103370000043B34204460D460DD903F1404303F523
:103380008013034340F0B980002940F3C08000203F
:103390000021BDE8F88FBB4EB34208D8BA4A934229
:1033A00000F2BA809CA1D1E90001BDE8F88F0029A4
:1033B000C0F2708122462B46B449002027F0A8FCB9
:1033C000B34B002227F05CFE04460D4620F0BEFC05
:1033D00093A3D3E90023894680462946204627F057
:1033E0004FFE91A3D3E9002327F094FC22462B46FD
:1033F00027F046FE8EA3D3E9002327F089FC22465E
:103400002B4627F03DFE8CA3D3E9002327F082FC56
:1034100022462B4627F034FE89A3D3E9002327F068
:1034200077FC22462B4627F02BFE87A3D3E9002307
:1034300027F070FC22462B4627F022FE84A3D3E916
:10344000002382468B462046294627F019FE82A398
:10345000D3E9002327F05CFC22462B4627F010FE20
:103460007FA3D3E9002327F055FC22462B4627F003
:1034700007FE7DA3D3E9002327F04AFC22462B4612
:1034800027F0FEFD814B002227F044FC02460B464C
:103490005046594627F01EFF42464B4627F0F0FDA6
:1034A000002682468B4632464B463046494627F038
:1034B000E7FD02460B462046294627F029FC324606
:1034C00004460D464B464046494627F023FC02463B
:1034D0000B462046294627F0FDFE02460B46504685
:1034E000594627F017FC32464B4627F013FC02469C
:1034F0000B4627F00FFCBDE8F88F02460B4627F07D
:1035000007FC02460B4627F0E5FEBDE8F88F58A100
:10351000D1E90001BDE8F88F02460B4627F0B0FD67
:103520003FA3D3E9002306460F4627F0A9FD3EA39B
:10353000D3E9002327F0EEFB32463B4627F0A0FDFF
:103540003BA3D3E9002327F0E3FB32463B4627F0B9
:1035500097FD39A3D3E9002327F0DCFB32463B4635
:1035600027F08EFD36A3D3E9002327F0D1FB3246A6
:103570003B4627F085FD34A3D3E9002327F0CAFB9F
:1035800032463B4627F07CFD31A3D3E90023804639
:1035900089463046394627F073FD2FA3D3E900232F
:1035A00027F0B6FB32463B4627F06AFD2CA3D3E951
:1035B000002327F0AFFB32463B4627F061FD2AA3EC
:1035C000D3E9002327F0A4FB32463B4627F058FD01
:1035D0002E4B002227F09EFB02460B4640464946F2
:1035E00027F078FE22462B4627F04AFD02460B467E
:1035F00021A1D1E9000127F08BFB02460B462046B2
:10360000294627F085FB02460B4603A1D1E90001BC
:1036100027F07EFBBDE8F88F182D4454FB21F93FBD
:1036200009F7FD0DE13D023F88B20175E0EF493F2A
:103630003B8F68B52882A43F5544880E55C1C93FC9
:103640007D6FEB0312D6D43F555555555555C53FA3
:1036500082922EB1C5B8B33F59018D1B6C06E63F6F
:10366000C88A599CE52A00404B2D8A1C273A034002
:10367000182D4454FB210940075C143326A6913CC5
:10368000FFFFEF3FFFFFDF3F0000603C0000F03F27
:103690000000E03F5E4B002227F03CFB5D4B002228
:1036A00027F0EEFC42A3D3E9002304460D4627F0A1
:1036B000E7FC41A3D3E9002327F02CFB22462B464D
:1036C00027F0DEFC3EA3D3E9002327F021FB2246AE
:1036D0002B4627F0D5FC3CA3D3E9002327F01AFBA7
:1036E00022462B4627F0CCFC39A3D3E9002327F050
:1036F0000FFB22462B4627F0C3FC37A3D3E9002358
:1037000027F008FB22462B4627F0BAFC34A3D3E966
:10371000002306460F462046294627F0B1FC32A377
:10372000D3E9002327F0F4FA22462B4627F0A8FC21
:103730002FA3D3E9002327F0EDFA22462B4627F0EA
:103740009FFC2DA3D3E9002327F0E2FA22462B4663
:1037500027F096FC2E4B002227F0DCFA80468946A3
:103760002046294620F0F2FA424604460D464B46D2
:103770003046394627F0AEFD22462B4627F080FC26
:103780001FA3D3E9002327F0C3FA22462B4627F0D4
:10379000C1FA02460B4627F0BDFA02460B461AA1B3
:1037A000D1E9000127F0B4FABDE8F88FAFF300804B
:1037B00009F7FD0DE13D023F88B20175E0EF493F99
:1037C0003B8F68B52882A43F5544880E55C1C93F38
:1037D0007D6FEB0312D6D43F555555555555C53F12
:1037E00082922EB1C5B8B33F59018D1B6C06E63FDE
:1037F000C88A599CE52A00404B2D8A1C273A034071
:10380000075C143326A6913C182D4454FB21094033
:103810000000F03F0000E03F2DE9F04F9B46D64B03
:1038200021F000479F4287B09246804689460E4667
:1038300051D827F0D5FE0446002871D1109B42468E
:10384000013313433B4300F0E581109B012B00F053
:10385000EE8152465B464046494627F05BFA0B46EE
:103860000246C64900201F4627F034FD42464B461B
:10387000804689462046394627F04AFA02460B46DA
:103880005046594627F044FA22464B4627F0F8FBAB
:1038900002460B4616462046224639461F464B46F0
:1038A00027F0EEFBB64B002227F034FA02460B4617
:1038B0003046394627F02EFA42464B4627F0E0FBC9
:1038C00022464B4627F026FA04460D462046294656
:1038D00007B0BDE8F08FAB4B9F4221D9002905DA34
:1038E00001F1004399460BF100439B4642464B468B
:1038F00083A1D1E9000127F00BFA52465B4604464A
:103900000D4681A1D1E9000127F002FA22462B469B
:1039100027F000FA4FF0000A804689464FF0000B6E
:1039200042464B464046494627F0AAFB02460B4614
:10393000CDE9002327F0A4FBDDE9002304460D4672
:103940004046494627F09CFB71A3D3E90023CDE90B
:1039500002012046294627F093FB6FA3D3E90023F9
:1039600027F0D8F922462B4627F08AFB6CA3D3E92F
:10397000002327F0CFF922462B4627F081FB6AA3CC
:10398000D3E9002327F0C6F922462B4627F078FB1F
:1039900067A3D3E9002327F0BDF922462B4627F081
:1039A0006FFB65A3D3E9002327F0B4F9DDE9002319
:1039B00027F066FB62A3D3E90023CDE9040120468A
:1039C000294627F05DFB60A3D3E9002327F0A2F985
:1039D00022462B4627F054FB5DA3D3E9002327F0B2
:1039E00099F922462B4627F04BFB5BA3D3E9002332
:1039F00027F090F922462B4627F042FB58A3D3E943
:103A0000002327F087F922462B4627F039FB56A3DF
:103A1000D3E9002327F07EF902460B46DDE90401D5
:103A200027F078F9DDE9022327F02AFB52465B46AE
:103A300027F070F9DDE9002327F022FB52465B46B0
:103A400027F068F94AA3D3E9002304460D46DDE9CF
:103A5000020127F015FB22462B4627F05BF9824630
:103A60008B465B4640464946524627F053F9454B44
:103A70009F4204460D4600F28780109B012B37D0F1
:103A8000002602460B460F4600203C49CDE9006760
:103A900027F020FC42460D4604464B46DDE9000176
:103AA00027F036F902460B465046594627F030F9C2
:103AB0002B46324627F0E4FA2B46804689463246AA
:103AC000DDE9000127F0DCFA2D4B002227F022F976
:103AD00002460B464046494627F01CF922462B4633
:103AE00027F0CEFA2B46324627F014F904460D464D
:103AF0002046294607B0BDE8F08F00BFAFF3008035
:103B0000182D4454FB21E93F075C143326A6813C61
:103B1000D47ABF74702AFB3EE9A7F0320FB8123F87
:103B200068108D1AF726303F1583E0FEC8DB573F3B
:103B300093846EE9E326823FFE41B31BBAA1AB3FFB
:103B4000735360DBCB75F3BEA69237A0887E143F1B
:103B50000165F2F2D844433F280356C9226D6D3FF8
:103B600037D60684F464963F7AFE10111111C13FD6
:103B7000635555555555D53FFFFF2F3E0000F0BF0B
:103B80000000F03F2794E53F109827F00FFA2246F7
:103B9000CDE900012B462046294627F071FA02465E
:103BA0000B462046294614461D46DDE9002327F032
:103BB000B1F802460B462046294627F08BFB5246B9
:103BC0005B4627F0A5F802460B464046494627F0DB
:103BD0009FF802460B4627F09DF802460B46DDE9AA
:103BE000000127F095F84FEAA67808F0020804468D
:103BF000C8F101000D4627F0D9F902460B462046D0
:103C0000294627F03DFA04460D462046294607B0CE
:103C1000BDE8F08F4046494621F00AF802460B46BF
:103C20000020044927F056FB04460D4660E7444651
:103C30004D465DE70000F03F2DE9D04FD04E21F01A
:103C40000043B34284B082468B4601F0004411D950
:103C5000CC4EB34240F2C980CB4EB34240F2BD805D
:103C6000C1F31302024300F0D48102460B4627F051
:103C700051F8E4E0C54A934200F2E480C44A93421A
:103C800040F245810024C34B00225046594627F09C
:103C9000F7F906460F4632463B465046594627F04E
:103CA000EFF99FA3D3E900238046894627F0E8F97E
:103CB0009DA3D3E9002327F02DF842464B4627F079
:103CC000DFF99BA3D3E9002327F022F842464B46B5
:103CD00027F0D6F998A3D3E9002327F01BF8424632
:103CE0004B4627F0CDF996A3D3E9002327F010F82F
:103CF00042464B4627F0C4F9A74B002227F00AF8AA
:103D000002460B4630463946CDE9002327F0B8F984
:103D100002460B460020A14926F0FAFF06460F4650
:103D200032463B46DDE9000126F0F2FF32463B46D3
:103D300006460F465046594627F0A2F902460B4662
:103D40000020974926F0E4FF02460B4630463946EC
:103D500027F0C0FA42464B4627F092F902460B463E
:103D6000002C5ED0DDE9026732463B4626F0D0FFEC
:103D700052465B4627F084F932463B4626F0C8FFA0
:103D80004B46424626F0C4FF631C06460F4600F031
:103D90003181012C00F00A81631C392B4FEA045653
:103DA00000F2A480132C00F3458152465B464FF489
:103DB000001726F0ADFF47FA04F4C4F17F594FF025
:103DC000000809F5401902460B464046494626F0D0
:103DD0009FFF711804B0BDE8D08F5BA3D3E9002327
:103DE00027F0DEFB002840F04681002C53D058A37A
:103DF000D3E900235046594626F08CFF00220023C9
:103E000027F0B0FB002840F0078153A3D3E900233B
:103E10005046594627F034F902460B4600206149C6
:103E200044E05046594627F02BF942464B4626F0CF
:103E30006FFF02460B465046594626F069FF04B014
:103E4000BDE8D08F584A934200F2E98044A3D3E9F9
:103E50000023002C00F0C48026F05CFF0FF208194C
:103E6000D9E9008906460F464FF0FF3442464B46DB
:103E70003046394626F04CFF82468B4652465B461A
:103E80003046394626F044FF42464B4626F040FF76
:103E9000CDE90201F7E630A3D3E9002350465946A5
:103EA00027F0EEF80B463B490246002026F032FF91
:103EB00027F096FB044627F079F829A3D3E90023DD
:103EC0008046894627F0DCF802460B4650465946A4
:103ED00026F01EFF26A3D3E9002306460F464046E0
:103EE000494627F0CDF880468946BFE752465B46F3
:103EF00026F00EFF02460B460020274926F008FF59
:103F0000731819460022244B26F002FF97E71AA3E4
:103F1000D3E9002326F0FEFE02460B4687E700BFEA
:103F20002DC3096EB7FD8ABE3952E686CACFD03E90
:103F3000B7DBAA9E19CE143F8555FE19A0015A3F42
:103F4000F41011111111A13FEF39FAFE422E8640F3
:103F500059F3F8C21F6EA501FE822B654715F73F86
:103F60000000E0FE422EE63F763C7935EF39EABDAF
:103F7000763C7935EF39EA3D9C7500883CE4377E24
:103F800079684340412E8640FFFFEF7F422ED63FA7
:103F9000FFFF8F3C0000E03F0000F03F00000840C2
:103FA000000018400000E0BFB1A2F03F3A4B0022F1
:103FB0005046594627F0D6FA00284DD0374B504688
:103FC0005946002226F0A6FE02460B4630463946E8
:103FD00026F09EFE00224FF0404327F051F82EE7D6
:103FE00026F096FE0FF2A009D9E9008906460F4691
:103FF00001243BE702460B465046594626F088FE10
:10400000264B002227F03CF8244B002226F080FEAD
:1040100015E7002C3FF413AF214900200FE71CA344
:10402000D3E9002327F02CF802460B46002044B3C6
:104030001C493BE7C4F57F7403342305002226F0B6
:1040400069FE02460B465046594626F061FE164B65
:10405000002226F05FFEBCE632463B4650465946FB
:1040600026F056FE02460B4626F054FE0E4B00226A
:1040700026F050FEE3E6002004B0BDE8D04F20F06B
:1040800005BE064912E700BF763C7935EF39EA3DB7
:10409000FE822B654715F73F0000D0BF0000E03FD0
:1040A0000000F0BF0000E0BF0000F03F0000000093
:1040B000594A2DE9F84321F00046964204460D4640
:1040C0005CD8564B0029ACBFDFF86891DFF86C91E3
:1040D0009E424FF0000812D9514B9E4240F28E8012
:1040E000504B9E4256D901339E4250D048A3D3E94B
:1040F00000232046294626F0C3FFBDE8F8834A4B3B
:104100009E425ED842A3D3E9002326F003FE474B2C
:10411000002227F045FAB8BB2046294620F088FD4A
:10412000FFF78AFD04460D4622462B4620462946C7
:1041300026F0F0FD224606460F462B46204629462D
:1041400026F09EFF02460B462046294614461D4691
:104150000022364B26F0DEFD02460B46204629465D
:1041600027F0B8F802460B463046394626F0D0FD17
:1041700042464B4626F084FFBDE8F88302460B46D4
:1041800026F0C8FDBDE8F88320462946FAE7284B0B
:104190009842ABD82046294620F04AFD254B002204
:1041A00026F06EFFFDF7A4FE04460D4622462B4680
:1041B0004046494626F064FF22462B4626F060FF23
:1041C000E0E720F035FDFFF737FD184B00220446ED
:1041D0000D4626F09FFD0B4617498E420246A3D995
:1041E0002046294627F076F822462B4626F092FDF7
:1041F00042464B4626F044FFBDE8F88320F018FD08
:10420000FDF776FE42464B4626F03AFFBAE700BF7E
:104210003374AC3C1F7BAC7FFFFFEF7FFFFF35406B
:10422000412E8640CD338640FFFF2F3E0000F03FF9
:104230007DF8B98F0000E03FFFFFEF3F0000E0BFD7
:1042400038B5124B1D682A6B04461AB10023C2E927
:10425000044338BD18200DF075FA0246286378B182
:1042600001200021C2E90401094B0A480A49916072
:10427000C2E900030B2393810023C2E9044338BD44
:10428000064B0748462122F037FA00BF8C00002079
:1042900034126DE60E33CDABECDE05006426030070
:1042A0007C2603001C4B10B51C68226B8AB1136975
:1042B0001A4954691A4803FB01F100FB0411A3FBDE
:1042C0000030013341EB0001C2E9043121F000402C
:1042D00010BD18200DF036FA0246206388B1114C4B
:1042E000114B0E48114991609FED097BC2E90043D3
:1042F0000B2393810E4B014682ED047BC2E904310E
:1043000010BD0C4B0C48522122F0F6F9AFF300809F
:1043100001000000000000008C0000202DF4515826
:104320002D7F954C0E33CDAB34126DE6ECDE0500DF
:104330002E7F954C642603007C26030000000000BD
:104340002DE9F04F9FB00F46002107921A910022ED
:104350000021CDE9041283463A461992904612F89C
:1043600001ABBAF12D0F5FD801A151F82AF000BFBF
:10437000B9450000294400002944000029440000F8
:104380002944000029440000294400002944000079
:10439000294400005B4300005B4300005B430000D6
:1043A0005B4300005B4300002944000029440000F7
:1043B0002944000029440000294400002944000049
:1043C0002944000029440000294400002944000039
:1043D0002944000029440000294400002944000029
:1043E0002944000029440000294400002944000019
:1043F0005B430000294400002944000029440000D8
:1044000029440000294400002944000029440000F8
:104410002944000029440000294400007548000098
:10442000294400008F48000000220892BAF1300FA2
:1044300000F0858000230993BAF12F0F564640F211
:1044400012854FF0000940464D464C4618E0082CB6
:10445000C8BF09EB890900F10100C8BF0AEB490A8E
:104460001990C8BFAAF1300990F800A0D8BFA3F1F5
:104470003005BAF12F0F04F10104564640F3A8802D
:1044800005EB8503BAF1390F0AEB4303DFDDAC49D5
:10449000012224F02BFB002868D11998431C1993A2
:1044A000417818460A46002C40F0EB80302A08BFBD
:1044B000034640F0D7851946013319931A78302AFC
:1044C000F9D0C0F101000144A2F13100082800F246
:1044D000C68101310F910021303A98460A9101249A
:1044E00005EB850502EB450500210133199318788A
:1044F000A0F13002092A01F1010600F27E84002AAF
:1045000000F08C870F98012E30440F9000F08487C4
:1045100004F1010C604606E075000130061B013E07
:10452000B14240F38F84461E082E05EB8506F3DD6D
:104530001028DCBF09EB89094FEA4909EDE798F833
:10454000012002F0DF02582A18BF434600F012840F
:104550000133199393F800A0BAF1300FF8D09846C0
:10456000BAF1000F0ED00123099365E7BAF1650F88
:104570001AD0BAF1450F17D0002C2FD1099B002B70
:1045800000F0BC804FF000084FF00009079A0AB114
:10459000199B1360089BB3B109F10043994640464B
:1045A00049461FB0BDE8F08F002C78D10A940F94D3
:1045B000099B002B40F0E2824FF000084FF0000909
:1045C000079B03B11F60404649461FB0BDE8F08F0E
:1045D0005B49012224F08AFA00284ED0284626F0B2
:1045E000D5FC092CCDE9040140F3CD820023102C29
:1045F000A2460E93A8BF4FF0100A0A9412930F938D
:10460000504B03EBCA0353E9122326F039FD06464B
:1046100048460F4626F0BAFC02460B46304639465D
:1046200026F078FB0F2CCDE9040100F3AC800E9B43
:10463000002B00F0A8820E9B40F38E82162B40F3D5
:1046400065840E9AC4F125039342C0F29C803D4DCF
:10465000C4F10F0405EBC401DDE90423D1E9000135
:1046600026F00EFD0E9B1C1B05EBC405D5E90023AF
:1046700026F006FD8046894688E7199A531C19934F
:104680005178A1F13000092800F2DE8002460028AE
:1046900000F0BD8601210A94A4460F91D4E30021C5
:1046A000199B0A940F918C465A1C19925E782B2EF6
:1046B00000F0C7802D2E00F0BE804FF0000AA6F15A
:1046C0003007092F37D8302E199A40F0E580013293
:1046D00019921678302EFAD0A6F13100082840F24F
:1046E000D98000221292002C34D1099A0A437FF417
:1046F00049AFBCF1000F40F03F841F46692E00F027
:10470000188400F31184492E00F013844E2E7FF498
:1047100053AF0D4919A824F0BFFB00283FF44CAF5C
:10472000199B1B78282B00F06D85084820F056FC5B
:10473000804689462AE7002219931292D3E700BFE8
:10474000E8260300B80D0300F826030048260300FE
:10475000002312930A9A1346002A08BF23460A939D
:104760000F9A129B102CA3EB020328460E93A2462D
:10477000A8BF4FF0100A26F009FC092CCDE904016E
:104780003FF73EAF53E70E9BA4EB0A0A9A44BAF1F7
:10479000000F40F3A9802AF00F071AF00F0A40F02B
:1047A0004283B7F59A7F00F3DC83102FDFF880A1F6
:1047B0004FEA271600F04C85DDE904234FF0000C8A
:1047C0005746E14616F0010F1046194607D0D7E9C3
:1047D000002326F055FC4FF0010C02460B467610E4
:1047E000012E09F1010907F10807EBD1BCF1000F17
:1047F00001D0CDE90423059BA3F1547305930AEB83
:10480000C90ADDE90423DAE9000126F039FC454B49
:10481000CDE904010B400A4643498B4200F2A183D3
:10482000A1F580118B4240F2AF84404B4FF0FF3234
:10483000CDE904235AE04FF0010A9A1C19929E78A0
:104840003DE74FF0000AF8E701F0DF0145297FF46A
:10485000C5AE00210A940F914FF0010C24E702F03D
:10486000DF02452A7FF48EAE00240A940F944FF0A5
:10487000010C19E70022089208F10102199298F838
:1048800001A0BAF1000F3FF497AE9046CEE50122A9
:104890000892F1E7A6F13007501C199056782F2E98
:1048A00040F3F68286460E9208E0013019909EF899
:1048B00001602F2EA2F1300706DD864607EB870246
:1048C000392E06EB4202F0DD0E9A801A082840F3DA
:1048D000DF8244F61F621292BAF1000F3FF403AF79
:1048E000129A52421292FEE640F0D98200230993B6
:1048F0000A9A009523464146584625F001F8139040
:10490000002800F02E830F9B129A9B1A0E9A002A01
:10491000A8BF00230F9322EAE272002314921E46DE
:104920009946DAE00000F07F0000A07CFFFFEF7FF7
:10493000A80E0300D21A1F2AA4EB020400F39681EA
:1049400001239340109300231593099B25443C4475
:10495000A7421D443B46A8BF2346AB42A8BF2B46F7
:10496000002B02DDE41AED1AFF1A0F9B002B00F357
:104970001D81002C00F334810E9B002B00F36C8111
:10498000002D00F35A81002F08DD31463A46584683
:1049900025F0BEF90646002800F058811A995246C3
:1049A000584625F049FA8146002800F04F8100233F
:1049B000C268C3603146129225F01CFA0028C0F28A
:1049C000E883059B984600F08C833146484625F0E5
:1049D000CFFB00224FF0804304460D4626F0CCFD6D
:1049E000002800F0D380129B002B40F04C81049BE8
:1049F000002B40F0EF81C8F31303002B40F08A81B5
:104A0000A94B00222046294626F0ACFD002840F0A4
:104A10003883A64B00222046294626F031FB0A4661
:104A20000146CDE9101202F100430C900D93A04F06
:104A3000A04B08EA07079F42DDE90C4500F04281E0
:104A4000099B13B3B7F1D46F1FD893A3D3E9002305
:104A5000DDE9100126F090FDA0B1DDE9100126F09E
:104A6000E7FD012838BF012026F090FA129BCDE91E
:104A70001001002B40F0878201F10043169017933C
:104A8000DDE9164505F1D663DD1BDDE90A0125F0F8
:104A90008DFA02460B462046294626F0F1FADDE95A
:104AA0000A2326F037F9CDE904010C46099B23B906
:104AB0007F4B23409F4200F036811A99584624F0DC
:104AC000ADFE5146584624F0A9FE3146584624F022
:104AD000A5FE4946584624F0A1FE139C584661683D
:104AE00024F05CFE8246002800F0B0802269023289
:104AF000920004F10C010C3021F036FD9DED047B99
:104B00001CAB01931BAB0093584653EC172B8DED58
:104B10000A7B25F0D1FA1A9000286AD00121584664
:104B200024F0B2FF0646002800F090801B9B002B6B
:104B30007FDB0F9A149D9F18099A1C9C9B1A234493
:104B40005D4A013B9342C4F13604FFF6F3AE002305
:104B5000159301231093F8E61633FFF614AE0F9B5E
:104B6000129A9A1A554B03EBC203DDE90401D3E90B
:104B7000002326F0AFFB8046894607E5A4460024C3
:104B8000199B214690E5DDE90489FFE4474B204667
:104B90002946002226F074FA129BCDE91001002B61
:104BA0006CD101F100430C900D9340E731461A4659
:104BB000584625F035F806461A98D6B102463146D1
:104BC000584624F077FF034612931A988BB101469A
:104BD000584624F023FE129B1A93002C7FF7CCAE8C
:104BE0001A992246584625F093F81A9000287FF427
:104BF000C3AE5746CDF83890B2462223DFF8B090C6
:104C0000CBF800304FF000080146584624F006FE6D
:104C10003946584624F002FE5146584624F0FEFD1F
:104C20001399584624F0FAFD0E99584624F0F6FDE3
:104C3000ACE4149A0F9FD51A7EE751462A4658468F
:104C400025F066F8824600287FF49DAE57461A98F4
:104C5000CDF83890B246D0E75146149A584624F021
:104C6000DFFF824600287FF48BAEEFE7144AD21AAA
:104C7000012303FA02F21592109366E69DED107B74
:104C80008DED0C7BD3E69FED067B8DED0C7B8DEDE2
:104C9000107BCCE6AFF300800000C0FFFFFFDF41D8
:104CA000000000000000F03F0000F03F0000E03F87
:104CB0000000F07F0000E07F02FCFFFFB80D030062
:104CC000E2FBFFFFA8F154730593DDE9044520469C
:104CD000294625F06BF9DDE90C2326F0D1F92246AF
:104CE0002B4626F017F8B44AB44B0A409A42CDE955
:104CF000040140F29480DDE90A0103F15473994202
:104D000002D1B0F1FF3FA1D0AD4C4FF0FF33CDE960
:104D10000434D2E69FED9E7B8DED0C7B9FED9E7B58
:104D20008DED107B83E6DDE910783846414626F0AC
:104D300007FD26F077F902460B463846414625F036
:104D4000E7FF049F129DC4F313043D432C43074621
:104D500088462DD192A3D3E9002326F003FC002836
:104D60003FF4ABAECDF83890DDE904895746B24642
:104D70001A9849E70293089B01931AAB0093914A52
:104D80001BAB19A9584621F06BFF10F00F05044624
:104D90003FF4F8AB062D40F0218108F1010319938F
:104DA00000234FF000084FF000090893FFF7EEBB17
:104DB0007DA3D3E9002326F0D5FB0028D2D17CA324
:104DC000D3E900233846414626F0EAFB00283FF4A9
:104DD00074AEC7E7049B012B9CD14346002B99D1AD
:104DE0005746CDF83890B24622231A98CBF80030B7
:104DF0004FF000084FF0000906E700F0DF004528FB
:104E000000F0B380002C7FF4A3AC099B19434FF052
:104E100000084FF000093FF4D3ABFFF7B7BB01F137
:104E20005474059442E6684901EBCA01DDE90423A4
:104E3000D1E9000126F024F9CDE90401002F3FF467
:104E400055ADAEE401398C44BCF1080F0CF10104FE
:104E50007FF746AB102CDCBF09EB890902EB49094F
:104E60000021FFF742BB59490122404623F03EFE94
:104E700040B9814619980346013019905A784D4639
:104E8000FFF714BB099B002B3FF496ABFFF77ABBEF
:104E900044F61F629742A8BF174612971CE5CAF155
:104EA000000A4FEA2A171AF00F0A0DD0464B03EBFF
:104EB000CA03DDE90401D3E9002326F00BFACDE9AA
:104EC0000401002F3FF412AD1F2F00F30581DDE92F
:104ED000042317F0100118BF6A2117F0010F099180
:104EE0003B4E104619460FD0D6E9002326F0C8F8ED
:104EF0007F1002460B4600F0D28017F0010F06F13A
:104F0000080610461946EFD17F10F6E70E982E4995
:104F100001EBC001DDE90423D1E9000126F0B0F87E
:104F200080468946FFF732BB6E2E3FF4F2ABFFF7A7
:104F300043BB284919A823F0AFFF00283FF43CAB3E
:104F4000199B2549013B19A8199323F0A5FF10B916
:104F5000199B01331993DFF860904FF00008FFF7B9
:104F600015BB2223CBF80030F5E7002C00F03A8285
:104F70004FF0010CFFF798BB4FF000084FF000090D
:104F80001F46FFF71DBB9DED107B8DED167B77E572
:104F9000000000000000F0BF000000000000F03F33
:104FA0009535A094FFFFCF3F9535A094FFFFDF3FDD
:104FB00035E5AF350000E03F0000F07FFFFF9F7C4C
:104FC000FFFFEF7F580D0300B80D0300E826030034
:104FD000800D0300EC260300F02603001A9A3AB174
:104FE00035211CA825F00EF91A99584624F016FC14
:104FF000013D042D00F21582DFE805F0032E2B2081
:1050000003001C9B04931B9B03F233421D9B23F460
:10501000801343EA02530593E20502D543F00043AF
:105020000593B34A1A40DDE90489002A7FF4AEAA49
:1050300023F0CAFD22230360FFF7A8BA4FF0FF3226
:105040006FF00043CDE90423E3057FF59CAD059B9C
:10505000E4E7A74B0593F7E7DDE91C121D9BCDE9BB
:105060000412D9E7A2F13103082B13D922F0200250
:10507000452A7FF407AF00230A930F930124FFF71B
:1050800097BA9FED977B8DED0C7B9FED977B8DED18
:10509000107BCCE4012103460F91FFF71CBA099B5A
:1050A000CDE904017BB1C1F30A52C2F16B03002BBD
:1050B00009DD1F2B40F3FD80342B049740F36481FE
:1050C0004FF05C730593DDE904010022002326F014
:1050D0003FFA00283FF40CAC2223CBF80030FFF756
:1050E00051BA5746C3F31302B2461E46129BCDF87F
:1050F0003890DDF840C0DDF854E07E49DDE90A89EA
:10510000002B00F093808A4200F0FA80BEF1000F7D
:1051100000F0E0801EEA060F32D04046494624F0F7
:1051200045FF099B002B00F03781C6F30A53C3F1FA
:105130006B03002B40F353811C0504F17F530022C5
:1051400003F5401325F09CFF02460B4640464946B6
:1051500025F0E0FD80468946674B404649460022DF
:1051600025F08EFF624B0B4080468946002B7FF472
:10517000FFAD2223CBF80030FAE51EEA060F72D10C
:10518000099B002BE8D1F3E502F154730593FFF777
:10519000ADBBDDE90445129ACDF83890224357465D
:1051A0004B46B246DDE90A89EAD1C5F313022E4621
:1051B000002AE5D125F00044240D2405B4F1D66F72
:1051C000DED95A6912B91A69012AD9DD0E9901226C
:1051D000584624F09DFD51460E9024F00BFE002809
:1051E000CEDD099B002B00F0AB80A4F580146FEAA4
:1051F00014536FEA035305934FF0FF330493DDE933
:105200000489A9E73D4919A81CAA23F061FE0528D5
:105210007FF48BAA1D9B43F0FF4343F4E003059307
:105220001C9B0493DDE90489FFF7B0B9A2B9DDE95D
:105230000434002B45D1099B002B00F081802C4CBD
:105240003440B4F1D66FD0D8B4F15C7F84D8CBE5CC
:105250004FF00009FFF7CFBABEF1000F8DD1049BCC
:105260001CEA030F8CD04046494624F09FFE099B60
:10527000002B55D0C6F30A53C3F16B03002B40F348
:10528000AB801C0504F17F53002203F5401325F089
:10529000F7FE02460B464046494625F039FD0022FE
:1052A00000238046894626F053F900283FF454AF86
:1052B0009AE54FF0FF3202FA03F3049A1A4004927F
:1052C00001E7BEF1000F7FF458AF13EA0C0F3FF473
:1052D00057AFC8E7049B1CEA030F3FF451AF1CE72C
:1052E000000000000000E0BF000000000000E03F00
:1052F0000000F07FFFFF0F00000050396C0D03002D
:10530000DDE90445099B214653BB234601332ED0DA
:10531000BEF1000F6AD01EEA060F3FF429ADFCE68D
:1053200002460B464046494625F0F2FC0022002387
:105330008046894626F00CF900283FF419AD53E564
:105340003E4A1A983240A2F580126FEA12536FEA71
:10535000035305934FF0FF330493DDE9048953E4CD
:10536000364A3240B2F1D46F20D9621C27D1344A78
:10537000964240D0314A324002F580130593002313
:105380000493DDE90489FBE6C2F14B024FF0FF33E1
:1053900093400B40059396E602460B46404649462D
:1053A00025F0B8FC804689461A982DE4120DC2F10A
:1053B0006B024FF0FF3000FA02F29442D7D0BEF1F8
:1053C000000F04D01EEA060F3FF4C6AEA5E611EAB0
:1053D0000C0F3FF4C1AEA0E602460B465BE7024667
:1053E0000B46B3E600293FF449AEC1E514EA0C0FC1
:1053F0003FF4BEAC91E60131BCD122231A98DFF80C
:105400003C90CBF800304FF00008FFF7FDBB0F9049
:105410000A940121FFF769B8A44615E53146FFF764
:1054200064B8E10505D54FF000430593DDE9048933
:10543000FEE54FF000084FF00009F9E50000F07FAD
:10544000FFFFEF7F014BFEF77BBF00BFE8000020AE
:1054500010B4054C8446134620685DF8044B0A4698
:105460006146FEF76DBF00BF8C00002010B4054CF4
:10547000054B84460A4620685DF8044B6146FEF7FA
:105480005FBF00BF8C000020E80000202DE9F04144
:10549000DFF8A480044613462DED028B0A46D8F8A7
:1054A00000002146FEF74CFF02460B4604460D461F
:1054B00026F080F850BB2046294626F0D9F808EEA1
:1054C000100ADFED1A7AB0EEC87AB4EE677AF1EE20
:1054D00010FA15DD25F00047154B4FF0FF3220463E
:1054E000394626F067F838B9114B4FF0FF322046A5
:1054F000394626F041F818B1D8F8003022221A6057
:1055000018EE100ABDEC028BBDE8F081002D0948B1
:1055100006DA20F08FFD07EE900AB1EE678AEFE71A
:10552000BDEC028BBDE8F04120F084BDFFFF7F7F22
:10553000FFFFEF7F482603008C0000202DE9F84391
:10554000264F274B04460A4638682146FEF7F8FEE8
:1055500002460B4604460D4626F02CF888BB204632
:10556000294626F085F807EE100ADFED1E7AB0EE28
:10557000C77AB4EE677AF1EE10FA064617DD25F029
:105580000049194B4FF0FF322046494626F012F8E9
:1055900038B9154B204649464FF0FF3225F0ECFF55
:1055A00028B13B6822221A603046BDE8F88316F025
:1055B000FF4FF9D10D4B2B40002BF2D13046BDE807
:1055C000F883002D0A4804DA20F034FD80F000460C
:1055D000EAE7BDE8F84320F02DBD00BF8C000020B5
:1055E000E8000020FFFF7F7FFFFFEF7F0000F07FDC
:1055F000482603000348044B834202D0034B03B107
:105600001847704780020020800200200000000040
:105610000548064B1B1AD90F01EBA301491002D014
:10562000034B03B11847704780020020800200201E
:105630000000000010B5064C237843B9FFF7DAFFED
:10564000044B13B10448AFF300800123237010BD55
:105650007019002000000000B46C030008B5044B72
:105660001BB104490448AFF30080BDE80840CFE710
:105670000000000074190020B46C0300A3F5803A08
:10568000704700BF154B002B08BF114B9D46FFF71D
:10569000F5FF00218B460F461148124A121A23F0DB
:1056A00083F90C4B002B00D098470B4B002B00D0FC
:1056B00098470020002104000D000B4804F094FDE1
:1056C00023F056FE2000290002F00EFE23F0B4FB6A
:1056D00000000800000000000000000000000220A0
:1056E00000040020F41E0020416502006FF47D706C
:1056F000704700BF064B10B50446D3F83009036865
:105700005B6A98470146204627F073FC012010BDD4
:1057100000050020064B10B50446D3F82C09036899
:105720009B6A98470146204627F063FC012010BD84
:1057300000050020064B10B50446D3F82C09036879
:105740001B6A98470146204627F053FC012010BDF4
:105750000005002008B5024927F06FFC012008BDB4
:105760001A39030038B50121054629F09FFD441E72
:10577000032C0CD8094B0A4953F8243003EB43039C
:10578000284601EBC30127F0C9FC012038BD054ABA
:10579000012128461AF014FBECE700BFF43803009F
:1057A00028080020D00E030010B50121044629F07E
:1057B0007DFD054900EB400001EBC001204627F0CC
:1057C000ADFC012010BD00BF2808002008B502492B
:1057D00027F0A4FC012008BD5017002010B5044696
:1057E00004F08AFB0146204627F027FC012010BD6B
:1057F00030B583B00F49044601A805F06BFD0E4992
:1058000001A807F06FFA40B1204627F0E5FB01A898
:1058100007F024FA012003B030BD01A807F078FAA0
:10582000054601A807F078FA29460246204627F0E7
:10583000ECFBECE7080E00206C1A002030B583B0BA
:105840006A460121044629F0F4FC009A002301462F
:1058500001A807F00BFA01A9074805F07FFD0546EE
:1058600001A807F0FBF9B5FA85F12046490927F0B0
:105870004BFC012003B030BD080E0020074B10B5D3
:105880000446D3F830090368DB6A9847B0FA80F120
:105890004909204627F038FC012010BD00050020F2
:1058A000074B10B50446D3F8300903689B6A984744
:1058B000B0FA80F14909204627F026FC012010BDEE
:1058C0000005002010B50121044629F0EFFC074B2C
:1058D0000146D3F8300903681B6A9847B0FA80F193
:1058E0004909204627F010FC012010BD00050020CA
:1058F000074B10B50446D3F830090368DB699847B5
:10590000B0FA80F14909204627F0FEFB012010BDC6
:1059100000050020074B10B50446D3F82C09036896
:105920001B6B9847B0FA80F14909204627F0ECFB41
:10593000012010BD00050020074B10B50446D3F828
:105940002C090368DB6A9847B0FA80F149092046C0
:1059500027F0DAFB012010BD0005002010B5012161
:10596000044629F0A3FC074B0146D3F82C09036831
:105970005B6A9847B0FA80F14909204627F0C4FBDA
:10598000012010BD0005002010B50121044629F0BA
:105990008DFC074B0146D3F82C090368DB69984757
:1059A000B0FA80F14909204627F0AEFB012010BD76
:1059B0000005002070B50121044629F077FC022182
:1059C0000546204629F072FC03210646204629F0B0
:1059D0006DFC32B2C3B229B2054811F0CFFCB0FA67
:1059E00080F14909204627F08FFB012070BD00BFE0
:1059F000040D002010B504460DF094FF014620462A
:105A000027F0F7FA012010BD10B50121044629F056
:105A10004DFC0CF00BF80146204627F0EAFA012075
:105A200010BD00BF10B50446044805F0D3FB014685
:105A3000204627F0DEFA012010BD00BFF00D002047
:105A400010B50121044629F031FCC1B2054805F02A
:105A5000AFFBB0FA80F14909204627F055FB012041
:105A600010BD00BFF00D002010B50446054805F03C
:105A700039FBB0FA80F14909204627F045FB0120A7
:105A800010BD00BFF00D002010B50446054805F01C
:105A9000A1FAB0FA80F14909204627F035FB012030
:105AA00010BD00BFF00D002010B50121044629F003
:105AB000FDFB0146054805F0E3F9B0FA80F149091C
:105AC000204627F021FB012010BD00BFF00D002073
:105AD00010B50121044629F0E9FB0146054805F00F
