:1000000000000220D1B90100F9B90100FBB90100DB
:10001000FDB90100FFB9010001BA010000000000B4
:1000200000000000000000000000000003BA010012
:1000300005BA01000000000007BA010009BA01007A
:100040000BBA0100ADB6000099B801005DB801001F
:1000500071B801000BBA0100DDA10100458E01005D
:1000600049B3010051B3010059B301000BBA0100BB
:100070000BBA01000BBA01000BBA01000BBA010068
:100080000BBA01000BBA01000BBA01000BBA010058
:100090000BBA01000BBA01000BBA01000BBA010048
:1000A0000BBA01000BBA010061B3010069B3010092
:1000B0000BBA01000BBA01000000000000000000B4
:1000C0000BBA01000BBA01000BBA010085B80100A0
:1000D0000BBA01000BBA01000BBA010000000000CE
:1000E0000000000000000000000000000000000010
:1000F0000000000000000000000000000000000000
:1001000000000000000000000000000000000000EF
:1001100000000000000000000000000000000000DF
:1001200000000000000000000000000000000000CF
:1001300000000000000000000000000000000000BF
:1001400000000000000000000000000000000000AF
:10015000000000000000000000000000000000009F
:10016000000000000000000000000000000000008F
:10017000000000000000000000000000000000007F
:10018000000000000000000000000000000000006F
:10019000000000000000000000000000000000005F
:1001A000000000000000000000000000000000004F
:1001B000000000000000000000000000000000003F
:1001C000000000000000000000000000000000002F
:1001D000000000000000000000000000000000001F
:1001E000000000000000000000000000000000000F
:1001F00000000000000000000000000000000000FF
:1002000030B490F800F020F007016FF0000C10F00F
:10021000070491F820F040F048804FF000046FF0A0
:100220000700D1E9002391F840F000F1080082FABC
:100230004CF2A4FA8CF283FA4CF3A2FA8CF34BBB87
:10024000D1E9022382FA4CF200F10800A4FA8CF200
:1002500083FA4CF3A2FA8CF3E3B9D1E9042382FACE
:100260004CF200F10800A4FA8CF283FA4CF3A2FAE3
:100270008CF37BB9D1E9062301F1200182FA4CF21B
:1002800000F10800A4FA8CF283FA4CF3A2FA8CF382
:10029000002BC6D0002A04BF04301A4612BAB2FAA4
:1002A00082F200EBD20030BC7047D1E9002304F0A9
:1002B0000305C4F100004FEAC50514F0040F91F8DE
:1002C00040F00CFA05F562EA05021CBF63EA05037B
:1002D00062464FF00004AAE70000000000000000A2
:1002E00002780B78012A28BF9A4240F0D8806DE945
:1002F000044540EA0104CDE902676FF0000C4FEAC3
:1003000044721AB380EA010414F0070F6BD100F0B5
:10031000070420F0070004F0030521F007014FEA6D
:10032000C505F0E8042314F0040FF1E804670CFAA3
:1003300005F462EA040266EA04060BD063EA0403E9
:10034000624667EA0407664604E000BFF0E804235B
:10035000F1E8046782FA4CF582EA0604A4FA8CF408
:100360006CBB83FA4CF583EA0705A5FA8CF595B9C1
:1003700050E9022351E9026782FA4CF582EA060449
:10038000A4FA8CF483FA4CF583EA0705A5FA8CF5F8
:100390002543DBD09CB92DBAB5FA85F424F00704C7
:1003A00027FA04F1DDE9026723FA04F303F0FF0002
:1003B00001F0FF01FDE80445A0EB0100704724BAFD
:1003C000B4FA84F424F0070426FA04F1DDE90267A4
:1003D00022FA04F202F0FF0001F0FF01FDE80445FB
:1003E000A0EB0100704714F0030F3CD110F00304A0
:1003F00028D150F8082B51F8083B82FA4CF582EAD4
:100400000305A5FA8CF55DB950F8042C51F8043CAD
:1004100082FA4CF582EA0305A5FA8CF5002DE8D0A6
:100420002DBAB5FA85F424F0070423FA04F122FA70
:1004300004F202F0FF0001F0FF01FDE80445A0EB2B
:10044000010070474FEAC40420F0030050F8082B65
:1004500021F0030151F8083B0CFA04F462EA0402AB
:1004600063EA0403C9E710F003041DD0A1EB040103
:1004700020F00300E40750F8042B06D012D28B784A
:100480005FFAA2F4E41A06D12BB1CB785FFAB2F48A
:10049000E41A00D133B920465DF8104B7047A2EB47
:1004A0000300704701F1040150F8042BCC0721F040
:1004B000030151F8043B48D824D222F07F4482FA49
:1004C0004CF594EA1325A5FA8CF50AD165B951F8D3
:1004D000043B84EA0204B4EB036F0ED150F8042B02
:1004E000EBE74FEA132355E035F07F454DD108780F
:1004F000FDE80445C0F1000070474FEA126203F0C6
:10050000FF0347E002EA1C4482FA4CF594EA1345E3
:10051000A5FA8CF50AD165B951F8043B84EA0204C6
:10052000B4EB034F0CD150F8042BEBE74FEA134325
:1005300030E015EA1C4528D10B884FEA124229E029
:100540004FEA124203EA1C4324E002F0FF0482FA5D
:100550004CF594EA1365A5FA8CF50AD165B951F802
:10056000043B84EA0204B4EB032F09D150F8042BB6
:10057000EBE74FEA13630DE015F0FF0F05D10B68B1
:100580004FEA122223F07F4304E04FF00000FDE821
:100590000445704712BA1BBA82FA4CF482EA03048B
:1005A000A4FA8CF5B5FA85F402FA04F203FA04F31E
:1005B0004FEA1260FDE80445A0EB1360704700BFEE
:1005C00001F0FF01102A2BDB10F0070F08D010F804
:1005D000013B013A8B422DD010F0070F42B3F6D108
:1005E000F0B441EA012141EA014122F007047FF021
:1005F00000070023F0E80256083C85EA010586EA78
:10060000010685FA47F5A3FA87F586FA47F6A5FAB3
:1006100087F68EB9EED1F0BC01F0FF0102F00702BF
:1006200032B110F8013B013A83EA010313B1F8D16A
:100630000020704701387047002D06BF354603384B
:10064000073815F0010F07D1013015F4807F02BF84
:10065000013015F4C03F0130F0BC0138704700BFD5
:100660002DE9F0419FED1E7B214C04609FED1E5B48
:1006700000F502644FF07E55DFED1E6A03F1FF3C8A
:1006800080ED027B4FF00008256000F62807012668
:1006900000F5036500F5046EBCF1030F04ED025B89
:1006A000C0F82488C7ED006A80F82C6885ED007BCF
:1006B0000EED027B05D89C193441C0F81838C0F8FB
:1006C0001C4892B207EE902A00F61402F8EE677A00
:1006D00000F501631160C3ED007ABDE8F08100BF51
:1006E0000000000000000000030000000200000005
:1006F000B0410300000000002DE9F04F044683B034
:10070000C0682AF04DFF8046206989462AF048FFDC
:100710006569CDE9000128462AF042FF024601F151
:10072000004306460F464046494622F0A5FF2BF0FF
:1007300099FAE062824624F049F98346504623F054
:10074000E5FC824658462AF03DFF42464B462AF0D9
:1007500091FF8046504689462AF034FF32463B4698
:100760002AF088FF02460B46404649462AF0CAFD59
:1007700002460B46DDE9000122F07EFF2BF072FA03
:10078000002D07EE900A19DDF5EEC07AF1EE10FAB1
:100790001DDD11A7D7E9006717EE900A2AF012FFB6
:1007A00002460B46304639462AF0ACFD32463B46FF
:1007B0002AF0AAFD2BF056FA07EE900AE388C4ED62
:1007C0000A7A43F00203E38003B0BDE8F08F04A788
:1007D000D7E90067E0E700BFEA2E4454FB21F93F68
:1007E000EA2E4454FB21F9BF2DE9F0412DED028B97
:1007F000002408EE103A5C4B0360446005460F4647
:100800001646BDF8208010F0EFFA584B2B6003F12C
:100810002C023833EB60AA606F612C8205F12C004A
:1008200017F0FEFA05F1300017F0FAFA9FED507A52
:10083000504B68696E63C7EE087AA5F80480EC61D6
:100840002C852C83C0F80045B0EE677ABEEECE7AD8
:1008500017EE101A9FED427BB1F5004F83ED007B40
:1008600083ED027B234678DB013341FA03F4B4F5D0
:10087000004FF9DA072B15DC04FA03F10029B8BFA1
:100880000F31091107EE901ADFED396AC0F80C3507
:10089000F8EEE77AC0F8084586EEA77AC5ED097A42
:1008A00085ED087A00230222C0F804353249C0F8E9
:1008B0001025C0F84835C0F82835C0F84C35C0F8C8
:1008C0002C3540F201136B830123C0F8143530241A
:1008D00004238842C0F80032C0F8044321D02749DD
:1008E00088422DD0264A90420ED0326801235268A9
:1008F0002B7605F10801C0F8003530469047BDEC75
:10090000028B2846BDE8F0811E4A1F4C95601F4AA5
:100910009168A2F54062C1F8C840C2F884315360C2
:10092000E3E71A4B174A99681560A3F540634FF047
:100930008052174CC1F8B040C3F880211A60D4E748
:10094000104B144C5D60114B9968A3F54063C1F8DE
:10095000C440C3F884215A60C7E70C468EE700BF45
:100960000080008000800080504603005053030048
:10097000002474495018002000C0014000100240BB
:1009800000200240A41A0020F197010000ED00E0D1
:10099000499701009D97010010B5012104462EF0F2
:1009A0006FFE2AF00FFE06A3D3E900232AF062FEB1
:1009B0002BF058F9014620462CF02BFE012010BDEB
:1009C000399D52A246DF913F10B5012104462EF019
:1009D00057FE2AF0F7FD06A3D3E900232AF074FF9F
:1009E0002BF040F9014620462CF013FE012010BDEB
:1009F000399D52A246DF913F82B010B59FED0A7B30
:100A0000014601F110040498C86081ED087B20467E
:100A100002A981E80C0011F09DF92046BDE81040C4
:100A200002B011F0E7B800BF0000000000000000B5
:100A3000C1F30A5C2DE9F041ACF2FF35132D0246FB
:100A40000B460C46064622DC002D4CDBDFF8D4803A
:100A500048FA05F801EA080C5CEA000C0F461BD0C6
:100A60002EA3D3E900232AF04FFC002200232BF011
:100A700091F840B1002C03DD4FF480132B411F444B
:100A800027EA0804002621463046BDE8F081332DD0
:100A900006DDB5F5806F38D010461946BDE8F08107
:100AA000ACF2134C4FF0FF3727FA0CF73842F3D073
:100AB0001AA3D3E900232AF027FC002200232BF0FD
:100AC00069F80028DFD0002C334609DD142D06D04C
:100AD000C5F134050122AA4013449E4200D90134D5
:100AE00023EA0706CFE70DA3D3E900232AF00CFC85
:100AF000002200232BF04EF80028C4D0002C07DB86
:100B0000344300D0044C0026BDE72AF0FDFBC5E7C6
:100B100000264FF00044B6E70000F03F9C750088C7
:100B20003CE4377EFFFF0F00F8B504460D4601F0A8
:100B3000DFF906460F462046294624F079F978B1B8
:100B400012A3D3E90023204629462BF023F850B9FD
:100B500010A3D3E90023204629462AF0FDFF58B907
:100B600030463946F8BD28F029FB074F22230026DE
:100B7000036039463046F8BD28F020FB22230026CA
:100B800000270360ECE700BF0000F07FEF39FAFEBA
:100B9000422E864051302DD5104987C000000000FC
:100BA0002DE9F04F964B21F000459D428FB08246D3
:100BB0008B46144640F28B80924B9D420F4628D8BC
:100BC000002985A3D3E9002340F3A1812AF09AFBF1
:100BD0008D4B9D4206460F4600F08D8080A3D3E9E1
:100BE00000232AF08FFB8046894642464B4630461A
:100BF00039462AF087FB7AA3D3E900232AF082FB47
:100C0000C4E90089C4E90201012630460FB0BDE8FD
:100C1000F08F7E4B9D4240F288807D4B9D4261D893
:100C20002E15A6F21646A5EB0659494650462AF05F
:100C3000D1FF2AF0B5FC02460B4650464946CDE9A5
:100C400008232AF05FFB734B00222AF013FD89462C
:100C500080462AF0BFFF2AF0A3FC02460B4640461E
:100C60004946CDE90A232AF04DFB6A4B00222AF0BF
:100C700001FDCDE90C010DF1380A03254FF0000804
:100C80004FF000097AE9020142464B46AB46013D6E
:100C90002AF058FF0028F5D15F4B019302230093FF
:100CA00032465B46214608A822F0D4FD002F0646B6
:100CB000ABDA6168226801F10043E168C4E900230E
:100CC000A26801F10043C4E9022346429DE70022E5
:100CD0000023C4E900ABC4E90223002630460FB06C
:100CE000BDE8F08F02460B462AF00CFBC4E9020176
:100CF000C4E90001F1E73CA3D3E900232AF002FB99
:100D00003BA3D3E9002306460F462AF0FBFA8046B0
:100D1000894642464B46304639462AF0F3FA34A318
:100D2000D3E900232AF0EEFA6AE724F07BFA32A333
:100D3000D3E90023804689462AF09CFC374B0022E9
:100D40002AF0E2FA2AF046FF06462AF029FC02467B
:100D50000B46CDE9022320A3D3E900232AF08AFC25
:100D600002460B46404649462AF0CCFA1CA3D3E97A
:100D7000002382468B46DDE902012AF07BFC024615
:100D80000B4650465946CDE904232AF0BBFA1F2EE4
:100D90008046894646DC224B721E53F82230AB4215
:100DA00040D042464B46C4E90089504659462AF095
:100DB000A9FADDE904232AF0A5FA002FC4E902010B
:100DC000BFF623AF09F10043C4E9008301F10043FA
:100DD000C4E90203764218E700004054FB21F93FC2
:100DE0003163621A61B4D03D0000601A61B4D03D35
:100DF0007370032E8A19A33B83C8C96D305FE43F2B
:100E0000FB21E93F7BD90240FB21F93FFB2139411E
:100E1000FFFFEF7F00007041C05903000000E03F7A
:100E200040590300C9F30A53C3EB1553102B4FEA83
:100E30002555B6DD56A3D3E90023DDE902012AF0EA
:100E400019FC8046894642464B46504659462AF090
:100E500059FA02460B4650465946CDE906239246BA
:100E60009B462AF04FFA42464B462AF04BFA4AA3D9
:100E7000D3E9002380468946DDE902012AF0FAFB26
:100E800042464B462AF03EFA0B4602465946504629
:100E9000CDE904232AF036FAC1F30A53ED1A312DB5
:100EA000804689467FF77DAF3EA3D3E90023DDE985
:100EB00002012AF0DFFB8046894642464B46DDE9C7
:100EC00006012AF01FFA82468B4652465B46DDE950
:100ED00006012AF017FA42464B462AF013FA33A3CA
:100EE000D3E9002380468946DDE902012AF0C2FBEE
:100EF00042464B462AF006FA02460B4650465946F1
:100F0000CDE904232AF0FEF98046894649E72AF014
:100F1000FBF9234B9D4206460F4618D01AA3D3E98E
:100F200000232AF0F1F98046894642464B46304676
:100F300039462AF0E7F914A3D3E900232AF0E4F9AB
:100F4000C4E90089C4E902014FF0FF365DE610A351
:100F5000D3E900232AF0D8F90FA3D3E900230646EA
:100F60000F462AF0D1F98046894642464B46304624
:100F700039462AF0C7F908A3D3E900232AF0C4F9B7
:100F8000DEE700BFAFF300803163621A61B4D03D89
:100F90000000601A61B4D03D7370032E8A19A33B20
:100FA000FB21F93F0000002E8A19A33BC1492025EF
:100FB0009A837B390000000070B51646C1F30A52CF
:100FC00004460D460B464ABB21F00043034324D0A0
:100FD000334B00222AF04EFB324B9E4204460D4614
:100FE00046DBC1F30A520B46363A4CF250318E4280
:100FF0001CDC164440F2FE72964217DC002E29DCFF
:1010000016F1350F2CDB6FF31E53363643EA0651CB
:101010002046254B00222AF02DFB70BD40F2FF7CBC
:101020006245E2D102462AF06FF970BD002D14A18D
:10103000D1E9000105DB12A3D3E900232AF01AFB52
:1010400070BD0FA3D3E900230FA1D1E900012AF05D
:1010500011FBF5E76FF31E53204643EA065170BDBE
:10106000002D0BA1D1E9000102DA0BA1D1E90001A9
:1010700007A3D3E900232AF0FDFA70BDAFF3008087
:101080009C7500883CE4377E9C7500883CE437FE04
:1010900059F3F8C21F6EA50159F3F8C21F6EA5815E
:1010A00000005043B03CFFFF0000903C00000000F7
:1010B000F8B504460D4624F0E7FD224606460F46E5
:1010C0002B46204629462AF06FFD48B9204629467E
:1010D00024F0A8F809A3D3E900232AF05BFD10B996
:1010E00030463946F8BD28F069F8034F0026222320
:1010F000036039463046F8BD0000F07F7DF8B98FB7
:10110000CE338640000000002DE9F04F83B0CDE9DA
:10111000002321F00043B3F1795F04460D4604D269
:101120002AF058FD002800F0858022462B462046F4
:1011300029462AF09FFA06460F4632463B4620468D
:1011400029462AF097FA41A3D3E9002382468B4629
:10115000304639462AF08EFA3EA3D3E900232AF01E
:10116000D1F832463B462AF085FA3CA3D3E9002366
:101170002AF0CAF832463B462AF07CFA39A3D3E972
:1011800000232AF0BFF832463B462AF073FA37A311
:10119000D3E900232AF0B8F80C9B804689469BB31C
:1011A000DDE90001284B00222AF064FA42464B4652
:1011B00080468946504659462AF05CFA02460B465C
:1011C000404649462AF09EF832463B462AF052FAFB
:1011D000DDE900232AF096F819A3D3E90023064697
:1011E0000F46504659462AF045FA02460B4630460D
:1011F00039462AF089F802460B46204629462AF04D
:1012000081F803B0BDE8F08F02460B463046394600
:101210002AF030FA0AA3D3E900232AF073F85246E1
:101220005B462AF027FA22462B462AF06DF803B0D7
:10123000BDE8F08F2046294603B0BDE8F08F00BF1F
:10124000495555555555C53F0000E03F7CD5CF5A0F
:101250003AD9E53DEB9C2B8AE6E55A3E7DFEB15737
:10126000E31DC73ED561C119A0012A3FA6F81011A0
:101270001111813F000000002DE9F04F23F0004ADA
:10128000044652EA0A0093B0904699460D4614D19E
:101290002319714985F4002252419842914126D286
:1012A00042464B46204629462AF02EF802460B4677
:1012B0001046194613B0BDE8F08F1F461346674A23
:1012C00000940E4621F000419142029116D9009BF4
:1012D00006F1404606F580161E43E1D14346DB1871
:1012E0005D4989F4002252419E429141D8D35C4B22
:1012F00000221046194613B0BDE8F08F13D0924576
:10130000E5D8DDF808B053D0002E15DB002B40F0F7
:101310008380534A924540F02084002FC0F211850B
:1013200022462B46C4E7002CBAD18A45B8D800F033
:101330005984DDF808B0E7E74A4A924500F2A383F2
:10134000494A924500F2A583002B40F0EF83B7F1A4
:10135000804F00F0038504932046294623F062FF66
:101360000B4600990246002937D00498F10F013945
:1013700008435FD004980138084300F07F839FED55
:10138000347B8DED067BBAF1844F71D937498A459C
:1013900040F23D84344B029A9A4200F2F984002FC5
:1013A000C0F2F984002013B0BDE8F04F23F05EBF17
:1013B000002B8CD1029B009A03F1404303F580136C
:1013C000134394D0284B029A9A4240F29484002FFF
:1013D000C0F2068542464B466AE7214926F0404066
:1013E000884202D002990029BFD1002FC0F27B842D
:1013F000002EBFF65DAF029901F14049049909F54D
:10140000801959EA010917D0049901297FF450AFD6
:1014100003F100410B464BE7002304932046294685
:1014200023F000FF0B46009902460029D5D0F10FAA
:1014300001399FE722462B461046194629F062FFE4
:1014400002460B462AF040FA02460B4630E700BF40
:10145000000000000000F03F0000F0FF0000F07FFF
:101460000000F03FFFFF3F43FFFFEF3F0000F0436E
:10147000D7493140002940F0C88310461946002260
:10148000D44B2AF0F7F802468B466FF034004FEA4F
:101490002B51A1F2FF310818CF490F90CBF3130B5A
:1014A0004BF07F548B4544F4401440F3A083CB4968
:1014B0008B4540F35D849FEDB07B8DED087B9FED08
:1014C000B07B8DED047B9FEDAC7B8DED107B01300F
:1014D0000F90A4F58014002592465046DDE90423C0
:1014E000214629F00FFFA346DDE9042306460F46F7
:1014F00050462146CDE90AAB29F006FF02460B46CD
:101500000020B7492AF0E0F98C46834663465A46E4
:1015100030463946CDE90CBC2AF0ACF864100A46D6
:101520000146CDE9021244F00054DDE902AB04F5B6
:101530000023591900204FF0000A04460D462246A8
:101540002B4650465946CDE900012AF093F8024651
:101550000B463046394629F0D5FEDDE90423064620
:101560000F462046294629F0CDFE02460B46DDE90E
:101570000A0129F0C7FE52465B462AF07BF8024674
:101580000B463046394629F0BDFEDDE90C232AF032
:1015900071F8DDE90245CDE9040122462B462046DB
:1015A00029462AF067F878A3D3E9002304460D46BC
:1015B0002AF060F876A3D3E9002329F0A5FE22469D
:1015C0002B462AF057F874A3D3E9002329F09CFE98
:1015D00022462B462AF04EF871A3D3E9002329F0C6
:1015E00093FE22462B462AF045F86FA3D3E9002349
:1015F00029F08AFE22462B462AF03CF86CA3D3E958
:10160000002329F081FE224606460F462B4620463F
:1016100029462AF02FF802460B46304639462AF072
:1016200029F8524604460D465B46DDE9020129F0E1
:101630006BFEDDE904232AF01DF822462B4629F033
:1016400063FE524604460D465B46504659462AF014
:1016500011F8644B002206460F4629F055FE22463B
:101660002B46CDE90A4529F04FFE0D462B46524642
:101670005046594629F0FEFF5A4BCDE900010022A1
:101680002946504629F03EFE32463B4629F03AFEB6
:1016900002460B46DDE90A0129F034FEDDE90223AA
:1016A00029F0E8FF2B4606460F465246DDE90401C5
:1016B00029F0E0FF02460B463046394629F024FE69
:1016C00006460F463246DDE900013B4629F01CFE86
:1016D00039A3D3E9002350460D4629F0CBFFDDE9BD
:1016E0000023CDE900012946504629F00BFE0246B1
:1016F0000B463046394629F005FE31A3D3E90023D5
:1017000029F0B8FF02460B461446294650461D46AE
:101710002DA3D3E9002329F0ADFF02460B46204656
:10172000294629F0F1FDDDE9102329F0EDFD0646FB
:101730000F980F4629F034FF324604460D463B46CB
:10174000DDE9000129F0E0FDDDE9082329F0DCFDF9
:1017500022462B4629F0D8FD504622462B46CDE99D
:10176000020129F0CFFDDDE9082329F0CBFDDDE9F9
:10177000002339E0AFF3008000000000000000000B
:10178000000000000000F03FEF4E454A287ECA3FAF
:1017900065DBC9934A86CD3F01411DA96074D13FE5
:1017A0004D268F515555D53FFFAB6FDBB66DDB3FF7
:1017B000033333333333E33F000000E009C7EE3F28
:1017C000FD033ADC09C7EE3FF5015B14E02F3EBE96
:1017D0000000F07F000040438E98030079B60B00B4
:1017E0000000F03F0000084029F08CFD02460B4647
:1017F0003046394629F086FDCDE904010023CDE9C4
:1018000000890093DDE90067404632463B46494681
:1018100029F078FDDDE902AB52465B4629F02AFF4C
:10182000424604460D464B46DDE9040129F022FFFD
:1018300002460B462046294629F066FD32460446FC
:101840000D463B4650465946CDE9024529F012FF68
:1018500006460F46204629463B46324629F054FDAF
:10186000DB4B994204460D46884640F33F8101F127
:101870003F4303F5E003034340F09782C0A3D3E95D
:101880000023DDE9020129F03FFD02460B46204618
:10189000294614461D4632463B4629F033FD024692
:1018A0000B46204629462AF075F9002840F07D8233
:1018B0004FF400734344C3F30A52C64CA2F2FF3202
:1018C0001441C3F3130AC2F11402002004EA030115
:1018D0004AF4801A4AFA02FA0B460246B8F1000F9F
:1018E00030463946B8BFCAF1000A29F00BFD02465E
:1018F0000B4606460F46DDE9020129F005FD4FEAD9
:101900000A5B0D460024A0A3D3E900232046294604
:1019100029F0B0FE3246804689463B46204629469D
:1019200029F0F0FC02460B46DDE9020129F0EAFC51
:1019300097A3D3E9002329F09DFE02460B462046DB
:10194000294614461D4694A3D3E9002329F092FEAC
:1019500002460B462046294629F0D6FC06460F468D
:1019600032463B464046494629F0CEFC42464B466D
:1019700004460D4629F0C6FC02460B463046394661
:1019800029F0C0FC2246804689462B46204629463F
:1019900029F070FE82A3D3E9002306460F4629F002
:1019A00069FE81A3D3E9002329F0ACFC32463B4613
:1019B00029F060FE7EA3D3E9002329F0A5FC32467E
:1019C0003B4629F057FE7CA3D3E9002329F09AFC7B
:1019D00032463B4629F04EFE79A3D3E9002329F095
:1019E00093FC32463B4629F045FE02460B46204614
:1019F000294629F087FC06460F4632463B462046DC
:101A0000294629F037FE02460B463046394616462F
:101A10001F4600224FF0804329F074FC02460B461B
:101A20003046394629F050FF424606460F464B469F
:101A30002046294629F01EFE42464B4629F064FC0A
:101A400002460B463046394629F05CFC22462B46BE
:101A500029F058FC02460B4600205F4929F052FC51
:101A60000C465C44B4F5801FC0F29B812146DDE941
:101A7000062329F0FFFD02460B4619E49FED527B39
:101A80008DED067B7FE4002B00F0A68102230493FA
:101A9000C4E44FEA2A52A2F2FF32142A40F33781FB
:101AA000C2F1340223FA02F101FA02F29A4200F082
:101AB0009B81002B3AD1B7F1804F00F04F81204637
:101AC000294623F0AFFB0B460099024600297FF41C
:101AD000B1AC414926F04040884200F0CC810299E7
:101AE000002900F0C381002104913EE4DFF8F0C03A
:101AF00021F00043634540F21B81384B0B44034304
:101B00000AD132463B4629F0FDFBDDE902232AF0EB
:101B100037F800283FF4CCAEDDE9060100220023AF
:101B20002AF01AF8003818BF01203CE42046294664
:101B300023F078FB0B460099024600297FF47AAC2B
:101B4000254926F04040884200F07881029900291A
:101B500000F060810099049107E4B7F1804F00F034
:101B6000FD80A2F5801297427FF4F5AB204629460E
:101B700013B0BDE8F04F22F0E3BB00BFAFF300802D
:101B8000FE822B654715973C00000000432EE63F80
:101B9000EF39FAFE422EE63F396CA80C615C20BE9C
:101BA000D0A4BE726937663EF16BD2C541BDBB3E63
:101BB0002CDE25AF6A56113F93BDBE166CC1663F41
:101BC0003E5555555555C53F000000000000F0BF7B
:101BD000FFFF8F400000F0FF0000F03F00346F3F38
:101BE000FFCB9040002B7FF45BABFFF7EBBB9FED8F
:101BF000AA7B8DED087B9FEDAA7B8DED047B9DED8F
:101C0000087B00258DED107B66E400203FE4B4499D
:101C100002988842C0F0D380B2490298884200F20C
:101C2000EC80104619460022AE4B29F06BFB9EA3B8
:101C3000D3E9002304460D4629F01CFD9CA3D3E9FB
:101C4000002382468B462046294629F013FDA64BE9
:101C5000CDE9000100222046294629F00BFD02466D
:101C60000B4695A1D1E9000129F04CFB22462B46F9
:101C700029F000FD02460B4600209C4929F042FB5A
:101C800022462B4606460F462046294629F0F2FCFE
:101C900002460B463046394629F0ECFC88A3D3E9CE
:101CA000002329F0E7FC02460B46DDE9000129F09C
:101CB00029FB04460D4622462B465046594629F03C
:101CC00023FB002052465B46CDE9020129F01AFBB6
:101CD00002460B462046294629F014FBCDE90401B3
:101CE0008CE5029904917F49002029F0EDFD024620
:101CF0000B46FFF77DBB002F4FF000024FF00003B3
:101D0000BFF6D6AA424609F10043FFF7D1BA002B2D
:101D10007FF40CAFC2F114024AFA02F101FA02F2A6
:101D200052457DD06F4A92453FF4F7AAFFF70FBBAB
:101D30006E4A934200F28880DDE900239346924682
:101D4000E0E522462B466749002029F0BDFD02460A
:101D50000B46FFF7ADBAB7F1804F3DD122462B4677
:101D60002046294629F086FC02460B46FFF7A0BA1A
:101D70009FED557B8DED087B9FED557B8DED107BA9
:101D80009FED557B4FF480258DED047BFFF7A4BBC1
:101D9000002F7FF707AB002013B0BDE8F04F23F012
:101DA0006FBA5246FFF708F961E6DDE90601002245
:101DB000002329F0D1FE003818BF0120ECE7DDE94F
:101DC00006010022002329F0C7FE003818BF0120B9
:101DD000002FBFF6E8AADFE702230493FFF7BCBA9F
:101DE00000220023FFF764BA002BB4D001F00101F8
:101DF000C1F102030493FFF711BBDDE906010022E4
:101E0000002329F0A9FE003818BF0120002FC3DCF1
:101E1000FFF7C9BA002FFFF664AF0491FFF7EBBAE2
:101E2000304B9A453FF479AAB7F1804F96D001F034
:101E30000101C1F102030493FFF78EBA002F0BDBFF
:101E400000990491FFF7D7BA1B15A3F2FE334FF4A4
:101E5000801242FA03F32DE52249002029F034FDD7
:101E6000009B049302460B46FFF7C5BA002FD4DA55
:101E70000021049137E7002F01DB0021CDE719494C
:101E8000002029F021FD0023049302460B46FFF7B2
:101E9000B2BA00BFAFF300800000000000000000F5
:101EA000000000000000F03F000000604715F73F11
:101EB00044DF5DF80BAE543E555555555555D53F4D
:101EC000FE822B654715F73F0000004003B8E23F54
:101ED00006D0CF43EBFD4C3E000000000000F83F71
:101EE000FFFFEF3F0000F03F0000D03F0000E03F69
:101EF0002DE9F047D04F21F00042BA4286B00446A7
:101F00000D464FEAD1760DD9CC4FBA426FD9C1F305
:101F100013030343024640F04481002E64D00020A6
:101F2000002161E0C64B9A4200F21281C54B9A42F1
:101F300040F2248122462B462046294629F09AFB6E
:101F4000A7A3D3E9002306460F4629F093FBA6A3D7
:101F5000D3E9002329F0D6F932463B4629F08AFB23
:101F6000A3A3D3E9002329F0CFF932463B4629F059
:101F700081FBA1A3D3E9002329F0C4F932463B46F3
:101F800029F078FB9EA3D3E9002329F0BDF932465E
:101F90003B4629F06FFB02460B462046294629F0B6
:101FA000B1F9CDE90201DDE90289204642464B46FE
:101FB000294629F05FFB002206460F464FF080437A
:101FC0004046494629F09EF902460B4630463946BE
:101FD00029F07AFC22462B4629F094F902460B465A
:101FE0000020994929F08EF906B0BDE8F08786A354
:101FF000D3E9002329F0CEFD0746002840F0D78022
:1020000083A3D3E900232046294629F0A5FD002813
:1020100040F0DF808D4B204603EBC60629467EA3A9
:10202000D3E9002329F026FBD6E9082329F06CF92F
:1020300029F0D0FD824629F0B3FA79A3D3E9002331
:1020400006460F4629F016FB02460B462046294657
:1020500029F058F974A3D3E9002380468946304615
:10206000394629F007FBCDE90001DDE900234046B0
:10207000494629F047F902460B4604460D4629F029
:10208000F9FA57A3D3E9002306460F4629F0F2FADE
:1020900055A3D3E9002329F035F932463B4629F010
:1020A000E9FA53A3D3E9002329F02EF932463B463F
:1020B00029F0E0FA50A3D3E9002329F023F93246AE
:1020C0003B4629F0D7FA4EA3D3E9002329F01CF9A7
:1020D00032463B4629F0CEFA02460B4620462946B8
:1020E00029F010F906460F462046294632463B465F
:1020F000CDE9026729F0BEFACDE90401BAF1000F7B
:102100003FF451AF32463B4600204FF0804129F06A
:10211000F9F802460B46DDE9040129F0D5FB024639
:102120000B46DDE9000129F0EDF842464B4629F067
:10213000E9F802460B460020434929F0E3F86FF422
:102140007F72924539DB01EB0A5106B0BDE8F0879A
:102150003F4B9A423FF65EAF3C4C04EBC604D4E9D9
:10216000002329F0CFF894ED047B86F0010A8DED71
:10217000007B80468946AAEB060A76E72CA3D3E9C2
:10218000002329F0C1F8304B002229F003FD00287C
:102190003FF4D0AE2C4B00222046294629F0B4F85B
:1021A00022E70B4629F0B0F806B0BDE8F087002022
:1021B00006B0BDE8F04723F063B80AF57A7A01EB80
:1021C0000A5100224FF0B87329F054FA06B0BDE866
:1021D000F087384606B0BDE8F04723F047B800BFA7
:1021E000D0A4BE726937663EF16BD2C541BDBB3E1D
:1021F0002CDE25AF6A56113F93BDBE166CC1663FFB
:102200003E5555555555C53FEF39FAFE422E86408D
:1022100051302DD5104987C0FE822B654715F73FF9
:102220000000E0FE422EE63F763C7935EF39EA3D8C
:102230009C7500883CE4377E412E8640FFFFEF7F8F
:10224000422ED63FFFFFEF3D0000F03F0811030094
:10225000B1A2F03F00000000B1F5801F2DE9F84366
:1022600004460D460B4619DA21F00042024353D0D2
:10227000002959DB364B002229F0FCF9354A0D467E
:102280002B46934204466FF035010CDD22462B4667
:102290002046294629F038F8BDE8F8832D4A9342B4
:1022A0004FF00001F2DC1815A0F2FF300844C70F10
:1022B00000EBD070C3F3130629F072F9C7F57F73F2
:1022C000033346EA03551CA3D3E90023804689461D
:1022D00029F0D0F902460B462046294614461D46F1
:1022E00000F022FB16A3D3E9002329F0C3F922460C
:1022F0002B4629F009F814A3D3E9002304460D4620
:102300004046494629F0B6F902460B462046294682
:1023100028F0FAFFBDE8F883002200230E490020D0
:1023200029F0D2FABDE8F883024628F0EBFF00223C
:10233000002329F0C9FAAFE7362BF111F3FE593D1E
:102340000EE526157BCBDB3F00609F501344D33F47
:1023500000005043FFFFEF7F000050C3000000006B
:10236000C1F30A5C2DE9F041ACF2FF35132D0246B2
:102370000B460C46064622DC002D42DBDFF8E480EB
:1023800048FA05F801EA080C5CEA000C0F461BD07D
:1023900032A3D3E9002328F0B7FF0022002329F05D
:1023A000F9FB40B1002C03DA4FF480132B411F449A
:1023B00027EA0804002621463046BDE8F081332D87
:1023C00006DDB5F5806F2CD010461946BDE8F081CA
:1023D000ACF2134C4FF0FF3727FA0CF73842F3D02A
:1023E0001EA3D3E9002328F08FFF0022002329F049
:1023F000D1FB0028DFD0002C33461CDB23EA070684
:10240000D9E716A3D3E9002328F07EFF002200239A
:1024100029F0C0FB0028CED0002C05DB0026344676
:10242000C9E728F071FFD1E724F0004426430DD11D
:102430004FF00044BFE7142D06D0C5F1340501224A
:10244000AA4013449E42D9D90134D7E7024C002652
:10245000B1E700BFAFF300800000F0BF9C750088BB
:102460003CE4377EFFFF0F002DE9F84F99465342B9
:102470005F4F134329F0004E4EEAD373BB429046A0
:1024800004460D463DD84642064321F0004A4AEA3A
:10249000D676BE4203468B4633D809F1404606F550
:1024A000801616433DD04FEAA97606F0020653EA9D
:1024B0000A0346EAD1762CD052EA0E0235D0BE4548
:1024C00046D0BA4531D0AAEB0E0ABAF1747F4FEA72
:1024D0002A5339DAB9F1000F46DA3C3344DA0020E6
:1024E0000021012E58D0022E49D086B134A3D3E961
:1024F000002328F007FF34A3D3E9002328F002FFCC
:1025000005E022462B464046494628F0FDFEBDE840
:10251000F88F022E10D0032EF9D12DA1D1E90001A0
:10252000F5E7BDE8F84F00F067B8BBF1000F07DB37
:1025300029A1D1E90001EAE723A1D1E90001E6E7F9
:1025400027A1D1E90001E2E723A1D1E90001C8E711
:10255000F24506F1FF3623D0022E29D8254B03EB96
:10256000C603D3E90601D2E742464B462046294638
:1025700029F0AAF922F056FE00F03EF8B1E710A3C8
:10258000D3E9002328F0BEFE02460B460EA1D1E996
:10259000000128F0B7FEBAE701F100431946B6E79B
:1025A000022E08D8134B03EBC603D3E90001AEE7B4
:1025B00000200021ABE70CA1D1E90001A7E700BF93
:1025C000075C143326A6A13C182D4454FB21094076
:1025D000182D4454FB2109C0182D4454FB21F93F08
:1025E000182D4454FB21F9BF182D4454FB21E93F19
:1025F0000000F07F501103002DE9F84FC04B21F08F
:1026000000469E4204460D468A460ED9BD4B9E4268
:1026100000F2AE8000F0A980BAF1000F40F3E8802C
:102620009BA1D1E90001BDE8F88FB74B9E4200F2B3
:10263000B680A3F1DE739E4240F2A2804FF0FF3BD2
:1026400022462B462046294629F014F802460B461E
:102650008046894629F00EF88FA3D3E90023064669
:102660000F4629F007F88EA3D3E9002328F04CFE8B
:1026700032463B4628F0FEFF8BA3D3E9002328F027
:1026800043FE32463B4628F0F5FF89A3D3E90023F9
:1026900028F03AFE32463B4628F0ECFF86A3D3E909
:1026A000002328F031FE32463B4628F0E3FF84A3A6
:1026B000D3E9002328F028FE42464B4628F0DAFFF3
:1026C00081A3D3E90023804689463046394628F065
:1026D000D1FF7FA3D3E9002328F014FE32463B4606
:1026E00028F0C8FF7CA3D3E9002328F00BFE324674
:1026F0003B4628F0BFFF7AA3D3E9002328F002FE6F
:1027000032463B4628F0B6FF77A3D3E9002328F0F2
:10271000F9FD32463B4628F0ADFF02460B464046E7
:10272000494628F0F1FD22462B4628F0A3FFBBF1D5
:10273000FF3F02460B4660D0744E06EBCB06D6E94F
:10274000082328F0DFFD22462B4628F0DBFD024659
:102750000B46D6E9000128F0D5FDBAF1000F0DDADD
:1027600001F100431946BDE8F88F00283FF454AF4B
:1027700022462B462046294628F0C6FDBDE8F88FA4
:102780005BA3D3E9002328F0BFFD614B002229F0B1
:1027900001FA00283FF452AF20462946EEE722F026
:1027A00041FD5C4B9E4204460D462CD8A3F55023B8
:1027B0009E4253D802460B4628F0A6FD544B0022F9
:1027C00028F0A0FD02460B462046294614461D4629
:1027D00000224FF0804328F097FD02460B4620462A
:1027E000294629F071F84FF0000B04460D4627E703
:1027F00041A1D1E90001BDE8F88F2046294628F023
:1028000081FDBDE8F88F444B9E421CD2434B002211
:1028100028F078FD02460B462046294614461D4600
:1028200000223E4B28F026FF394B002228F06CFD99
:1028300002460B462046294629F046F84FF0020B87
:1028400004460D46FCE622462B463549002029F079
:102850003BF84FF0030B04460D46F1E62C4B0022EB
:1028600028F050FD02460B462046294614461D46D8
:102870000022274B28F048FD02460B4620462946F9
:1028800029F022F84FF0010B04460D46D8E600BFB0
:10289000182D4454FB21F93F11DA22E33AAD903F61
:1028A000EB0D76244B7BA93F513DD0A0660DB13F87
:1028B0006E204CC5CD45B73FFF8300922449C23FEF
:1028C0000D5555555555D53F2F6C6A2C44B4A2BFB4
:1028D0009AFDDE522DDEAD3F6D9A74AFF2B0B33F7C
:1028E000711623FEC671BC3FC4EB98999999C93FF4
:1028F0009C7500883CE4377E182D4454FB21F9BFB9
:10290000FFFF0F440000F07FFFFFDB3F901103004B
:102910000000F03FFFFFF23F008003400000F83F5F
:102920000000F0BF000000002DE9F04FB1F5801F5E
:1029300087B002460B460D4680F2838021F00044AA
:10294000044300F020810029C0F26081D64B0022B0
:1029500028F090FE0D460B46D4498D426FF03506A7
:10296000024673DC2C15C5F3130505F51521A4F2F9
:10297000FF3401F6647101F48011344404EB115406
:1029800081F07F5181F4401141EA05031046194658
:102990000022C74B28F0B6FCAB1CC3F31303022B79
:1029A00082468B464FF0000257DC002329F0CAF81C
:1029B000002840F0F180A8A3D3E9002350465946EF
:1029C00028F058FE02460B460020BA4928F09AFC2F
:1029D000524606460F465B465046594628F04AFE88
:1029E00002460B463046394628F044FE06460F465E
:1029F000002C00F00281204628F0D2FD98A3D3E9F4
:102A000000238046894628F035FE97A3D3E90023AA
:102A100004460D464046494628F02CFE02460B4629
:102A20003046394628F06EFC52465B4628F06AFC78
:102A300002460B462046294628F064FC07B0BDE854
:102A4000F08F9A498D424FF000068BDD10461946F3
:102A500028F05AFC07B0BDE8F08F4FF0804328F013
:102A600053FC02460B465046594628F02DFF0646B9
:102A700020460F4628F094FD3246CDE904013B463E
:102A800030463946CDE9026728F0F4FD02460B4690
:102A9000CDE9002328F0EEFD75A3D3E90023064617
:102AA0000F4628F0E7FD74A3D3E9002328F02CFC9F
:102AB00032463B4628F0DEFD71A3D3E9002328F01F
:102AC00023FC32463B4628F0D5FD6FA3D3E9002313
:102AD00028F01AFCDDE9002328F0CCFD6CA3D3E933
:102AE0000023CDE900013046394628F0C3FD6AA332
:102AF000D3E9002328F008FC32463B4628F0BAFD13
:102B000067A3D3E9002328F0FFFB32463B4628F0B9
:102B1000B1FDA5F5C22802460B46C5F5D725DDE96E
:102B2000000128F0F1FBA8F27A48513545EA080582
:102B3000002D06460F464BDD5E4B0022504659469F
:102B400028F098FD52465B4628F094FD8046894661
:102B50003046394642464B4628F0D6FBDDE9022393
:102B600028F088FD06460F46002C56D102460B463B
:102B70004046494628F0C6FB02460B465046594699
:102B800028F0C0FB66E7002200234B49002028F014
:102B90009BFE07B0BDE8F08F002C57D0204628F0F0
:102BA000FFFC2FA3D3E9002306460F4628F062FD61
:102BB0002DA3D3E9002304460D463046394628F0BC
:102BC00059FD02460B462046294628F09DFB41E769
:102BD00002460B465046594628F094FBDDE9022395
:102BE00028F048FD06460F463CB1DDE904891CA3E8
:102BF000D3E900234046494605E732463B46504666
:102C0000594628F07FFB07B0BDE8F08F28F07AFB2B
:102C10000022002328F058FE1CE711A3D3E900236B
:102C2000DDE9040128F026FD0FA3D3E900230446C3
:102C30000D46DDE9040128F01DFD32463B4628F033
:102C400063FB02460B4640464946EBE60020002166
:102C500000E700BFAFF30080555555555555D53F9A
:102C60000000E0FE422EE63F763C7935EF39EA3D42
:102C700044523EDF12F1C23FDE03CB966446C73FAB
:102C8000599322942449D23F935555555555E53FC4
:102C90009FC678D0099AC33FAF788E1DC571CC3FCF
:102CA00004FA97999999D93F00005043FFFFEF7FAD
:102CB0000000F03F0000E03F000050C300000000B3
:102CC0002DE9F04F21F00048B8F1795F85B09246C8
:102CD0009B4606460F466DD228F07CFF002800F088
:102CE000EE8032463B463046394628F0C3FC76A398
:102CF000D3E9002304460D4628F0BCFC74A3D3E9B5
:102D0000002328F001FB22462B4628F0B3FC72A3D7
:102D1000D3E9002328F0F6FA22462B4628F0AAFC35
:102D20006FA3D3E9002328F0EFFA22462B4628F0C0
:102D3000A1FC6DA3D3E9002328F0E4FA22462B4638
:102D400028F098FC6AA3D3E9002328F0DDFA224694
:102D50002B4628F08FFCCDE90001694B002220466C
:102D6000294628F087FCDDE9002380468946204675
:102D7000294628F07FFC44464D4680468946524607
:102D80005B463046394628F075FC02460B46404605
:102D9000494628F0B7FA02460B462046294628F055
:102DA000B1FA02460B460020564928F0ABFA05B0AE
:102DB000BDE8F08F02460B4628F05CFC42A3D3E945
:102DC000002304460D4628F055FC41A3D3E9002317
:102DD00028F09AFA22462B4628F04CFC3EA3D3E971
:102DE000002328F08FFA22462B4628F043FC3CA310
:102DF000D3E9002328F088FA22462B4628F03AFC33
:102E000039A3D3E9002328F07DFA22462B4628F087
:102E100031FC37A3D3E9002328F076FA2B4622466B
:102E200028F028FC384B9845CDE9000195D9374B5F
:102E300098453BD8A8F5001300223249002090465F
:102E4000994628F05FFACDE902012D4B0022204679
:102E5000294628F00FFC42464B4628F053FADDE99C
:102E60000023804689462046294628F003FC444634
:102E70004D468046894652465B463046394628F0E4
:102E8000F9FB02460B464046494628F03BFA02460B
:102E90000B462046294628F035FA02460B46DDE966
:102EA000020128F02FFA05B0BDE8F08F9FED127BEC
:102EB000DFF85C908DED027B4FF00008C5E711490B
:102EC000002005B0BDE8F08FD43888BEE9FAA8BD6F
:102ED000C4B1B4BD9EEE213EAD529C804F7E923E69
:102EE0009015CB19A001FA3E7751C1166CC1563F1F
:102EF0004C5555555555A53F000000000000E73FD3
:102F00000000E03F0000F03F3233D33F0000E93FD4
:102F10000000D23F000000002DE9F04FBE4B21F031
:102F2000004A9A4583B004460D4612D90AF1404A38
:102F30000AF5801A5AEA000A00F0FD8002460B46A4
:102F400028F0E0F902460B4628F0BEFC03B0BDE8CD
:102F5000F08FB24B9A458B460FD8BAF1795F80F06B
:102F6000658191A3D3E9002328F0CEF9AC4B002270
:102F700028F010FE002840F012812046294622F059
:102F800051F902460B460020A54928F0BBF9A54B94
:102F9000002228F06FFB86A3D3E9002304460D46E8
:102FA00028F068FB84A3D3E9002328F0ADF922467A
:102FB0002B4628F05FFB82A3D3E9002328F0A2F977
:102FC00022462B4628F056FB7FA3D3E9002328F0A6
:102FD0009BF922462B4628F04DFB7DA3D3E9002325
:102FE00028F090F922462B4628F044FB7AA3D3E937
:102FF000002328F089F922462B4628F03BFB78A3D2
:10300000D3E90023CDE900012046294628F032FB10
:1030100075A3D3E9002328F075F922462B4628F042
:1030200029FB73A3D3E9002328F06EF922462B462F
:1030300028F020FB70A3D3E9002328F063F922468F
:103040002B4628F017FB764B002228F05DF9064648
:103050000F462046294621F073F93B4680468946B3
:103060003246DDE9000128F02FFC6F4B9A45CDE98F
:10307000000146464F4677D832464B4630464946D1
:1030800028F042F9DDE9002328F0F4FA4FF00008B7
:10309000CDE9000142464B464046494628F0EAFA4F
:1030A00002460B462046294628F02CF942460446A3
:1030B0000D464B463046494628F026F902460B4657
:1030C0002046294628F000FC02460B4628F01CF951
:1030D00002460B464AA1D1E9000128F013F9024645
:1030E0000B46DDE9000128F00DF9424604460D4685
:1030F0004B464046394628F007F902460B4642A1A6
:10310000D1E9000128F0FEF802460B462046294688
:1031100028F0F8F802460B463BA1D1E9000128F05F
:10312000F1F8BBF1000F3FF711AF01F10043194671
:1031300003B0BDE8F08F36A3D3E9002328F09AFA54
:1031400002460B462046294614461D462CA3D3E9C9
:10315000002328F08FFA02460B462046294628F025
:10316000D3F803B0BDE8F08F02460B46404649460F
:1031700028F080FA42464B4628F0C6F802460B4635
:1031800028F0C2F81EA3D3E9002328F0BBF80246BA
:103190000B461FA1D1E9000128F0B4F8C1E7204691
:1031A0002946D3E6AFF300809C7500883CE4377E67
:1031B00009F7FD0DE13D023F88B20175E0EF493F9F
:1031C0003B8F68B52882A43F5544880E55C1C93F3E
:1031D0007D6FEB0312D6D43F555555555555C53F18
:1031E00082922EB1C5B8B33F59018D1B6C06E63FE4
:1031F000C88A599CE52A00404B2D8A1C273A034077
:10320000075C143326A6913C182D4454FB21E93F5A
:10321000182D4454FB21F93FFFFFEF3FFFFFDF3F35
:103220000000F03F0000E03F3233EF3F02460B4624
:1032300028F020FA37A3D3E9002306460F4628F0EA
:1032400019FA36A3D3E9002328F05EF832463B464C
:1032500028F010FA33A3D3E9002328F053F83246BC
:103260003B4628F007FA31A3D3E9002328F04CF8B5
:1032700032463B4628F0FEF92EA3D3E9002328F07E
:1032800041F832463B4628F0F5F92CA3D3E9002358
:1032900028F03AF832463B4628F0ECF929A3D3E966
:1032A0000023804689463046394628F0E3F927A3B3
:1032B000D3E9002328F026F832463B4628F0DAF915
:1032C00024A3D3E9002328F01FF832463B4628F018
:1032D000D1F922A3D3E9002328F014F832463B4663
:1032E00028F0C8F90A4B002228F00EF802460B46D7
:1032F0004046494628F0E8FA22462B4628F0BAF91B
:1033000022462B4628F000F803B0BDE8F08F00BF3E
:103310000000F03F09F7FD0DE13D023F88B2017565
:10332000E0EF493F3B8F68B52882A43F5544880EA3
:1033300055C1C93F7D6FEB0312D6D43F5555555546
:103340005555C53F82922EB1C5B8B33F59018D1B6B
:103350006C06E63FC88A599CE52A00404B2D8A1C22
:10336000273A0340000000002DE9F84FC44E21F039
:103370000043B34204460D460DD903F1404303F523
:103380008013034340F0B980002940F3C08000203F
:103390000021BDE8F88FBB4EB34208D8BA4A934229
:1033A00000F2BA809CA1D1E90001BDE8F88F0029A4
:1033B000C0F2708122462B46B449002027F0A2FFBC
:1033C000B34B002228F056F904460D4620F0B8FF12
:1033D00093A3D3E90023894680462946204628F056
:1033E00049F991A3D3E9002327F08EFF22462B460B
:1033F00028F040F98EA3D3E9002327F083FF22466B
:103400002B4628F037F98CA3D3E9002327F07CFF63
:1034100022462B4628F02EF989A3D3E9002327F072
:1034200071FF22462B4628F025F987A3D3E9002314
:1034300027F06AFF22462B4628F01CF984A3D3E923
:10344000002382468B462046294628F013F982A3A2
:10345000D3E9002327F056FF22462B4628F00AF92D
:103460007FA3D3E9002327F04FFF22462B4628F005
:1034700001F97DA3D3E9002327F044FF22462B4620
:1034800028F0F8F8814B002227F03EFF02460B4659
:103490005046594628F018FA42464B4628F0EAF8BA
:1034A000002682468B4632464B463046494628F037
:1034B000E1F802460B462046294627F023FF324614
:1034C00004460D464B464046494627F01DFF02463E
:1034D0000B462046294628F0F7F902460B4650468F
:1034E000594627F011FF32464B4627F00DFF0246A2
:1034F0000B4627F009FFBDE8F88F02460B4627F080
:1035000001FF02460B4628F0DFF9BDE8F88F58A10D
:10351000D1E90001BDE8F88F02460B4628F0AAF871
:103520003FA3D3E9002306460F4628F0A3F83EA3A5
:10353000D3E9002327F0E8FE32463B4628F09AF80C
:103540003BA3D3E9002327F0DDFE32463B4628F0BB
:1035500091F839A3D3E9002327F0D6FE32463B4643
:1035600028F088F836A3D3E9002327F0CBFE3246B3
:103570003B4628F07FF834A3D3E9002327F0C4FEAC
:1035800032463B4628F076F831A3D3E90023804643
:1035900089463046394628F06DF82FA3D3E9002339
:1035A00027F0B0FE32463B4628F064F82CA3D3E95E
:1035B000002327F0A9FE32463B4628F05BF82AA3F9
:1035C000D3E9002327F09EFE32463B4628F052F80E
:1035D0002E4B002227F098FE02460B4640464946F5
:1035E00028F072F922462B4628F044F802460B4692
:1035F00021A1D1E9000127F085FE02460B462046B5
:10360000294627F07FFE02460B4603A1D1E90001BF
:1036100027F078FEBDE8F88F182D4454FB21F93FC0
:1036200009F7FD0DE13D023F88B20175E0EF493F2A
:103630003B8F68B52882A43F5544880E55C1C93FC9
:103640007D6FEB0312D6D43F555555555555C53FA3
:1036500082922EB1C5B8B33F59018D1B6C06E63F6F
:10366000C88A599CE52A00404B2D8A1C273A034002
:10367000182D4454FB210940075C143326A6913CC5
:10368000FFFFEF3FFFFFDF3F0000603C0000F03F27
:103690000000E03F5E4B002227F036FE5D4B00222B
:1036A00027F0E8FF42A3D3E9002304460D4627F0A4
:1036B000E1FF41A3D3E9002327F026FE22462B4653
:1036C00027F0D8FF3EA3D3E9002327F01BFE2246B4
:1036D0002B4627F0CFFF3CA3D3E9002327F014FEAD
:1036E00022462B4627F0C6FF39A3D3E9002327F053
:1036F00009FE22462B4627F0BDFF37A3D3E900235E
:1037000027F002FE22462B4627F0B4FF34A3D3E96C
:10371000002306460F462046294627F0ABFF32A37A
:10372000D3E9002327F0EEFD22462B4627F0A2FF27
:103730002FA3D3E9002327F0E7FD22462B4627F0ED
:1037400099FF2DA3D3E9002327F0DCFD22462B4669
:1037500027F090FF2E4B002227F0D6FD80468946A9
:103760002046294620F0ECFD424604460D464B46D5
:103770003046394628F0A8F822462B4627F07AFF33
:103780001FA3D3E9002327F0BDFD22462B4627F0D7
:10379000BBFD02460B4627F0B7FD02460B461AA1B9
:1037A000D1E9000127F0AEFDBDE8F88FAFF300804E
:1037B00009F7FD0DE13D023F88B20175E0EF493F99
:1037C0003B8F68B52882A43F5544880E55C1C93F38
:1037D0007D6FEB0312D6D43F555555555555C53F12
:1037E00082922EB1C5B8B33F59018D1B6C06E63FDE
:1037F000C88A599CE52A00404B2D8A1C273A034071
:10380000075C143326A6913C182D4454FB21094033
:103810000000F03F0000E03F2DE9F04F9B46D64B03
:1038200021F000479F4287B09246804689460E4667
:1038300051D828F0CFF90446002871D1109B424698
:10384000013313433B4300F0E581109B012B00F053
:10385000EE8152465B464046494627F055FD0B46F1
:103860000246C64900201F4628F02EF842464B4625
:10387000804689462046394627F044FD02460B46DD
:103880005046594627F03EFD22464B4627F0F2FEB1
:1038900002460B4616462046224639461F464B46F0
:1038A00027F0E8FEB64B002227F02EFD02460B461D
:1038B0003046394627F028FD42464B4627F0DAFECF
:1038C00022464B4627F020FD04460D462046294659
:1038D00007B0BDE8F08FAB4B9F4221D9002905DA34
:1038E00001F1004399460BF100439B4642464B468B
:1038F00083A1D1E9000127F005FD52465B4604464D
:103900000D4681A1D1E9000127F0FCFC22462B469F
:1039100027F0FAFC4FF0000A804689464FF0000B72
:1039200042464B464046494627F0A4FE02460B4617
:10393000CDE9002327F09EFEDDE9002304460D4675
:103940004046494627F096FE71A3D3E90023CDE90E
:1039500002012046294627F08DFE6FA3D3E90023FC
:1039600027F0D2FC22462B4627F084FE6CA3D3E935
:10397000002327F0C9FC22462B4627F07BFE6AA3D2
:10398000D3E9002327F0C0FC22462B4627F072FE25
:1039900067A3D3E9002327F0B7FC22462B4627F084
:1039A00069FE65A3D3E9002327F0AEFCDDE900231F
:1039B00027F060FE62A3D3E90023CDE9040120468D
:1039C000294627F057FE60A3D3E9002327F09CFC8B
:1039D00022462B4627F04EFE5DA3D3E9002327F0B5
:1039E00093FC22462B4627F045FE5BA3D3E9002338
:1039F00027F08AFC22462B4627F03CFE58A3D3E949
:103A0000002327F081FC22462B4627F033FE56A3E5
:103A1000D3E9002327F078FC02460B46DDE90401D8
:103A200027F072FCDDE9022327F024FE52465B46B4
:103A300027F06AFCDDE9002327F01CFE52465B46B6
:103A400027F062FC4AA3D3E9002304460D46DDE9D2
:103A5000020127F00FFE22462B4627F055FC824636
:103A60008B465B4640464946524627F04DFC454B47
:103A70009F4204460D4600F28780109B012B37D0F1
:103A8000002602460B460F4600203C49CDE9006760
:103A900027F01AFF42460D4604464B46DDE9000179
:103AA00027F030FC02460B465046594627F02AFCC8
:103AB0002B46324627F0DEFD2B46804689463246AD
:103AC000DDE9000127F0D6FD2D4B002227F01CFC7C
:103AD00002460B464046494627F016FC22462B4636
:103AE00027F0C8FD2B46324627F00EFC04460D4653
:103AF0002046294607B0BDE8F08F00BFAFF3008035
:103B0000182D4454FB21E93F075C143326A6813C61
:103B1000D47ABF74702AFB3EE9A7F0320FB8123F87
:103B200068108D1AF726303F1583E0FEC8DB573F3B
:103B300093846EE9E326823FFE41B31BBAA1AB3FFB
:103B4000735360DBCB75F3BEA69237A0887E143F1B
:103B50000165F2F2D844433F280356C9226D6D3FF8
:103B600037D60684F464963F7AFE10111111C13FD6
:103B7000635555555555D53FFFFF2F3E0000F0BF0B
:103B80000000F03F2794E53F109827F009FD2246FA
:103B9000CDE900012B462046294627F06BFD024661
:103BA0000B462046294614461D46DDE9002327F032
:103BB000ABFB02460B462046294627F085FE5246BF
:103BC0005B4627F09FFB02460B464046494627F0DE
:103BD00099FB02460B4627F097FB02460B46DDE9B0
:103BE000000127F08FFB4FEAA67808F00208044690
:103BF000C8F101000D4627F0D3FC02460B462046D3
:103C0000294627F037FD04460D462046294607B0D1
:103C1000BDE8F08F4046494621F004FB02460B46C2
:103C20000020044927F050FE04460D4660E7444654
:103C30004D465DE70000F03F2DE9D04FD04E21F01A
:103C40000043B34284B082468B4601F0004411D950
:103C5000CC4EB34240F2C980CB4EB34240F2BD805D
:103C6000C1F31302024300F0D48102460B4627F051
:103C70004BFBE4E0C54A934200F2E480C44A93421D
:103C800040F245810024C34B00225046594627F09C
:103C9000F1FC06460F4632463B465046594627F051
:103CA000E9FC9FA3D3E900238046894627F0E2FC84
:103CB0009DA3D3E9002327F027FB42464B4627F07C
:103CC000D9FC9BA3D3E9002327F01CFB42464B46BB
:103CD00027F0D0FC98A3D3E9002327F015FB424638
:103CE0004B4627F0C7FC96A3D3E9002327F00AFB35
:103CF00042464B4627F0BEFCA74B002227F004FBB0
:103D000002460B4630463946CDE9002327F0B2FC87
:103D100002460B460020A14927F0F4FA06460F465A
:103D200032463B46DDE9000127F0ECFA32463B46DD
:103D300006460F465046594627F09CFC02460B4665
:103D40000020974927F0DEFA02460B4630463946F6
:103D500027F0BAFD42464B4627F08CFC02460B4644
:103D6000002C5ED0DDE9026732463B4627F0CAFAF6
:103D700052465B4627F07EFC32463B4627F0C2FAAD
:103D80004B46424627F0BEFA631C06460F4600F03B
:103D90003181012C00F00A81631C392B4FEA045653
:103DA00000F2A480132C00F3458152465B464FF489
:103DB000001727F0A7FA47FA04F4C4F17F594FF02F
:103DC000000809F5401902460B464046494627F0CF
:103DD00099FA711804B0BDE8D08F5BA3D3E9002332
:103DE00027F0D8FE002840F04681002C53D058A37D
:103DF000D3E900235046594627F086FA00220023D3
:103E000027F0AAFE002840F0078153A3D3E900233E
:103E10005046594627F02EFC02460B4600206149C9
:103E200044E05046594627F025FC42464B4627F0D1
:103E300069FA02460B465046594627F063FA04B029
:103E4000BDE8D08F584A934200F2E98044A3D3E9F9
:103E50000023002C00F0C48027F056FA0FF2081956
:103E6000D9E9008906460F464FF0FF3442464B46DB
:103E70003046394627F046FA82468B4652465B4624
:103E80003046394627F03EFA42464B4627F03AFA8A
:103E9000CDE90201F7E630A3D3E9002350465946A5
:103EA00027F0E8FB0B463B490246002027F02CFA9E
:103EB00027F090FE044627F073FB29A3D3E90023E3
:103EC0008046894627F0D6FB02460B4650465946A7
:103ED00027F018FA26A3D3E9002306460F464046EA
:103EE000494627F0C7FB80468946BFE752465B46F6
:103EF00027F008FA02460B460020274927F002FA6D
:103F0000731819460022244B27F0FCF997E71AA3EF
:103F1000D3E9002327F0F8F902460B4687E700BFF4
:103F20002DC3096EB7FD8ABE3952E686CACFD03E90
:103F3000B7DBAA9E19CE143F8555FE19A0015A3F42
:103F4000F41011111111A13FEF39FAFE422E8640F3
:103F500059F3F8C21F6EA501FE822B654715F73F86
:103F60000000E0FE422EE63F763C7935EF39EABDAF
:103F7000763C7935EF39EA3D9C7500883CE4377E24
:103F800079684340412E8640FFFFEF7F422ED63FA7
:103F9000FFFF8F3C0000E03F0000F03F00000840C2
:103FA000000018400000E0BFB1A2F03F3A4B0022F1
:103FB0005046594627F0D0FD00284DD0374B50468B
:103FC0005946002227F0A0F902460B4630463946F2
:103FD00027F098F900224FF0404327F04BFB2EE7E3
:103FE00027F090F90FF2A009D9E9008906460F469B
:103FF00001243BE702460B465046594627F082F91A
:10400000264B002227F036FB244B002227F07AF9BA
:1040100015E7002C3FF413AF214900200FE71CA344
:10402000D3E9002327F026FB02460B46002044B3C9
:104030001C493BE7C4F57F7403342305002227F0B5
:1040400063F902460B465046594627F05BF9164B7A
:10405000002227F059F9BCE632463B465046594605
:1040600027F050F902460B4627F04EF90E4B00227E
:1040700027F04AF9E3E6002004B0BDE8D04F21F074
:10408000FFB8064912E700BF763C7935EF39EA3DC3
:10409000FE822B654715F73F0000D0BF0000E03FD0
:1040A0000000F0BF0000E0BF0000F03F0000000093
:1040B000594A2DE9F84321F00046964204460D4640
:1040C0005CD8564B0029ACBFDFF86891DFF86C91E3
:1040D0009E424FF0000812D9514B9E4240F28E8012
:1040E000504B9E4256D901339E4250D048A3D3E94B
:1040F00000232046294627F0BDFABDE8F8834A4B45
:104100009E425ED842A3D3E9002327F0FDF8474B37
:10411000002227F03FFDB8BB2046294621F082F857
:10412000FFF78AFD04460D4622462B4620462946C7
:1041300027F0EAF8224606460F462B462046294637
:1041400027F098FA02460B462046294614461D469B
:104150000022364B27F0D8F802460B462046294667
:1041600027F0B2FB02460B463046394627F0CAF824
:1041700042464B4627F07EFABDE8F88302460B46DE
:1041800027F0C2F8BDE8F88320462946FAE7284B15
:104190009842ABD82046294621F044F8254B00220E
:1041A00027F068FAFDF7A4FE04460D4622462B468A
:1041B0004046494627F05EFA22462B4627F05AFA37
:1041C000E0E721F02FF8FFF737FD184B00220446F7
:1041D0000D4627F099F80B4617498E420246A3D99F
:1041E0002046294627F070FB22462B4627F08CF804
:1041F00042464B4627F03EFABDE8F88321F012F81C
:10420000FDF776FE42464B4627F034FABAE700BF88
:104210003374AC3C1F7BAC7FFFFFEF7FFFFF35406B
:10422000412E8640CD338640FFFF2F3E0000F03FF9
:104230007DF8B98F0000E03FFFFFEF3F0000E0BFD7
:1042400038B5124B1D682A6B04461AB10023C2E927
:10425000044338BD18200DF013FE0246286378B1E0
:1042600001200021C2E90401094B0A480A49916072
:10427000C2E900030B2393810023C2E9044338BD44
:10428000064B0748462122F031FD00BF9000002078
:1042900034126DE60E33CDABECDE0500A42B03002B
:1042A000BC2B03001C4B10B51C68226B8AB1136930
:1042B0001A4954691A4803FB01F100FB0411A3FBDE
:1042C0000030013341EB0001C2E9043121F000402C
:1042D00010BD18200DF0D4FD0246206388B1114CAA
:1042E000114B0E48114991609FED097BC2E90043D3
:1042F0000B2393810E4B014682ED047BC2E904310E
:1043000010BD0C4B0C48522122F0F0FCAFF30080A2
:104310000100000000000000900000202DF4515822
:104320002D7F954C0E33CDAB34126DE6ECDE0500DF
:104330002E7F954CA42B0300BC2B03000000000033
:104340002DE9F04F9FB00F46002107921A910022ED
:104350000021CDE9041283463A461992904612F89C
:1043600001ABBAF12D0F5FD801A151F82AF000BFBF
:10437000B9450000294400002944000029440000F8
:104380002944000029440000294400002944000079
:10439000294400005B4300005B4300005B430000D6
:1043A0005B4300005B4300002944000029440000F7
:1043B0002944000029440000294400002944000049
:1043C0002944000029440000294400002944000039
:1043D0002944000029440000294400002944000029
:1043E0002944000029440000294400002944000019
:1043F0005B430000294400002944000029440000D8
:1044000029440000294400002944000029440000F8
:104410002944000029440000294400007548000098
:10442000294400008F48000000220892BAF1300FA2
:1044300000F0858000230993BAF12F0F564640F211
:1044400012854FF0000940464D464C4618E0082CB6
:10445000C8BF09EB890900F10100C8BF0AEB490A8E
:104460001990C8BFAAF1300990F800A0D8BFA3F1F5
:104470003005BAF12F0F04F10104564640F3A8802D
:1044800005EB8503BAF1390F0AEB4303DFDDAC49D5
:10449000012224F025FE002868D11998431C1993A5
:1044A000417818460A46002C40F0EB80302A08BFBD
:1044B000034640F0D7851946013319931A78302AFC
:1044C000F9D0C0F101000144A2F13100082800F246
:1044D000C68101310F910021303A98460A9101249A
:1044E00005EB850502EB450500210133199318788A
:1044F000A0F13002092A01F1010600F27E84002AAF
:1045000000F08C870F98012E30440F9000F08487C4
:1045100004F1010C604606E075000130061B013E07
:10452000B14240F38F84461E082E05EB8506F3DD6D
:104530001028DCBF09EB89094FEA4909EDE798F833
:10454000012002F0DF02582A18BF434600F012840F
:104550000133199393F800A0BAF1300FF8D09846C0
:10456000BAF1000F0ED00123099365E7BAF1650F88
:104570001AD0BAF1450F17D0002C2FD1099B002B70
:1045800000F0BC804FF000084FF00009079A0AB114
:10459000199B1360089BB3B109F10043994640464B
:1045A00049461FB0BDE8F08F002C78D10A940F94D3
:1045B000099B002B40F0E2824FF000084FF0000909
:1045C000079B03B11F60404649461FB0BDE8F08F0E
:1045D0005B49012224F084FD00284ED0284626F0B5
:1045E000CFFF092CCDE9040140F3CD820023102C2C
:1045F000A2460E93A8BF4FF0100A0A9412930F938D
:10460000504B03EBCA0353E9122327F033F8064655
:1046100048460F4626F0B4FF02460B463046394660
:1046200026F072FE0F2CCDE9040100F3AC800E9B46
:10463000002B00F0A8820E9B40F38E82162B40F3D5
:1046400065840E9AC4F125039342C0F29C803D4DCF
:10465000C4F10F0405EBC401DDE90423D1E9000135
:1046600027F008F80E9B1C1B05EBC405D5E90023B9
:1046700027F000F88046894688E7199A531C199359
:104680005178A1F13000092800F2DE8002460028AE
:1046900000F0BD8601210A94A4460F91D4E30021C5
:1046A000199B0A940F918C465A1C19925E782B2EF6
:1046B00000F0C7802D2E00F0BE804FF0000AA6F15A
:1046C0003007092F37D8302E199A40F0E580013293
:1046D00019921678302EFAD0A6F13100082840F24F
:1046E000D98000221292002C34D1099A0A437FF417
:1046F00049AFBCF1000F40F03F841F46692E00F027
:10470000188400F31184492E00F013844E2E7FF498
:1047100053AF0D4919A824F0B9FE00283FF44CAF5F
:10472000199B1B78282B00F06D85084820F050FF5E
:10473000804689462AE7002219931292D3E700BFE8
:10474000282C030030120300382C0300882B0300B0
:10475000002312930A9A1346002A08BF23460A939D
:104760000F9A129B102CA3EB020328460E93A2462D
:10477000A8BF4FF0100A26F003FF092CCDE9040171
:104780003FF73EAF53E70E9BA4EB0A0A9A44BAF1F7
:10479000000F40F3A9802AF00F071AF00F0A40F02B
:1047A0004283B7F59A7F00F3DC83102FDFF880A1F6
:1047B0004FEA271600F04C85DDE904234FF0000C8A
:1047C0005746E14616F0010F1046194607D0D7E9C3
:1047D000002326F04FFF4FF0010C02460B467610E7
:1047E000012E09F1010907F10807EBD1BCF1000F17
:1047F00001D0CDE90423059BA3F1547305930AEB83
:10480000C90ADDE90423DAE9000126F033FF454B4C
:10481000CDE904010B400A4643498B4200F2A183D3
:10482000A1F580118B4240F2AF84404B4FF0FF3234
:10483000CDE904235AE04FF0010A9A1C19929E78A0
:104840003DE74FF0000AF8E701F0DF0145297FF46A
:10485000C5AE00210A940F914FF0010C24E702F03D
:10486000DF02452A7FF48EAE00240A940F944FF0A5
:10487000010C19E70022089208F10102199298F838
:1048800001A0BAF1000F3FF497AE9046CEE50122A9
:104890000892F1E7A6F13007501C199056782F2E98
:1048A00040F3F68286460E9208E0013019909EF899
:1048B00001602F2EA2F1300706DD864607EB870246
:1048C000392E06EB4202F0DD0E9A801A082840F3DA
:1048D000DF8244F61F621292BAF1000F3FF403AF79
:1048E000129A52421292FEE640F0D98200230993B6
:1048F0000A9A009523464146584625F0FBFA139044
:10490000002800F02E830F9B129A9B1A0E9A002A01
:10491000A8BF00230F9322EAE272002314921E46DE
:104920009946DAE00000F07F0000A07CFFFFEF7FF7
:1049300020130300D21A1F2AA4EB020400F396816D
:1049400001239340109300231593099B25443C4475
:10495000A7421D443B46A8BF2346AB42A8BF2B46F7
:10496000002B02DDE41AED1AFF1A0F9B002B00F357
:104970001D81002C00F334810E9B002B00F36C8111
:10498000002D00F35A81002F08DD31463A46584683
:1049900025F0B8FC0646002800F058811A995246C6
:1049A000584625F043FD8146002800F04F81002342
:1049B000C268C3603146129225F016FD0028C0F28D
:1049C000E883059B984600F08C833146484625F0E5
:1049D000C9FE00224FF0804304460D4627F0C6F87A
:1049E000002800F0D380129B002B40F04C81049BE8
:1049F000002B40F0EF81C8F31303002B40F08A81B5
:104A0000A94B00222046294627F0A6F8002840F0AE
:104A10003883A64B00222046294626F02BFE0A4664
:104A20000146CDE9101202F100430C900D93A04F06
:104A3000A04B08EA07079F42DDE90C4500F04281E0
:104A4000099B13B3B7F1D46F1FD893A3D3E9002305
:104A5000DDE9100127F08AF8A0B1DDE9100127F0A7
:104A6000E1F8012838BF012026F08AFD129BCDE92C
:104A70001001002B40F0878201F10043169017933C
:104A8000DDE9164505F1D663DD1BDDE90A0125F0F8
:104A900087FD02460B462046294626F0EBFDDDE960
:104AA0000A2326F031FCCDE904010C46099B23B909
:104AB0007F4B23409F4200F036811A99584625F0DB
:104AC000A7F95146584625F0A3F93146584625F036
:104AD0009FF94946584625F09BF9139C5846616852
:104AE00025F056F98246002800F0B0802269023293
:104AF000920004F10C010C3022F030F89DED047BA3
:104B00001CAB01931BAB0093584653EC172B8DED58
:104B10000A7B25F0CBFD1A9000286AD00121584667
:104B200025F0ACFA0646002800F090801B9B002B75
:104B30007FDB0F9A149D9F18099A1C9C9B1A234493
:104B40005D4A013B9342C4F13604FFF6F3AE002305
:104B5000159301231093F8E61633FFF614AE0F9B5E
:104B6000129A9A1A554B03EBC203DDE90401D3E90B
:104B7000002326F0A9FE8046894607E5A4460024C6
:104B8000199B214690E5DDE90489FFE4474B204667
:104B90002946002226F06EFD129BCDE91001002B64
:104BA0006CD101F100430C900D9340E731461A4659
:104BB000584625F02FFB06461A98D6B102463146D4
:104BC000584625F071FA034612931A988BB10146A4
:104BD000584625F01DF9129B1A93002C7FF7CCAE96
:104BE0001A992246584625F08DFB1A9000287FF42A
:104BF000C3AE5746CDF83890B2462223DFF8B090C6
:104C0000CBF800304FF000080146584625F000F977
:104C10003946584625F0FCF85146584625F0F8F834
:104C20001399584625F0F4F80E99584625F0F0F8F7
:104C3000ACE4149A0F9FD51A7EE751462A4658468F
:104C400025F060FB824600287FF49DAE57461A98F7
:104C5000CDF83890B246D0E75146149A584625F020
:104C6000D9FA824600287FF48BAEEFE7144AD21AB5
:104C7000012303FA02F21592109366E69DED107B74
:104C80008DED0C7BD3E69FED067B8DED0C7B8DEDE2
:104C9000107BCCE6AFF300800000C0FFFFFFDF41D8
:104CA000000000000000F03F0000F03F0000E03F87
:104CB0000000F07F0000E07F02FCFFFF30120300E5
:104CC000E2FBFFFFA8F154730593DDE9044520469C
:104CD000294625F065FCDDE90C2326F0CBFC2246B5
:104CE0002B4626F011FBB44AB44B0A409A42CDE958
:104CF000040140F29480DDE90A0103F15473994202
:104D000002D1B0F1FF3FA1D0AD4C4FF0FF33CDE960
:104D10000434D2E69FED9E7B8DED0C7B9FED9E7B58
:104D20008DED107B83E6DDE910783846414627F0AB
:104D300001F826F071FC02460B463846414626F043
:104D4000E1FA049F129DC4F313043D432C4307462C
:104D500088462DD192A3D3E9002326F0FDFE00283A
:104D60003FF4ABAECDF83890DDE904895746B24642
:104D70001A9849E70293089B01931AAB0093914A52
:104D80001BAB19A9584622F065FA10F00F0504462E
:104D90003FF4F8AB062D40F0218108F1010319938F
:104DA00000234FF000084FF000090893FFF7EEBB17
:104DB0007DA3D3E9002326F0CFFE0028D2D17CA327
:104DC000D3E900233846414626F0E4FE00283FF4AC
:104DD00074AEC7E7049B012B9CD14346002B99D1AD
:104DE0005746CDF83890B24622231A98CBF80030B7
:104DF0004FF000084FF0000906E700F0DF004528FB
:104E000000F0B380002C7FF4A3AC099B19434FF052
:104E100000084FF000093FF4D3ABFFF7B7BB01F137
:104E20005474059442E6684901EBCA01DDE90423A4
:104E3000D1E9000126F01EFCCDE90401002F3FF46A
:104E400055ADAEE401398C44BCF1080F0CF10104FE
:104E50007FF746AB102CDCBF09EB890902EB49094F
:104E60000021FFF742BB59490122404624F038F99E
:104E700040B9814619980346013019905A784D4639
:104E8000FFF714BB099B002B3FF496ABFFF77ABBEF
:104E900044F61F629742A8BF174612971CE5CAF155
:104EA000000A4FEA2A171AF00F0A0DD0464B03EBFF
:104EB000CA03DDE90401D3E9002326F005FDCDE9AD
:104EC0000401002F3FF412AD1F2F00F30581DDE92F
:104ED000042317F0100118BF6A2117F0010F099180
:104EE0003B4E104619460FD0D6E9002326F0C2FBF0
:104EF0007F1002460B4600F0D28017F0010F06F13A
:104F0000080610461946EFD17F10F6E70E982E4995
:104F100001EBC001DDE90423D1E9000126F0AAFB81
:104F200080468946FFF732BB6E2E3FF4F2ABFFF7A7
:104F300043BB284919A824F0A9FA00283FF43CAB48
:104F4000199B2549013B19A8199324F09FFA10B920
:104F5000199B01331993DFF860904FF00008FFF7B9
:104F600015BB2223CBF80030F5E7002C00F03A8285
:104F70004FF0010CFFF798BB4FF000084FF000090D
:104F80001F46FFF71DBB9DED107B8DED167B77E572
:104F9000000000000000F0BF000000000000F03F33
:104FA0009535A094FFFFCF3F9535A094FFFFDF3FDD
:104FB00035E5AF350000E03F0000F07FFFFF9F7C4C
:104FC000FFFFEF7FD011030030120300282C0300F5
:104FD000F81103002C2C0300302C03001A9A3AB16C
:104FE00035211CA825F008FC1A99584624F010FF1A
:104FF000013D042D00F21582DFE805F0032E2B2081
:1050000003001C9B04931B9B03F233421D9B23F460
:10501000801343EA02530593E20502D543F00043AF
:105020000593B34A1A40DDE90489002A7FF4AEAA49
:1050300024F0C4F822230360FFF7A8BA4FF0FF3230
:105040006FF00043CDE90423E3057FF59CAD059B9C
:10505000E4E7A74B0593F7E7DDE91C121D9BCDE9BB
:105060000412D9E7A2F13103082B13D922F0200250
:10507000452A7FF407AF00230A930F930124FFF71B
:1050800097BA9FED977B8DED0C7B9FED977B8DED18
:10509000107BCCE4012103460F91FFF71CBA099B5A
:1050A000CDE904017BB1C1F30A52C2F16B03002BBD
:1050B00009DD1F2B40F3FD80342B049740F36481FE
:1050C0004FF05C730593DDE904010022002326F014
:1050D00039FD00283FF40CAC2223CBF80030FFF759
:1050E00051BA5746C3F31302B2461E46129BCDF87F
:1050F0003890DDF840C0DDF854E07E49DDE90A89EA
:10510000002B00F093808A4200F0FA80BEF1000F7D
:1051100000F0E0801EEA060F32D04046494625F0F6
:105120003FFA099B002B00F03781C6F30A53C3F105
:105130006B03002B40F353811C0504F17F530022C5
:1051400003F5401326F096FA02460B4640464946C0
:1051500026F0DAF880468946674B404649460022E9
:1051600026F088FA624B0B4080468946002B7FF47C
:10517000FFAD2223CBF80030FAE51EEA060F72D10C
:10518000099B002BE8D1F3E502F154730593FFF777
:10519000ADBBDDE90445129ACDF83890224357465D
:1051A0004B46B246DDE90A89EAD1C5F313022E4621
:1051B000002AE5D125F00044240D2405B4F1D66F72
:1051C000DED95A6912B91A69012AD9DD0E9901226C
:1051D000584625F097F851460E9025F005F900281D
:1051E000CEDD099B002B00F0AB80A4F580146FEAA4
:1051F00014536FEA035305934FF0FF330493DDE933
:105200000489A9E73D4919A81CAA24F05BF90528DF
:105210007FF48BAA1D9B43F0FF4343F4E003059307
:105220001C9B0493DDE90489FFF7B0B9A2B9DDE95D
:105230000434002B45D1099B002B00F081802C4CBD
:105240003440B4F1D66FD0D8B4F15C7F84D8CBE5CC
:105250004FF00009FFF7CFBABEF1000F8DD1049BCC
:105260001CEA030F8CD04046494625F099F9099B6A
:10527000002B55D0C6F30A53C3F16B03002B40F348
:10528000AB801C0504F17F53002203F5401326F088
:10529000F1F902460B464046494626F033F8002213
:1052A00000238046894626F04DFC00283FF454AF89
:1052B0009AE54FF0FF3202FA03F3049A1A4004927F
:1052C00001E7BEF1000F7FF458AF13EA0C0F3FF473
:1052D00057AFC8E7049B1CEA030F3FF451AF1CE72C
:1052E000000000000000E0BF000000000000E03F00
:1052F0000000F07FFFFF0F0000005039E4110300B1
:10530000DDE90445099B214653BB234601332ED0DA
:10531000BEF1000F6AD01EEA060F3FF429ADFCE68D
:1053200002460B464046494625F0ECFF002200238A
:105330008046894626F006FC00283FF419AD53E567
:105340003E4A1A983240A2F580126FEA12536FEA71
:10535000035305934FF0FF330493DDE9048953E4CD
:10536000364A3240B2F1D46F20D9621C27D1344A78
:10537000964240D0314A324002F580130593002313
:105380000493DDE90489FBE6C2F14B024FF0FF33E1
:1053900093400B40059396E602460B46404649462D
:1053A00025F0B2FF804689461A982DE4120DC2F10D
:1053B0006B024FF0FF3000FA02F29442D7D0BEF1F8
:1053C000000F04D01EEA060F3FF4C6AEA5E611EAB0
:1053D0000C0F3FF4C1AEA0E602460B465BE7024667
:1053E0000B46B3E600293FF449AEC1E514EA0C0FC1
:1053F0003FF4BEAC91E60131BCD122231A98DFF80C
:105400003C90CBF800304FF00008FFF7FDBB0F9049
:105410000A940121FFF769B8A44615E53146FFF764
:1054200064B8E10505D54FF000430593DDE9048933
:10543000FEE54FF000084FF00009F9E50000F07FAD
:10544000FFFFEF7F014BFEF77BBF00BFEC000020AA
:1054500010B4054C8446134620685DF8044B0A4698
:105460006146FEF76DBF00BF9000002010B4054CF0
:10547000054B84460A4620685DF8044B6146FEF7FA
:105480005FBF00BF90000020EC0000202DE9F0413C
:10549000DFF8A480044613462DED028B0A46D8F8A7
:1054A00000002146FEF74CFF02460B4604460D461F
:1054B00026F07AFB50BB2046294626F0D3FB08EEA7
:1054C000100ADFED1A7AB0EEC87AB4EE677AF1EE20
:1054D00010FA15DD25F00047154B4FF0FF3220463E
:1054E000394626F061FB38B9114B4FF0FF322046A8
:1054F000394626F03BFB18B1D8F8003022221A605A
:1055000018EE100ABDEC028BBDE8F081002D0948B1
:1055100006DA21F089F807EE900AB1EE678AEFE724
:10552000BDEC028BBDE8F04121F07EB8FFFF7F7F2C
:10553000FFFFEF7F882B0300900000202DE9F84348
:10554000264F274B04460A4638682146FEF7F8FEE8
:1055500002460B4604460D4626F026FB88BB204635
:10556000294626F07FFB07EE100ADFED1E7AB0EE2B
:10557000C77AB4EE677AF1EE10FA064617DD25F029
:105580000049194B4FF0FF322046494626F00CFBEC
:1055900038B9154B204649464FF0FF3226F0E6FA5F
:1055A00028B13B6822221A603046BDE8F88316F025
:1055B000FF4FF9D10D4B2B40002BF2D13046BDE807
:1055C000F883002D0A4804DA21F02EF880F0004616
:1055D000EAE7BDE8F84321F027B800BF90000020BB
:1055E000EC000020FFFF7F7FFFFFEF7F0000F07FD8
:1055F000882B03000348044B834202D0034B03B1C2
:105600001847704784020020840200200000000038
:105610000548064B1B1AD90F01EBA301491002D014
:10562000034B03B118477047840200208402002016
:105630000000000010B5064C237843B9FFF7DAFFED
:10564000044B13B10448AFF300800123237010BD55
:1056500060180020000000002072030008B5044B11
:105660001BB104490448AFF30080BDE80840CFE710
:10567000000000006418002020720300A3F5803AA7
:10568000704700BF154B002B08BF114B9D46FFF71D
:10569000F5FF00218B460F461148124A121A23F0DB
:1056A0007DFC0C4B002B00D098470B4B002B00D0FF
:1056B00098470020002104000D000B4805F032F946
:1056C00024F050F92000290002F04EFD23F0AEFE38
:1056D00000000800000000000000000000000220A0
:1056E000000400206C1D0020356B02006FF47D70FB
:1056F000704700BF08B5024927F0B6FF012008BD7A
:10570000B23E030038B50121054629F0D0FF441E02
:10571000032C0CD8094B0A4953F8243003EB4303FC
:10572000284601EBC30128F010F8012038BD054AD6
:10573000012128461AF048FEECE700BF8C3E03002A
:10574000280800204813030070B50121064629F0FF
:10575000AEFF041E0B4D0EDBD5F82433A3420ADD49
:1057600004EB440405EBC401304601F54A7127F00F
:10577000ECFF012070BD044A012130461AF024FEDE
:10578000EEE700BF000500205813030008B50249EA
:1057900027F0DBFF012008BD5017002010B504469C
:1057A00004F048FF0146204627F05EFF012010BDAF
:1057B00030B58BB01849044601A806F029F91749FD
:1057C00001A807F02DFE40B101A807F0E5FD204635
:1057D00027F019FF01200BB030BD01A807F03AFEF9
:1057E0002028F1DC01A807F035FE054601A807F0E6
:1057F0002DFE2A46014602A821F0B0F901A807F0C3
:10580000CBFD002DE3DB20462A4602A927F014FF3A
:1058100001200BB030BD00BF080E0020E4180020AE
:1058200010B50121044627F0BDFE01682046B1F9FC
:105830000220043127F000FF012010BD30B583B0F5
:105840006A460121044629F0F5FE009A002301462C
:1058500001A807F0A9FD01A9074806F01DF90546B2
:1058600001A807F099FDB5FA85F12046490927F00E
:1058700062FF012003B030BD080E0020074B10B5B9
:105880000446D3F830090368DB6A9847B0FA80F120
:105890004909204627F04FFF012010BD00050020D8
:1058A000074B10B50446D3F8300903689B6A984744
:1058B000B0FA80F14909204627F03DFF012010BDD4
:1058C0000005002010B50121044629F0F0FE074B29
:1058D0000146D3F8300903681B6A9847B0FA80F193
:1058E0004909204627F027FF012010BD00050020B0
:1058F000074B10B50446D3F830090368DB699847B5
:10590000B0FA80F14909204627F015FF012010BDAB
:1059100000050020074B10B50446D3F82C09036896
:105920001B6B9847B0FA80F14909204627F003FF26
:10593000012010BD00050020074B10B50446D3F828
:105940002C090368DB6A9847B0FA80F149092046C0
:1059500027F0F1FE012010BD0005002010B5012147
:10596000044629F0A4FE074B0146D3F82C0903682E
:105970005B6A9847B0FA80F14909204627F0DBFEC0
:10598000012010BD0005002010B50121044629F0BA
:105990008EFE074B0146D3F82C090368DB69984754
:1059A000B0FA80F14909204627F0C5FE012010BD5C
:1059B0000005002010B50446044805F0A9FF014683
:1059C000204627F02DFE012010BD00BFF00D002065
:1059D000064B10B50446D3F8300903685B6A984754
:1059E0000146204627F01CFE012010BD00050020C6
:1059F000064B10B50446D3F82C0903689B6A9847F8
:105A00000146204627F00CFE012010BD00050020B5
:105A1000064B10B50446D3F82C0903681B6A984757
:105A20000146204627F0FCFD012010BD00050020A6
:105A300010B50121044629F03AFE0CF095FB014611
:105A4000204627F0EDFD012010BD00BF10B5044633
:105A50000EF0DCFA0146204627F0E2FD012010BDE1
:105A600010B50121044629F022FEC1B2054805F017
:105A70003DFFB0FA80F14909204627F05CFE012085
:105A800010BD00BFF00D002010B50446054805F01C
:105A9000C7FEB0FA80F14909204627F04CFE0120EC
:105AA00010BD00BFF00D002010B50446054805F0FC
:105AB0002FFEB0FA80F14909204627F03CFE012074
:105AC00010BD00BFF00D002010B50121044629F0E3
:105AD000EEFD0146054805F071FDB0FA80F1490977
