:100000000000022021B5010049B501004BB50100F7
:100010004DB501004FB5010051B5010000000000D1
:1000200000000000000000000000000053B50100C7
:1000300055B501000000000057B5010059B5010099
:100040005BB5010065B20000E9B30100ADB301008A
:10005000C1B301005BB501002D9D01009589010030
:1000600099AE0100A1AE0100A9AE01005BB501008F
:100070005BB501005BB501005BB501005BB501003C
:100080005BB501005BB501005BB501005BB501002C
:100090005BB501005BB501005BB501005BB501001C
:1000A0005BB501005BB50100B1AE0100B9AE010066
:1000B0005BB501005BB5010000000000000000001E
:1000C0005BB501005BB501005BB50100D5B3010074
:1000D0005BB501005BB501005BB5010000000000ED
:1000E0000000000000000000000000000000000010
:1000F0000000000000000000000000000000000000
:1001000000000000000000000000000000000000EF
:1001100000000000000000000000000000000000DF
:1001200000000000000000000000000000000000CF
:1001300000000000000000000000000000000000BF
:1001400000000000000000000000000000000000AF
:10015000000000000000000000000000000000009F
:10016000000000000000000000000000000000008F
:10017000000000000000000000000000000000007F
:10018000000000000000000000000000000000006F
:10019000000000000000000000000000000000005F
:1001A000000000000000000000000000000000004F
:1001B000000000000000000000000000000000003F
:1001C000000000000000000000000000000000002F
:1001D000000000000000000000000000000000001F
:1001E000000000000000000000000000000000000F
:1001F00000000000000000000000000000000000FF
:1002000030B490F800F020F007016FF0000C10F00F
:10021000070491F820F040F048804FF000046FF0A0
:100220000700D1E9002391F840F000F1080082FABC
:100230004CF2A4FA8CF283FA4CF3A2FA8CF34BBB87
:10024000D1E9022382FA4CF200F10800A4FA8CF200
:1002500083FA4CF3A2FA8CF3E3B9D1E9042382FACE
:100260004CF200F10800A4FA8CF283FA4CF3A2FAE3
:100270008CF37BB9D1E9062301F1200182FA4CF21B
:1002800000F10800A4FA8CF283FA4CF3A2FA8CF382
:10029000002BC6D0002A04BF04301A4612BAB2FAA4
:1002A00082F200EBD20030BC7047D1E9002304F0A9
:1002B0000305C4F100004FEAC50514F0040F91F8DE
:1002C00040F00CFA05F562EA05021CBF63EA05037B
:1002D00062464FF00004AAE70000000000000000A2
:1002E00002780B78012A28BF9A4240F0D8806DE945
:1002F000044540EA0104CDE902676FF0000C4FEAC3
:1003000044721AB380EA010414F0070F6BD100F0B5
:10031000070420F0070004F0030521F007014FEA6D
:10032000C505F0E8042314F0040FF1E804670CFAA3
:1003300005F462EA040266EA04060BD063EA0403E9
:10034000624667EA0407664604E000BFF0E804235B
:10035000F1E8046782FA4CF582EA0604A4FA8CF408
:100360006CBB83FA4CF583EA0705A5FA8CF595B9C1
:1003700050E9022351E9026782FA4CF582EA060449
:10038000A4FA8CF483FA4CF583EA0705A5FA8CF5F8
:100390002543DBD09CB92DBAB5FA85F424F00704C7
:1003A00027FA04F1DDE9026723FA04F303F0FF0002
:1003B00001F0FF01FDE80445A0EB0100704724BAFD
:1003C000B4FA84F424F0070426FA04F1DDE90267A4
:1003D00022FA04F202F0FF0001F0FF01FDE80445FB
:1003E000A0EB0100704714F0030F3CD110F00304A0
:1003F00028D150F8082B51F8083B82FA4CF582EAD4
:100400000305A5FA8CF55DB950F8042C51F8043CAD
:1004100082FA4CF582EA0305A5FA8CF5002DE8D0A6
:100420002DBAB5FA85F424F0070423FA04F122FA70
:1004300004F202F0FF0001F0FF01FDE80445A0EB2B
:10044000010070474FEAC40420F0030050F8082B65
:1004500021F0030151F8083B0CFA04F462EA0402AB
:1004600063EA0403C9E710F003041DD0A1EB040103
:1004700020F00300E40750F8042B06D012D28B784A
:100480005FFAA2F4E41A06D12BB1CB785FFAB2F48A
:10049000E41A00D133B920465DF8104B7047A2EB47
:1004A0000300704701F1040150F8042BCC0721F040
:1004B000030151F8043B48D824D222F07F4482FA49
:1004C0004CF594EA1325A5FA8CF50AD165B951F8D3
:1004D000043B84EA0204B4EB036F0ED150F8042B02
:1004E000EBE74FEA132355E035F07F454DD108780F
:1004F000FDE80445C0F1000070474FEA126203F0C6
:10050000FF0347E002EA1C4482FA4CF594EA1345E3
:10051000A5FA8CF50AD165B951F8043B84EA0204C6
:10052000B4EB034F0CD150F8042BEBE74FEA134325
:1005300030E015EA1C4528D10B884FEA124229E029
:100540004FEA124203EA1C4324E002F0FF0482FA5D
:100550004CF594EA1365A5FA8CF50AD165B951F802
:10056000043B84EA0204B4EB032F09D150F8042BB6
:10057000EBE74FEA13630DE015F0FF0F05D10B68B1
:100580004FEA122223F07F4304E04FF00000FDE821
:100590000445704712BA1BBA82FA4CF482EA03048B
:1005A000A4FA8CF5B5FA85F402FA04F203FA04F31E
:1005B0004FEA1260FDE80445A0EB1360704700BFEE
:1005C00001F0FF01102A2BDB10F0070F08D010F804
:1005D000013B013A8B422DD010F0070F42B3F6D108
:1005E000F0B441EA012141EA014122F007047FF021
:1005F00000070023F0E80256083C85EA010586EA78
:10060000010685FA47F5A3FA87F586FA47F6A5FAB3
:1006100087F68EB9EED1F0BC01F0FF0102F00702BF
:1006200032B110F8013B013A83EA010313B1F8D16A
:100630000020704701387047002D06BF354603384B
:10064000073815F0010F07D1013015F4807F02BF84
:10065000013015F4C03F0130F0BC0138704700BFD5
:100660002DE9F0419FED1E7B214C04609FED1E5B48
:1006700000F502644FF07E55DFED1E6A03F1FF3C8A
:1006800080ED027B4FF00008256000F62807012668
:1006900000F5036500F5046EBCF1030F04ED025B89
:1006A000C0F82488C7ED006A80F82C6885ED007BCF
:1006B0000EED027B05D89C193441C0F81838C0F8FB
:1006C0001C4892B207EE902A00F61402F8EE677A00
:1006D00000F501631160C3ED007ABDE8F08100BF51
:1006E0000000000000000000030000000200000005
:1006F000503F0300000000002DE9F04F044683B096
:10070000C0682AF0B5FD8046206989462AF0B0FD10
:100710006569CDE9000128462AF0AAFD024601F1EB
:10072000004306460F464046494622F00DFE2BF098
:1007300001F9E062824623F0B1FF8346504623F080
:100740004DFB824658462AF0A5FD42464B462AF00C
:10075000F9FD8046504689462AF09CFD32463B46CC
:100760002AF0F0FD02460B46404649462AF032FC8C
:1007700002460B46DDE9000122F0E6FD2BF0DAF837
:10078000002D07EE900A19DDF5EEC07AF1EE10FAB1
:100790001DDD11A7D7E9006717EE900A2AF07AFD50
:1007A00002460B46304639462AF014FC32463B4698
:1007B0002AF012FC2BF0BEF807EE900AE388C4ED95
:1007C0000A7A43F00203E38003B0BDE8F08F04A788
:1007D000D7E90067E0E700BFEA2E4454FB21F93F68
:1007E000EA2E4454FB21F9BF2DE9F0412DED028B97
:1007F000002408EE103A5C4B0360446005460F4647
:100800001646BDF8208010F0CBF8584B2B6003F152
:100810002C023833EB60AA606F612C8205F12C004A
:1008200017F0A6F805F1300017F0A2F89FED507A06
:10083000504B68696E63C7EE087AA5F80480EC61D6
:100840002C852C83C0F80045B0EE677ABEEECE7AD8
:1008500017EE101A9FED427BB1F5004F83ED007B40
:1008600083ED027B234678DB013341FA03F4B4F5D0
:10087000004FF9DA072B15DC04FA03F10029B8BFA1
:100880000F31091107EE901ADFED396AC0F80C3507
:10089000F8EEE77AC0F8084586EEA77AC5ED097A42
:1008A00085ED087A00230222C0F804353249C0F8E9
:1008B0001025C0F84835C0F82835C0F84C35C0F8C8
:1008C0002C3540F201136B830123C0F8143530241A
:1008D00004238842C0F80032C0F8044321D02749DD
:1008E00088422DD0264A90420ED0326801235268A9
:1008F0002B7605F10801C0F8003530469047BDEC75
:10090000028B2846BDE8F0811E4A1F4C95601F4AA5
:100910009168A2F54062C1F8C840C2F884315360C2
:10092000E3E71A4B174A99681560A3F540634FF047
:100930008052174CC1F8B040C3F880211A60D4E748
:10094000104B144C5D60114B9968A3F54063C1F8DE
:10095000C440C3F884215A60C7E70C468EE700BF45
:100960000080008000800080F0430300F05003000E
:10097000002474495018002000C0014000100240BB
:1009800000200240A01A00204193010000ED00E089
:1009900099920100ED92010010B5012104462EF05C
:1009A000EDFD2AF077FC06A3D3E900232AF0CAFC68
:1009B0002AF0C0FF014620462CF093FC012010BD18
:1009C000399D52A246DF913F10B5012104462EF019
:1009D000D5FD2AF05FFC06A3D3E900232AF0DCFD55
:1009E0002AF0A8FF014620462CF07BFC012010BD18
:1009F000399D52A246DF913F82B010B59FED0A7B30
:100A0000014601F110040498C86081ED087B20467E
:100A100002A981E80C0010F079FF2046BDE81040E3
:100A200002B010F0C3BE00BF0000000000000000D4
:100A3000C1F30A5C2DE9F041ACF2FF35132D0246FB
:100A40000B460C46064622DC002D4CDBDFF8D4803A
:100A500048FA05F801EA080C5CEA000C0F461BD0C6
:100A60002EA3D3E900232AF0B7FA002200232AF0AC
:100A7000F9FE40B1002C03DD4FF480132B411F44DD
:100A800027EA0804002621463046BDE8F081332DD0
:100A900006DDB5F5806F38D010461946BDE8F08107
:100AA000ACF2134C4FF0FF3727FA0CF73842F3D073
:100AB0001AA3D3E900232AF08FFA002200232AF098
:100AC000D1FE0028DFD0002C334609DD142D06D0DE
:100AD000C5F134050122AA4013449E4200D90134D5
:100AE00023EA0706CFE70DA3D3E900232AF074FA1F
:100AF000002200232AF0B6FE0028C4D0002C07DB19
:100B0000344300D0044C0026BDE72AF065FAC5E75F
:100B100000264FF00044B6E70000F03F9C750088C7
:100B20003CE4377EFFFF0F00F8B504460D4601F0A8
:100B3000DFF906460F462046294623F0E1FF78B14B
:100B400012A3D3E90023204629462AF08BFE50B990
:100B500010A3D3E90023204629462AF065FE58B9A0
:100B600030463946F8BD28F091F9074F2223002678
:100B7000036039463046F8BD28F088F92223002664
:100B800000270360ECE700BF0000F07FEF39FAFEBA
:100B9000422E864051302DD5104987C000000000FC
:100BA0002DE9F04F964B21F000459D428FB08246D3
:100BB0008B46144640F28B80924B9D420F4628D8BC
:100BC000002985A3D3E9002340F3A1812AF002FA8A
:100BD0008D4B9D4206460F4600F08D8080A3D3E9E1
:100BE00000232AF0F7F98046894642464B463046B4
:100BF00039462AF0EFF97AA3D3E900232AF0EAF97B
:100C0000C4E90089C4E90201012630460FB0BDE8FD
:100C1000F08F7E4B9D4240F288807D4B9D4261D893
:100C20002E15A6F21646A5EB0659494650462AF05F
:100C300039FE2AF01DFB02460B4650464946CDE9D7
:100C400008232AF0C7F9734B00222AF07BFB894660
:100C500080462AF027FE2AF00BFB02460B46404650
:100C60004946CDE90A232AF0B5F96A4B00222AF059
:100C700069FBCDE90C010DF1380A03254FF000089E
:100C80004FF000097AE9020142464B46AB46013D6E
:100C90002AF0C0FD0028F5D15F4B01930223009399
:100CA00032465B46214608A822F03CFC002F06464F
:100CB000ABDA6168226801F10043E168C4E900230E
:100CC000A26801F10043C4E9022346429DE70022E5
:100CD0000023C4E900ABC4E90223002630460FB06C
:100CE000BDE8F08F02460B462AF074F9C4E9020110
:100CF000C4E90001F1E73CA3D3E900232AF06AF933
:100D00003BA3D3E9002306460F462AF063F9804649
:100D1000894642464B46304639462AF05BF934A3B1
:100D2000D3E900232AF056F96AE724F0E3F832A366
:100D3000D3E90023804689462AF004FB374B002282
:100D40002AF04AF92AF0AEFD06462AF091FA024648
:100D50000B46CDE9022320A3D3E900232AF0F2FABF
:100D600002460B46404649462AF034F91CA3D3E913
:100D7000002382468B46DDE902012AF0E3FA0246AF
:100D80000B4650465946CDE904232AF023F91F2E7D
:100D90008046894646DC224B721E53F82230AB4215
:100DA00040D042464B46C4E90089504659462AF095
:100DB00011F9DDE904232AF00DF9002FC4E902013D
:100DC000BFF623AF09F10043C4E9008301F10043FA
:100DD000C4E90203764218E700004054FB21F93FC2
:100DE0003163621A61B4D03D0000601A61B4D03D35
:100DF0007370032E8A19A33B83C8C96D305FE43F2B
:100E0000FB21E93F7BD90240FB21F93FFB2139411E
:100E1000FFFFEF7F00007041605703000000E03FDC
:100E2000E0560300C9F30A53C3EB1553102B4FEAE6
:100E30002555B6DD56A3D3E90023DDE902012AF0EA
:100E400081FA8046894642464B46504659462AF02A
:100E5000C1F802460B4650465946CDE90623924654
:100E60009B462AF0B7F842464B462AF0B3F84AA30D
:100E7000D3E9002380468946DDE902012AF062FABF
:100E800042464B462AF0A6F80B46024659465046C3
:100E9000CDE904232AF09EF8C1F30A53ED1A312D4F
:100EA000804689467FF77DAF3EA3D3E90023DDE985
:100EB00002012AF047FA8046894642464B46DDE960
:100EC00006012AF087F882468B4652465B46DDE9EA
:100ED00006012AF07FF842464B462AF07BF833A3FE
:100EE000D3E9002380468946DDE902012AF02AFA87
:100EF00042464B462AF06EF802460B46504659468B
:100F0000CDE904232AF066F88046894649E72AF0AD
:100F100063F8234B9D4206460F4618D01AA3D3E927
:100F200000232AF059F88046894642464B4630460F
:100F300039462AF04FF814A3D3E900232AF04CF8DD
:100F4000C4E90089C4E902014FF0FF365DE610A351
:100F5000D3E900232AF040F80FA3D3E90023064683
:100F60000F462AF039F88046894642464B463046BD
:100F700039462AF02FF808A3D3E900232AF02CF8E9
:100F8000DEE700BFAFF300803163621A61B4D03D89
:100F90000000601A61B4D03D7370032E8A19A33B20
:100FA000FB21F93F0000002E8A19A33BC1492025EF
:100FB0009A837B390000000070B51646C1F30A52CF
:100FC00004460D460B464ABB21F00043034324D0A0
:100FD000334B00222AF0B6F9324B9E4204460D46AE
:100FE00046DBC1F30A520B46363A4CF250318E4280
:100FF0001CDC164440F2FE72964217DC002E29DCFF
:1010000016F1350F2CDB6FF31E53363643EA0651CB
:101010002046254B00222AF095F970BD40F2FF7C56
:101020006245E2D1024629F0D7FF70BD002D14A120
:10103000D1E9000105DB12A3D3E900232AF082F9EC
:1010400070BD0FA3D3E900230FA1D1E900012AF05D
:1010500079F9F5E76FF31E53204643EA065170BD58
:10106000002D0BA1D1E9000102DA0BA1D1E90001A9
:1010700007A3D3E900232AF065F970BDAFF3008020
:101080009C7500883CE4377E9C7500883CE437FE04
:1010900059F3F8C21F6EA50159F3F8C21F6EA5815E
:1010A00000005043B03CFFFF0000903C00000000F7
:1010B000F8B504460D4624F04FFC224606460F467E
:1010C0002B46204629462AF0D7FB48B92046294618
:1010D00023F010FF09A3D3E900232AF0C3FB10B9C2
:1010E00030463946F8BD27F0D1FE034F00262223B3
:1010F000036039463046F8BD0000F07F7DF8B98FB7
:10110000CE338640000000002DE9F04F83B0CDE9DA
:10111000002321F00043B3F1795F04460D4604D269
:101120002AF0C0FB002800F0858022462B4620468E
:1011300029462AF007F906460F4632463B46204626
:1011400029462AF0FFF841A3D3E9002382468B46C3
:10115000304639462AF0F6F83EA3D3E9002329F0B9
:1011600039FF32463B462AF0EDF83CA3D3E9002391
:1011700029F032FF32463B462AF0E4F839A3D3E99E
:10118000002329F027FF32463B462AF0DBF837A33D
:10119000D3E9002329F020FF0C9B804689469BB3AE
:1011A000DDE90001284B00222AF0CCF842464B46EC
:1011B00080468946504659462AF0C4F802460B46F6
:1011C0004046494629F006FF32463B462AF0BAF827
:1011D000DDE9002329F0FEFE19A3D3E9002306462A
:1011E0000F46504659462AF0ADF802460B463046A7
:1011F000394629F0F1FE02460B462046294629F0E1
:10120000E9FE03B0BDE8F08F02460B463046394692
:101210002AF098F80AA3D3E9002329F0DBFE52460E
:101220005B462AF08FF822462B4629F0D5FE03B004
:10123000BDE8F08F2046294603B0BDE8F08F00BF1F
:10124000495555555555C53F0000E03F7CD5CF5A0F
:101250003AD9E53DEB9C2B8AE6E55A3E7DFEB15737
:10126000E31DC73ED561C119A0012A3FA6F81011A0
:101270001111813F000000002DE9F04F23F0004ADA
:10128000044652EA0A0093B0904699460D4614D19E
:101290002319714985F4002252419842914126D286
:1012A00042464B462046294629F096FE02460B460A
:1012B0001046194613B0BDE8F08F1F461346674A23
:1012C00000940E4621F000419142029116D9009BF4
:1012D00006F1404606F580161E43E1D14346DB1871
:1012E0005D4989F4002252419E429141D8D35C4B22
:1012F00000221046194613B0BDE8F08F13D0924576
:10130000E5D8DDF808B053D0002E15DB002B40F0F7
:101310008380534A924540F02084002FC0F211850B
:1013200022462B46C4E7002CBAD18A45B8D800F033
:101330005984DDF808B0E7E74A4A924500F2A383F2
:10134000494A924500F2A583002B40F0EF83B7F1A4
:10135000804F00F0038504932046294623F0CAFD00
:101360000B4600990246002937D00498F10F013945
:1013700008435FD004980138084300F07F839FED55
:10138000347B8DED067BBAF1844F71D937498A459C
:1013900040F23D84344B029A9A4200F2F984002FC5
:1013A000C0F2F984002013B0BDE8F04F23F0C6BDB1
:1013B000002B8CD1029B009A03F1404303F580136C
:1013C000134394D0284B029A9A4240F29484002FFF
:1013D000C0F2068542464B466AE7214926F0404066
:1013E000884202D002990029BFD1002FC0F27B842D
:1013F000002EBFF65DAF029901F14049049909F54D
:10140000801959EA010917D0049901297FF450AFD6
:1014100003F100410B464BE7002304932046294685
:1014200023F068FD0B46009902460029D5D0F10F44
:1014300001399FE722462B461046194629F0CAFD7E
:1014400002460B462AF0A8F802460B4630E700BFDA
:10145000000000000000F03F0000F0FF0000F07FFF
:101460000000F03FFFFF3F43FFFFEF3F0000F0436E
:10147000D7493140002940F0C88310461946002260
:10148000D44B29F05FFF02468B466FF034004FEAE1
:101490002B51A1F2FF310818CF490F90CBF3130B5A
:1014A0004BF07F548B4544F4401440F3A083CB4968
:1014B0008B4540F35D849FEDB07B8DED087B9FED08
:1014C000B07B8DED047B9FEDAC7B8DED107B01300F
:1014D0000F90A4F58014002592465046DDE90423C0
:1014E000214629F077FDA346DDE9042306460F4691
:1014F00050462146CDE90AAB29F06EFD02460B4667
:101500000020B7492AF048F88C46834663465A467D
:1015100030463946CDE90CBC29F014FF64100A4668
:101520000146CDE9021244F00054DDE902AB04F5B6
:101530000023591900204FF0000A04460D462246A8
:101540002B4650465946CDE9000129F0FBFE0246E4
:101550000B463046394629F03DFDDDE904230646B9
:101560000F462046294629F035FD02460B46DDE9A7
:101570000A0129F02FFD52465B4629F0E3FE0246A0
:101580000B463046394629F025FDDDE90C2329F0CC
:10159000D9FEDDE90245CDE9040122462B4620466D
:1015A000294629F0CFFE78A3D3E9002304460D464F
:1015B00029F0C8FE76A3D3E9002329F00DFD2246C9
:1015C0002B4629F0BFFE74A3D3E9002329F004FDC4
:1015D00022462B4629F0B6FE71A3D3E9002329F059
:1015E000FBFC22462B4629F0ADFE6FA3D3E9002376
:1015F00029F0F2FC22462B4629F0A4FE6CA3D3E985
:10160000002329F0E9FC224606460F462B462046D9
:10161000294629F097FE02460B463046394629F006
:1016200091FE524604460D465B46DDE9020129F073
:10163000D3FCDDE9042329F085FE22462B4629F060
:10164000CBFC524604460D465B465046594629F0AF
:1016500079FE644B002206460F4629F0BDFC224667
:101660002B46CDE90A4529F0B7FC0D462B465246DC
:101670005046594629F066FE5A4BCDE9000100223A
:101680002946504629F0A6FC32463B4629F0A2FCEA
:1016900002460B46DDE90A0129F09CFCDDE9022344
:1016A00029F050FE2B4606460F465246DDE904015E
:1016B00029F048FE02460B463046394629F08CFC9C
:1016C00006460F463246DDE900013B4629F084FC20
:1016D00039A3D3E9002350460D4629F033FEDDE956
:1016E0000023CDE900012946504629F073FC02464B
:1016F0000B463046394629F06DFC31A3D3E900236F
:1017000029F020FE02460B461446294650461D4647
:101710002DA3D3E9002329F015FE02460B462046EF
:10172000294629F059FCDDE9102329F055FC06462D
:101730000F980F4629F09CFD324604460D463B4665
:10174000DDE9000129F048FCDDE9082329F044FC2B
:1017500022462B4629F040FC504622462B46CDE936
:10176000020129F037FCDDE9082329F033FCDDE92B
:10177000002339E0AFF3008000000000000000000B
:10178000000000000000F03FEF4E454A287ECA3FAF
:1017900065DBC9934A86CD3F01411DA96074D13FE5
:1017A0004D268F515555D53FFFAB6FDBB66DDB3FF7
:1017B000033333333333E33F000000E009C7EE3F28
:1017C000FD033ADC09C7EE3FF5015B14E02F3EBE96
:1017D0000000F07F000040438E98030079B60B00B4
:1017E0000000F03F0000084029F0F4FB02460B46E1
:1017F0003046394629F0EEFBCDE904010023CDE95E
:1018000000890093DDE90067404632463B46494681
:1018100029F0E0FBDDE902AB52465B4629F092FD80
:10182000424604460D464B46DDE9040129F08AFD97
:1018300002460B462046294629F0CEFB3246044696
:101840000D463B4650465946CDE9024529F07AFD02
:1018500006460F46204629463B46324629F0BCFB49
:10186000DB4B994204460D46884640F33F8101F127
:101870003F4303F5E003034340F09782C0A3D3E95D
:101880000023DDE9020129F0A7FB02460B462046B2
:10189000294614461D4632463B4629F09BFB02462C
:1018A0000B462046294629F0DDFF002840F07D82C6
:1018B0004FF400734344C3F30A52C64CA2F2FF3202
:1018C0001441C3F3130AC2F11402002004EA030115
:1018D0004AF4801A4AFA02FA0B460246B8F1000F9F
:1018E00030463946B8BFCAF1000A29F073FB0246F8
:1018F0000B4606460F46DDE9020129F06DFB4FEA73
:101900000A5B0D460024A0A3D3E900232046294604
:1019100029F018FD3246804689463B462046294636
:1019200029F058FB02460B46DDE9020129F052FB83
:1019300097A3D3E9002329F005FD02460B46204674
:10194000294614461D4694A3D3E9002329F0FAFC46
:1019500002460B462046294629F03EFB06460F4626
:1019600032463B464046494629F036FB42464B4606
:1019700004460D4629F02EFB02460B4630463946FA
:1019800029F028FB2246804689462B4620462946D8
:1019900029F0D8FC82A3D3E9002306460F4629F09C
:1019A000D1FC81A3D3E9002329F014FB32463B4646
:1019B00029F0C8FC7EA3D3E9002329F00DFB3246B1
:1019C0003B4629F0BFFC7CA3D3E9002329F002FBAE
:1019D00032463B4629F0B6FC79A3D3E9002329F02F
:1019E000FBFA32463B4629F0ADFC02460B46204648
:1019F000294629F0EFFA06460F4632463B46204676
:101A0000294629F09FFC02460B46304639461646C9
:101A10001F4600224FF0804329F0DCFA02460B46B5
:101A20003046394629F0B8FD424606460F464B4639
:101A30002046294629F086FC42464B4629F0CCFA3E
:101A400002460B463046394629F0C4FA22462B4658
:101A500029F0C0FA02460B4600205F4929F0BAFA85
:101A60000C465C44B4F5801FC0F29B812146DDE941
:101A7000062329F067FC02460B4619E49FED527BD2
:101A80008DED067B7FE4002B00F0A68102230493FA
:101A9000C4E44FEA2A52A2F2FF32142A40F33781FB
:101AA000C2F1340223FA02F101FA02F29A4200F082
:101AB0009B81002B3AD1B7F1804F00F04F81204637
:101AC000294623F017FA0B460099024600297FF4B5
:101AD000B1AC414926F04040884200F0CC810299E7
:101AE000002900F0C381002104913EE4DFF8F0C03A
:101AF00021F00043634540F21B81384B0B44034304
:101B00000AD132463B4629F065FADDE9022329F085
:101B10009FFE00283FF4CCAEDDE906010022002341
:101B200029F082FE003818BF01203CE420462946F7
:101B300023F0E0F90B460099024600297FF47AACC5
:101B4000254926F04040884200F07881029900291A
:101B500000F060810099049107E4B7F1804F00F034
:101B6000FD80A2F5801297427FF4F5AB204629460E
:101B700013B0BDE8F04F22F04BBA00BFAFF30080C6
:101B8000FE822B654715973C00000000432EE63F80
:101B9000EF39FAFE422EE63F396CA80C615C20BE9C
:101BA000D0A4BE726937663EF16BD2C541BDBB3E63
:101BB0002CDE25AF6A56113F93BDBE166CC1663F41
:101BC0003E5555555555C53F000000000000F0BF7B
:101BD000FFFF8F400000F0FF0000F03F00346F3F38
:101BE000FFCB9040002B7FF45BABFFF7EBBB9FED8F
:101BF000AA7B8DED087B9FEDAA7B8DED047B9DED8F
:101C0000087B00258DED107B66E400203FE4B4499D
:101C100002988842C0F0D380B2490298884200F20C
:101C2000EC80104619460022AE4B29F0D3F99EA352
:101C3000D3E9002304460D4629F084FB9CA3D3E995
:101C4000002382468B462046294629F07BFBA64B83
:101C5000CDE9000100222046294629F073FB024607
:101C60000B4695A1D1E9000129F0B4F922462B4693
:101C700029F068FB02460B4600209C4929F0AAF98E
:101C800022462B4606460F462046294629F05AFB97
:101C900002460B463046394629F054FB88A3D3E967
:101CA000002329F04FFB02460B46DDE9000129F035
:101CB00091F904460D4622462B465046594629F0D6
:101CC0008BF9002052465B46CDE9020129F082F9EA
:101CD00002460B462046294629F07CF9CDE904014D
:101CE0008CE5029904917F49002029F055FC0246B9
:101CF0000B46FFF77DBB002F4FF000024FF00003B3
:101D0000BFF6D6AA424609F10043FFF7D1BA002B2D
:101D10007FF40CAFC2F114024AFA02F101FA02F2A6
:101D200052457DD06F4A92453FF4F7AAFFF70FBBAB
:101D30006E4A934200F28880DDE900239346924682
:101D4000E0E522462B466749002029F025FC0246A3
:101D50000B46FFF7ADBAB7F1804F3DD122462B4677
:101D60002046294629F0EEFA02460B46FFF7A0BAB4
:101D70009FED557B8DED087B9FED557B8DED107BA9
:101D80009FED557B4FF480258DED047BFFF7A4BBC1
:101D9000002F7FF707AB002013B0BDE8F04F23F012
:101DA000D7B85246FFF708F961E6DDE906010022DF
:101DB000002329F039FD003818BF0120ECE7DDE9E8
:101DC00006010022002329F02FFD003818BF012052
:101DD000002FBFF6E8AADFE702230493FFF7BCBA9F
:101DE00000220023FFF764BA002BB4D001F00101F8
:101DF000C1F102030493FFF711BBDDE906010022E4
:101E0000002329F011FD003818BF0120002FC3DC8A
:101E1000FFF7C9BA002FFFF664AF0491FFF7EBBAE2
:101E2000304B9A453FF479AAB7F1804F96D001F034
:101E30000101C1F102030493FFF78EBA002F0BDBFF
:101E400000990491FFF7D7BA1B15A3F2FE334FF4A4
:101E5000801242FA03F32DE52249002029F09CFB71
:101E6000009B049302460B46FFF7C5BA002FD4DA55
:101E70000021049137E7002F01DB0021CDE719494C
:101E8000002029F089FB0023049302460B46FFF74C
:101E9000B2BA00BFAFF300800000000000000000F5
:101EA000000000000000F03F000000604715F73F11
:101EB00044DF5DF80BAE543E555555555555D53F4D
:101EC000FE822B654715F73F0000004003B8E23F54
:101ED00006D0CF43EBFD4C3E000000000000F83F71
:101EE000FFFFEF3F0000F03F0000D03F0000E03F69
:101EF0002DE9F047D04F21F00042BA4286B00446A7
:101F00000D464FEAD1760DD9CC4FBA426FD9C1F305
:101F100013030343024640F04481002E64D00020A6
:101F2000002161E0C64B9A4200F21281C54B9A42F1
:101F300040F2248122462B462046294629F002FA07
:101F4000A7A3D3E9002306460F4629F0FBF9A6A371
:101F5000D3E9002329F03EF832463B4629F0F2F956
:101F6000A3A3D3E9002329F037F832463B4629F0F2
:101F7000E9F9A1A3D3E9002329F02CF832463B4626
:101F800029F0E0F99EA3D3E9002329F025F8324691
:101F90003B4629F0D7F902460B462046294629F050
:101FA00019F8CDE90201DDE90289204642464B4697
:101FB000294629F0C7F9002206460F464FF0804314
:101FC0004046494629F006F802460B463046394657
:101FD00029F0E2FA22462B4628F0FCFF02460B4687
:101FE0000020994928F0F6FF06B0BDE8F08786A3E7
:101FF000D3E9002329F036FC0746002840F0D780BB
:1020000083A3D3E900232046294629F00DFC0028AC
:1020100040F0DF808D4B204603EBC60629467EA3A9
:10202000D3E9002329F08EF9D6E9082328F0D4FF5C
:1020300029F038FC824629F01BF979A3D3E9002363
:1020400006460F4629F07EF902460B4620462946F1
:1020500028F0C0FF74A3D3E90023804689463046A8
:10206000394629F06FF9CDE90001DDE9002340464A
:10207000494628F0AFFF02460B4604460D4629F0BC
:1020800061F957A3D3E9002306460F4629F05AF910
:1020900055A3D3E9002328F09DFF32463B4629F0A3
:1020A00051F953A3D3E9002328F096FF32463B466B
:1020B00029F048F950A3D3E9002328F08BFF3246DA
:1020C0003B4629F03FF94EA3D3E9002328F084FFD3
:1020D00032463B4629F036F902460B462046294651
:1020E00028F078FF06460F462046294632463B46F2
:1020F000CDE9026729F026F9CDE90401BAF1000F14
:102100003FF451AF32463B4600204FF0804128F06B
:1021100061FF02460B46DDE9040129F03DFA024663
:102120000B46DDE9000128F055FF42464B4628F0FA
:1021300051FF02460B460020434928F04BFF6FF445
:102140007F72924539DB01EB0A5106B0BDE8F0879A
:102150003F4B9A423FF65EAF3C4C04EBC604D4E9D9
:10216000002328F037FF94ED047B86F0010A8DED03
:10217000007B80468946AAEB060A76E72CA3D3E9C2
:10218000002328F029FF304B002229F06BFB0028A8
:102190003FF4D0AE2C4B00222046294628F01CFFED
:1021A00022E70B4628F018FF06B0BDE8F0870020B4
:1021B00006B0BDE8F04722F0CBBE0AF57A7A01EB13
:1021C0000A5100224FF0B87329F0BCF806B0BDE800
:1021D000F087384606B0BDE8F04722F0AFBE00BF3A
:1021E000D0A4BE726937663EF16BD2C541BDBB3E1D
:1021F0002CDE25AF6A56113F93BDBE166CC1663FFB
:102200003E5555555555C53FEF39FAFE422E86408D
:1022100051302DD5104987C0FE822B654715F73FF9
:102220000000E0FE422EE63F763C7935EF39EA3D8C
:102230009C7500883CE4377E412E8640FFFFEF7F8F
:10224000422ED63FFFFFEF3D0000F03F900F03000E
:10225000B1A2F03F00000000B1F5801F2DE9F84366
:1022600004460D460B4619DA21F00042024353D0D2
:10227000002959DB364B002229F064F8354A0D4617
:102280002B46934204466FF035010CDD22462B4667
:102290002046294628F0A0FEBDE8F8832D4A934247
:1022A0004FF00001F2DC1815A0F2FF300844C70F10
:1022B00000EBD070C3F3130628F0DAFFC7F57F7385
:1022C000033346EA03551CA3D3E90023804689461D
:1022D00029F038F802460B462046294614461D468A
:1022E00000F022FB16A3D3E9002329F02BF82246A5
:1022F0002B4628F071FE14A3D3E9002304460D46B3
:102300004046494629F01EF802460B46204629461B
:1023100028F062FEBDE8F883002200230E49002069
:1023200029F03AF9BDE8F883024628F053FE00226E
:10233000002329F031F9AFE7362BF111F3FE593DB7
:102340000EE526157BCBDB3F00609F501344D33F47
:1023500000005043FFFFEF7F000050C3000000006B
:10236000C1F30A5C2DE9F041ACF2FF35132D0246B2
:102370000B460C46064622DC002D42DBDFF8E480EB
:1023800048FA05F801EA080C5CEA000C0F461BD07D
:1023900032A3D3E9002328F01FFE0022002329F0F6
:1023A00061FA40B1002C03DA4FF480132B411F4433
:1023B00027EA0804002621463046BDE8F081332D87
:1023C00006DDB5F5806F2CD010461946BDE8F081CA
:1023D000ACF2134C4FF0FF3727FA0CF73842F3D02A
:1023E0001EA3D3E9002328F0F7FD0022002329F0E3
:1023F00039FA0028DFD0002C33461CDB23EA07061D
:10240000D9E716A3D3E9002328F0E6FD0022002334
:1024100029F028FA0028CED0002C05DB002634460F
:10242000C9E728F0D9FDD1E724F0004426430DD1B7
:102430004FF00044BFE7142D06D0C5F1340501224A
:10244000AA4013449E42D9D90134D7E7024C002652
:10245000B1E700BFAFF300800000F0BF9C750088BB
:102460003CE4377EFFFF0F002DE9F84F99465342B9
:102470005F4F134329F0004E4EEAD373BB429046A0
:1024800004460D463DD84642064321F0004A4AEA3A
:10249000D676BE4203468B4633D809F1404606F550
:1024A000801616433DD04FEAA97606F0020653EA9D
:1024B0000A0346EAD1762CD052EA0E0235D0BE4548
:1024C00046D0BA4531D0AAEB0E0ABAF1747F4FEA72
:1024D0002A5339DAB9F1000F46DA3C3344DA0020E6
:1024E0000021012E58D0022E49D086B134A3D3E961
:1024F000002328F06FFD34A3D3E9002328F06AFD00
:1025000005E022462B464046494628F065FDBDE8D9
:10251000F88F022E10D0032EF9D12DA1D1E90001A0
:10252000F5E7BDE8F84F00F067B8BBF1000F07DB37
:1025300029A1D1E90001EAE723A1D1E90001E6E7F9
:1025400027A1D1E90001E2E723A1D1E90001C8E711
:10255000F24506F1FF3623D0022E29D8254B03EB96
:10256000C603D3E90601D2E742464B462046294638
:1025700029F012F822F0BEFC00F03EF8B1E710A3FB
:10258000D3E9002328F026FD02460B460EA1D1E92F
:10259000000128F01FFDBAE701F100431946B6E734
:1025A000022E08D8134B03EBC603D3E90001AEE7B4
:1025B00000200021ABE70CA1D1E90001A7E700BF93
:1025C000075C143326A6A13C182D4454FB21094076
:1025D000182D4454FB2109C0182D4454FB21F93F08
:1025E000182D4454FB21F9BF182D4454FB21E93F19
:1025F0000000F07FD80F03002DE9F84FC04B21F009
:1026000000469E4204460D468A460ED9BD4B9E4268
:1026100000F2AE8000F0A980BAF1000F40F3E8802C
:102620009BA1D1E90001BDE8F88FB74B9E4200F2B3
:10263000B680A3F1DE739E4240F2A2804FF0FF3BD2
:1026400022462B462046294628F07CFE02460B46B1
:102650008046894628F076FE8FA3D3E900230646FC
:102660000F4628F06FFE8EA3D3E9002328F0B4FCB8
:1026700032463B4628F066FE8BA3D3E9002328F0C0
:10268000ABFC32463B4628F05DFE89A3D3E900232C
:1026900028F0A2FC32463B4628F054FE86A3D3E93C
:1026A000002328F099FC32463B4628F04BFE84A3D9
:1026B000D3E9002328F090FC42464B4628F042FE26
:1026C00081A3D3E90023804689463046394628F065
:1026D00039FE7FA3D3E9002328F07CFC32463B4639
:1026E00028F030FE7CA3D3E9002328F073FC3246A7
:1026F0003B4628F027FE7AA3D3E9002328F06AFCA2
:1027000032463B4628F01EFE77A3D3E9002328F08B
:1027100061FC32463B4628F015FE02460B46404619
:10272000494628F059FC22462B4628F00BFEBBF107
:10273000FF3F02460B4660D0744E06EBCB06D6E94F
:10274000082328F047FC22462B4628F043FC02468B
:102750000B46D6E9000128F03DFCBAF1000F0DDA76
:1027600001F100431946BDE8F88F00283FF454AF4B
:1027700022462B462046294628F02EFCBDE8F88F3D
:102780005BA3D3E9002328F027FC614B002229F04A
:1027900069F800283FF452AF20462946EEE722F0C0
:1027A000A9FB5C4B9E4204460D462CD8A3F5502352
:1027B0009E4253D802460B4628F00EFC544B002292
:1027C00028F008FC02460B462046294614461D46C2
:1027D00000224FF0804328F0FFFB02460B462046C4
:1027E000294628F0D9FE4FF0000B04460D4627E796
:1027F00041A1D1E90001BDE8F88F2046294628F023
:10280000E9FBBDE8F88F444B9E421CD2434B0022AB
:1028100028F0E0FB02460B462046294614461D469A
:1028200000223E4B28F08EFD394B002228F0D4FBCD
:1028300002460B462046294628F0AEFE4FF0020B1A
:1028400004460D46FCE622462B463549002028F07A
:10285000A3FE4FF0030B04460D46F1E62C4B00227D
:1028600028F0B8FB02460B462046294614461D4672
:102870000022274B28F0B0FB02460B462046294693
:1028800028F08AFE4FF0010B04460D46D8E600BF43
:10289000182D4454FB21F93F11DA22E33AAD903F61
:1028A000EB0D76244B7BA93F513DD0A0660DB13F87
:1028B0006E204CC5CD45B73FFF8300922449C23FEF
:1028C0000D5555555555D53F2F6C6A2C44B4A2BFB4
:1028D0009AFDDE522DDEAD3F6D9A74AFF2B0B33F7C
:1028E000711623FEC671BC3FC4EB98999999C93FF4
:1028F0009C7500883CE4377E182D4454FB21F9BFB9
:10290000FFFF0F440000F07FFFFFDB3F18100300C4
:102910000000F03FFFFFF23F008003400000F83F5F
:102920000000F0BF000000002DE9F04FB1F5801F5E
:1029300087B002460B460D4680F2838021F00044AA
:10294000044300F020810029C0F26081D64B0022B0
:1029500028F0F8FC0D460B46D4498D426FF0350641
:10296000024673DC2C15C5F3130505F51521A4F2F9
:10297000FF3401F6647101F48011344404EB115406
:1029800081F07F5181F4401141EA05031046194658
:102990000022C74B28F01EFBAB1CC3F31303022B12
:1029A00082468B464FF0000257DC002328F032FFAE
:1029B000002840F0F180A8A3D3E9002350465946EF
:1029C00028F0C0FC02460B460020BA4928F002FB62
:1029D000524606460F465B465046594628F0B2FC22
:1029E00002460B463046394628F0ACFC06460F46F8
:1029F000002C00F00281204628F03AFC98A3D3E98D
:102A000000238046894628F09DFC97A3D3E9002344
:102A100004460D464046494628F094FC02460B46C3
:102A20003046394628F0D6FA52465B4628F0D2FAAC
:102A300002460B462046294628F0CCFA07B0BDE8EE
:102A4000F08F9A498D424FF000068BDD10461946F3
:102A500028F0C2FA07B0BDE8F08F4FF0804328F0AD
:102A6000BBFA02460B465046594628F095FD0646ED
:102A700020460F4628F0FCFB3246CDE904013B46D8
:102A800030463946CDE9026728F05CFC02460B4629
:102A9000CDE9002328F056FC75A3D3E900230646B0
:102AA0000F4628F04FFC74A3D3E9002328F094FAD2
:102AB00032463B4628F046FC71A3D3E9002328F0B8
:102AC0008BFA32463B4628F03DFC6FA3D3E9002346
:102AD00028F082FADDE9002328F034FC6CA3D3E966
:102AE0000023CDE900013046394628F02BFC6AA3CB
:102AF000D3E9002328F070FA32463B4628F022FC46
:102B000067A3D3E9002328F067FA32463B4628F052
:102B100019FCA5F5C22802460B46C5F5D725DDE907
:102B2000000128F059FAA8F27A48513545EA08051B
:102B3000002D06460F464BDD5E4B0022504659469F
:102B400028F000FC52465B4628F0FCFB8046894694
:102B50003046394642464B4628F03EFADDE902232C
:102B600028F0F0FB06460F46002C56D102460B46D5
:102B70004046494628F02EFA02460B465046594632
:102B800028F028FA66E7002200234B49002028F0AD
:102B900003FD07B0BDE8F08F002C57D0204628F089
:102BA00067FB2FA3D3E9002306460F4628F0CAFB94
:102BB0002DA3D3E9002304460D463046394628F0BC
:102BC000C1FB02460B462046294628F005FA41E79C
:102BD00002460B465046594628F0FCF9DDE902232F
:102BE00028F0B0FB06460F463CB1DDE904891CA382
:102BF000D3E900234046494605E732463B46504666
:102C0000594628F0E7F907B0BDE8F08F28F0E2F95F
:102C10000022002328F0C0FC1CE711A3D3E9002305
:102C2000DDE9040128F08EFB0FA3D3E9002304465D
:102C30000D46DDE9040128F085FB32463B4628F0CD
:102C4000CBF902460B4640464946EBE60020002100
:102C500000E700BFAFF30080555555555555D53F9A
:102C60000000E0FE422EE63F763C7935EF39EA3D42
:102C700044523EDF12F1C23FDE03CB966446C73FAB
:102C8000599322942449D23F935555555555E53FC4
:102C90009FC678D0099AC33FAF788E1DC571CC3FCF
:102CA00004FA97999999D93F00005043FFFFEF7FAD
:102CB0000000F03F0000E03F000050C300000000B3
:102CC0002DE9F04F21F00048B8F1795F85B09246C8
:102CD0009B4606460F466DD228F0E4FD002800F022
:102CE000EE8032463B463046394628F02BFB76A331
:102CF000D3E9002304460D4628F024FB74A3D3E94E
:102D0000002328F069F922462B4628F01BFB72A30A
:102D1000D3E9002328F05EF922462B4628F012FB67
:102D20006FA3D3E9002328F057F922462B4628F059
:102D300009FB6DA3D3E9002328F04CF922462B466A
:102D400028F000FB6AA3D3E9002328F045F92246C6
:102D50002B4628F0F7FACDE90001694B0022204606
:102D6000294628F0EFFADDE900238046894620460F
:102D7000294628F0E7FA44464D46804689465246A1
:102D80005B463046394628F0DDFA02460B4640469F
:102D9000494628F01FF902460B462046294628F0EE
:102DA00019F902460B460020564928F013F905B0E0
:102DB000BDE8F08F02460B4628F0C4FA42A3D3E9DF
:102DC000002304460D4628F0BDFA41A3D3E90023B1
:102DD00028F002F922462B4628F0B4FA3EA3D3E9A4
:102DE000002328F0F7F822462B4628F0ABFA3CA344
:102DF000D3E9002328F0F0F822462B4628F0A2FA67
:102E000039A3D3E9002328F0E5F822462B4628F021
:102E100099FA37A3D3E9002328F0DEF82B4622469F
:102E200028F090FA384B9845CDE9000195D9374BF9
:102E300098453BD8A8F5001300223249002090465F
:102E4000994628F0C7F8CDE902012D4B0022204613
:102E5000294628F077FA42464B4628F0BBF8DDE9D0
:102E60000023804689462046294628F06BFA4446CE
:102E70004D468046894652465B463046394628F0E4
:102E800061FA02460B464046494628F0A3F802463E
:102E90000B462046294628F09DF802460B46DDE900
:102EA000020128F097F805B0BDE8F08F9FED127B86
:102EB000DFF85C908DED027B4FF00008C5E711490B
:102EC000002005B0BDE8F08FD43888BEE9FAA8BD6F
:102ED000C4B1B4BD9EEE213EAD529C804F7E923E69
:102EE0009015CB19A001FA3E7751C1166CC1563F1F
:102EF0004C5555555555A53F000000000000E73FD3
:102F00000000E03F0000F03F3233D33F0000E93FD4
:102F10000000D23F000000002DE9F04FBE4B21F031
:102F2000004A9A4583B004460D4612D90AF1404A38
:102F30000AF5801A5AEA000A00F0FD8002460B46A4
:102F400028F048F802460B4628F026FB03B0BDE8FF
:102F5000F08FB24B9A458B460FD8BAF1795F80F06B
:102F6000658191A3D3E9002328F036F8AC4B002209
:102F700028F078FC002840F012812046294621F0F4
:102F8000B9FF02460B460020A54928F023F8A54BBF
:102F9000002228F0D7F986A3D3E9002304460D4682
:102FA00028F0D0F984A3D3E9002328F015F82246AD
:102FB0002B4628F0C7F982A3D3E9002328F00AF8AA
:102FC00022462B4628F0BEF97FA3D3E9002328F040
:102FD00003F822462B4628F0B5F97DA3D3E9002358
:102FE00027F0F8FF22462B4628F0ACF97AA3D3E964
:102FF000002327F0F1FF22462B4628F0A3F978A3FF
:10300000D3E90023CDE900012046294628F09AF9AA
:1030100075A3D3E9002327F0DDFF22462B4628F0D5
:1030200091F973A3D3E9002327F0D6FF22462B465C
:1030300028F088F970A3D3E9002327F0CBFF2246BC
:103040002B4628F07FF9764B002227F0C5FF064675
:103050000F462046294620F0DBFF3B468046894646
:103060003246DDE9000128F097FA6F4B9A45CDE929
:10307000000146464F4677D832464B4630464946D1
:1030800027F0AAFFDDE9002328F05CF94FF00008E3
:10309000CDE9000142464B464046494628F052F9E8
:1030A00002460B462046294627F094FF4246044636
:1030B0000D464B463046494627F08EFF02460B46EA
:1030C0002046294628F068FA02460B4627F084FF7E
:1030D00002460B464AA1D1E9000127F07BFF0246D8
:1030E0000B46DDE9000127F075FF424604460D4618
:1030F0004B464046394627F06FFF02460B4642A139
:10310000D1E9000127F066FF02460B46204629461A
:1031100027F060FF02460B463BA1D1E9000127F0F2
:1031200059FFBBF1000F3FF711AF01F10043194602
:1031300003B0BDE8F08F36A3D3E9002328F002F9ED
:1031400002460B462046294614461D462CA3D3E9C9
:10315000002328F0F7F802460B462046294627F0C0
:103160003BFF03B0BDE8F08F02460B4640464946A0
:1031700028F0E8F842464B4627F02EFF02460B4661
:1031800027F02AFF1EA3D3E9002327F023FF0246DE
:103190000B461FA1D1E9000127F01CFFC1E7204623
:1031A0002946D3E6AFF300809C7500883CE4377E67
:1031B00009F7FD0DE13D023F88B20175E0EF493F9F
:1031C0003B8F68B52882A43F5544880E55C1C93F3E
:1031D0007D6FEB0312D6D43F555555555555C53F18
:1031E00082922EB1C5B8B33F59018D1B6C06E63FE4
:1031F000C88A599CE52A00404B2D8A1C273A034077
:10320000075C143326A6913C182D4454FB21E93F5A
:10321000182D4454FB21F93FFFFFEF3FFFFFDF3F35
:103220000000F03F0000E03F3233EF3F02460B4624
:1032300028F088F837A3D3E9002306460F4628F084
:1032400081F836A3D3E9002327F0C6FE32463B4679
:1032500028F078F833A3D3E9002327F0BBFE3246E9
:103260003B4628F06FF831A3D3E9002327F0B4FEE2
:1032700032463B4628F066F82EA3D3E9002327F018
:10328000A9FE32463B4628F05DF82CA3D3E9002383
:1032900027F0A2FE32463B4628F054F829A3D3E992
:1032A0000023804689463046394628F04BF827A34C
:1032B000D3E9002327F08EFE32463B4628F042F841
:1032C00024A3D3E9002327F087FE32463B4628F0AB
:1032D00039F822A3D3E9002327F07CFE32463B468F
:1032E00028F030F80A4B002227F076FE02460B4603
:1032F0004046494628F050F922462B4628F022F84D
:1033000022462B4627F068FE03B0BDE8F08F00BFD1
:103310000000F03F09F7FD0DE13D023F88B2017565
:10332000E0EF493F3B8F68B52882A43F5544880EA3
:1033300055C1C93F7D6FEB0312D6D43F5555555546
:103340005555C53F82922EB1C5B8B33F59018D1B6B
:103350006C06E63FC88A599CE52A00404B2D8A1C22
:10336000273A0340000000002DE9F84FC44E21F039
:103370000043B34204460D460DD903F1404303F523
:103380008013034340F0B980002940F3C08000203F
:103390000021BDE8F88FBB4EB34208D8BA4A934229
:1033A00000F2BA809CA1D1E90001BDE8F88F0029A4
:1033B000C0F2708122462B46B449002027F00AFE55
:1033C000B34B002227F0BEFF04460D4620F020FE3E
:1033D00093A3D3E90023894680462946204627F057
:1033E000B1FF91A3D3E9002327F0F6FD22462B4637
:1033F00027F0A8FF8EA3D3E9002327F0EBFD224698
:103400002B4627F09FFF8CA3D3E9002327F0E4FD90
:1034100022462B4627F096FF89A3D3E9002327F005
:10342000D9FD22462B4627F08DFF87A3D3E9002341
:1034300027F0D2FD22462B4627F084FF84A3D3E950
:10344000002382468B462046294627F07BFF82A335
:10345000D3E9002327F0BEFD22462B4627F072FF5A
:103460007FA3D3E9002327F0B7FD22462B4627F0A0
:1034700069FF7DA3D3E9002327F0ACFD22462B464C
:1034800027F060FF814B002227F0A6FD02460B4685
:103490005046594628F080F842464B4627F052FFE6
:1034A000002682468B4632464B463046494627F038
:1034B00049FF02460B462046294627F08BFD32463F
:1034C00004460D464B464046494627F085FD0246D8
:1034D0000B462046294628F05FF802460B46504628
:1034E000594627F079FD32464B4627F075FD0246D6
:1034F0000B4627F071FDBDE8F88F02460B4627F01A
:1035000069FD02460B4628F047F8BDE8F88F58A140
:10351000D1E90001BDE8F88F02460B4627F012FF03
:103520003FA3D3E9002306460F4627F00BFF3EA337
:10353000D3E9002327F050FD32463B4627F002FF37
:103540003BA3D3E9002327F045FD32463B4627F055
:10355000F9FE39A3D3E9002327F03EFD32463B466E
:1035600027F0F0FE36A3D3E9002327F033FD3246DF
:103570003B4627F0E7FE34A3D3E9002327F02CFDD8
:1035800032463B4627F0DEFE31A3D3E900238046D6
:1035900089463046394627F0D5FE2FA3D3E90023CC
:1035A00027F018FD32463B4627F0CCFE2CA3D3E98A
:1035B000002327F011FD32463B4627F0C3FE2AA325
:1035C000D3E9002327F006FD32463B4627F0BAFE3A
:1035D0002E4B002227F000FD02460B46404649468E
:1035E00027F0DAFF22462B4627F0ACFE02460B46B8
:1035F00021A1D1E9000127F0EDFC02460B4620464F
:10360000294627F0E7FC02460B4603A1D1E9000159
:1036100027F0E0FCBDE8F88F182D4454FB21F93F5A
:1036200009F7FD0DE13D023F88B20175E0EF493F2A
:103630003B8F68B52882A43F5544880E55C1C93FC9
:103640007D6FEB0312D6D43F555555555555C53FA3
:1036500082922EB1C5B8B33F59018D1B6C06E63F6F
:10366000C88A599CE52A00404B2D8A1C273A034002
:10367000182D4454FB210940075C143326A6913CC5
:10368000FFFFEF3FFFFFDF3F0000603C0000F03F27
:103690000000E03F5E4B002227F09EFC5D4B0022C5
:1036A00027F050FE42A3D3E9002304460D4627F03D
:1036B00049FE41A3D3E9002327F08EFC22462B4686
:1036C00027F040FE3EA3D3E9002327F083FC2246E7
:1036D0002B4627F037FE3CA3D3E9002327F07CFCE0
:1036E00022462B4627F02EFE39A3D3E9002327F0EC
:1036F00071FC22462B4627F025FE37A3D3E9002391
:1037000027F06AFC22462B4627F01CFE34A3D3E99F
:10371000002306460F462046294627F013FE32A313
:10372000D3E9002327F056FC22462B4627F00AFE59
:103730002FA3D3E9002327F04FFC22462B4627F086
:1037400001FE2DA3D3E9002327F044FC22462B469B
:1037500027F0F8FD2E4B002227F03EFC80468946DC
:103760002046294620F054FC424604460D464B466E
:103770003046394627F010FF22462B4627F0E2FD5F
:103780001FA3D3E9002327F025FC22462B4627F070
:1037900023FC02460B4627F01FFC02460B461AA1EB
:1037A000D1E9000127F016FCBDE8F88FAFF30080E7
:1037B00009F7FD0DE13D023F88B20175E0EF493F99
:1037C0003B8F68B52882A43F5544880E55C1C93F38
:1037D0007D6FEB0312D6D43F555555555555C53F12
:1037E00082922EB1C5B8B33F59018D1B6C06E63FDE
:1037F000C88A599CE52A00404B2D8A1C273A034071
:10380000075C143326A6913C182D4454FB21094033
:103810000000F03F0000E03F2DE9F04F9B46D64B03
:1038200021F000479F4287B09246804689460E4667
:1038300051D828F037F80446002871D1109B424631
:10384000013313433B4300F0E581109B012B00F053
:10385000EE8152465B464046494627F0BDFB0B468B
:103860000246C64900201F4627F096FE42464B46B8
:10387000804689462046394627F0ACFB02460B4677
:103880005046594627F0A6FB22464B4627F05AFDE4
:1038900002460B4616462046224639461F464B46F0
:1038A00027F050FDB64B002227F096FB02460B4650
:1038B0003046394627F090FB42464B4627F042FD02
:1038C00022464B4627F088FB04460D4620462946F3
:1038D00007B0BDE8F08FAB4B9F4221D9002905DA34
:1038E00001F1004399460BF100439B4642464B468B
:1038F00083A1D1E9000127F06DFB52465B460446E7
:103900000D4681A1D1E9000127F064FB22462B4638
:1039100027F062FB4FF0000A804689464FF0000B0B
:1039200042464B464046494627F00CFD02460B46B0
:10393000CDE9002327F006FDDDE9002304460D460E
:103940004046494627F0FEFC71A3D3E90023CDE9A8
:1039500002012046294627F0F5FC6FA3D3E9002396
:1039600027F03AFB22462B4627F0ECFC6CA3D3E968
:10397000002327F031FB22462B4627F0E3FC6AA305
:10398000D3E9002327F028FB22462B4627F0DAFC58
:1039900067A3D3E9002327F01FFB22462B4627F01D
:1039A000D1FC65A3D3E9002327F016FBDDE9002352
:1039B00027F0C8FC62A3D3E90023CDE90401204627
:1039C000294627F0BFFC60A3D3E9002327F004FBBE
:1039D00022462B4627F0B6FC5DA3D3E9002327F04F
:1039E000FBFA22462B4627F0ADFC5BA3D3E900236C
:1039F00027F0F2FA22462B4627F0A4FC58A3D3E97D
:103A0000002327F0E9FA22462B4627F09BFC56A319
:103A1000D3E9002327F0E0FA02460B46DDE9040172
:103A200027F0DAFADDE9022327F08CFC52465B46E8
:103A300027F0D2FADDE9002327F084FC52465B46EA
:103A400027F0CAFA4AA3D3E9002304460D46DDE96C
:103A5000020127F077FC22462B4627F0BDFA82466A
:103A60008B465B4640464946524627F0B5FA454BE1
:103A70009F4204460D4600F28780109B012B37D0F1
:103A8000002602460B460F4600203C49CDE9006760
:103A900027F082FD42460D4604464B46DDE9000113
:103AA00027F098FA02460B465046594627F092FAFC
:103AB0002B46324627F046FC2B4680468946324646
:103AC000DDE9000127F03EFC2D4B002227F084FAAF
:103AD00002460B464046494627F07EFA22462B46D0
:103AE00027F030FC2B46324627F076FA04460D4686
:103AF0002046294607B0BDE8F08F00BFAFF3008035
:103B0000182D4454FB21E93F075C143326A6813C61
:103B1000D47ABF74702AFB3EE9A7F0320FB8123F87
:103B200068108D1AF726303F1583E0FEC8DB573F3B
:103B300093846EE9E326823FFE41B31BBAA1AB3FFB
:103B4000735360DBCB75F3BEA69237A0887E143F1B
:103B50000165F2F2D844433F280356C9226D6D3FF8
:103B600037D60684F464963F7AFE10111111C13FD6
:103B7000635555555555D53FFFFF2F3E0000F0BF0B
:103B80000000F03F2794E53F109827F071FB224694
:103B9000CDE900012B462046294627F0D3FB0246FB
:103BA0000B462046294614461D46DDE9002327F032
:103BB00013FA02460B462046294627F0EDFC5246F2
:103BC0005B4627F007FA02460B464046494627F077
:103BD00001FA02460B4627F0FFF902460B46DDE9E3
:103BE000000127F0F7F94FEAA67808F0020804462A
:103BF000C8F101000D4627F03BFB02460B4620466C
:103C0000294627F09FFB04460D462046294607B06B
:103C1000BDE8F08F4046494621F06CF902460B465C
:103C20000020044927F0B8FC04460D4660E74446EE
:103C30004D465DE70000F03F2DE9D04FD04E21F01A
:103C40000043B34284B082468B4601F0004411D950
:103C5000CC4EB34240F2C980CB4EB34240F2BD805D
:103C6000C1F31302024300F0D48102460B4627F051
:103C7000B3F9E4E0C54A934200F2E480C44A9342B7
:103C800040F245810024C34B00225046594627F09C
:103C900059FB06460F4632463B465046594627F0EA
:103CA00051FB9FA3D3E900238046894627F04AFBB6
:103CB0009DA3D3E9002327F08FF942464B4627F016
:103CC00041FB9BA3D3E9002327F084F942464B46EE
:103CD00027F038FB98A3D3E9002327F07DF942466B
:103CE0004B4627F02FFB96A3D3E9002327F072F968
:103CF00042464B4627F026FBA74B002227F06CF9E3
:103D000002460B4630463946CDE9002327F01AFB20
:103D100002460B460020A14927F05CF906460F46F3
:103D200032463B46DDE9000127F054F932463B4676
:103D300006460F465046594627F004FB02460B46FE
:103D40000020974927F046F902460B46304639468F
:103D500027F022FC42464B4627F0F4FA02460B4677
:103D6000002C5ED0DDE9026732463B4627F032F98F
:103D700052465B4627F0E6FA32463B4627F02AF9E0
:103D80004B46424627F026F9631C06460F4600F0D4
:103D90003181012C00F00A81631C392B4FEA045653
:103DA00000F2A480132C00F3458152465B464FF489
:103DB000001727F00FF947FA04F4C4F17F594FF0C8
:103DC000000809F5401902460B464046494627F0CF
:103DD00001F9711804B0BDE8D08F5BA3D3E90023CB
:103DE00027F040FD002840F04681002C53D058A316
:103DF000D3E900235046594627F0EEF8002200236D
:103E000027F012FD002840F0078153A3D3E90023D7
:103E10005046594627F096FA02460B460020614963
:103E200044E05046594627F08DFA42464B4627F06B
:103E3000D1F802460B465046594627F0CBF804B05D
:103E4000BDE8D08F584A934200F2E98044A3D3E9F9
:103E50000023002C00F0C48027F0BEF80FF20819F0
:103E6000D9E9008906460F464FF0FF3442464B46DB
:103E70003046394627F0AEF882468B4652465B46BE
:103E80003046394627F0A6F842464B4627F0A2F8BE
:103E9000CDE90201F7E630A3D3E9002350465946A5
:103EA00027F050FA0B463B490246002027F094F8D1
:103EB00027F0F8FC044627F0DBF929A3D3E9002317
:103EC0008046894627F03EFA02460B465046594640
:103ED00027F080F826A3D3E9002306460F46404684
:103EE000494627F02FFA80468946BFE752465B468F
:103EF00027F070F802460B460020274927F06AF8A1
:103F0000731819460022244B27F064F897E71AA388
:103F1000D3E9002327F060F802460B4687E700BF8D
:103F20002DC3096EB7FD8ABE3952E686CACFD03E90
:103F3000B7DBAA9E19CE143F8555FE19A0015A3F42
:103F4000F41011111111A13FEF39FAFE422E8640F3
:103F500059F3F8C21F6EA501FE822B654715F73F86
:103F60000000E0FE422EE63F763C7935EF39EABDAF
:103F7000763C7935EF39EA3D9C7500883CE4377E24
:103F800079684340412E8640FFFFEF7F422ED63FA7
:103F9000FFFF8F3C0000E03F0000F03F00000840C2
:103FA000000018400000E0BFB1A2F03F3A4B0022F1
:103FB0005046594627F038FC00284DD0374B504624
:103FC0005946002227F008F802460B46304639468B
:103FD00027F000F800224FF0404327F0B3F92EE716
:103FE00026F0F8FF0FF2A009D9E9008906460F462E
:103FF00001243BE702460B465046594626F0EAFFAD
:10400000264B002227F09EF9244B002226F0E2FFE7
:1040100015E7002C3FF413AF214900200FE71CA344
:10402000D3E9002327F08EF902460B46002044B363
:104030001C493BE7C4F57F7403342305002226F0B6
:10404000CBFF02460B465046594626F0C3FF164B9F
:10405000002226F0C1FFBCE632463B465046594698
:1040600026F0B8FF02460B4626F0B6FF0E4B0022A4
:1040700026F0B2FFE3E6002004B0BDE8D04F20F008
:1040800067BF064912E700BF763C7935EF39EA3D54
:10409000FE822B654715F73F0000D0BF0000E03FD0
:1040A0000000F0BF0000E0BF0000F03F0000000093
:1040B000594A2DE9F84321F00046964204460D4640
:1040C0005CD8564B0029ACBFDFF86891DFF86C91E3
:1040D0009E424FF0000812D9514B9E4240F28E8012
:1040E000504B9E4256D901339E4250D048A3D3E94B
:1040F00000232046294627F025F9BDE8F8834A4BDE
:104100009E425ED842A3D3E9002326F065FF474BC9
:10411000002227F0A7FBB8BB2046294620F0EAFE84
:10412000FFF78AFD04460D4622462B4620462946C7
:1041300026F052FF224606460F462B4620462946C9
:1041400027F000F902460B462046294614461D4634
:104150000022364B26F040FF02460B4620462946F9
:1041600027F01AFA02460B463046394626F032FF4F
:1041700042464B4627F0E6F8BDE8F88302460B4678
:1041800026F02AFFBDE8F88320462946FAE7284BA7
:104190009842ABD82046294620F0ACFE254B0022A1
:1041A00027F0D0F8FDF7A4FE04460D4622462B4624
:1041B0004046494627F0C6F822462B4627F0C2F86B
:1041C000E0E720F097FEFFF737FD184B002204468A
:1041D0000D4626F001FF0B4617498E420246A3D931
:1041E0002046294627F0D8F922462B4626F0F4FE31
:1041F00042464B4627F0A6F8BDE8F88320F07AFE49
:10420000FDF776FE42464B4627F09CF8BAE700BF22
:104210003374AC3C1F7BAC7FFFFFEF7FFFFF35406B
:10422000412E8640CD338640FFFF2F3E0000F03FF9
:104230007DF8B98F0000E03FFFFFEF3F0000E0BFD7
:1042400038B5124B1D682A6B04461AB10023C2E927
:10425000044338BD18200DF0EFFB0246286378B107
:1042600001200021C2E90401094B0A480A49916072
:10427000C2E900030B2393810023C2E9044338BD44
:10428000064B0748462122F099FB00BF8C00002016
:1042900034126DE60E33CDABECDE05006029030071
:1042A000782903001C4B10B51C68226B8AB1136976
:1042B0001A4954691A4803FB01F100FB0411A3FBDE
:1042C0000030013341EB0001C2E9043121F000402C
:1042D00010BD18200DF0B0FB0246206388B1114CD0
:1042E000114B0E48114991609FED097BC2E90043D3
:1042F0000B2393810E4B014682ED047BC2E904310E
:1043000010BD0C4B0C48522122F058FBAFF300803B
:1043100001000000000000008C0000202DF4515826
:104320002D7F954C0E33CDAB34126DE6ECDE0500DF
:104330002E7F954C602903007829030000000000BF
:104340002DE9F04F9FB00F46002107921A910022ED
:104350000021CDE9041283463A461992904612F89C
:1043600001ABBAF12D0F5FD801A151F82AF000BFBF
:10437000B9450000294400002944000029440000F8
:104380002944000029440000294400002944000079
:10439000294400005B4300005B4300005B430000D6
:1043A0005B4300005B4300002944000029440000F7
:1043B0002944000029440000294400002944000049
:1043C0002944000029440000294400002944000039
:1043D0002944000029440000294400002944000029
:1043E0002944000029440000294400002944000019
:1043F0005B430000294400002944000029440000D8
:1044000029440000294400002944000029440000F8
:104410002944000029440000294400007548000098
:10442000294400008F48000000220892BAF1300FA2
:1044300000F0858000230993BAF12F0F564640F211
:1044400012854FF0000940464D464C4618E0082CB6
:10445000C8BF09EB890900F10100C8BF0AEB490A8E
:104460001990C8BFAAF1300990F800A0D8BFA3F1F5
:104470003005BAF12F0F04F10104564640F3A8802D
:1044800005EB8503BAF1390F0AEB4303DFDDAC49D5
:10449000012224F08DFC002868D11998431C19933F
:1044A000417818460A46002C40F0EB80302A08BFBD
:1044B000034640F0D7851946013319931A78302AFC
:1044C000F9D0C0F101000144A2F13100082800F246
:1044D000C68101310F910021303A98460A9101249A
:1044E00005EB850502EB450500210133199318788A
:1044F000A0F13002092A01F1010600F27E84002AAF
:1045000000F08C870F98012E30440F9000F08487C4
:1045100004F1010C604606E075000130061B013E07
:10452000B14240F38F84461E082E05EB8506F3DD6D
:104530001028DCBF09EB89094FEA4909EDE798F833
:10454000012002F0DF02582A18BF434600F012840F
:104550000133199393F800A0BAF1300FF8D09846C0
:10456000BAF1000F0ED00123099365E7BAF1650F88
:104570001AD0BAF1450F17D0002C2FD1099B002B70
:1045800000F0BC804FF000084FF00009079A0AB114
:10459000199B1360089BB3B109F10043994640464B
:1045A00049461FB0BDE8F08F002C78D10A940F94D3
:1045B000099B002B40F0E2824FF000084FF0000909
:1045C000079B03B11F60404649461FB0BDE8F08F0E
:1045D0005B49012224F0ECFB00284ED0284626F04F
:1045E00037FE092CCDE9040140F3CD820023102CC5
:1045F000A2460E93A8BF4FF0100A0A9412930F938D
:10460000504B03EBCA0353E9122326F09BFE0646E8
:1046100048460F4626F01CFE02460B4630463946F9
:1046200026F0DAFC0F2CCDE9040100F3AC800E9BE0
:10463000002B00F0A8820E9B40F38E82162B40F3D5
:1046400065840E9AC4F125039342C0F29C803D4DCF
:10465000C4F10F0405EBC401DDE90423D1E9000135
:1046600026F070FE0E9B1C1B05EBC405D5E900234C
:1046700026F068FE8046894688E7199A531C1993EC
:104680005178A1F13000092800F2DE8002460028AE
:1046900000F0BD8601210A94A4460F91D4E30021C5
:1046A000199B0A940F918C465A1C19925E782B2EF6
:1046B00000F0C7802D2E00F0BE804FF0000AA6F15A
:1046C0003007092F37D8302E199A40F0E580013293
:1046D00019921678302EFAD0A6F13100082840F24F
:1046E000D98000221292002C34D1099A0A437FF417
:1046F00049AFBCF1000F40F03F841F46692E00F027
:10470000188400F31184492E00F013844E2E7FF498
:1047100053AF0D4919A824F021FD00283FF44CAFF8
:10472000199B1B78282B00F06D85084820F0B8FDF8
:10473000804689462AE7002219931292D3E700BFE8
:10474000E4290300B8100300F429030044290300FE
:10475000002312930A9A1346002A08BF23460A939D
:104760000F9A129B102CA3EB020328460E93A2462D
:10477000A8BF4FF0100A26F06BFD092CCDE904010B
:104780003FF73EAF53E70E9BA4EB0A0A9A44BAF1F7
:10479000000F40F3A9802AF00F071AF00F0A40F02B
:1047A0004283B7F59A7F00F3DC83102FDFF880A1F6
:1047B0004FEA271600F04C85DDE904234FF0000C8A
:1047C0005746E14616F0010F1046194607D0D7E9C3
:1047D000002326F0B7FD4FF0010C02460B46761081
:1047E000012E09F1010907F10807EBD1BCF1000F17
:1047F00001D0CDE90423059BA3F1547305930AEB83
:10480000C90ADDE90423DAE9000126F09BFD454BE6
:10481000CDE904010B400A4643498B4200F2A183D3
:10482000A1F580118B4240F2AF84404B4FF0FF3234
:10483000CDE904235AE04FF0010A9A1C19929E78A0
:104840003DE74FF0000AF8E701F0DF0145297FF46A
:10485000C5AE00210A940F914FF0010C24E702F03D
:10486000DF02452A7FF48EAE00240A940F944FF0A5
:10487000010C19E70022089208F10102199298F838
:1048800001A0BAF1000F3FF497AE9046CEE50122A9
:104890000892F1E7A6F13007501C199056782F2E98
:1048A00040F3F68286460E9208E0013019909EF899
:1048B00001602F2EA2F1300706DD864607EB870246
:1048C000392E06EB4202F0DD0E9A801A082840F3DA
:1048D000DF8244F61F621292BAF1000F3FF403AF79
:1048E000129A52421292FEE640F0D98200230993B6
:1048F0000A9A009523464146584625F063F91390DD
:10490000002800F02E830F9B129A9B1A0E9A002A01
:10491000A8BF00230F9322EAE272002314921E46DE
:104920009946DAE00000F07F0000A07CFFFFEF7FF7
:10493000A8110300D21A1F2AA4EB020400F39681E7
:1049400001239340109300231593099B25443C4475
:10495000A7421D443B46A8BF2346AB42A8BF2B46F7
:10496000002B02DDE41AED1AFF1A0F9B002B00F357
:104970001D81002C00F334810E9B002B00F36C8111
:10498000002D00F35A81002F08DD31463A46584683
:1049900025F020FB0646002800F058811A9952465F
:1049A000584625F0ABFB8146002800F04F810023DC
:1049B000C268C3603146129225F07EFB0028C0F227
:1049C000E883059B984600F08C833146484625F0E5
:1049D00031FD00224FF0804304460D4626F02EFFA5
:1049E000002800F0D380129B002B40F04C81049BE8
:1049F000002B40F0EF81C8F31303002B40F08A81B5
:104A0000A94B00222046294626F00EFF002840F040
:104A10003883A64B00222046294626F093FC0A46FE
:104A20000146CDE9101202F100430C900D93A04F06
:104A3000A04B08EA07079F42DDE90C4500F04281E0
:104A4000099B13B3B7F1D46F1FD893A3D3E9002305
:104A5000DDE9100126F0F2FEA0B1DDE9100126F03B
:104A600049FF012838BF012026F0F2FB129BCDE957
:104A70001001002B40F0878201F10043169017933C
:104A8000DDE9164505F1D663DD1BDDE90A0125F0F8
:104A9000EFFB02460B462046294626F053FCDDE993
:104AA0000A2326F099FACDE904010C46099B23B9A3
:104AB0007F4B23409F4200F036811A99584625F0DB
:104AC0000FF85146584625F00BF83146584625F068
:104AD00007F84946584625F003F8139C5846616884
:104AE00024F0BEFF8246002800F0B0802269023226
:104AF000920004F10C010C3021F098FE9DED047B36
:104B00001CAB01931BAB0093584653EC172B8DED58
:104B10000A7B25F033FC1A9000286AD00121584600
:104B200025F014F90646002800F090801B9B002B0E
:104B30007FDB0F9A149D9F18099A1C9C9B1A234493
:104B40005D4A013B9342C4F13604FFF6F3AE002305
:104B5000159301231093F8E61633FFF614AE0F9B5E
:104B6000129A9A1A554B03EBC203DDE90401D3E90B
:104B7000002326F011FD8046894607E5A44600245F
:104B8000199B214690E5DDE90489FFE4474B204667
:104B90002946002226F0D6FB129BCDE91001002BFE
:104BA0006CD101F100430C900D9340E731461A4659
:104BB000584625F097F906461A98D6B1024631466E
:104BC000584625F0D9F8034612931A988BB101463E
:104BD000584624F085FF129B1A93002C7FF7CCAE29
:104BE0001A992246584625F0F5F91A9000287FF4C4
:104BF000C3AE5746CDF83890B2462223DFF8B090C6
:104C0000CBF800304FF000080146584624F068FF0A
:104C10003946584624F064FF5146584624F060FF58
:104C20001399584624F05CFF0E99584624F058FF1B
:104C3000ACE4149A0F9FD51A7EE751462A4658468F
:104C400025F0C8F9824600287FF49DAE57461A9891
:104C5000CDF83890B246D0E75146149A584625F020
:104C600041F9824600287FF48BAEEFE7144AD21A4E
:104C7000012303FA02F21592109366E69DED107B74
:104C80008DED0C7BD3E69FED067B8DED0C7B8DEDE2
:104C9000107BCCE6AFF300800000C0FFFFFFDF41D8
:104CA000000000000000F03F0000F03F0000E03F87
:104CB0000000F07F0000E07F02FCFFFFB81003005F
:104CC000E2FBFFFFA8F154730593DDE9044520469C
:104CD000294625F0CDFADDE90C2326F033FB2246E8
:104CE0002B4626F079F9B44AB44B0A409A42CDE9F2
:104CF000040140F29480DDE90A0103F15473994202
:104D000002D1B0F1FF3FA1D0AD4C4FF0FF33CDE960
:104D10000434D2E69FED9E7B8DED0C7B9FED9E7B58
:104D20008DED107B83E6DDE910783846414626F0AC
:104D300069FE26F0D9FA02460B463846414626F06F
:104D400049F9049F129DC4F313043D432C430746C5
:104D500088462DD192A3D3E9002326F065FD0028D3
:104D60003FF4ABAECDF83890DDE904895746B24642
:104D70001A9849E70293089B01931AAB0093914A52
:104D80001BAB19A9584622F0CDF810F00F050446C8
:104D90003FF4F8AB062D40F0218108F1010319938F
:104DA00000234FF000084FF000090893FFF7EEBB17
:104DB0007DA3D3E9002326F037FD0028D2D17CA3C0
:104DC000D3E900233846414626F04CFD00283FF445
:104DD00074AEC7E7049B012B9CD14346002B99D1AD
:104DE0005746CDF83890B24622231A98CBF80030B7
:104DF0004FF000084FF0000906E700F0DF004528FB
:104E000000F0B380002C7FF4A3AC099B19434FF052
:104E100000084FF000093FF4D3ABFFF7B7BB01F137
:104E20005474059442E6684901EBCA01DDE90423A4
:104E3000D1E9000126F086FACDE90401002F3FF404
:104E400055ADAEE401398C44BCF1080F0CF10104FE
:104E50007FF746AB102CDCBF09EB890902EB49094F
:104E60000021FFF742BB59490122404623F0A0FF31
:104E700040B9814619980346013019905A784D4639
:104E8000FFF714BB099B002B3FF496ABFFF77ABBEF
:104E900044F61F629742A8BF174612971CE5CAF155
:104EA000000A4FEA2A171AF00F0A0DD0464B03EBFF
:104EB000CA03DDE90401D3E9002326F06DFBCDE947
:104EC0000401002F3FF412AD1F2F00F30581DDE92F
:104ED000042317F0100118BF6A2117F0010F099180
:104EE0003B4E104619460FD0D6E9002326F02AFA89
:104EF0007F1002460B4600F0D28017F0010F06F13A
:104F0000080610461946EFD17F10F6E70E982E4995
:104F100001EBC001DDE90423D1E9000126F012FA1A
:104F200080468946FFF732BB6E2E3FF4F2ABFFF7A7
:104F300043BB284919A824F011F900283FF43CABE1
:104F4000199B2549013B19A8199324F007F910B9B9
:104F5000199B01331993DFF860904FF00008FFF7B9
:104F600015BB2223CBF80030F5E7002C00F03A8285
:104F70004FF0010CFFF798BB4FF000084FF000090D
:104F80001F46FFF71DBB9DED107B8DED167B77E572
:104F9000000000000000F0BF000000000000F03F33
:104FA0009535A094FFFFCF3F9535A094FFFFDF3FDD
:104FB00035E5AF350000E03F0000F07FFFFF9F7C4C
:104FC000FFFFEF7F58100300B8100300E42903002F
:104FD00080100300E8290300EC2903001A9A3AB173
:104FE00035211CA825F070FA1A99584624F078FD4E
:104FF000013D042D00F21582DFE805F0032E2B2081
:1050000003001C9B04931B9B03F233421D9B23F460
:10501000801343EA02530593E20502D543F00043AF
:105020000593B34A1A40DDE90489002A7FF4AEAA49
:1050300023F02CFF22230360FFF7A8BA4FF0FF32C2
:105040006FF00043CDE90423E3057FF59CAD059B9C
:10505000E4E7A74B0593F7E7DDE91C121D9BCDE9BB
:105060000412D9E7A2F13103082B13D922F0200250
:10507000452A7FF407AF00230A930F930124FFF71B
:1050800097BA9FED977B8DED0C7B9FED977B8DED18
:10509000107BCCE4012103460F91FFF71CBA099B5A
:1050A000CDE904017BB1C1F30A52C2F16B03002BBD
:1050B00009DD1F2B40F3FD80342B049740F36481FE
:1050C0004FF05C730593DDE904010022002326F014
:1050D000A1FB00283FF40CAC2223CBF80030FFF7F3
:1050E00051BA5746C3F31302B2461E46129BCDF87F
:1050F0003890DDF840C0DDF854E07E49DDE90A89EA
:10510000002B00F093808A4200F0FA80BEF1000F7D
:1051100000F0E0801EEA060F32D04046494625F0F6
:10512000A7F8099B002B00F03781C6F30A53C3F19F
:105130006B03002B40F353811C0504F17F530022C5
:1051400003F5401326F0FEF802460B46404649465A
:1051500025F042FF80468946674B4046494600227B
:1051600026F0F0F8624B0B4080468946002B7FF416
:10517000FFAD2223CBF80030FAE51EEA060F72D10C
:10518000099B002BE8D1F3E502F154730593FFF777
:10519000ADBBDDE90445129ACDF83890224357465D
:1051A0004B46B246DDE90A89EAD1C5F313022E4621
:1051B000002AE5D125F00044240D2405B4F1D66F72
:1051C000DED95A6912B91A69012AD9DD0E9901226C
:1051D000584624F0FFFE51460E9024F06DFF002843
:1051E000CEDD099B002B00F0AB80A4F580146FEAA4
:1051F00014536FEA035305934FF0FF330493DDE933
:105200000489A9E73D4919A81CAA23F0C3FF052872
:105210007FF48BAA1D9B43F0FF4343F4E003059307
:105220001C9B0493DDE90489FFF7B0B9A2B9DDE95D
:105230000434002B45D1099B002B00F081802C4CBD
:105240003440B4F1D66FD0D8B4F15C7F84D8CBE5CC
:105250004FF00009FFF7CFBABEF1000F8DD1049BCC
:105260001CEA030F8CD04046494625F001F8099B03
:10527000002B55D0C6F30A53C3F16B03002B40F348
:10528000AB801C0504F17F53002203F5401326F088
:1052900059F802460B464046494625F09BFE00223F
:1052A00000238046894626F0B5FA00283FF454AF23
:1052B0009AE54FF0FF3202FA03F3049A1A4004927F
:1052C00001E7BEF1000F7FF458AF13EA0C0F3FF473
:1052D00057AFC8E7049B1CEA030F3FF451AF1CE72C
:1052E000000000000000E0BF000000000000E03F00
:1052F0000000F07FFFFF0F00000050396C1003002A
:10530000DDE90445099B214653BB234601332ED0DA
:10531000BEF1000F6AD01EEA060F3FF429ADFCE68D
:1053200002460B464046494625F054FE0022002323
:105330008046894626F06EFA00283FF419AD53E501
:105340003E4A1A983240A2F580126FEA12536FEA71
:10535000035305934FF0FF330493DDE9048953E4CD
:10536000364A3240B2F1D46F20D9621C27D1344A78
:10537000964240D0314A324002F580130593002313
:105380000493DDE90489FBE6C2F14B024FF0FF33E1
:1053900093400B40059396E602460B46404649462D
:1053A00025F01AFE804689461A982DE4120DC2F1A6
:1053B0006B024FF0FF3000FA02F29442D7D0BEF1F8
:1053C000000F04D01EEA060F3FF4C6AEA5E611EAB0
:1053D0000C0F3FF4C1AEA0E602460B465BE7024667
:1053E0000B46B3E600293FF449AEC1E514EA0C0FC1
:1053F0003FF4BEAC91E60131BCD122231A98DFF80C
:105400003C90CBF800304FF00008FFF7FDBB0F9049
:105410000A940121FFF769B8A44615E53146FFF764
:1054200064B8E10505D54FF000430593DDE9048933
:10543000FEE54FF000084FF00009F9E50000F07FAD
:10544000FFFFEF7F014BFEF77BBF00BFE8000020AE
:1054500010B4054C8446134620685DF8044B0A4698
:105460006146FEF76DBF00BF8C00002010B4054CF4
:10547000054B84460A4620685DF8044B6146FEF7FA
:105480005FBF00BF8C000020E80000202DE9F04144
:10549000DFF8A480044613462DED028B0A46D8F8A7
:1054A00000002146FEF74CFF02460B4604460D461F
:1054B00026F0E2F950BB2046294626F03BFA08EEDA
:1054C000100ADFED1A7AB0EEC87AB4EE677AF1EE20
:1054D00010FA15DD25F00047154B4FF0FF3220463E
:1054E000394626F0C9F938B9114B4FF0FF32204642
:1054F000394626F0A3F918B1D8F8003022221A60F4
:1055000018EE100ABDEC028BBDE8F081002D0948B1
:1055100006DA20F0F1FE07EE900AB1EE678AEFE7B7
:10552000BDEC028BBDE8F04120F0E6BEFFFF7F7FBF
:10553000FFFFEF7F442903008C0000202DE9F84392
:10554000264F274B04460A4638682146FEF7F8FEE8
:1055500002460B4604460D4626F08EF988BB2046CF
:10556000294626F0E7F907EE100ADFED1E7AB0EEC5
:10557000C77AB4EE677AF1EE10FA064617DD25F029
:105580000049194B4FF0FF322046494626F074F986
:1055900038B9154B204649464FF0FF3226F04EF9F8
:1055A00028B13B6822221A603046BDE8F88316F025
:1055B000FF4FF9D10D4B2B40002BF2D13046BDE807
:1055C000F883002D0A4804DA20F096FE80F00046A9
:1055D000EAE7BDE8F84320F08FBE00BF8C00002052
:1055E000E8000020FFFF7F7FFFFFEF7F0000F07FDC
:1055F000442903000348044B834202D0034B03B108
:105600001847704780020020800200200000000040
:105610000548064B1B1AD90F01EBA301491002D014
:10562000034B03B11847704780020020800200201E
:105630000000000010B5064C237843B9FFF7DAFFED
:10564000044B13B10448AFF300800123237010BD55
:105650006018002000000000EC6F030008B5044B48
:105660001BB104490448AFF30080BDE80840CFE710
:105670000000000064180020EC6F0300A3F5803ADE
:10568000704700BF154B002B08BF114B9D46FFF71D
:10569000F5FF00218B460F461148124A121A23F0DB
:1056A000E5FA0C4B002B00D098470B4B002B00D099
:1056B00098470020002104000D000B4804F00EFF65
:1056C00023F0B8FF2000290002F042FC23F016FD71
:1056D00000000800000000000000000000000220A0
:1056E00000040020641D0020056802006FF47D7036
:1056F000704700BF064B10B50446D3F83009036865
:105700005B6A98470146204627F0F2FD012010BD54
:1057100000050020064B10B50446D3F82C09036899
:105720009B6A98470146204627F0E2FD012010BD04
:1057300000050020064B10B50446D3F82C09036879
:105740001B6A98470146204627F0D2FD012010BD74
:105750000005002008B5024927F0EEFD012008BD34
:10576000523C030038B50121054629F01EFF441EB6
:10577000032C0CD8094B0A4953F8243003EB43039C
:10578000284601EBC30127F048FE012038BD054A39
:10579000012128461AF076FCECE700BF2C3C030000
:1057A00028080020D011030010B50121044629F07B
:1057B000FCFE054900EB400001EBC001204627F04C
:1057C0002CFE012010BD00BF2808002008B50249AA
:1057D00027F023FE012008BD5017002010B5044615
:1057E00004F004FD0146204627F0A6FD012010BD6F
:1057F00030B583B00F49044601A805F0E5FE0E4917
:1058000001A807F0E9FB40B1204627F064FD01A89C
:1058100007F09EFB012003B030BD01A807F0F2FBAA
:10582000054601A807F0F2FB29460246204627F06C
:105830006BFDECE7080E0020E018002010B50446D0
:10584000044805F041FE0146204627F051FD0120A5
:1058500010BD00BFF00D002030B583B06A460121B5
:10586000044629F065FE009A0023014601A807F0CE
:1058700077FB01A9074805F0EBFE054601A807F0F4
:1058800067FBB5FA85F12046490927F0BCFD0120E8
:1058900003B030BD080E0020074B10B50446D3F806
:1058A00030090368DB6A9847B0FA80F1490920465D
:1058B00027F0A9FD012010BD00050020074B10B501
:1058C0000446D3F8300903689B6A9847B0FA80F120
:1058D0004909204627F097FD012010BD0005002052
:1058E00010B50121044629F060FE074B0146D3F8AC
:1058F000300903681B6A9847B0FA80F149092046CD
:1059000027F081FD012010BD00050020074B10B5D8
:105910000446D3F830090368DB699847B0FA80F190
:105920004909204627F06FFD012010BD0005002029
:10593000074B10B50446D3F82C0903681B6B984736
:10594000B0FA80F14909204627F05DFD012010BD25
:1059500000050020074B10B50446D3F82C09036856
:10596000DB6A9847B0FA80F14909204627F04BFDE1
:10597000012010BD0005002010B50121044629F0CA
:1059800014FE074B0146D3F82C0903685B6A98475D
:10599000B0FA80F14909204627F035FD012010BDFD
:1059A0000005002010B50121044629F0FEFD074B3B
:1059B0000146D3F82C090368DB699847B0FA80F1F7
:1059C0004909204627F01FFD012010BD00050020D9
:1059D00070B50121044629F0E8FD02210546204664
:1059E00029F0E3FD03210646204629F0DEFD32B210
:1059F000C3B229B2054811F013FEB0FA80F149098B
:105A0000204627F000FD012070BD00BF040D0020DE
:105A100010B504460EF0D8F80146204627F068FC81
:105A2000012010BD10B50121044629F0BEFD0CF087
:105A300077F90146204627F05BFC012010BD00BF2E
:105A400010B50121044629F0B0FDC1B2054805F0AA
:105A500029FDB0FA80F14909204627F0D4FC012045
:105A600010BD00BFF00D002010B50446054805F03C
:105A7000B3FCB0FA80F14909204627F0C4FC0120AC
:105A800010BD00BFF00D002010B50446054805F01C
:105A90001BFCB0FA80F14909204627F0B4FC012034
:105AA00010BD00BFF00D002010B50121044629F003
:105AB0007CFD0146054805F05DFBB0FA80F149091F
:105AC000204627F0A0FC012010BD00BFF00D0020F3
:105AD00010B50121044629F068FD0146054805F08E
