:100000000000022029B9010051B9010053B90100D3
:1000100055B9010057B9010059B9010000000000AD
:100020000000000000000000000000005BB90100BB
:100030005DB90100000000005FB9010061B9010075
:1000400063B9010005B60000F1B70100B5B70100C2
:10005000C9B7010063B9010035A101009D8D010000
:10006000A1B20100A9B20100B1B2010063B901005F
:1000700063B9010063B9010063B9010063B901000C
:1000800063B9010063B9010063B9010063B90100FC
:1000900063B9010063B9010063B9010063B90100EC
:1000A00063B9010063B90100B9B20100C1B2010036
:1000B00063B9010063B90100000000000000000006
:1000C00063B9010063B9010063B90100DDB7010044
:1000D00063B9010063B9010063B9010000000000C9
:1000E0000000000000000000000000000000000010
:1000F0000000000000000000000000000000000000
:1001000000000000000000000000000000000000EF
:1001100000000000000000000000000000000000DF
:1001200000000000000000000000000000000000CF
:1001300000000000000000000000000000000000BF
:1001400000000000000000000000000000000000AF
:10015000000000000000000000000000000000009F
:10016000000000000000000000000000000000008F
:10017000000000000000000000000000000000007F
:10018000000000000000000000000000000000006F
:10019000000000000000000000000000000000005F
:1001A000000000000000000000000000000000004F
:1001B000000000000000000000000000000000003F
:1001C000000000000000000000000000000000002F
:1001D000000000000000000000000000000000001F
:1001E000000000000000000000000000000000000F
:1001F00000000000000000000000000000000000FF
:1002000030B490F800F020F007016FF0000C10F00F
:10021000070491F820F040F048804FF000046FF0A0
:100220000700D1E9002391F840F000F1080082FABC
:100230004CF2A4FA8CF283FA4CF3A2FA8CF34BBB87
:10024000D1E9022382FA4CF200F10800A4FA8CF200
:1002500083FA4CF3A2FA8CF3E3B9D1E9042382FACE
:100260004CF200F10800A4FA8CF283FA4CF3A2FAE3
:100270008CF37BB9D1E9062301F1200182FA4CF21B
:1002800000F10800A4FA8CF283FA4CF3A2FA8CF382
:10029000002BC6D0002A04BF04301A4612BAB2FAA4
:1002A00082F200EBD20030BC7047D1E9002304F0A9
:1002B0000305C4F100004FEAC50514F0040F91F8DE
:1002C00040F00CFA05F562EA05021CBF63EA05037B
:1002D00062464FF00004AAE70000000000000000A2
:1002E00002780B78012A28BF9A4240F0D8806DE945
:1002F000044540EA0104CDE902676FF0000C4FEAC3
:1003000044721AB380EA010414F0070F6BD100F0B5
:10031000070420F0070004F0030521F007014FEA6D
:10032000C505F0E8042314F0040FF1E804670CFAA3
:1003300005F462EA040266EA04060BD063EA0403E9
:10034000624667EA0407664604E000BFF0E804235B
:10035000F1E8046782FA4CF582EA0604A4FA8CF408
:100360006CBB83FA4CF583EA0705A5FA8CF595B9C1
:1003700050E9022351E9026782FA4CF582EA060449
:10038000A4FA8CF483FA4CF583EA0705A5FA8CF5F8
:100390002543DBD09CB92DBAB5FA85F424F00704C7
:1003A00027FA04F1DDE9026723FA04F303F0FF0002
:1003B00001F0FF01FDE80445A0EB0100704724BAFD
:1003C000B4FA84F424F0070426FA04F1DDE90267A4
:1003D00022FA04F202F0FF0001F0FF01FDE80445FB
:1003E000A0EB0100704714F0030F3CD110F00304A0
:1003F00028D150F8082B51F8083B82FA4CF582EAD4
:100400000305A5FA8CF55DB950F8042C51F8043CAD
:1004100082FA4CF582EA0305A5FA8CF5002DE8D0A6
:100420002DBAB5FA85F424F0070423FA04F122FA70
:1004300004F202F0FF0001F0FF01FDE80445A0EB2B
:10044000010070474FEAC40420F0030050F8082B65
:1004500021F0030151F8083B0CFA04F462EA0402AB
:1004600063EA0403C9E710F003041DD0A1EB040103
:1004700020F00300E40750F8042B06D012D28B784A
:100480005FFAA2F4E41A06D12BB1CB785FFAB2F48A
:10049000E41A00D133B920465DF8104B7047A2EB47
:1004A0000300704701F1040150F8042BCC0721F040
:1004B000030151F8043B48D824D222F07F4482FA49
:1004C0004CF594EA1325A5FA8CF50AD165B951F8D3
:1004D000043B84EA0204B4EB036F0ED150F8042B02
:1004E000EBE74FEA132355E035F07F454DD108780F
:1004F000FDE80445C0F1000070474FEA126203F0C6
:10050000FF0347E002EA1C4482FA4CF594EA1345E3
:10051000A5FA8CF50AD165B951F8043B84EA0204C6
:10052000B4EB034F0CD150F8042BEBE74FEA134325
:1005300030E015EA1C4528D10B884FEA124229E029
:100540004FEA124203EA1C4324E002F0FF0482FA5D
:100550004CF594EA1365A5FA8CF50AD165B951F802
:10056000043B84EA0204B4EB032F09D150F8042BB6
:10057000EBE74FEA13630DE015F0FF0F05D10B68B1
:100580004FEA122223F07F4304E04FF00000FDE821
:100590000445704712BA1BBA82FA4CF482EA03048B
:1005A000A4FA8CF5B5FA85F402FA04F203FA04F31E
:1005B0004FEA1260FDE80445A0EB1360704700BFEE
:1005C00001F0FF01102A2BDB10F0070F08D010F804
:1005D000013B013A8B422DD010F0070F42B3F6D108
:1005E000F0B441EA012141EA014122F007047FF021
:1005F00000070023F0E80256083C85EA010586EA78
:10060000010685FA47F5A3FA87F586FA47F6A5FAB3
:1006100087F68EB9EED1F0BC01F0FF0102F00702BF
:1006200032B110F8013B013A83EA010313B1F8D16A
:100630000020704701387047002D06BF354603384B
:10064000073815F0010F07D1013015F4807F02BF84
:10065000013015F4C03F0130F0BC0138704700BFD5
:100660002DE9F0419FED1E7B214C04609FED1E5B48
:1006700000F502644FF07E55DFED1E6A03F1FF3C8A
:1006800080ED027B4FF00008256000F62807012668
:1006900000F5036500F5046EBCF1030F04ED025B89
:1006A000C0F82488C7ED006A80F82C6885ED007BCF
:1006B0000EED027B05D89C193441C0F81838C0F8FB
:1006C0001C4892B207EE902A00F61402F8EE677A00
:1006D00000F501631160C3ED007ABDE8F08100BF51
:1006E0000000000000000000030000000200000005
:1006F00094400300000000002DE9F04F044683B051
:10070000C0682AF0EFFE8046206989462AF0EAFE9A
:100710006569CDE9000128462AF0E4FE024601F1B0
:10072000004306460F464046494622F047FF2BF05D
:100730003BFAE062824624F0EBF88346504623F011
:1007400087FC824658462AF0DFFE42464B462AF096
:1007500033FF8046504689462AF0D6FE32463B4655
:100760002AF02AFF02460B46404649462AF06CFD15
:1007700002460B46DDE9000122F020FF2BF014FABF
:10078000002D07EE900A19DDF5EEC07AF1EE10FAB1
:100790001DDD11A7D7E9006717EE900A2AF0B4FE15
:1007A00002460B46304639462AF04EFD32463B465D
:1007B0002AF04CFD2BF0F8F907EE900AE388C4ED1F
:1007C0000A7A43F00203E38003B0BDE8F08F04A788
:1007D000D7E90067E0E700BFEA2E4454FB21F93F68
:1007E000EA2E4454FB21F9BF2DE9F0412DED028B97
:1007F000002408EE103A5C4B0360446005460F4647
:100800001646BDF8208010F09BFA584B2B6003F180
:100810002C023833EB60AA606F612C8205F12C004A
:1008200017F0AAFA05F1300017F0A6FA9FED507AFA
:10083000504B68696E63C7EE087AA5F80480EC61D6
:100840002C852C83C0F80045B0EE677ABEEECE7AD8
:1008500017EE101A9FED427BB1F5004F83ED007B40
:1008600083ED027B234678DB013341FA03F4B4F5D0
:10087000004FF9DA072B15DC04FA03F10029B8BFA1
:100880000F31091107EE901ADFED396AC0F80C3507
:10089000F8EEE77AC0F8084586EEA77AC5ED097A42
:1008A00085ED087A00230222C0F804353249C0F8E9
:1008B0001025C0F84835C0F82835C0F84C35C0F8C8
:1008C0002C3540F201136B830123C0F8143530241A
:1008D00004238842C0F80032C0F8044321D02749DD
:1008E00088422DD0264A90420ED0326801235268A9
:1008F0002B7605F10801C0F8003530469047BDEC75
:10090000028B2846BDE8F0811E4A1F4C95601F4AA5
:100910009168A2F54062C1F8C840C2F884315360C2
:10092000E3E71A4B174A99681560A3F540634FF047
:100930008052174CC1F8B040C3F880211A60D4E748
:10094000104B144C5D60114B9968A3F54063C1F8DE
:10095000C440C3F884215A60C7E70C468EE700BF45
:100960000080008000800080344503003452030082
:10097000002474495018002000C0014000100240BB
:1009800000200240A41A00204997010000ED00E079
:10099000A1960100F596010010B5012104462EF044
:1009A00011FE2AF0B1FD06A3D3E900232AF004FECC
:1009B0002BF0FAF8014620462CF0CDFD012010BDA9
:1009C000399D52A246DF913F10B5012104462EF019
:1009D000F9FD2AF099FD06A3D3E900232AF016FFBA
:1009E0002BF0E2F8014620462CF0B5FD012010BDA9
:1009F000399D52A246DF913F82B010B59FED0A7B30
:100A0000014601F110040498C86081ED087B20467E
:100A100002A981E80C0011F049F92046BDE8104018
:100A200002B011F093B800BF000000000000000009
:100A3000C1F30A5C2DE9F041ACF2FF35132D0246FB
:100A40000B460C46064622DC002D4CDBDFF8D4803A
:100A500048FA05F801EA080C5CEA000C0F461BD0C6
:100A60002EA3D3E900232AF0F1FB002200232BF070
:100A700033F840B1002C03DD4FF480132B411F44A9
:100A800027EA0804002621463046BDE8F081332DD0
:100A900006DDB5F5806F38D010461946BDE8F08107
:100AA000ACF2134C4FF0FF3727FA0CF73842F3D073
:100AB0001AA3D3E900232AF0C9FB002200232BF05C
:100AC0000BF80028DFD0002C334609DD142D06D0AA
:100AD000C5F134050122AA4013449E4200D90134D5
:100AE00023EA0706CFE70DA3D3E900232AF0AEFBE4
:100AF000002200232AF0F0FF0028C4D0002C07DBDE
:100B0000344300D0044C0026BDE72AF09FFBC5E724
:100B100000264FF00044B6E70000F03F9C750088C7
:100B20003CE4377EFFFF0F00F8B504460D4601F0A8
:100B3000DFF906460F462046294624F01BF978B116
:100B400012A3D3E90023204629462AF0C5FF50B955
:100B500010A3D3E90023204629462AF09FFF58B965
:100B600030463946F8BD28F0CBFA074F222300263D
:100B7000036039463046F8BD28F0C2FA2223002629
:100B800000270360ECE700BF0000F07FEF39FAFEBA
:100B9000422E864051302DD5104987C000000000FC
:100BA0002DE9F04F964B21F000459D428FB08246D3
:100BB0008B46144640F28B80924B9D420F4628D8BC
:100BC000002985A3D3E9002340F3A1812AF03CFB4F
:100BD0008D4B9D4206460F4600F08D8080A3D3E9E1
:100BE00000232AF031FB8046894642464B46304678
:100BF00039462AF029FB7AA3D3E900232AF024FB03
:100C0000C4E90089C4E90201012630460FB0BDE8FD
:100C1000F08F7E4B9D4240F288807D4B9D4261D893
:100C20002E15A6F21646A5EB0659494650462AF05F
:100C300073FF2AF057FC02460B4650464946CDE961
:100C400008232AF001FB734B00222AF0B5FC8946E9
:100C500080462AF061FF2AF045FC02460B464046DA
:100C60004946CDE90A232AF0EFFA6A4B00222AF01E
:100C7000A3FCCDE90C010DF1380A03254FF0000863
:100C80004FF000097AE9020142464B46AB46013D6E
:100C90002AF0FAFE0028F5D15F4B0193022300935E
:100CA00032465B46214608A822F076FD002F064614
:100CB000ABDA6168226801F10043E168C4E900230E
:100CC000A26801F10043C4E9022346429DE70022E5
:100CD0000023C4E900ABC4E90223002630460FB06C
:100CE000BDE8F08F02460B462AF0AEFAC4E90201D5
:100CF000C4E90001F1E73CA3D3E900232AF0A4FAF8
:100D00003BA3D3E9002306460F462AF09DFA80460E
:100D1000894642464B46304639462AF095FA34A376
:100D2000D3E900232AF090FA6AE724F01DFA32A3EF
:100D3000D3E90023804689462AF03EFC374B002247
:100D40002AF084FA2AF0E8FE06462AF0CBFB024697
:100D50000B46CDE9022320A3D3E900232AF02CFC83
:100D600002460B46404649462AF06EFA1CA3D3E9D8
:100D7000002382468B46DDE902012AF01DFC024673
:100D80000B4650465946CDE904232AF05DFA1F2E42
:100D90008046894646DC224B721E53F82230AB4215
:100DA00040D042464B46C4E90089504659462AF095
:100DB0004BFADDE904232AF047FA002FC4E90201C7
:100DC000BFF623AF09F10043C4E9008301F10043FA
:100DD000C4E90203764218E700004054FB21F93FC2
:100DE0003163621A61B4D03D0000601A61B4D03D35
:100DF0007370032E8A19A33B83C8C96D305FE43F2B
:100E0000FB21E93F7BD90240FB21F93FFB2139411E
:100E1000FFFFEF7F00007041A45803000000E03F97
:100E200024580300C9F30A53C3EB1553102B4FEAA0
:100E30002555B6DD56A3D3E90023DDE902012AF0EA
:100E4000BBFB8046894642464B46504659462AF0EF
:100E5000FBF902460B4650465946CDE90623924619
:100E60009B462AF0F1F942464B462AF0EDF94AA397
:100E7000D3E9002380468946DDE902012AF09CFB84
:100E800042464B462AF0E0F90B4602465946504688
:100E9000CDE904232AF0D8F9C1F30A53ED1A312D14
:100EA000804689467FF77DAF3EA3D3E90023DDE985
:100EB00002012AF081FB8046894642464B46DDE925
:100EC00006012AF0C1F982468B4652465B46DDE9AF
:100ED00006012AF0B9F942464B462AF0B5F933A388
:100EE000D3E9002380468946DDE902012AF064FB4C
:100EF00042464B462AF0A8F902460B465046594650
:100F0000CDE904232AF0A0F98046894649E72AF072
:100F10009DF9234B9D4206460F4618D01AA3D3E9EC
:100F200000232AF093F98046894642464B463046D4
:100F300039462AF089F914A3D3E900232AF086F967
:100F4000C4E90089C4E902014FF0FF365DE610A351
:100F5000D3E900232AF07AF90FA3D3E90023064648
:100F60000F462AF073F98046894642464B46304682
:100F700039462AF069F908A3D3E900232AF066F973
:100F8000DEE700BFAFF300803163621A61B4D03D89
:100F90000000601A61B4D03D7370032E8A19A33B20
:100FA000FB21F93F0000002E8A19A33BC1492025EF
:100FB0009A837B390000000070B51646C1F30A52CF
:100FC00004460D460B464ABB21F00043034324D0A0
:100FD000334B00222AF0F0FA324B9E4204460D4673
:100FE00046DBC1F30A520B46363A4CF250318E4280
:100FF0001CDC164440F2FE72964217DC002E29DCFF
:1010000016F1350F2CDB6FF31E53363643EA0651CB
:101010002046254B00222AF0CFFA70BD40F2FF7C1B
:101020006245E2D102462AF011F970BD002D14A1EB
:10103000D1E9000105DB12A3D3E900232AF0BCFAB1
:1010400070BD0FA3D3E900230FA1D1E900012AF05D
:10105000B3FAF5E76FF31E53204643EA065170BD1D
:10106000002D0BA1D1E9000102DA0BA1D1E90001A9
:1010700007A3D3E900232AF09FFA70BDAFF30080E5
:101080009C7500883CE4377E9C7500883CE437FE04
:1010900059F3F8C21F6EA50159F3F8C21F6EA5815E
:1010A00000005043B03CFFFF0000903C00000000F7
:1010B000F8B504460D4624F089FD224606460F4643
:1010C0002B46204629462AF011FD48B920462946DC
:1010D00024F04AF809A3D3E900232AF0FDFC10B953
:1010E00030463946F8BD28F00BF8034F002622237E
:1010F000036039463046F8BD0000F07F7DF8B98FB7
:10110000CE338640000000002DE9F04F83B0CDE9DA
:10111000002321F00043B3F1795F04460D4604D269
:101120002AF0FAFC002800F0858022462B46204653
:1011300029462AF041FA06460F4632463B462046EB
:1011400029462AF039FA41A3D3E9002382468B4687
:10115000304639462AF030FA3EA3D3E900232AF07C
:1011600073F832463B462AF027FA3CA3D3E9002322
:101170002AF06CF832463B462AF01EFA39A3D3E92E
:1011800000232AF061F832463B462AF015FA37A3CD
:10119000D3E900232AF05AF80C9B804689469BB37A
:1011A000DDE90001284B00222AF006FA42464B46B0
:1011B00080468946504659462AF0FEF902460B46BB
:1011C000404649462AF040F832463B462AF0F4F9B8
:1011D000DDE900232AF038F819A3D3E900230646F5
:1011E0000F46504659462AF0E7F902460B4630466C
:1011F00039462AF02BF802460B46204629462AF0AB
:1012000023F803B0BDE8F08F02460B46304639465E
:101210002AF0D2F90AA3D3E900232AF015F852469E
:101220005B462AF0C9F922462B462AF00FF803B094
:10123000BDE8F08F2046294603B0BDE8F08F00BF1F
:10124000495555555555C53F0000E03F7CD5CF5A0F
:101250003AD9E53DEB9C2B8AE6E55A3E7DFEB15737
:10126000E31DC73ED561C119A0012A3FA6F81011A0
:101270001111813F000000002DE9F04F23F0004ADA
:10128000044652EA0A0093B0904699460D4614D19E
:101290002319714985F4002252419842914126D286
:1012A00042464B462046294629F0D0FF02460B46CF
:1012B0001046194613B0BDE8F08F1F461346674A23
:1012C00000940E4621F000419142029116D9009BF4
:1012D00006F1404606F580161E43E1D14346DB1871
:1012E0005D4989F4002252419E429141D8D35C4B22
:1012F00000221046194613B0BDE8F08F13D0924576
:10130000E5D8DDF808B053D0002E15DB002B40F0F7
:101310008380534A924540F02084002FC0F211850B
:1013200022462B46C4E7002CBAD18A45B8D800F033
:101330005984DDF808B0E7E74A4A924500F2A383F2
:10134000494A924500F2A583002B40F0EF83B7F1A4
:10135000804F00F0038504932046294623F004FFC4
:101360000B4600990246002937D00498F10F013945
:1013700008435FD004980138084300F07F839FED55
:10138000347B8DED067BBAF1844F71D937498A459C
:1013900040F23D84344B029A9A4200F2F984002FC5
:1013A000C0F2F984002013B0BDE8F04F23F000BF75
:1013B000002B8CD1029B009A03F1404303F580136C
:1013C000134394D0284B029A9A4240F29484002FFF
:1013D000C0F2068542464B466AE7214926F0404066
:1013E000884202D002990029BFD1002FC0F27B842D
:1013F000002EBFF65DAF029901F14049049909F54D
:10140000801959EA010917D0049901297FF450AFD6
:1014100003F100410B464BE7002304932046294685
:1014200023F0A2FE0B46009902460029D5D0F10F09
:1014300001399FE722462B461046194629F004FF42
:1014400002460B462AF0E2F902460B4630E700BF9F
:10145000000000000000F03F0000F0FF0000F07FFF
:101460000000F03FFFFF3F43FFFFEF3F0000F0436E
:10147000D7493140002940F0C88310461946002260
:10148000D44B2AF099F802468B466FF034004FEAAD
:101490002B51A1F2FF310818CF490F90CBF3130B5A
:1014A0004BF07F548B4544F4401440F3A083CB4968
:1014B0008B4540F35D849FEDB07B8DED087B9FED08
:1014C000B07B8DED047B9FEDAC7B8DED107B01300F
:1014D0000F90A4F58014002592465046DDE90423C0
:1014E000214629F0B1FEA346DDE9042306460F4656
:1014F00050462146CDE90AAB29F0A8FE02460B462C
:101500000020B7492AF082F98C46834663465A4642
:1015100030463946CDE90CBC2AF04EF864100A4634
:101520000146CDE9021244F00054DDE902AB04F5B6
:101530000023591900204FF0000A04460D462246A8
:101540002B4650465946CDE900012AF035F80246AF
:101550000B463046394629F077FEDDE9042306467E
:101560000F462046294629F06FFE02460B46DDE96C
:101570000A0129F069FE52465B462AF01DF8024630
:101580000B463046394629F05FFEDDE90C232AF090
:1015900013F8DDE90245CDE9040122462B46204639
:1015A00029462AF009F878A3D3E9002304460D461A
:1015B0002AF002F876A3D3E9002329F047FE224659
:1015C0002B4629F0F9FF74A3D3E9002329F03EFE4E
:1015D00022462B4629F0F0FF71A3D3E9002329F01E
:1015E00035FE22462B4629F0E7FF6FA3D3E90023FF
:1015F00029F02CFE22462B4629F0DEFF6CA3D3E90E
:10160000002329F023FE224606460F462B4620469D
:10161000294629F0D1FF02460B463046394629F0CB
:10162000CBFF524604460D465B46DDE9020129F038
:101630000DFEDDE9042329F0BFFF22462B4629F0E9
:1016400005FE524604460D465B465046594629F073
:10165000B3FF644B002206460F4629F0F7FD2246F1
:101660002B46CDE90A4529F0F1FD0D462B465246A1
:101670005046594629F0A0FF5A4BCDE900010022FF
:101680002946504629F0E0FD32463B4629F0DCFD74
:1016900002460B46DDE90A0129F0D6FDDDE9022309
:1016A00029F08AFF2B4606460F465246DDE9040123
:1016B00029F082FF02460B463046394629F0C6FD26
:1016C00006460F463246DDE900013B4629F0BEFDE5
:1016D00039A3D3E9002350460D4629F06DFFDDE91B
:1016E0000023CDE900012946504629F0ADFD024610
:1016F0000B463046394629F0A7FD31A3D3E9002334
:1017000029F05AFF02460B461446294650461D460C
:101710002DA3D3E9002329F04FFF02460B462046B4
:10172000294629F093FDDDE9102329F08FFD0646B7
:101730000F980F4629F0D6FE324604460D463B462A
:10174000DDE9000129F082FDDDE9082329F07EFDB5
:1017500022462B4629F07AFD504622462B46CDE9FB
:10176000020129F071FDDDE9082329F06DFDDDE9B5
:10177000002339E0AFF3008000000000000000000B
:10178000000000000000F03FEF4E454A287ECA3FAF
:1017900065DBC9934A86CD3F01411DA96074D13FE5
:1017A0004D268F515555D53FFFAB6FDBB66DDB3FF7
:1017B000033333333333E33F000000E009C7EE3F28
:1017C000FD033ADC09C7EE3FF5015B14E02F3EBE96
:1017D0000000F07F000040438E98030079B60B00B4
:1017E0000000F03F0000084029F02EFD02460B46A5
:1017F0003046394629F028FDCDE904010023CDE922
:1018000000890093DDE90067404632463B46494681
:1018100029F01AFDDDE902AB52465B4629F0CCFE09
:10182000424604460D464B46DDE9040129F0C4FE5C
:1018300002460B462046294629F008FD324604465A
:101840000D463B4650465946CDE9024529F0B4FEC7
:1018500006460F46204629463B46324629F0F6FC0E
:10186000DB4B994204460D46884640F33F8101F127
:101870003F4303F5E003034340F09782C0A3D3E95D
:101880000023DDE9020129F0E1FC02460B46204677
:10189000294614461D4632463B4629F0D5FC0246F1
:1018A0000B46204629462AF017F9002840F07D8291
:1018B0004FF400734344C3F30A52C64CA2F2FF3202
:1018C0001441C3F3130AC2F11402002004EA030115
:1018D0004AF4801A4AFA02FA0B460246B8F1000F9F
:1018E00030463946B8BFCAF1000A29F0ADFC0246BD
:1018F0000B4606460F46DDE9020129F0A7FC4FEA38
:101900000A5B0D460024A0A3D3E900232046294604
:1019100029F052FE3246804689463B4620462946FB
:1019200029F092FC02460B46DDE9020129F08CFC0D
:1019300097A3D3E9002329F03FFE02460B46204639
:10194000294614461D4694A3D3E9002329F034FE0A
:1019500002460B462046294629F078FC06460F46EB
:1019600032463B464046494629F070FC42464B46CB
:1019700004460D4629F068FC02460B4630463946BF
:1019800029F062FC2246804689462B46204629469D
:1019900029F012FE82A3D3E9002306460F4629F060
:1019A0000BFE81A3D3E9002329F04EFC32463B46CF
:1019B00029F002FE7EA3D3E9002329F047FC32463A
:1019C0003B4629F0F9FD7CA3D3E9002329F03CFC38
:1019D00032463B4629F0F0FD79A3D3E9002329F0F4
:1019E00035FC32463B4629F0E7FD02460B462046D1
:1019F000294629F029FC06460F4632463B4620463A
:101A0000294629F0D9FD02460B463046394616468E
:101A10001F4600224FF0804329F016FC02460B4679
:101A20003046394629F0F2FE424606460F464B46FE
:101A30002046294629F0C0FD42464B4629F006FCC7
:101A400002460B463046394629F0FEFB22462B461D
:101A500029F0FAFB02460B4600205F4929F0F4FB0F
:101A60000C465C44B4F5801FC0F29B812146DDE941
:101A7000062329F0A1FD02460B4619E49FED527B97
:101A80008DED067B7FE4002B00F0A68102230493FA
:101A9000C4E44FEA2A52A2F2FF32142A40F33781FB
:101AA000C2F1340223FA02F101FA02F29A4200F082
:101AB0009B81002B3AD1B7F1804F00F04F81204637
:101AC000294623F051FB0B460099024600297FF47A
:101AD000B1AC414926F04040884200F0CC810299E7
:101AE000002900F0C381002104913EE4DFF8F0C03A
:101AF00021F00043634540F21B81384B0B44034304
:101B00000AD132463B4629F09FFBDDE9022329F04A
:101B1000D9FF00283FF4CCAEDDE906010022002306
:101B200029F0BCFF003818BF01203CE420462946BC
:101B300023F01AFB0B460099024600297FF47AAC89
:101B4000254926F04040884200F07881029900291A
:101B500000F060810099049107E4B7F1804F00F034
:101B6000FD80A2F5801297427FF4F5AB204629460E
:101B700013B0BDE8F04F22F085BB00BFAFF300808B
:101B8000FE822B654715973C00000000432EE63F80
:101B9000EF39FAFE422EE63F396CA80C615C20BE9C
:101BA000D0A4BE726937663EF16BD2C541BDBB3E63
:101BB0002CDE25AF6A56113F93BDBE166CC1663F41
:101BC0003E5555555555C53F000000000000F0BF7B
:101BD000FFFF8F400000F0FF0000F03F00346F3F38
:101BE000FFCB9040002B7FF45BABFFF7EBBB9FED8F
:101BF000AA7B8DED087B9FEDAA7B8DED047B9DED8F
:101C0000087B00258DED107B66E400203FE4B4499D
:101C100002988842C0F0D380B2490298884200F20C
:101C2000EC80104619460022AE4B29F00DFB9EA316
:101C3000D3E9002304460D4629F0BEFC9CA3D3E95A
:101C4000002382468B462046294629F0B5FCA64B48
:101C5000CDE9000100222046294629F0ADFC0246CC
:101C60000B4695A1D1E9000129F0EEFA22462B4658
:101C700029F0A2FC02460B4600209C4929F0E4FA18
:101C800022462B4606460F462046294629F094FC5C
:101C900002460B463046394629F08EFC88A3D3E92C
:101CA000002329F089FC02460B46DDE9000129F0FA
:101CB000CBFA04460D4622462B465046594629F09B
:101CC000C5FA002052465B46CDE9020129F0BCFA74
:101CD00002460B462046294629F0B6FACDE9040112
:101CE0008CE5029904917F49002029F08FFD02467E
:101CF0000B46FFF77DBB002F4FF000024FF00003B3
:101D0000BFF6D6AA424609F10043FFF7D1BA002B2D
:101D10007FF40CAFC2F114024AFA02F101FA02F2A6
:101D200052457DD06F4A92453FF4F7AAFFF70FBBAB
:101D30006E4A934200F28880DDE900239346924682
:101D4000E0E522462B466749002029F05FFD024668
:101D50000B46FFF7ADBAB7F1804F3DD122462B4677
:101D60002046294629F028FC02460B46FFF7A0BA78
:101D70009FED557B8DED087B9FED557B8DED107BA9
:101D80009FED557B4FF480258DED047BFFF7A4BBC1
:101D9000002F7FF707AB002013B0BDE8F04F23F012
:101DA00011BA5246FFF708F961E6DDE906010022A3
:101DB000002329F073FE003818BF0120ECE7DDE9AD
:101DC00006010022002329F069FE003818BF012017
:101DD000002FBFF6E8AADFE702230493FFF7BCBA9F
:101DE00000220023FFF764BA002BB4D001F00101F8
:101DF000C1F102030493FFF711BBDDE906010022E4
:101E0000002329F04BFE003818BF0120002FC3DC4F
:101E1000FFF7C9BA002FFFF664AF0491FFF7EBBAE2
:101E2000304B9A453FF479AAB7F1804F96D001F034
:101E30000101C1F102030493FFF78EBA002F0BDBFF
:101E400000990491FFF7D7BA1B15A3F2FE334FF4A4
:101E5000801242FA03F32DE52249002029F0D6FC36
:101E6000009B049302460B46FFF7C5BA002FD4DA55
:101E70000021049137E7002F01DB0021CDE719494C
:101E8000002029F0C3FC0023049302460B46FFF711
:101E9000B2BA00BFAFF300800000000000000000F5
:101EA000000000000000F03F000000604715F73F11
:101EB00044DF5DF80BAE543E555555555555D53F4D
:101EC000FE822B654715F73F0000004003B8E23F54
:101ED00006D0CF43EBFD4C3E000000000000F83F71
:101EE000FFFFEF3F0000F03F0000D03F0000E03F69
:101EF0002DE9F047D04F21F00042BA4286B00446A7
:101F00000D464FEAD1760DD9CC4FBA426FD9C1F305
:101F100013030343024640F04481002E64D00020A6
:101F2000002161E0C64B9A4200F21281C54B9A42F1
:101F300040F2248122462B462046294629F03CFBCC
:101F4000A7A3D3E9002306460F4629F035FBA6A335
:101F5000D3E9002329F078F932463B4629F02CFBDF
:101F6000A3A3D3E9002329F071F932463B4629F0B7
:101F700023FBA1A3D3E9002329F066F932463B46AF
:101F800029F01AFB9EA3D3E9002329F05FF932461A
:101F90003B4629F011FB02460B462046294629F014
:101FA00053F9CDE90201DDE90289204642464B465C
:101FB000294629F001FB002206460F464FF08043D8
:101FC0004046494629F040F902460B46304639461C
:101FD00029F01CFC22462B4629F036F902460B4616
:101FE0000020994929F030F906B0BDE8F08786A3B2
:101FF000D3E9002329F070FD0746002840F0D78080
:1020000083A3D3E900232046294629F047FD002871
:1020100040F0DF808D4B204603EBC60629467EA3A9
:10202000D3E9002329F0C8FAD6E9082329F00EF9EC
:1020300029F072FD824629F055FA79A3D3E90023ED
:1020400006460F4629F0B8FA02460B4620462946B6
:1020500029F0FAF874A3D3E9002380468946304674
:10206000394629F0A9FACDE90001DDE9002340460F
:10207000494629F0E9F802460B4604460D4629F088
:102080009BFA57A3D3E9002306460F4629F094FA9A
:1020900055A3D3E9002329F0D7F832463B4629F06F
:1020A0008BFA53A3D3E9002329F0D0F832463B46FC
:1020B00029F082FA50A3D3E9002329F0C5F832466B
:1020C0003B4629F079FA4EA3D3E9002329F0BEF864
:1020D00032463B4629F070FA02460B462046294616
:1020E00029F0B2F806460F462046294632463B46BE
:1020F000CDE9026729F060FACDE90401BAF1000FD9
:102100003FF451AF32463B4600204FF0804129F06A
:102110009BF802460B46DDE9040129F077FB0246F5
:102120000B46DDE9000129F08FF842464B4629F0C5
:102130008BF802460B460020434929F085F86FF4DE
:102140007F72924539DB01EB0A5106B0BDE8F0879A
:102150003F4B9A423FF65EAF3C4C04EBC604D4E9D9
:10216000002329F071F894ED047B86F0010A8DEDCF
:10217000007B80468946AAEB060A76E72CA3D3E9C2
:10218000002329F063F8304B002229F0A5FC002839
:102190003FF4D0AE2C4B00222046294629F056F8B9
:1021A00022E70B4629F052F806B0BDE8F087002080
:1021B00006B0BDE8F04723F005B80AF57A7A01EBDE
:1021C0000A5100224FF0B87329F0F6F906B0BDE8C5
:1021D000F087384606B0BDE8F04722F0E9BF00BFFF
:1021E000D0A4BE726937663EF16BD2C541BDBB3E1D
:1021F0002CDE25AF6A56113F93BDBE166CC1663FFB
:102200003E5555555555C53FEF39FAFE422E86408D
:1022100051302DD5104987C0FE822B654715F73FF9
:102220000000E0FE422EE63F763C7935EF39EA3D8C
:102230009C7500883CE4377E412E8640FFFFEF7F8F
:10224000422ED63FFFFFEF3D0000F03F501003004D
:10225000B1A2F03F00000000B1F5801F2DE9F84366
:1022600004460D460B4619DA21F00042024353D0D2
:10227000002959DB364B002229F09EF9354A0D46DC
:102280002B46934204466FF035010CDD22462B4667
:102290002046294628F0DAFFBDE8F8832D4A93420C
:1022A0004FF00001F2DC1815A0F2FF300844C70F10
:1022B00000EBD070C3F3130629F014F9C7F57F7350
:1022C000033346EA03551CA3D3E90023804689461D
:1022D00029F072F902460B462046294614461D464F
:1022E00000F022FB16A3D3E9002329F065F922466A
:1022F0002B4628F0ABFF14A3D3E9002304460D4678
:102300004046494629F058F902460B4620462946E0
:1023100028F09CFFBDE8F883002200230E4900202E
:1023200029F074FABDE8F883024628F08DFF0022F8
:10233000002329F06BFAAFE7362BF111F3FE593D7C
:102340000EE526157BCBDB3F00609F501344D33F47
:1023500000005043FFFFEF7F000050C3000000006B
:10236000C1F30A5C2DE9F041ACF2FF35132D0246B2
:102370000B460C46064622DC002D42DBDFF8E480EB
:1023800048FA05F801EA080C5CEA000C0F461BD07D
:1023900032A3D3E9002328F059FF0022002329F0BB
:1023A0009BFB40B1002C03DA4FF480132B411F44F8
:1023B00027EA0804002621463046BDE8F081332D87
:1023C00006DDB5F5806F2CD010461946BDE8F081CA
:1023D000ACF2134C4FF0FF3727FA0CF73842F3D02A
:1023E0001EA3D3E9002328F031FF0022002329F0A7
:1023F00073FB0028DFD0002C33461CDB23EA0706E2
:10240000D9E716A3D3E9002328F020FF00220023F8
:1024100029F062FB0028CED0002C05DB00263446D4
:10242000C9E728F013FFD1E724F0004426430DD17B
:102430004FF00044BFE7142D06D0C5F1340501224A
:10244000AA4013449E42D9D90134D7E7024C002652
:10245000B1E700BFAFF300800000F0BF9C750088BB
:102460003CE4377EFFFF0F002DE9F84F99465342B9
:102470005F4F134329F0004E4EEAD373BB429046A0
:1024800004460D463DD84642064321F0004A4AEA3A
:10249000D676BE4203468B4633D809F1404606F550
:1024A000801616433DD04FEAA97606F0020653EA9D
:1024B0000A0346EAD1762CD052EA0E0235D0BE4548
:1024C00046D0BA4531D0AAEB0E0ABAF1747F4FEA72
:1024D0002A5339DAB9F1000F46DA3C3344DA0020E6
:1024E0000021012E58D0022E49D086B134A3D3E961
:1024F000002328F0A9FE34A3D3E9002328F0A4FE8A
:1025000005E022462B464046494628F09FFEBDE89E
:10251000F88F022E10D0032EF9D12DA1D1E90001A0
:10252000F5E7BDE8F84F00F067B8BBF1000F07DB37
:1025300029A1D1E90001EAE723A1D1E90001E6E7F9
:1025400027A1D1E90001E2E723A1D1E90001C8E711
:10255000F24506F1FF3623D0022E29D8254B03EB96
:10256000C603D3E90601D2E742464B462046294638
:1025700029F04CF922F0F8FD00F03EF8B1E710A385
:10258000D3E9002328F060FE02460B460EA1D1E9F4
:10259000000128F059FEBAE701F100431946B6E7F9
:1025A000022E08D8134B03EBC603D3E90001AEE7B4
:1025B00000200021ABE70CA1D1E90001A7E700BF93
:1025C000075C143326A6A13C182D4454FB21094076
:1025D000182D4454FB2109C0182D4454FB21F93F08
:1025E000182D4454FB21F9BF182D4454FB21E93F19
:1025F0000000F07F981003002DE9F84FC04B21F048
:1026000000469E4204460D468A460ED9BD4B9E4268
:1026100000F2AE8000F0A980BAF1000F40F3E8802C
:102620009BA1D1E90001BDE8F88FB74B9E4200F2B3
:10263000B680A3F1DE739E4240F2A2804FF0FF3BD2
:1026400022462B462046294628F0B6FF02460B4676
:102650008046894628F0B0FF8FA3D3E900230646C1
:102660000F4628F0A9FF8EA3D3E9002328F0EEFD42
:1026700032463B4628F0A0FF8BA3D3E9002328F085
:10268000E5FD32463B4628F097FF89A3D3E90023B6
:1026900028F0DCFD32463B4628F08EFF86A3D3E9C6
:1026A000002328F0D3FD32463B4628F085FF84A363
:1026B000D3E9002328F0CAFD42464B4628F07CFFB0
:1026C00081A3D3E90023804689463046394628F065
:1026D00073FF7FA3D3E9002328F0B6FD32463B46C3
:1026E00028F06AFF7CA3D3E9002328F0ADFD324631
:1026F0003B4628F061FF7AA3D3E9002328F0A4FD2C
:1027000032463B4628F058FF77A3D3E9002328F050
:102710009BFD32463B4628F04FFF02460B464046A3
:10272000494628F093FD22462B4628F045FFBBF191
:10273000FF3F02460B4660D0744E06EBCB06D6E94F
:10274000082328F081FD22462B4628F07DFD024615
:102750000B46D6E9000128F077FDBAF1000F0DDA3B
:1027600001F100431946BDE8F88F00283FF454AF4B
:1027700022462B462046294628F068FDBDE8F88F02
:102780005BA3D3E9002328F061FD614B002229F00F
:10279000A3F900283FF452AF20462946EEE722F085
:1027A000E3FC5C4B9E4204460D462CD8A3F5502317
:1027B0009E4253D802460B4628F048FD544B002257
:1027C00028F042FD02460B462046294614461D4687
:1027D00000224FF0804328F039FD02460B46204688
:1027E000294629F013F84FF0000B04460D4627E761
:1027F00041A1D1E90001BDE8F88F2046294628F023
:1028000023FDBDE8F88F444B9E421CD2434B00226F
:1028100028F01AFD02460B462046294614461D465E
:1028200000223E4B28F0C8FE394B002228F00EFD56
:1028300002460B462046294628F0E8FF4FF0020BDF
:1028400004460D46FCE622462B463549002028F07A
:10285000DDFF4FF0030B04460D46F1E62C4B002242
:1028600028F0F2FC02460B462046294614461D4637
:102870000022274B28F0EAFC02460B462046294658
:1028800028F0C4FF4FF0010B04460D46D8E600BF08
:10289000182D4454FB21F93F11DA22E33AAD903F61
:1028A000EB0D76244B7BA93F513DD0A0660DB13F87
:1028B0006E204CC5CD45B73FFF8300922449C23FEF
:1028C0000D5555555555D53F2F6C6A2C44B4A2BFB4
:1028D0009AFDDE522DDEAD3F6D9A74AFF2B0B33F7C
:1028E000711623FEC671BC3FC4EB98999999C93FF4
:1028F0009C7500883CE4377E182D4454FB21F9BFB9
:10290000FFFF0F440000F07FFFFFDB3FD810030004
:102910000000F03FFFFFF23F008003400000F83F5F
:102920000000F0BF000000002DE9F04FB1F5801F5E
:1029300087B002460B460D4680F2838021F00044AA
:10294000044300F020810029C0F26081D64B0022B0
:1029500028F032FE0D460B46D4498D426FF0350605
:10296000024673DC2C15C5F3130505F51521A4F2F9
:10297000FF3401F6647101F48011344404EB115406
:1029800081F07F5181F4401141EA05031046194658
:102990000022C74B28F058FCAB1CC3F31303022BD7
:1029A00082468B464FF0000257DC002329F06CF87A
:1029B000002840F0F180A8A3D3E9002350465946EF
:1029C00028F0FAFD02460B460020BA4928F03CFCEC
:1029D000524606460F465B465046594628F0ECFDE7
:1029E00002460B463046394628F0E6FD06460F46BD
:1029F000002C00F00281204628F074FD98A3D3E952
:102A000000238046894628F0D7FD97A3D3E9002309
:102A100004460D464046494628F0CEFD02460B4688
:102A20003046394628F010FC52465B4628F00CFC34
:102A300002460B462046294628F006FC07B0BDE8B2
:102A4000F08F9A498D424FF000068BDD10461946F3
:102A500028F0FCFB07B0BDE8F08F4FF0804328F072
:102A6000F5FB02460B465046594628F0CFFE064677
:102A700020460F4628F036FD3246CDE904013B469C
:102A800030463946CDE9026728F096FD02460B46EE
:102A9000CDE9002328F090FD75A3D3E90023064675
:102AA0000F4628F089FD74A3D3E9002328F0CEFB5C
:102AB00032463B4628F080FD71A3D3E9002328F07D
:102AC000C5FB32463B4628F077FD6FA3D3E90023D0
:102AD00028F0BCFBDDE9002328F06EFD6CA3D3E9F0
:102AE0000023CDE900013046394628F065FD6AA390
:102AF000D3E9002328F0AAFB32463B4628F05CFDD0
:102B000067A3D3E9002328F0A1FB32463B4628F017
:102B100053FDA5F5C22802460B46C5F5D725DDE9CC
:102B2000000128F093FBA8F27A48513545EA0805E0
:102B3000002D06460F464BDD5E4B0022504659469F
:102B400028F03AFD52465B4628F036FD804689461D
:102B50003046394642464B4628F078FBDDE90223F1
:102B600028F02AFD06460F46002C56D102460B4699
:102B70004046494628F068FB02460B4650465946F7
:102B800028F062FB66E7002200234B49002028F072
:102B90003DFE07B0BDE8F08F002C57D0204628F04E
:102BA000A1FC2FA3D3E9002306460F4628F004FD1D
:102BB0002DA3D3E9002304460D463046394628F0BC
:102BC000FBFC02460B462046294628F03FFB41E726
:102BD00002460B465046594628F036FBDDE90223F3
:102BE00028F0EAFC06460F463CB1DDE904891CA347
:102BF000D3E900234046494605E732463B46504666
:102C0000594628F021FB07B0BDE8F08F28F01CFBE7
:102C10000022002328F0FAFD1CE711A3D3E90023CA
:102C2000DDE9040128F0C8FC0FA3D3E90023044622
:102C30000D46DDE9040128F0BFFC32463B4628F092
:102C400005FB02460B4640464946EBE600200021C4
:102C500000E700BFAFF30080555555555555D53F9A
:102C60000000E0FE422EE63F763C7935EF39EA3D42
:102C700044523EDF12F1C23FDE03CB966446C73FAB
:102C8000599322942449D23F935555555555E53FC4
:102C90009FC678D0099AC33FAF788E1DC571CC3FCF
:102CA00004FA97999999D93F00005043FFFFEF7FAD
:102CB0000000F03F0000E03F000050C300000000B3
:102CC0002DE9F04F21F00048B8F1795F85B09246C8
:102CD0009B4606460F466DD228F01EFF002800F0E6
:102CE000EE8032463B463046394628F065FC76A3F6
:102CF000D3E9002304460D4628F05EFC74A3D3E913
:102D0000002328F0A3FA22462B4628F055FC72A394
:102D1000D3E9002328F098FA22462B4628F04CFCF1
:102D20006FA3D3E9002328F091FA22462B4628F01E
:102D300043FC6DA3D3E9002328F086FA22462B46F4
:102D400028F03AFC6AA3D3E9002328F07FFA224650
:102D50002B4628F031FCCDE90001694B00222046CA
:102D6000294628F029FCDDE90023804689462046D3
:102D7000294628F021FC44464D4680468946524665
:102D80005B463046394628F017FC02460B46404663
:102D9000494628F059FA02460B462046294628F0B3
:102DA00053FA02460B460020564928F04DFA05B06A
:102DB000BDE8F08F02460B4628F0FEFB42A3D3E9A4
:102DC000002304460D4628F0F7FB41A3D3E9002376
:102DD00028F03CFA22462B4628F0EEFB3EA3D3E92E
:102DE000002328F031FA22462B4628F0E5FB3CA3CD
:102DF000D3E9002328F02AFA22462B4628F0DCFBF0
:102E000039A3D3E9002328F01FFA22462B4628F0E5
:102E1000D3FB37A3D3E9002328F018FA2B46224628
:102E200028F0CAFB384B9845CDE9000195D9374BBE
:102E300098453BD8A8F5001300223249002090465F
:102E4000994628F001FACDE902012D4B00222046D7
:102E5000294628F0B1FB42464B4628F0F5F9DDE95A
:102E60000023804689462046294628F0A5FB444693
:102E70004D468046894652465B463046394628F0E4
:102E80009BFB02460B464046494628F0DDF90246C8
:102E90000B462046294628F0D7F902460B46DDE9C5
:102EA000020128F0D1F905B0BDE8F08F9FED127B4B
:102EB000DFF85C908DED027B4FF00008C5E711490B
:102EC000002005B0BDE8F08FD43888BEE9FAA8BD6F
:102ED000C4B1B4BD9EEE213EAD529C804F7E923E69
:102EE0009015CB19A001FA3E7751C1166CC1563F1F
:102EF0004C5555555555A53F000000000000E73FD3
:102F00000000E03F0000F03F3233D33F0000E93FD4
:102F10000000D23F000000002DE9F04FBE4B21F031
:102F2000004A9A4583B004460D4612D90AF1404A38
:102F30000AF5801A5AEA000A00F0FD8002460B46A4
:102F400028F082F902460B4628F060FC03B0BDE889
:102F5000F08FB24B9A458B460FD8BAF1795F80F06B
:102F6000658191A3D3E9002328F070F9AC4B0022CE
:102F700028F0B2FD002840F012812046294622F0B8
:102F8000F3F802460B460020A54928F05DF9A54B51
:102F9000002228F011FB86A3D3E9002304460D4646
:102FA00028F00AFB84A3D3E9002328F04FF9224636
:102FB0002B4628F001FB82A3D3E9002328F044F933
:102FC00022462B4628F0F8FA7FA3D3E9002328F005
:102FD0003DF922462B4628F0EFFA7DA3D3E90023E2
:102FE00028F032F922462B4628F0E6FA7AA3D3E9F4
:102FF000002328F02BF922462B4628F0DDFA78A38F
:10300000D3E90023CDE900012046294628F0D4FA6F
:1030100075A3D3E9002328F017F922462B4628F0A0
:10302000CBFA73A3D3E9002328F010F922462B46EC
:1030300028F0C2FA70A3D3E9002328F005F922464C
:103040002B4628F0B9FA764B002228F0FFF8064606
:103050000F462046294621F015F93B468046894611
:103060003246DDE9000128F0D1FB6F4B9A45CDE9EE
:10307000000146464F4677D832464B4630464946D1
:1030800028F0E4F8DDE9002328F096FA4FF0000874
:10309000CDE9000142464B464046494628F08CFAAD
:1030A00002460B462046294628F0CEF84246044602
:1030B0000D464B463046494628F0C8F802460B46B6
:1030C0002046294628F0A2FB02460B4628F0BEF80F
:1030D00002460B464AA1D1E9000128F0B5F80246A4
:1030E0000B46DDE9000128F0AFF8424604460D46E4
:1030F0004B464046394628F0A9F802460B4642A105
:10310000D1E9000128F0A0F802460B4620462946E6
:1031100028F09AF802460B463BA1D1E9000128F0BD
:1031200093F8BBF1000F3FF711AF01F100431946CF
:1031300003B0BDE8F08F36A3D3E9002328F03CFAB2
:1031400002460B462046294614461D462CA3D3E9C9
:10315000002328F031FA02460B462046294628F083
:1031600075F803B0BDE8F08F02460B46404649466D
:1031700028F022FA42464B4628F068F802460B46F1
:1031800028F064F81EA3D3E9002328F05DF8024676
:103190000B461FA1D1E9000128F056F8C1E72046EF
:1031A0002946D3E6AFF300809C7500883CE4377E67
:1031B00009F7FD0DE13D023F88B20175E0EF493F9F
:1031C0003B8F68B52882A43F5544880E55C1C93F3E
:1031D0007D6FEB0312D6D43F555555555555C53F18
:1031E00082922EB1C5B8B33F59018D1B6C06E63FE4
:1031F000C88A599CE52A00404B2D8A1C273A034077
:10320000075C143326A6913C182D4454FB21E93F5A
:10321000182D4454FB21F93FFFFFEF3FFFFFDF3F35
:103220000000F03F0000E03F3233EF3F02460B4624
:1032300028F0C2F937A3D3E9002306460F4628F049
:10324000BBF936A3D3E9002328F000F832463B4609
:1032500028F0B2F933A3D3E9002327F0F5FF324673
:103260003B4628F0A9F931A3D3E9002327F0EEFF6C
:1032700032463B4628F0A0F92EA3D3E9002327F0DD
:10328000E3FF32463B4628F097F92CA3D3E900230D
:1032900027F0DCFF32463B4628F08EF929A3D3E91C
:1032A0000023804689463046394628F085F927A311
:1032B000D3E9002327F0C8FF32463B4628F07CF9CB
:1032C00024A3D3E9002327F0C1FF32463B4628F070
:1032D00073F922A3D3E9002327F0B6FF32463B4619
:1032E00028F06AF90A4B002227F0B0FF02460B468D
:1032F0004046494628F08AFA22462B4628F05CF9D7
:1033000022462B4627F0A2FF03B0BDE8F08F00BF96
:103310000000F03F09F7FD0DE13D023F88B2017565
:10332000E0EF493F3B8F68B52882A43F5544880EA3
:1033300055C1C93F7D6FEB0312D6D43F5555555546
:103340005555C53F82922EB1C5B8B33F59018D1B6B
:103350006C06E63FC88A599CE52A00404B2D8A1C22
:10336000273A0340000000002DE9F84FC44E21F039
:103370000043B34204460D460DD903F1404303F523
:103380008013034340F0B980002940F3C08000203F
:103390000021BDE8F88FBB4EB34208D8BA4A934229
:1033A00000F2BA809CA1D1E90001BDE8F88F0029A4
:1033B000C0F2708122462B46B449002027F044FF1A
:1033C000B34B002228F0F8F804460D4620F05AFFCF
:1033D00093A3D3E90023894680462946204628F056
:1033E000EBF891A3D3E9002327F030FF22462B46C8
:1033F00028F0E2F88EA3D3E9002327F025FF224628
:103400002B4628F0D9F88CA3D3E9002327F01EFF20
:1034100022462B4628F0D0F889A3D3E9002327F0D1
:1034200013FF22462B4628F0C7F887A3D3E90023D1
:1034300027F00CFF22462B4628F0BEF884A3D3E9E0
:10344000002382468B462046294628F0B5F882A301
:10345000D3E9002327F0F8FE22462B4628F0ACF8EB
:103460007FA3D3E9002327F0F1FE22462B4628F064
:10347000A3F87DA3D3E9002327F0E6FE22462B46DE
:1034800028F09AF8814B002227F0E0FE02460B4616
:103490005046594628F0BAF942464B4628F08CF877
:1034A000002682468B4632464B463046494628F037
:1034B00083F802460B462046294627F0C5FE3246D1
:1034C00004460D464B464046494627F0BFFE02469D
:1034D0000B462046294628F099F902460B465046ED
:1034E000594627F0B3FE32464B4627F0AFFE024660
:1034F0000B4627F0ABFEBDE8F88F02460B4627F0DF
:10350000A3FE02460B4628F081F9BDE8F88F58A1CA
:10351000D1E90001BDE8F88F02460B4628F04CF8CF
:103520003FA3D3E9002306460F4628F045F83EA303
:10353000D3E9002327F08AFE32463B4628F03CF8C8
:103540003BA3D3E9002327F07FFE32463B4628F019
:1035500033F839A3D3E9002327F078FE32463B46FF
:1035600028F02AF836A3D3E9002327F06DFE32466F
:103570003B4628F021F834A3D3E9002327F066FE68
:1035800032463B4628F018F831A3D3E900238046A1
:1035900089463046394628F00FF82FA3D3E9002397
:1035A00027F052FE32463B4628F006F82CA3D3E91A
:1035B000002327F04BFE32463B4627F0FDFF2AA3AF
:1035C000D3E9002327F040FE32463B4627F0F4FFC4
:1035D0002E4B002227F03AFE02460B464046494653
:1035E00028F014F922462B4627F0E6FF02460B4648
:1035F00021A1D1E9000127F027FE02460B46204613
:10360000294627F021FE02460B4603A1D1E900011D
:1036100027F01AFEBDE8F88F182D4454FB21F93F1E
:1036200009F7FD0DE13D023F88B20175E0EF493F2A
:103630003B8F68B52882A43F5544880E55C1C93FC9
:103640007D6FEB0312D6D43F555555555555C53FA3
:1036500082922EB1C5B8B33F59018D1B6C06E63F6F
:10366000C88A599CE52A00404B2D8A1C273A034002
:10367000182D4454FB210940075C143326A6913CC5
:10368000FFFFEF3FFFFFDF3F0000603C0000F03F27
:103690000000E03F5E4B002227F0D8FD5D4B00228A
:1036A00027F08AFF42A3D3E9002304460D4627F002
:1036B00083FF41A3D3E9002327F0C8FD22462B4610
:1036C00027F07AFF3EA3D3E9002327F0BDFD224671
:1036D0002B4627F071FF3CA3D3E9002327F0B6FD6A
:1036E00022462B4627F068FF39A3D3E9002327F0B1
:1036F000ABFD22462B4627F05FFF37A3D3E900231B
:1037000027F0A4FD22462B4627F056FF34A3D3E929
:10371000002306460F462046294627F04DFF32A3D8
:10372000D3E9002327F090FD22462B4627F044FFE3
:103730002FA3D3E9002327F089FD22462B4627F04B
:103740003BFF2DA3D3E9002327F07EFD22462B4625
:1037500027F032FF2E4B002227F078FD8046894665
:103760002046294620F08EFD424604460D464B4633
:103770003046394628F04AF822462B4627F01CFFEF
:103780001FA3D3E9002327F05FFD22462B4627F035
:103790005DFD02460B4627F059FD02460B461AA175
:1037A000D1E9000127F050FDBDE8F88FAFF30080AC
:1037B00009F7FD0DE13D023F88B20175E0EF493F99
:1037C0003B8F68B52882A43F5544880E55C1C93F38
:1037D0007D6FEB0312D6D43F555555555555C53F12
:1037E00082922EB1C5B8B33F59018D1B6C06E63FDE
:1037F000C88A599CE52A00404B2D8A1C273A034071
:10380000075C143326A6913C182D4454FB21094033
:103810000000F03F0000E03F2DE9F04F9B46D64B03
:1038200021F000479F4287B09246804689460E4667
:1038300051D828F071F90446002871D1109B4246F6
:10384000013313433B4300F0E581109B012B00F053
:10385000EE8152465B464046494627F0F7FC0B4650
:103860000246C64900201F4627F0D0FF42464B467D
:10387000804689462046394627F0E6FC02460B463C
:103880005046594627F0E0FC22464B4627F094FE6E
:1038900002460B4616462046224639461F464B46F0
:1038A00027F08AFEB64B002227F0D0FC02460B46DA
:1038B0003046394627F0CAFC42464B4627F07CFE8C
:1038C00022464B4627F0C2FC04460D4620462946B8
:1038D00007B0BDE8F08FAB4B9F4221D9002905DA34
:1038E00001F1004399460BF100439B4642464B468B
:1038F00083A1D1E9000127F0A7FC52465B460446AC
:103900000D4681A1D1E9000127F09EFC22462B46FD
:1039100027F09CFC4FF0000A804689464FF0000BD0
:1039200042464B464046494627F046FE02460B4675
:10393000CDE9002327F040FEDDE9002304460D46D3
:103940004046494627F038FE71A3D3E90023CDE96C
:1039500002012046294627F02FFE6FA3D3E900235A
:1039600027F074FC22462B4627F026FE6CA3D3E9F1
:10397000002327F06BFC22462B4627F01DFE6AA38E
:10398000D3E9002327F062FC22462B4627F014FEE1
:1039900067A3D3E9002327F059FC22462B4627F0E2
:1039A0000BFE65A3D3E9002327F050FCDDE90023DB
:1039B00027F002FE62A3D3E90023CDE904012046EB
:1039C000294627F0F9FD60A3D3E9002327F03EFC48
:1039D00022462B4627F0F0FD5DA3D3E9002327F014
:1039E00035FC22462B4627F0E7FD5BA3D3E90023F5
:1039F00027F02CFC22462B4627F0DEFD58A3D3E906
:103A0000002327F023FC22462B4627F0D5FD56A3A2
:103A1000D3E9002327F01AFC02460B46DDE9040136
:103A200027F014FCDDE9022327F0C6FD52465B4671
:103A300027F00CFCDDE9002327F0BEFD52465B4673
:103A400027F004FC4AA3D3E9002304460D46DDE930
:103A5000020127F0B1FD22462B4627F0F7FB8246F4
:103A60008B465B4640464946524627F0EFFB454BA6
:103A70009F4204460D4600F28780109B012B37D0F1
:103A8000002602460B460F4600203C49CDE9006760
:103A900027F0BCFE42460D4604464B46DDE90001D8
:103AA00027F0D2FB02460B465046594627F0CCFB86
:103AB0002B46324627F080FD2B468046894632460B
:103AC000DDE9000127F078FD2D4B002227F0BEFB39
:103AD00002460B464046494627F0B8FB22462B4695
:103AE00027F06AFD2B46324627F0B0FB04460D4610
:103AF0002046294607B0BDE8F08F00BFAFF3008035
:103B0000182D4454FB21E93F075C143326A6813C61
:103B1000D47ABF74702AFB3EE9A7F0320FB8123F87
:103B200068108D1AF726303F1583E0FEC8DB573F3B
:103B300093846EE9E326823FFE41B31BBAA1AB3FFB
:103B4000735360DBCB75F3BEA69237A0887E143F1B
:103B50000165F2F2D844433F280356C9226D6D3FF8
:103B600037D60684F464963F7AFE10111111C13FD6
:103B7000635555555555D53FFFFF2F3E0000F0BF0B
:103B80000000F03F2794E53F109827F0ABFC224659
:103B9000CDE900012B462046294627F00DFD0246BF
:103BA0000B462046294614461D46DDE9002327F032
:103BB0004DFB02460B462046294627F027FE52467B
:103BC0005B4627F041FB02460B464046494627F03C
:103BD0003BFB02460B4627F039FB02460B46DDE96C
:103BE000000127F031FB4FEAA67808F002080446EE
:103BF000C8F101000D4627F075FC02460B46204631
:103C0000294627F0D9FC04460D462046294607B030
:103C1000BDE8F08F4046494621F0A6FA02460B4621
:103C20000020044927F0F2FD04460D4660E74446B3
:103C30004D465DE70000F03F2DE9D04FD04E21F01A
:103C40000043B34284B082468B4601F0004411D950
:103C5000CC4EB34240F2C980CB4EB34240F2BD805D
:103C6000C1F31302024300F0D48102460B4627F051
:103C7000EDFAE4E0C54A934200F2E480C44A93427C
:103C800040F245810024C34B00225046594627F09C
:103C900093FC06460F4632463B465046594627F0AF
:103CA0008BFC9FA3D3E900238046894627F084FC40
:103CB0009DA3D3E9002327F0C9FA42464B4627F0DB
:103CC0007BFC9BA3D3E9002327F0BEFA42464B4678
:103CD00027F072FC98A3D3E9002327F0B7FA4246F5
:103CE0004B4627F069FC96A3D3E9002327F0ACFAF2
:103CF00042464B4627F060FCA74B002227F0A6FA6D
:103D000002460B4630463946CDE9002327F054FCE5
:103D100002460B460020A14927F096FA06460F46B8
:103D200032463B46DDE9000127F08EFA32463B463B
:103D300006460F465046594627F03EFC02460B46C3
:103D40000020974927F080FA02460B463046394654
:103D500027F05CFD42464B4627F02EFC02460B4600
:103D6000002C5ED0DDE9026732463B4627F06CFA54
:103D700052465B4627F020FC32463B4627F064FA69
:103D80004B46424627F060FA631C06460F4600F099
:103D90003181012C00F00A81631C392B4FEA045653
:103DA00000F2A480132C00F3458152465B464FF489
:103DB000001727F049FA47FA04F4C4F17F594FF08D
:103DC000000809F5401902460B464046494627F0CF
:103DD0003BFA711804B0BDE8D08F5BA3D3E9002390
:103DE00027F07AFE002840F04681002C53D058A3DB
:103DF000D3E900235046594627F028FA0022002331
:103E000027F04CFE002840F0078153A3D3E900239C
:103E10005046594627F0D0FB02460B460020614928
:103E200044E05046594627F0C7FB42464B4627F030
:103E30000BFA02460B465046594627F005FA04B0E5
:103E4000BDE8D08F584A934200F2E98044A3D3E9F9
:103E50000023002C00F0C48027F0F8F90FF20819B5
:103E6000D9E9008906460F464FF0FF3442464B46DB
:103E70003046394627F0E8F982468B4652465B4683
:103E80003046394627F0E0F942464B4627F0DCF948
:103E9000CDE90201F7E630A3D3E9002350465946A5
:103EA00027F08AFB0B463B490246002027F0CEF95B
:103EB00027F032FE044627F015FB29A3D3E900239F
:103EC0008046894627F078FB02460B465046594605
:103ED00027F0BAF926A3D3E9002306460F46404649
:103EE000494627F069FB80468946BFE752465B4654
:103EF00027F0AAF902460B460020274927F0A4F92B
:103F0000731819460022244B27F09EF997E71AA34D
:103F1000D3E9002327F09AF902460B4687E700BF52
:103F20002DC3096EB7FD8ABE3952E686CACFD03E90
:103F3000B7DBAA9E19CE143F8555FE19A0015A3F42
:103F4000F41011111111A13FEF39FAFE422E8640F3
:103F500059F3F8C21F6EA501FE822B654715F73F86
:103F60000000E0FE422EE63F763C7935EF39EABDAF
:103F7000763C7935EF39EA3D9C7500883CE4377E24
:103F800079684340412E8640FFFFEF7F422ED63FA7
:103F9000FFFF8F3C0000E03F0000F03F00000840C2
:103FA000000018400000E0BFB1A2F03F3A4B0022F1
:103FB0005046594627F072FD00284DD0374B5046E9
:103FC0005946002227F042F902460B463046394650
:103FD00027F03AF900224FF0404327F0EDFA2EE7A0
:103FE00027F032F90FF2A009D9E9008906460F46F9
:103FF00001243BE702460B465046594627F024F978
:10400000264B002227F0D8FA244B002227F01CF977
:1040100015E7002C3FF413AF214900200FE71CA344
:10402000D3E9002327F0C8FA02460B46002044B328
:104030001C493BE7C4F57F7403342305002227F0B5
:1040400005F902460B465046594627F0FDF8164B37
:10405000002227F0FBF8BCE632463B465046594664
:1040600027F0F2F802460B4627F0F0F80E4B00223C
:1040700027F0ECF8E3E6002004B0BDE8D04F21F0D3
:10408000A1B8064912E700BF763C7935EF39EA3D21
:10409000FE822B654715F73F0000D0BF0000E03FD0
:1040A0000000F0BF0000E0BF0000F03F0000000093
:1040B000594A2DE9F84321F00046964204460D4640
:1040C0005CD8564B0029ACBFDFF86891DFF86C91E3
:1040D0009E424FF0000812D9514B9E4240F28E8012
:1040E000504B9E4256D901339E4250D048A3D3E94B
:1040F00000232046294627F05FFABDE8F8834A4BA3
:104100009E425ED842A3D3E9002327F09FF8474B95
:10411000002227F0E1FCB8BB2046294621F024F814
:10412000FFF78AFD04460D4622462B4620462946C7
:1041300027F08CF8224606460F462B462046294695
:1041400027F03AFA02460B462046294614461D46F9
:104150000022364B27F07AF802460B4620462946C5
:1041600027F054FB02460B463046394627F06CF8E0
:1041700042464B4627F020FABDE8F88302460B463C
:1041800027F064F8BDE8F88320462946FAE7284B73
:104190009842ABD82046294620F0E6FF254B002266
:1041A00027F00AFAFDF7A4FE04460D4622462B46E8
:1041B0004046494627F000FA22462B4627F0FCF9F4
:1041C000E0E720F0D1FFFFF737FD184B002204464F
:1041D0000D4627F03BF80B4617498E420246A3D9FD
:1041E0002046294627F012FB22462B4627F02EF8C0
:1041F00042464B4627F0E0F9BDE8F88320F0B4FFD3
:10420000FDF776FE42464B4627F0D6F9BAE700BFE7
:104210003374AC3C1F7BAC7FFFFFEF7FFFFF35406B
:10422000412E8640CD338640FFFF2F3E0000F03FF9
:104230007DF8B98F0000E03FFFFFEF3F0000E0BFD7
:1042400038B5124B1D682A6B04461AB10023C2E927
:10425000044338BD18200DF0BFFD0246286378B135
:1042600001200021C2E90401094B0A480A49916072
:10427000C2E900030B2393810023C2E9044338BD44
:10428000064B0748462122F0D3FC00BF90000020D7
:1042900034126DE60E33CDABECDE0500882A030048
:1042A000A02A03001C4B10B51C68226B8AB113694D
:1042B0001A4954691A4803FB01F100FB0411A3FBDE
:1042C0000030013341EB0001C2E9043121F000402C
:1042D00010BD18200DF080FD0246206388B1114CFE
:1042E000114B0E48114991609FED097BC2E90043D3
:1042F0000B2393810E4B014682ED047BC2E904310E
:1043000010BD0C4B0C48522122F092FCAFF3008000
:104310000100000000000000900000202DF4515822
:104320002D7F954C0E33CDAB34126DE6ECDE0500DF
:104330002E7F954C882A0300A02A0300000000006D
:104340002DE9F04F9FB00F46002107921A910022ED
:104350000021CDE9041283463A461992904612F89C
:1043600001ABBAF12D0F5FD801A151F82AF000BFBF
:10437000B9450000294400002944000029440000F8
:104380002944000029440000294400002944000079
:10439000294400005B4300005B4300005B430000D6
:1043A0005B4300005B4300002944000029440000F7
:1043B0002944000029440000294400002944000049
:1043C0002944000029440000294400002944000039
:1043D0002944000029440000294400002944000029
:1043E0002944000029440000294400002944000019
:1043F0005B430000294400002944000029440000D8
:1044000029440000294400002944000029440000F8
:104410002944000029440000294400007548000098
:10442000294400008F48000000220892BAF1300FA2
:1044300000F0858000230993BAF12F0F564640F211
:1044400012854FF0000940464D464C4618E0082CB6
:10445000C8BF09EB890900F10100C8BF0AEB490A8E
:104460001990C8BFAAF1300990F800A0D8BFA3F1F5
:104470003005BAF12F0F04F10104564640F3A8802D
:1044800005EB8503BAF1390F0AEB4303DFDDAC49D5
:10449000012224F0C7FD002868D11998431C199304
:1044A000417818460A46002C40F0EB80302A08BFBD
:1044B000034640F0D7851946013319931A78302AFC
:1044C000F9D0C0F101000144A2F13100082800F246
:1044D000C68101310F910021303A98460A9101249A
:1044E00005EB850502EB450500210133199318788A
:1044F000A0F13002092A01F1010600F27E84002AAF
:1045000000F08C870F98012E30440F9000F08487C4
:1045100004F1010C604606E075000130061B013E07
:10452000B14240F38F84461E082E05EB8506F3DD6D
:104530001028DCBF09EB89094FEA4909EDE798F833
:10454000012002F0DF02582A18BF434600F012840F
:104550000133199393F800A0BAF1300FF8D09846C0
:10456000BAF1000F0ED00123099365E7BAF1650F88
:104570001AD0BAF1450F17D0002C2FD1099B002B70
:1045800000F0BC804FF000084FF00009079A0AB114
:10459000199B1360089BB3B109F10043994640464B
:1045A00049461FB0BDE8F08F002C78D10A940F94D3
:1045B000099B002B40F0E2824FF000084FF0000909
:1045C000079B03B11F60404649461FB0BDE8F08F0E
:1045D0005B49012224F026FD00284ED0284626F013
:1045E00071FF092CCDE9040140F3CD820023102C8A
:1045F000A2460E93A8BF4FF0100A0A9412930F938D
:10460000504B03EBCA0353E9122326F0D5FF0646AD
:1046100048460F4626F056FF02460B4630463946BE
:1046200026F014FE0F2CCDE9040100F3AC800E9BA4
:10463000002B00F0A8820E9B40F38E82162B40F3D5
:1046400065840E9AC4F125039342C0F29C803D4DCF
:10465000C4F10F0405EBC401DDE90423D1E9000135
:1046600026F0AAFF0E9B1C1B05EBC405D5E9002311
:1046700026F0A2FF8046894688E7199A531C1993B1
:104680005178A1F13000092800F2DE8002460028AE
:1046900000F0BD8601210A94A4460F91D4E30021C5
:1046A000199B0A940F918C465A1C19925E782B2EF6
:1046B00000F0C7802D2E00F0BE804FF0000AA6F15A
:1046C0003007092F37D8302E199A40F0E580013293
:1046D00019921678302EFAD0A6F13100082840F24F
:1046E000D98000221292002C34D1099A0A437FF417
:1046F00049AFBCF1000F40F03F841F46692E00F027
:10470000188400F31184492E00F013844E2E7FF498
:1047100053AF0D4919A824F05BFE00283FF44CAFBD
:10472000199B1B78282B00F06D85084820F0F2FEBD
:10473000804689462AE7002219931292D3E700BFE8
:104740000C2B0300781103001C2B03006C2A0300C0
:10475000002312930A9A1346002A08BF23460A939D
:104760000F9A129B102CA3EB020328460E93A2462D
:10477000A8BF4FF0100A26F0A5FE092CCDE90401D0
:104780003FF73EAF53E70E9BA4EB0A0A9A44BAF1F7
:10479000000F40F3A9802AF00F071AF00F0A40F02B
:1047A0004283B7F59A7F00F3DC83102FDFF880A1F6
:1047B0004FEA271600F04C85DDE904234FF0000C8A
:1047C0005746E14616F0010F1046194607D0D7E9C3
:1047D000002326F0F1FE4FF0010C02460B46761046
:1047E000012E09F1010907F10807EBD1BCF1000F17
:1047F00001D0CDE90423059BA3F1547305930AEB83
:10480000C90ADDE90423DAE9000126F0D5FE454BAB
:10481000CDE904010B400A4643498B4200F2A183D3
:10482000A1F580118B4240F2AF84404B4FF0FF3234
:10483000CDE904235AE04FF0010A9A1C19929E78A0
:104840003DE74FF0000AF8E701F0DF0145297FF46A
:10485000C5AE00210A940F914FF0010C24E702F03D
:10486000DF02452A7FF48EAE00240A940F944FF0A5
:10487000010C19E70022089208F10102199298F838
:1048800001A0BAF1000F3FF497AE9046CEE50122A9
:104890000892F1E7A6F13007501C199056782F2E98
:1048A00040F3F68286460E9208E0013019909EF899
:1048B00001602F2EA2F1300706DD864607EB870246
:1048C000392E06EB4202F0DD0E9A801A082840F3DA
:1048D000DF8244F61F621292BAF1000F3FF403AF79
:1048E000129A52421292FEE640F0D98200230993B6
:1048F0000A9A009523464146584625F09DFA1390A2
:10490000002800F02E830F9B129A9B1A0E9A002A01
:10491000A8BF00230F9322EAE272002314921E46DE
:104920009946DAE00000F07F0000A07CFFFFEF7FF7
:1049300068120300D21A1F2AA4EB020400F3968126
:1049400001239340109300231593099B25443C4475
:10495000A7421D443B46A8BF2346AB42A8BF2B46F7
:10496000002B02DDE41AED1AFF1A0F9B002B00F357
:104970001D81002C00F334810E9B002B00F36C8111
:10498000002D00F35A81002F08DD31463A46584683
:1049900025F05AFC0646002800F058811A99524624
:1049A000584625F0E5FC8146002800F04F810023A1
:1049B000C268C3603146129225F0B8FC0028C0F2EC
:1049C000E883059B984600F08C833146484625F0E5
:1049D0006BFE00224FF0804304460D4627F068F836
:1049E000002800F0D380129B002B40F04C81049BE8
:1049F000002B40F0EF81C8F31303002B40F08A81B5
:104A0000A94B00222046294627F048F8002840F00C
:104A10003883A64B00222046294626F0CDFD0A46C3
:104A20000146CDE9101202F100430C900D93A04F06
:104A3000A04B08EA07079F42DDE90C4500F04281E0
:104A4000099B13B3B7F1D46F1FD893A3D3E9002305
:104A5000DDE9100127F02CF8A0B1DDE9100127F005
:104A600083F8012838BF012026F02CFD129BCDE9E8
:104A70001001002B40F0878201F10043169017933C
:104A8000DDE9164505F1D663DD1BDDE90A0125F0F8
:104A900029FD02460B462046294626F08DFDDDE91C
:104AA0000A2326F0D3FBCDE904010C46099B23B968
:104AB0007F4B23409F4200F036811A99584625F0DB
:104AC00049F95146584625F045F93146584625F0F2
:104AD00041F94946584625F03DF9139C584661680E
:104AE00025F0F8F88246002800F0B08022690232F2
:104AF000920004F10C010C3021F0D2FF9DED047BFB
:104B00001CAB01931BAB0093584653EC172B8DED58
:104B10000A7B25F06DFD1A9000286AD001215846C5
:104B200025F04EFA0646002800F090801B9B002BD3
:104B30007FDB0F9A149D9F18099A1C9C9B1A234493
:104B40005D4A013B9342C4F13604FFF6F3AE002305
:104B5000159301231093F8E61633FFF614AE0F9B5E
:104B6000129A9A1A554B03EBC203DDE90401D3E90B
:104B7000002326F04BFE8046894607E5A446002424
:104B8000199B214690E5DDE90489FFE4474B204667
:104B90002946002226F010FD129BCDE91001002BC2
:104BA0006CD101F100430C900D9340E731461A4659
:104BB000584625F0D1FA06461A98D6B10246314633
:104BC000584625F013FA034612931A988BB1014602
:104BD000584625F0BFF8129B1A93002C7FF7CCAEF5
:104BE0001A992246584625F02FFB1A9000287FF488
:104BF000C3AE5746CDF83890B2462223DFF8B090C6
:104C0000CBF800304FF000080146584625F0A2F8D6
:104C10003946584625F09EF85146584625F09AF8F0
:104C20001399584625F096F80E99584625F092F8B3
:104C3000ACE4149A0F9FD51A7EE751462A4658468F
:104C400025F002FB824600287FF49DAE57461A9855
:104C5000CDF83890B246D0E75146149A584625F020
:104C60007BFA824600287FF48BAEEFE7144AD21A13
:104C7000012303FA02F21592109366E69DED107B74
:104C80008DED0C7BD3E69FED067B8DED0C7B8DEDE2
:104C9000107BCCE6AFF300800000C0FFFFFFDF41D8
:104CA000000000000000F03F0000F03F0000E03F87
:104CB0000000F07F0000E07F02FCFFFF781103009E
:104CC000E2FBFFFFA8F154730593DDE9044520469C
:104CD000294625F007FCDDE90C2326F06DFC224671
:104CE0002B4626F0B3FAB44AB44B0A409A42CDE9B7
:104CF000040140F29480DDE90A0103F15473994202
:104D000002D1B0F1FF3FA1D0AD4C4FF0FF33CDE960
:104D10000434D2E69FED9E7B8DED0C7B9FED9E7B58
:104D20008DED107B83E6DDE910783846414626F0AC
:104D3000A3FF26F013FC02460B463846414626F0F8
:104D400083FA049F129DC4F313043D432C4307468A
:104D500088462DD192A3D3E9002326F09FFE002898
:104D60003FF4ABAECDF83890DDE904895746B24642
:104D70001A9849E70293089B01931AAB0093914A52
:104D80001BAB19A9584622F007FA10F00F0504468C
:104D90003FF4F8AB062D40F0218108F1010319938F
:104DA00000234FF000084FF000090893FFF7EEBB17
:104DB0007DA3D3E9002326F071FE0028D2D17CA385
:104DC000D3E900233846414626F086FE00283FF40A
:104DD00074AEC7E7049B012B9CD14346002B99D1AD
:104DE0005746CDF83890B24622231A98CBF80030B7
:104DF0004FF000084FF0000906E700F0DF004528FB
:104E000000F0B380002C7FF4A3AC099B19434FF052
:104E100000084FF000093FF4D3ABFFF7B7BB01F137
:104E20005474059442E6684901EBCA01DDE90423A4
:104E3000D1E9000126F0C0FBCDE90401002F3FF4C9
:104E400055ADAEE401398C44BCF1080F0CF10104FE
:104E50007FF746AB102CDCBF09EB890902EB49094F
:104E60000021FFF742BB59490122404624F0DAF8FD
:104E700040B9814619980346013019905A784D4639
:104E8000FFF714BB099B002B3FF496ABFFF77ABBEF
:104E900044F61F629742A8BF174612971CE5CAF155
:104EA000000A4FEA2A171AF00F0A0DD0464B03EBFF
:104EB000CA03DDE90401D3E9002326F0A7FCCDE90C
:104EC0000401002F3FF412AD1F2F00F30581DDE92F
:104ED000042317F0100118BF6A2117F0010F099180
:104EE0003B4E104619460FD0D6E9002326F064FB4E
:104EF0007F1002460B4600F0D28017F0010F06F13A
:104F0000080610461946EFD17F10F6E70E982E4995
:104F100001EBC001DDE90423D1E9000126F04CFBDF
:104F200080468946FFF732BB6E2E3FF4F2ABFFF7A7
:104F300043BB284919A824F04BFA00283FF43CABA6
:104F4000199B2549013B19A8199324F041FA10B97E
:104F5000199B01331993DFF860904FF00008FFF7B9
:104F600015BB2223CBF80030F5E7002C00F03A8285
:104F70004FF0010CFFF798BB4FF000084FF000090D
:104F80001F46FFF71DBB9DED107B8DED167B77E572
:104F9000000000000000F0BF000000000000F03F33
:104FA0009535A094FFFFCF3F9535A094FFFFDF3FDD
:104FB00035E5AF350000E03F0000F07FFFFF9F7C4C
:104FC000FFFFEF7F18110300781103000C2B030083
:104FD00040110300102B0300142B03001A9A3AB15E
:104FE00035211CA825F0AAFB1A99584624F0B2FED8
:104FF000013D042D00F21582DFE805F0032E2B2081
:1050000003001C9B04931B9B03F233421D9B23F460
:10501000801343EA02530593E20502D543F00043AF
:105020000593B34A1A40DDE90489002A7FF4AEAA49
:1050300024F066F822230360FFF7A8BA4FF0FF328E
:105040006FF00043CDE90423E3057FF59CAD059B9C
:10505000E4E7A74B0593F7E7DDE91C121D9BCDE9BB
:105060000412D9E7A2F13103082B13D922F0200250
:10507000452A7FF407AF00230A930F930124FFF71B
:1050800097BA9FED977B8DED0C7B9FED977B8DED18
:10509000107BCCE4012103460F91FFF71CBA099B5A
:1050A000CDE904017BB1C1F30A52C2F16B03002BBD
:1050B00009DD1F2B40F3FD80342B049740F36481FE
:1050C0004FF05C730593DDE904010022002326F014
:1050D000DBFC00283FF40CAC2223CBF80030FFF7B8
:1050E00051BA5746C3F31302B2461E46129BCDF87F
:1050F0003890DDF840C0DDF854E07E49DDE90A89EA
:10510000002B00F093808A4200F0FA80BEF1000F7D
:1051100000F0E0801EEA060F32D04046494625F0F6
:10512000E1F9099B002B00F03781C6F30A53C3F164
:105130006B03002B40F353811C0504F17F530022C5
:1051400003F5401326F038FA02460B46404649461E
:1051500026F07CF880468946674B40464946002247
:1051600026F02AFA624B0B4080468946002B7FF4DA
:10517000FFAD2223CBF80030FAE51EEA060F72D10C
:10518000099B002BE8D1F3E502F154730593FFF777
:10519000ADBBDDE90445129ACDF83890224357465D
:1051A0004B46B246DDE90A89EAD1C5F313022E4621
:1051B000002AE5D125F00044240D2405B4F1D66F72
:1051C000DED95A6912B91A69012AD9DD0E9901226C
:1051D000584625F039F851460E9025F0A7F80028DA
:1051E000CEDD099B002B00F0AB80A4F580146FEAA4
:1051F00014536FEA035305934FF0FF330493DDE933
:105200000489A9E73D4919A81CAA24F0FDF805283E
:105210007FF48BAA1D9B43F0FF4343F4E003059307
:105220001C9B0493DDE90489FFF7B0B9A2B9DDE95D
:105230000434002B45D1099B002B00F081802C4CBD
:105240003440B4F1D66FD0D8B4F15C7F84D8CBE5CC
:105250004FF00009FFF7CFBABEF1000F8DD1049BCC
:105260001CEA030F8CD04046494625F03BF9099BC8
:10527000002B55D0C6F30A53C3F16B03002B40F348
:10528000AB801C0504F17F53002203F5401326F088
:1052900093F902460B464046494625F0D5FF0022C9
:1052A00000238046894626F0EFFB00283FF454AFE8
:1052B0009AE54FF0FF3202FA03F3049A1A4004927F
:1052C00001E7BEF1000F7FF458AF13EA0C0F3FF473
:1052D00057AFC8E7049B1CEA030F3FF451AF1CE72C
:1052E000000000000000E0BF000000000000E03F00
:1052F0000000F07FFFFF0F00000050392C11030069
:10530000DDE90445099B214653BB234601332ED0DA
:10531000BEF1000F6AD01EEA060F3FF429ADFCE68D
:1053200002460B464046494625F08EFF00220023E8
:105330008046894626F0A8FB00283FF419AD53E5C6
:105340003E4A1A983240A2F580126FEA12536FEA71
:10535000035305934FF0FF330493DDE9048953E4CD
:10536000364A3240B2F1D46F20D9621C27D1344A78
:10537000964240D0314A324002F580130593002313
:105380000493DDE90489FBE6C2F14B024FF0FF33E1
:1053900093400B40059396E602460B46404649462D
:1053A00025F054FF804689461A982DE4120DC2F16B
:1053B0006B024FF0FF3000FA02F29442D7D0BEF1F8
:1053C000000F04D01EEA060F3FF4C6AEA5E611EAB0
:1053D0000C0F3FF4C1AEA0E602460B465BE7024667
:1053E0000B46B3E600293FF449AEC1E514EA0C0FC1
:1053F0003FF4BEAC91E60131BCD122231A98DFF80C
:105400003C90CBF800304FF00008FFF7FDBB0F9049
:105410000A940121FFF769B8A44615E53146FFF764
:1054200064B8E10505D54FF000430593DDE9048933
:10543000FEE54FF000084FF00009F9E50000F07FAD
:10544000FFFFEF7F014BFEF77BBF00BFEC000020AA
:1054500010B4054C8446134620685DF8044B0A4698
:105460006146FEF76DBF00BF9000002010B4054CF0
:10547000054B84460A4620685DF8044B6146FEF7FA
:105480005FBF00BF90000020EC0000202DE9F0413C
:10549000DFF8A480044613462DED028B0A46D8F8A7
:1054A00000002146FEF74CFF02460B4604460D461F
:1054B00026F01CFB50BB2046294626F075FB08EE63
:1054C000100ADFED1A7AB0EEC87AB4EE677AF1EE20
:1054D00010FA15DD25F00047154B4FF0FF3220463E
:1054E000394626F003FB38B9114B4FF0FF32204606
:1054F000394626F0DDFA18B1D8F8003022221A60B9
:1055000018EE100ABDEC028BBDE8F081002D0948B1
:1055100006DA21F02BF807EE900AB1EE678AEFE782
:10552000BDEC028BBDE8F04121F020B8FFFF7F7F8A
:10553000FFFFEF7F6C2A0300900000202DE9F84365
:10554000264F274B04460A4638682146FEF7F8FEE8
:1055500002460B4604460D4626F0C8FA88BB204694
:10556000294626F021FB07EE100ADFED1E7AB0EE89
:10557000C77AB4EE677AF1EE10FA064617DD25F029
:105580000049194B4FF0FF322046494626F0AEFA4B
:1055900038B9154B204649464FF0FF3226F088FABD
:1055A00028B13B6822221A603046BDE8F88316F025
:1055B000FF4FF9D10D4B2B40002BF2D13046BDE807
:1055C000F883002D0A4804DA20F0D0FF80F000466E
:1055D000EAE7BDE8F84320F0C9BF00BF9000002013
:1055E000EC000020FFFF7F7FFFFFEF7F0000F07FD8
:1055F0006C2A03000348044B834202D0034B03B1DF
:105600001847704784020020840200200000000038
:105610000548064B1B1AD90F01EBA301491002D014
:10562000034B03B118477047840200208402002016
:105630000000000010B5064C237843B9FFF7DAFFED
:10564000044B13B10448AFF300800123237010BD55
:1056500060180020000000000071030008B5044B32
:105660001BB104490448AFF30080BDE80840CFE710
:10567000000000006418002000710300A3F5803AC8
:10568000704700BF154B002B08BF114B9D46FFF71D
:10569000F5FF00218B460F461148124A121A23F0DB
:1056A0001FFC0C4B002B00D098470B4B002B00D05D
:1056B00098470020002104000D000B4805F0DEF89B
:1056C00024F0F2F82000290002F04EFD23F050FEF5
:1056D00000000800000000000000000000000220A0
:1056E000000400206C1D0020796A02006FF47D70B8
:1056F000704700BF08B5024927F058FF012008BDD8
:10570000963D030038B50121054629F072FF441E7D
:10571000032C0CD8094B0A4953F8243003EB4303FC
:10572000284601EBC30127F0B2FF012038BD054A2E
:10573000012128461AF0EAFDECE700BF703D0300A6
:10574000280800209012030070B50121064629F0B8
:1057500050FF041E0B4D0EDBD5F82433A3420ADDA7
:1057600004EB440405EBC401304601F54A7127F00F
:105770008EFF012070BD044A012130461AF0C6FD9B
:10578000EEE700BF00050020A012030008B50249A3
:1057900027F07DFF012008BD5017002010B50446FA
:1057A00004F0F4FE0146204627F000FF012010BD62
:1057B00030B58BB01849044601A806F0D5F8174952
:1057C00001A807F0D9FD40B101A807F091FD2046DE
:1057D00027F0BBFE01200BB030BD01A807F0E6FDAD
:1057E0002028F1DC01A807F0E1FD054601A807F03B
:1057F000D9FD2A46014602A821F052F901A807F076
:1058000077FD002DE3DB20462A4602A927F0B6FEED
:1058100001200BB030BD00BF080E0020E4180020AE
:1058200010B50121044627F05FFE01682046B1F95A
:105830000220043127F0A2FE012010BD30B583B054
:105840006A460121044629F097FE009A002301468A
:1058500001A807F055FD01A9074806F0C9F805465B
:1058600001A807F045FDB5FA85F12046490927F062
:1058700004FF012003B030BD080E0020074B10B517
:105880000446D3F830090368DB6A9847B0FA80F120
:105890004909204627F0F1FE012010BD0005002037
:1058A000074B10B50446D3F8300903689B6A984744
:1058B000B0FA80F14909204627F0DFFE012010BD33
:1058C0000005002010B50121044629F092FE074B87
:1058D0000146D3F8300903681B6A9847B0FA80F193
:1058E0004909204627F0C9FE012010BD000500200F
:1058F000074B10B50446D3F830090368DB699847B5
:10590000B0FA80F14909204627F0B7FE012010BD0A
:1059100000050020074B10B50446D3F82C09036896
:105920001B6B9847B0FA80F14909204627F0A5FE85
:10593000012010BD00050020074B10B50446D3F828
:105940002C090368DB6A9847B0FA80F149092046C0
:1059500027F093FE012010BD0005002010B50121A5
:10596000044629F046FE074B0146D3F82C0903688C
:105970005B6A9847B0FA80F14909204627F07DFE1E
:10598000012010BD0005002010B50121044629F0BA
:1059900030FE074B0146D3F82C090368DB699847B2
:1059A000B0FA80F14909204627F067FE012010BDBA
:1059B0000005002010B50446044805F055FF0146D7
:1059C000204627F0CFFD012010BD00BFF00D0020C4
:1059D000064B10B50446D3F8300903685B6A984754
:1059E0000146204627F0BEFD012010BD0005002025
:1059F000064B10B50446D3F82C0903689B6A9847F8
:105A00000146204627F0AEFD012010BD0005002014
:105A1000064B10B50446D3F82C0903681B6A984757
:105A20000146204627F09EFD012010BD0005002004
:105A300010B50121044629F0DCFD0CF041FB0146C4
:105A4000204627F08FFD012010BD00BF10B5044691
:105A50000EF088FA0146204627F084FD012010BD93
:105A600010B50121044629F0C4FDC1B2054805F076
:105A7000E9FEB0FA80F14909204627F0FEFD012039
:105A800010BD00BFF00D002010B50446054805F01C
:105A900073FEB0FA80F14909204627F0EEFD01209F
:105AA00010BD00BFF00D002010B50446054805F0FC
:105AB000DBFDB0FA80F14909204627F0DEFD012028
:105AC00010BD00BFF00D002010B50121044629F0E3
:105AD00090FD0146054805F01DFDB0FA80F1490929
