:1000000000000220DDAE010005AF010007AF0100D6
:1000100009AF01000BAF01000DAF010000000000AF
:100020000000000000000000000000000FAF010011
:1000300011AF01000000000013AF010015AF010077
:1000400017AF010021AC0000A5AD010069AD0100B2
:100050007DAD010017AF0100E99601005183010059
:1000600055A801005DA8010065A8010017AF0100B7
:1000700017AF010017AF010017AF010017AF010064
:1000800017AF010017AF010017AF010017AF010054
:1000900017AF010017AF010017AF010017AF010044
:1000A00017AF010017AF01006DA8010075A801008E
:1000B00017AF010017AF01000000000000000000B2
:1000C00017AF010017AF010017AF010091AD01009C
:1000D00017AF010017AF010017AF010000000000CB
:1000E0000000000000000000000000000000000010
:1000F0000000000000000000000000000000000000
:1001000000000000000000000000000000000000EF
:1001100000000000000000000000000000000000DF
:1001200000000000000000000000000000000000CF
:1001300000000000000000000000000000000000BF
:1001400000000000000000000000000000000000AF
:10015000000000000000000000000000000000009F
:10016000000000000000000000000000000000008F
:10017000000000000000000000000000000000007F
:10018000000000000000000000000000000000006F
:10019000000000000000000000000000000000005F
:1001A000000000000000000000000000000000004F
:1001B000000000000000000000000000000000003F
:1001C000000000000000000000000000000000002F
:1001D000000000000000000000000000000000001F
:1001E000000000000000000000000000000000000F
:1001F00000000000000000000000000000000000FF
:1002000030B490F800F020F007016FF0000C10F00F
:10021000070491F820F040F048804FF000046FF0A0
:100220000700D1E9002391F840F000F1080082FABC
:100230004CF2A4FA8CF283FA4CF3A2FA8CF34BBB87
:10024000D1E9022382FA4CF200F10800A4FA8CF200
:1002500083FA4CF3A2FA8CF3E3B9D1E9042382FACE
:100260004CF200F10800A4FA8CF283FA4CF3A2FAE3
:100270008CF37BB9D1E9062301F1200182FA4CF21B
:1002800000F10800A4FA8CF283FA4CF3A2FA8CF382
:10029000002BC6D0002A04BF04301A4612BAB2FAA4
:1002A00082F200EBD20030BC7047D1E9002304F0A9
:1002B0000305C4F100004FEAC50514F0040F91F8DE
:1002C00040F00CFA05F562EA05021CBF63EA05037B
:1002D00062464FF00004AAE70000000000000000A2
:1002E00002780B78012A28BF9A4240F0D8806DE945
:1002F000044540EA0104CDE902676FF0000C4FEAC3
:1003000044721AB380EA010414F0070F6BD100F0B5
:10031000070420F0070004F0030521F007014FEA6D
:10032000C505F0E8042314F0040FF1E804670CFAA3
:1003300005F462EA040266EA04060BD063EA0403E9
:10034000624667EA0407664604E000BFF0E804235B
:10035000F1E8046782FA4CF582EA0604A4FA8CF408
:100360006CBB83FA4CF583EA0705A5FA8CF595B9C1
:1003700050E9022351E9026782FA4CF582EA060449
:10038000A4FA8CF483FA4CF583EA0705A5FA8CF5F8
:100390002543DBD09CB92DBAB5FA85F424F00704C7
:1003A00027FA04F1DDE9026723FA04F303F0FF0002
:1003B00001F0FF01FDE80445A0EB0100704724BAFD
:1003C000B4FA84F424F0070426FA04F1DDE90267A4
:1003D00022FA04F202F0FF0001F0FF01FDE80445FB
:1003E000A0EB0100704714F0030F3CD110F00304A0
:1003F00028D150F8082B51F8083B82FA4CF582EAD4
:100400000305A5FA8CF55DB950F8042C51F8043CAD
:1004100082FA4CF582EA0305A5FA8CF5002DE8D0A6
:100420002DBAB5FA85F424F0070423FA04F122FA70
:1004300004F202F0FF0001F0FF01FDE80445A0EB2B
:10044000010070474FEAC40420F0030050F8082B65
:1004500021F0030151F8083B0CFA04F462EA0402AB
:1004600063EA0403C9E710F003041DD0A1EB040103
:1004700020F00300E40750F8042B06D012D28B784A
:100480005FFAA2F4E41A06D12BB1CB785FFAB2F48A
:10049000E41A00D133B920465DF8104B7047A2EB47
:1004A0000300704701F1040150F8042BCC0721F040
:1004B000030151F8043B48D824D222F07F4482FA49
:1004C0004CF594EA1325A5FA8CF50AD165B951F8D3
:1004D000043B84EA0204B4EB036F0ED150F8042B02
:1004E000EBE74FEA132355E035F07F454DD108780F
:1004F000FDE80445C0F1000070474FEA126203F0C6
:10050000FF0347E002EA1C4482FA4CF594EA1345E3
:10051000A5FA8CF50AD165B951F8043B84EA0204C6
:10052000B4EB034F0CD150F8042BEBE74FEA134325
:1005300030E015EA1C4528D10B884FEA124229E029
:100540004FEA124203EA1C4324E002F0FF0482FA5D
:100550004CF594EA1365A5FA8CF50AD165B951F802
:10056000043B84EA0204B4EB032F09D150F8042BB6
:10057000EBE74FEA13630DE015F0FF0F05D10B68B1
:100580004FEA122223F07F4304E04FF00000FDE821
:100590000445704712BA1BBA82FA4CF482EA03048B
:1005A000A4FA8CF5B5FA85F402FA04F203FA04F31E
:1005B0004FEA1260FDE80445A0EB1360704700BFEE
:1005C00001F0FF01102A2BDB10F0070F08D010F804
:1005D000013B013A8B422DD010F0070F42B3F6D108
:1005E000F0B441EA012141EA014122F007047FF021
:1005F00000070023F0E80256083C85EA010586EA78
:10060000010685FA47F5A3FA87F586FA47F6A5FAB3
:1006100087F68EB9EED1F0BC01F0FF0102F00702BF
:1006200032B110F8013B013A83EA010313B1F8D16A
:100630000020704701387047002D06BF354603384B
:10064000073815F0010F07D1013015F4807F02BF84
:10065000013015F4C03F0130F0BC0138704700BFD5
:100660002DE9F0419FED1E7B214C04609FED1E5B48
:1006700000F502644FF07E55DFED1E6A03F1FF3C8A
:1006800080ED027B4FF00008256000F62807012668
:1006900000F5036500F5046EBCF1030F04ED025B89
:1006A000C0F82488C7ED006A80F82C6885ED007BCF
:1006B0000EED027B05D89C193441C0F81838C0F8FB
:1006C0001C4892B207EE902A00F61402F8EE677A00
:1006D00000F501631160C3ED007ABDE8F08100BF51
:1006E0000000000000000000030000000200000005
:1006F000DC370300000000002DE9F04F044683B012
:10070000C0682AF083FA8046206989462AF07EFA7A
:100710006569CDE9000128462AF078FA024601F120
:10072000004306460F464046494622F0DBFA2AF0CF
:10073000CFFDE062824623F07FFC8346504623F0E3
:100740001BF8824658462AF073FA42464B462AF076
:10075000C7FA8046504689462AF06AFA32463B4636
:100760002AF0BEFA02460B46404649462AF000F9F6
:1007700002460B46DDE9000122F0B4FA2AF0A8FD9A
:10078000002D07EE900A19DDF5EEC07AF1EE10FAB1
:100790001DDD11A7D7E9006717EE900A2AF048FA85
:1007A00002460B46304639462AF0E2F832463B46CE
:1007B0002AF0E0F82AF08CFD07EE900AE388C4EDF9
:1007C0000A7A43F00203E38003B0BDE8F08F04A788
:1007D000D7E90067E0E700BFEA2E4454FB21F93F68
:1007E000EA2E4454FB21F9BF2DE9F0412DED028B97
:1007F000002408EE103A5C4B0360446005460F4647
:100800001646BDF820800FF0A9FD584B2B6003F170
:100810002C023833EB60AA606F612C8205F12C004A
:1008200016F084FD05F1300016F080FD9FED507A42
:10083000504B68696E63C7EE087AA5F80480EC61D6
:100840002C852C83C0F80045B0EE677ABEEECE7AD8
:1008500017EE101A9FED427BB1F5004F83ED007B40
:1008600083ED027B234678DB013341FA03F4B4F5D0
:10087000004FF9DA072B15DC04FA03F10029B8BFA1
:100880000F31091107EE901ADFED396AC0F80C3507
:10089000F8EEE77AC0F8084586EEA77AC5ED097A42
:1008A00085ED087A00230222C0F804353249C0F8E9
:1008B0001025C0F84835C0F82835C0F84C35C0F8C8
:1008C0002C3540F201136B830123C0F8143530241A
:1008D00004238842C0F80032C0F8044321D02749DD
:1008E00088422DD0264A90420ED0326801235268A9
:1008F0002B7605F10801C0F8003530469047BDEC75
:10090000028B2846BDE8F0811E4A1F4C95601F4AA5
:100910009168A2F54062C1F8C840C2F884315360C2
:10092000E3E71A4B174A99681560A3F540634FF047
:100930008052174CC1F8B040C3F880211A60D4E748
:10094000104B144C5D60114B9968A3F54063C1F8DE
:10095000C440C3F884215A60C7E70C468EE700BF45
:1009600000800080008000807C3C03007C49030004
:10097000002474496019002000C0014000100240AA
:10098000002002402C1C0020FD8C010000ED00E046
:10099000558C0100A98C010010B5012104462EF0F0
:1009A0009EFA2AF045F906A3D3E900232AF098F924
:1009B0002AF08EFC014620462CF044F9012010BD9F
:1009C000399D52A246DF913F10B5012104462EF019
:1009D00086FA2AF02DF906A3D3E900232AF0AAFA11
:1009E0002AF076FC014620462CF02CF9012010BD9F
:1009F000399D52A246DF913F82B010B59FED0A7B30
:100A0000014601F110040498C86081ED087B20467E
:100A100002A981E80C0010F057FC2046BDE8104008
:100A200002B010F0A1BB00BF0000000000000000F9
:100A3000C1F30A5C2DE9F041ACF2FF35132D0246FB
:100A40000B460C46064622DC002D4CDBDFF8D4803A
:100A500048FA05F801EA080C5CEA000C0F461BD0C6
:100A60002EA3D3E9002329F085FF002200232AF0DA
:100A7000C7FB40B1002C03DD4FF480132B411F4412
:100A800027EA0804002621463046BDE8F081332DD0
:100A900006DDB5F5806F38D010461946BDE8F08107
:100AA000ACF2134C4FF0FF3727FA0CF73842F3D073
:100AB0001AA3D3E9002329F05DFF002200232AF0C6
:100AC0009FFB0028DFD0002C334609DD142D06D013
:100AD000C5F134050122AA4013449E4200D90134D5
:100AE00023EA0706CFE70DA3D3E9002329F042FF4D
:100AF000002200232AF084FB0028C4D0002C07DB4E
:100B0000344300D0044C0026BDE729F033FFC5E78D
:100B100000264FF00044B6E70000F03F9C750088C7
:100B20003CE4377EFFFF0F00F8B504460D4601F0A8
:100B3000DFF906460F462046294623F0AFFC78B180
:100B400012A3D3E90023204629462AF059FB50B9C5
:100B500010A3D3E90023204629462AF033FB58B9D5
:100B600030463946F8BD27F05FFE074F22230026A6
:100B7000036039463046F8BD27F056FE2223002692
:100B800000270360ECE700BF0000F07FEF39FAFEBA
:100B9000422E864051302DD5104987C000000000FC
:100BA0002DE9F04F964B21F000459D428FB08246D3
:100BB0008B46144640F28B80924B9D420F4628D8BC
:100BC000002985A3D3E9002340F3A18129F0D0FEB9
:100BD0008D4B9D4206460F4600F08D8080A3D3E9E1
:100BE000002329F0C5FE8046894642464B463046E2
:100BF000394629F0BDFE7AA3D3E9002329F0B8FED7
:100C0000C4E90089C4E90201012630460FB0BDE8FD
:100C1000F08F7E4B9D4240F288807D4B9D4261D893
:100C20002E15A6F21646A5EB0659494650462AF05F
:100C300007FB29F0EBFF02460B4650464946CDE93B
:100C4000082329F095FE734B00222AF049F88946C3
:100C500080462AF0F5FA29F0D9FF02460B464046B5
:100C60004946CDE90A2329F083FE6A4B00222AF087
:100C700037F8CDE90C010DF1380A03254FF00008D3
:100C80004FF000097AE9020142464B46AB46013D6E
:100C90002AF08EFA0028F5D15F4B019302230093CE
:100CA00032465B46214608A822F00AF9002F064684
:100CB000ABDA6168226801F10043E168C4E900230E
:100CC000A26801F10043C4E9022346429DE70022E5
:100CD0000023C4E900ABC4E90223002630460FB06C
:100CE000BDE8F08F02460B4629F042FEC4E902013E
:100CF000C4E90001F1E73CA3D3E9002329F038FE61
:100D00003BA3D3E9002306460F4629F031FE804677
:100D1000894642464B463046394629F029FE34A3DF
:100D2000D3E9002329F024FE6AE723F0B1FD32A3C2
:100D3000D3E900238046894629F0D2FF374B0022B1
:100D400029F018FE2AF07CFA064629F05FFF0246D9
:100D50000B46CDE9022320A3D3E9002329F0C0FFED
:100D600002460B464046494629F002FE1CA3D3E941
:100D7000002382468B46DDE9020129F0B1FF0246DD
:100D80000B4650465946CDE9042329F0F1FD1F2EAC
:100D90008046894646DC224B721E53F82230AB4215
:100DA00040D042464B46C4E900895046594629F096
:100DB000DFFDDDE9042329F0DBFD002FC4E902019A
:100DC000BFF623AF09F10043C4E9008301F10043FA
:100DD000C4E90203764218E700004054FB21F93FC2
:100DE0003163621A61B4D03D0000601A61B4D03D35
:100DF0007370032E8A19A33B83C8C96D305FE43F2B
:100E0000FB21E93F7BD90240FB21F93FFB2139411E
:100E1000FFFFEF7F00007041EC4F03000000E03F58
:100E20006C4F0300C9F30A53C3EB1553102B4FEA61
:100E30002555B6DD56A3D3E90023DDE9020129F0EB
:100E40004FFF8046894642464B465046594629F058
:100E50008FFD02460B4650465946CDE90623924681
:100E60009B4629F085FD42464B4629F081FD4AA369
:100E7000D3E9002380468946DDE9020129F030FFED
:100E800042464B4629F074FD0B46024659465046F1
:100E9000CDE9042329F06CFDC1F30A53ED1A312D7D
:100EA000804689467FF77DAF3EA3D3E90023DDE985
:100EB000020129F015FF8046894642464B46DDE98E
:100EC000060129F055FD82468B4652465B46DDE918
:100ED000060129F04DFD42464B4629F049FD33A35A
:100EE000D3E9002380468946DDE9020129F0F8FEB6
:100EF00042464B4629F03CFD02460B4650465946B9
:100F0000CDE9042329F034FD8046894649E729F0DC
:100F100031FD234B9D4206460F4618D01AA3D3E954
:100F2000002329F027FD8046894642464B4630463D
:100F3000394629F01DFD14A3D3E9002329F01AFD39
:100F4000C4E90089C4E902014FF0FF365DE610A351
:100F5000D3E9002329F00EFD0FA3D3E900230646B1
:100F60000F4629F007FD8046894642464B463046EB
:100F7000394629F0FDFC08A3D3E9002329F0FAFC47
:100F8000DEE700BFAFF300803163621A61B4D03D89
:100F90000000601A61B4D03D7370032E8A19A33B20
:100FA000FB21F93F0000002E8A19A33BC1492025EF
:100FB0009A837B390000000070B51646C1F30A52CF
:100FC00004460D460B464ABB21F00043034324D0A0
:100FD000334B002229F084FE324B9E4204460D46DC
:100FE00046DBC1F30A520B46363A4CF250318E4280
:100FF0001CDC164440F2FE72964217DC002E29DCFF
:1010000016F1350F2CDB6FF31E53363643EA0651CB
:101010002046254B002229F063FE70BD40F2FF7C84
:101020006245E2D1024629F0A5FC70BD002D14A155
:10103000D1E9000105DB12A3D3E9002329F050FE1A
:1010400070BD0FA3D3E900230FA1D1E9000129F05E
:1010500047FEF5E76FF31E53204643EA065170BD85
:10106000002D0BA1D1E9000102DA0BA1D1E90001A9
:1010700007A3D3E9002329F033FE70BDAFF300804E
:101080009C7500883CE4377E9C7500883CE437FE04
:1010900059F3F8C21F6EA50159F3F8C21F6EA5815E
:1010A00000005043B03CFFFF0000903C00000000F7
:1010B000F8B504460D4624F01DF9224606460F46B3
:1010C0002B46204629462AF0A5F848B9204629464D
:1010D00023F0DEFB09A3D3E900232AF091F810B92D
:1010E00030463946F8BD27F09FFB034F00262223E8
:1010F000036039463046F8BD0000F07F7DF8B98FB7
:10110000CE338640000000002DE9F04F83B0CDE9DA
:10111000002321F00043B3F1795F04460D4604D269
:101120002AF08EF8002800F0858022462B462046C3
:10113000294629F0D5FD06460F4632463B46204655
:10114000294629F0CDFD41A3D3E9002382468B46F1
:101150003046394629F0C4FD3EA3D3E9002329F0E7
:1011600007FC32463B4629F0BBFD3CA3D3E90023F4
:1011700029F000FC32463B4629F0B2FD39A3D3E901
:10118000002329F0F5FB32463B4629F0A9FD37A3A1
:10119000D3E9002329F0EEFB0C9B804689469BB3E4
:1011A000DDE90001284B002229F09AFD42464B461A
:1011B000804689465046594629F092FD02460B4624
:1011C0004046494629F0D4FB32463B4629F088FD8B
:1011D000DDE9002329F0CCFB19A3D3E9002306465F
:1011E0000F465046594629F07BFD02460B463046D5
:1011F000394629F0BFFB02460B462046294629F016
:10120000B7FB03B0BDE8F08F02460B4630463946C7
:1012100029F066FD0AA3D3E9002329F0A9FB524671
:101220005B4629F05DFD22462B4629F0A3FB03B067
:10123000BDE8F08F2046294603B0BDE8F08F00BF1F
:10124000495555555555C53F0000E03F7CD5CF5A0F
:101250003AD9E53DEB9C2B8AE6E55A3E7DFEB15737
:10126000E31DC73ED561C119A0012A3FA6F81011A0
:101270001111813F000000002DE9F04F23F0004ADA
:10128000044652EA0A0093B0904699460D4614D19E
:101290002319714985F4002252419842914126D286
:1012A00042464B462046294629F064FB02460B463F
:1012B0001046194613B0BDE8F08F1F461346674A23
:1012C00000940E4621F000419142029116D9009BF4
:1012D00006F1404606F580161E43E1D14346DB1871
:1012E0005D4989F4002252419E429141D8D35C4B22
:1012F00000221046194613B0BDE8F08F13D0924576
:10130000E5D8DDF808B053D0002E15DB002B40F0F7
:101310008380534A924540F02084002FC0F211850B
:1013200022462B46C4E7002CBAD18A45B8D800F033
:101330005984DDF808B0E7E74A4A924500F2A383F2
:10134000494A924500F2A583002B40F0EF83B7F1A4
:10135000804F00F0038504932046294623F098FA35
:101360000B4600990246002937D00498F10F013945
:1013700008435FD004980138084300F07F839FED55
:10138000347B8DED067BBAF1844F71D937498A459C
:1013900040F23D84344B029A9A4200F2F984002FC5
:1013A000C0F2F984002013B0BDE8F04F23F094BAE6
:1013B000002B8CD1029B009A03F1404303F580136C
:1013C000134394D0284B029A9A4240F29484002FFF
:1013D000C0F2068542464B466AE7214926F0404066
:1013E000884202D002990029BFD1002FC0F27B842D
:1013F000002EBFF65DAF029901F14049049909F54D
:10140000801959EA010917D0049901297FF450AFD6
:1014100003F100410B464BE7002304932046294685
:1014200023F036FA0B46009902460029D5D0F10F79
:1014300001399FE722462B461046194629F098FAB3
:1014400002460B4629F076FD02460B4630E700BF08
:10145000000000000000F03F0000F0FF0000F07FFF
:101460000000F03FFFFF3F43FFFFEF3F0000F0436E
:10147000D7493140002940F0C88310461946002260
:10148000D44B29F02DFC02468B466FF034004FEA16
:101490002B51A1F2FF310818CF490F90CBF3130B5A
:1014A0004BF07F548B4544F4401440F3A083CB4968
:1014B0008B4540F35D849FEDB07B8DED087B9FED08
:1014C000B07B8DED047B9FEDAC7B8DED107B01300F
:1014D0000F90A4F58014002592465046DDE90423C0
:1014E000214629F045FAA346DDE9042306460F46C6
:1014F00050462146CDE90AAB29F03CFA02460B469C
:101500000020B74929F016FD8C46834663465A46AB
:1015100030463946CDE90CBC29F0E2FB64100A469E
:101520000146CDE9021244F00054DDE902AB04F5B6
:101530000023591900204FF0000A04460D462246A8
:101540002B4650465946CDE9000129F0C9FB024619
:101550000B463046394629F00BFADDE904230646EE
:101560000F462046294629F003FA02460B46DDE9DC
:101570000A0129F0FDF952465B4629F0B1FB02460B
:101580000B463046394629F0F3F9DDE90C2329F002
:10159000A7FBDDE90245CDE9040122462B462046A2
:1015A000294629F09DFB78A3D3E9002304460D4684
:1015B00029F096FB76A3D3E9002329F0DBF9224634
:1015C0002B4629F08DFB74A3D3E9002329F0D2F92F
:1015D00022462B4629F084FB71A3D3E9002329F08E
:1015E000C9F922462B4629F07BFB6FA3D3E90023E0
:1015F00029F0C0F922462B4629F072FB6CA3D3E9EF
:10160000002329F0B7F9224606460F462B4620460E
:10161000294629F065FB02460B463046394629F03B
:101620005FFB524604460D465B46DDE9020129F0A8
:10163000A1F9DDE9042329F053FB22462B4629F0CA
:1016400099F9524604460D465B465046594629F0E4
:1016500047FB644B002206460F4629F08BF92246D1
:101660002B46CDE90A4529F085F90D462B46524611
:101670005046594629F034FB5A4BCDE9000100226F
:101680002946504629F074F932463B4629F070F954
:1016900002460B46DDE90A0129F06AF9DDE9022379
:1016A00029F01EFB2B4606460F465246DDE9040193
:1016B00029F016FB02460B463046394629F05AF906
:1016C00006460F463246DDE900013B4629F052F955
:1016D00039A3D3E9002350460D4629F001FBDDE98B
:1016E0000023CDE900012946504629F041F9024680
:1016F0000B463046394629F03BF931A3D3E90023A4
:1017000029F0EEFA02460B461446294650461D467D
:101710002DA3D3E9002329F0E3FA02460B46204625
:10172000294629F027F9DDE9102329F023F9064697
:101730000F980F4629F06AFA324604460D463B469A
:10174000DDE9000129F016F9DDE9082329F012F995
:1017500022462B4629F00EF9504622462B46CDE96B
:10176000020129F005F9DDE9082329F001F9DDE995
:10177000002339E0AFF3008000000000000000000B
:10178000000000000000F03FEF4E454A287ECA3FAF
:1017900065DBC9934A86CD3F01411DA96074D13FE5
:1017A0004D268F515555D53FFFAB6FDBB66DDB3FF7
:1017B000033333333333E33F000000E009C7EE3F28
:1017C000FD033ADC09C7EE3FF5015B14E02F3EBE96
:1017D0000000F07F000040438E98030079B60B00B4
:1017E0000000F03F0000084029F0C2F802460B4616
:1017F0003046394629F0BCF8CDE904010023CDE993
:1018000000890093DDE90067404632463B46494681
:1018100029F0AEF8DDE902AB52465B4629F060FAEA
:10182000424604460D464B46DDE9040129F058FACC
:1018300002460B462046294629F09CF832460446CB
:101840000D463B4650465946CDE9024529F048FA37
:1018500006460F46204629463B46324629F08AF87E
:10186000DB4B994204460D46884640F33F8101F127
:101870003F4303F5E003034340F09782C0A3D3E95D
:101880000023DDE9020129F075F802460B462046E7
:10189000294614461D4632463B4629F069F8024661
:1018A0000B462046294629F0ABFC002840F07D82FB
:1018B0004FF400734344C3F30A52C64CA2F2FF3202
:1018C0001441C3F3130AC2F11402002004EA030115
:1018D0004AF4801A4AFA02FA0B460246B8F1000F9F
:1018E00030463946B8BFCAF1000A29F041F802462D
:1018F0000B4606460F46DDE9020129F03BF84FEAA8
:101900000A5B0D460024A0A3D3E900232046294604
:1019100029F0E6F93246804689463B46204629466C
:1019200029F026F802460B46DDE9020129F020F8ED
:1019300097A3D3E9002329F0D3F902460B462046AA
:10194000294614461D4694A3D3E9002329F0C8F97B
:1019500002460B462046294629F00CF806460F465B
:1019600032463B464046494629F004F842464B463B
:1019700004460D4628F0FCFF02460B463046394629
:1019800028F0F6FF2246804689462B462046294607
:1019900029F0A6F982A3D3E9002306460F4629F0D1
:1019A0009FF981A3D3E9002328F0E2FF32463B46AA
:1019B00029F096F97EA3D3E9002328F0DBFF324615
:1019C0003B4629F08DF97CA3D3E9002328F0D0FF12
:1019D00032463B4629F084F979A3D3E9002328F065
:1019E000C9FF32463B4629F07BF902460B462046AA
:1019F000294628F0BDFF06460F4632463B462046A4
:101A0000294629F06DF902460B46304639461646FE
:101A10001F4600224FF0804328F0AAFF02460B46E3
:101A20003046394629F086FA424606460F464B466E
:101A30002046294629F054F942464B4628F09AFFA1
:101A400002460B463046394628F092FF22462B4686
:101A500028F08EFF02460B4600205F4928F088FFE1
:101A60000C465C44B4F5801FC0F29B812146DDE941
:101A7000062329F035F902460B4619E49FED527B07
:101A80008DED067B7FE4002B00F0A68102230493FA
:101A9000C4E44FEA2A52A2F2FF32142A40F33781FB
:101AA000C2F1340223FA02F101FA02F29A4200F082
:101AB0009B81002B3AD1B7F1804F00F04F81204637
:101AC000294622F0E5FE0B460099024600297FF4E4
:101AD000B1AC414926F04040884200F0CC810299E7
:101AE000002900F0C381002104913EE4DFF8F0C03A
:101AF00021F00043634540F21B81384B0B44034304
:101B00000AD132463B4628F033FFDDE9022329F0B3
:101B10006DFB00283FF4CCAEDDE906010022002376
:101B200029F050FB003818BF01203CE4204629462C
:101B300022F0AEFE0B460099024600297FF47AACF3
:101B4000254926F04040884200F07881029900291A
:101B500000F060810099049107E4B7F1804F00F034
:101B6000FD80A2F5801297427FF4F5AB204629460E
:101B700013B0BDE8F04F21F019BF00BFAFF30080F4
:101B8000FE822B654715973C00000000432EE63F80
:101B9000EF39FAFE422EE63F396CA80C615C20BE9C
:101BA000D0A4BE726937663EF16BD2C541BDBB3E63
:101BB0002CDE25AF6A56113F93BDBE166CC1663F41
:101BC0003E5555555555C53F000000000000F0BF7B
:101BD000FFFF8F400000F0FF0000F03F00346F3F38
:101BE000FFCB9040002B7FF45BABFFF7EBBB9FED8F
:101BF000AA7B8DED087B9FEDAA7B8DED047B9DED8F
:101C0000087B00258DED107B66E400203FE4B4499D
:101C100002988842C0F0D380B2490298884200F20C
:101C2000EC80104619460022AE4B28F0A1FE9EA380
:101C3000D3E9002304460D4629F052F89CA3D3E9CA
:101C4000002382468B462046294629F049F8A64BB8
:101C5000CDE9000100222046294629F041F802463C
:101C60000B4695A1D1E9000128F082FE22462B46C1
:101C700029F036F802460B4600209C4928F078FEF1
:101C800022462B4606460F462046294629F028F8CC
:101C900002460B463046394629F022F888A3D3E99C
:101CA000002329F01DF802460B46DDE9000128F06B
:101CB0005FFE04460D4622462B465046594628F004
:101CC00059FE002052465B46CDE9020128F050FE45
:101CD00002460B462046294628F04AFECDE904017B
:101CE0008CE5029904917F49002029F023F90246EE
:101CF0000B46FFF77DBB002F4FF000024FF00003B3
:101D0000BFF6D6AA424609F10043FFF7D1BA002B2D
:101D10007FF40CAFC2F114024AFA02F101FA02F2A6
:101D200052457DD06F4A92453FF4F7AAFFF70FBBAB
:101D30006E4A934200F28880DDE900239346924682
:101D4000E0E522462B466749002029F0F3F80246D9
:101D50000B46FFF7ADBAB7F1804F3DD122462B4677
:101D60002046294628F0BCFF02460B46FFF7A0BAE2
:101D70009FED557B8DED087B9FED557B8DED107BA9
:101D80009FED557B4FF480258DED047BFFF7A4BBC1
:101D9000002F7FF707AB002013B0BDE8F04F22F013
:101DA000A5BD5246FFF708F961E6DDE9060100220C
:101DB000002329F007FA003818BF0120ECE7DDE91D
:101DC00006010022002329F0FDF9003818BF012088
:101DD000002FBFF6E8AADFE702230493FFF7BCBA9F
:101DE00000220023FFF764BA002BB4D001F00101F8
:101DF000C1F102030493FFF711BBDDE906010022E4
:101E0000002329F0DFF9003818BF0120002FC3DCC0
:101E1000FFF7C9BA002FFFF664AF0491FFF7EBBAE2
:101E2000304B9A453FF479AAB7F1804F96D001F034
:101E30000101C1F102030493FFF78EBA002F0BDBFF
:101E400000990491FFF7D7BA1B15A3F2FE334FF4A4
:101E5000801242FA03F32DE52249002029F06AF8A6
:101E6000009B049302460B46FFF7C5BA002FD4DA55
:101E70000021049137E7002F01DB0021CDE719494C
:101E8000002029F057F80023049302460B46FFF781
:101E9000B2BA00BFAFF300800000000000000000F5
:101EA000000000000000F03F000000604715F73F11
:101EB00044DF5DF80BAE543E555555555555D53F4D
:101EC000FE822B654715F73F0000004003B8E23F54
:101ED00006D0CF43EBFD4C3E000000000000F83F71
:101EE000FFFFEF3F0000F03F0000D03F0000E03F69
:101EF0002DE9F047D04F21F00042BA4286B00446A7
:101F00000D464FEAD1760DD9CC4FBA426FD9C1F305
:101F100013030343024640F04481002E64D00020A6
:101F2000002161E0C64B9A4200F21281C54B9A42F1
:101F300040F2248122462B462046294628F0D0FE36
:101F4000A7A3D3E9002306460F4628F0C9FEA6A39F
:101F5000D3E9002328F00CFD32463B4628F0C0FEB2
:101F6000A3A3D3E9002328F005FD32463B4628F021
:101F7000B7FEA1A3D3E9002328F0FAFC32463B4682
:101F800028F0AEFE9EA3D3E9002328F0F3FC3246EE
:101F90003B4628F0A5FE02460B462046294628F07F
:101FA000E7FCCDE90201DDE90289204642464B46C5
:101FB000294628F095FE002206460F464FF0804342
:101FC0004046494628F0D4FC02460B463046394686
:101FD00028F0B0FF22462B4628F0CAFC02460B46EA
:101FE0000020994928F0C4FC06B0BDE8F08786A31C
:101FF000D3E9002329F004F90746002840F0D780F0
:1020000083A3D3E900232046294629F0DBF80028E2
:1020100040F0DF808D4B204603EBC60629467EA3A9
:10202000D3E9002328F05CFED6E9082328F0A2FCBF
:1020300029F006F9824628F0E9FD79A3D3E90023C7
:1020400006460F4628F04CFE02460B46204629461F
:1020500028F08EFC74A3D3E90023804689463046DD
:10206000394628F03DFECDE90001DDE90023404678
:10207000494628F07DFC02460B4604460D4628F0F2
:102080002FFE57A3D3E9002306460F4628F028FE6B
:1020900055A3D3E9002328F06BFC32463B4628F0D9
:1020A0001FFE53A3D3E9002328F064FC32463B46CD
:1020B00028F016FE50A3D3E9002328F059FC32463D
:1020C0003B4628F00DFE4EA3D3E9002328F052FC36
:1020D00032463B4628F004FE02460B46204629467F
:1020E00028F046FC06460F462046294632463B4627
:1020F000CDE9026728F0F4FDCDE90401BAF1000F43
:102100003FF451AF32463B4600204FF0804128F06B
:102110002FFC02460B46DDE9040128F00BFF0246C6
:102120000B46DDE9000128F023FC42464B4628F02F
:102130001FFC02460B460020434928F019FC6FF4AF
:102140007F72924539DB01EB0A5106B0BDE8F0879A
:102150003F4B9A423FF65EAF3C4C04EBC604D4E9D9
:10216000002328F005FC94ED047B86F0010A8DED38
:10217000007B80468946AAEB060A76E72CA3D3E9C2
:10218000002328F0F7FB304B002229F039F8002813
:102190003FF4D0AE2C4B00222046294628F0EAFB23
:1021A00022E70B4628F0E6FB06B0BDE8F0870020EA
:1021B00006B0BDE8F04722F099BB0AF57A7A01EB48
:1021C0000A5100224FF0B87328F08AFD06B0BDE82E
:1021D000F087384606B0BDE8F04722F07DBB00BF6F
:1021E000D0A4BE726937663EF16BD2C541BDBB3E1D
:1021F0002CDE25AF6A56113F93BDBE166CC1663FFB
:102200003E5555555555C53FEF39FAFE422E86408D
:1022100051302DD5104987C0FE822B654715F73FF9
:102220000000E0FE422EE63F763C7935EF39EA3D8C
:102230009C7500883CE4377E412E8640FFFFEF7F8F
:10224000422ED63FFFFFEF3D0000F03FF0080300B5
:10225000B1A2F03F00000000B1F5801F2DE9F84366
:1022600004460D460B4619DA21F00042024353D0D2
:10227000002959DB364B002228F032FD354A0D4645
:102280002B46934204466FF035010CDD22462B4667
:102290002046294628F06EFBBDE8F8832D4A93427C
:1022A0004FF00001F2DC1815A0F2FF300844C70F10
:1022B00000EBD070C3F3130628F0A8FCC7F57F73BA
:1022C000033346EA03551CA3D3E90023804689461D
:1022D00028F006FD02460B462046294614461D46B8
:1022E00000F022FB16A3D3E9002328F0F9FC2246D4
:1022F0002B4628F03FFB14A3D3E9002304460D46E8
:102300004046494628F0ECFC02460B46204629464A
:1023100028F030FBBDE8F883002200230E4900209E
:1023200028F008FEBDE8F883024628F021FB0022D1
:10233000002328F0FFFDAFE7362BF111F3FE593DE6
:102340000EE526157BCBDB3F00609F501344D33F47
:1023500000005043FFFFEF7F000050C3000000006B
:10236000C1F30A5C2DE9F041ACF2FF35132D0246B2
:102370000B460C46064622DC002D42DBDFF8E480EB
:1023800048FA05F801EA080C5CEA000C0F461BD07D
:1023900032A3D3E9002328F0EDFA0022002328F02D
:1023A0002FFF40B1002C03DA4FF480132B411F4460
:1023B00027EA0804002621463046BDE8F081332D87
:1023C00006DDB5F5806F2CD010461946BDE8F081CA
:1023D000ACF2134C4FF0FF3727FA0CF73842F3D02A
:1023E0001EA3D3E9002328F0C5FA0022002328F019
:1023F00007FF0028DFD0002C33461CDB23EA07064A
:10240000D9E716A3D3E9002328F0B4FA0022002369
:1024100028F0F6FE0028CED0002C05DB002634463E
:10242000C9E728F0A7FAD1E724F0004426430DD1EC
:102430004FF00044BFE7142D06D0C5F1340501224A
:10244000AA4013449E42D9D90134D7E7024C002652
:10245000B1E700BFAFF300800000F0BF9C750088BB
:102460003CE4377EFFFF0F002DE9F84F99465342B9
:102470005F4F134329F0004E4EEAD373BB429046A0
:1024800004460D463DD84642064321F0004A4AEA3A
:10249000D676BE4203468B4633D809F1404606F550
:1024A000801616433DD04FEAA97606F0020653EA9D
:1024B0000A0346EAD1762CD052EA0E0235D0BE4548
:1024C00046D0BA4531D0AAEB0E0ABAF1747F4FEA72
:1024D0002A5339DAB9F1000F46DA3C3344DA0020E6
:1024E0000021012E58D0022E49D086B134A3D3E961
:1024F000002328F03DFA34A3D3E9002328F038FA6A
:1025000005E022462B464046494628F033FABDE80E
:10251000F88F022E10D0032EF9D12DA1D1E90001A0
:10252000F5E7BDE8F84F00F067B8BBF1000F07DB37
:1025300029A1D1E90001EAE723A1D1E90001E6E7F9
:1025400027A1D1E90001E2E723A1D1E90001C8E711
:10255000F24506F1FF3623D0022E29D8254B03EB96
:10256000C603D3E90601D2E742464B462046294638
:1025700028F0E0FC22F08CF900F03EF8B1E710A35F
:10258000D3E9002328F0F4F902460B460EA1D1E965
:10259000000128F0EDF9BAE701F100431946B6E76A
:1025A000022E08D8134B03EBC603D3E90001AEE7B4
:1025B00000200021ABE70CA1D1E90001A7E700BF93
:1025C000075C143326A6A13C182D4454FB21094076
:1025D000182D4454FB2109C0182D4454FB21F93F08
:1025E000182D4454FB21F9BF182D4454FB21E93F19
:1025F0000000F07F380903002DE9F84FC04B21F0AF
:1026000000469E4204460D468A460ED9BD4B9E4268
:1026100000F2AE8000F0A980BAF1000F40F3E8802C
:102620009BA1D1E90001BDE8F88FB74B9E4200F2B3
:10263000B680A3F1DE739E4240F2A2804FF0FF3BD2
:1026400022462B462046294628F04AFB02460B46E6
:102650008046894628F044FB8FA3D3E90023064631
:102660000F4628F03DFB8EA3D3E9002328F082F922
:1026700032463B4628F034FB8BA3D3E9002328F0F5
:1026800079F932463B4628F02BFB89A3D3E9002396
:1026900028F070F932463B4628F022FB86A3D3E9A6
:1026A000002328F067F932463B4628F019FB84A343
:1026B000D3E9002328F05EF942464B4628F010FB90
:1026C00081A3D3E90023804689463046394628F065
:1026D00007FB7FA3D3E9002328F04AF932463B46A3
:1026E00028F0FEFA7CA3D3E9002328F041F9324612
:1026F0003B4628F0F5FA7AA3D3E9002328F038F90D
:1027000032463B4628F0ECFA77A3D3E9002328F0C1
:102710002FF932463B4628F0E3FA02460B46404684
:10272000494628F027F922462B4628F0D9FABBF172
:10273000FF3F02460B4660D0744E06EBCB06D6E94F
:10274000082328F015F922462B4628F011F90246F5
:102750000B46D6E9000128F00BF9BAF1000F0DDAAB
:1027600001F100431946BDE8F88F00283FF454AF4B
:1027700022462B462046294628F0FCF8BDE8F88F73
:102780005BA3D3E9002328F0F5F8614B002228F081
:1027900037FD00283FF452AF20462946EEE722F0ED
:1027A00077F85C4B9E4204460D462CD8A3F5502387
:1027B0009E4253D802460B4628F0DCF8544B0022C8
:1027C00028F0D6F802460B462046294614461D46F8
:1027D00000224FF0804328F0CDF802460B462046F9
:1027E000294628F0A7FB4FF0000B04460D4627E7CB
:1027F00041A1D1E90001BDE8F88F2046294628F023
:10280000B7F8BDE8F88F444B9E421CD2434B0022E0
:1028100028F0AEF802460B462046294614461D46CF
:1028200000223E4B28F05CFA394B002228F0A2F837
:1028300002460B462046294628F07CFB4FF0020B4F
:1028400004460D46FCE622462B463549002028F07A
:1028500071FB4FF0030B04460D46F1E62C4B0022B2
:1028600028F086F802460B462046294614461D46A7
:102870000022274B28F07EF802460B4620462946C8
:1028800028F058FB4FF0010B04460D46D8E600BF78
:10289000182D4454FB21F93F11DA22E33AAD903F61
:1028A000EB0D76244B7BA93F513DD0A0660DB13F87
:1028B0006E204CC5CD45B73FFF8300922449C23FEF
:1028C0000D5555555555D53F2F6C6A2C44B4A2BFB4
:1028D0009AFDDE522DDEAD3F6D9A74AFF2B0B33F7C
:1028E000711623FEC671BC3FC4EB98999999C93FF4
:1028F0009C7500883CE4377E182D4454FB21F9BFB9
:10290000FFFF0F440000F07FFFFFDB3F780903006B
:102910000000F03FFFFFF23F008003400000F83F5F
:102920000000F0BF000000002DE9F04FB1F5801F5E
:1029300087B002460B460D4680F2838021F00044AA
:10294000044300F020810029C0F26081D64B0022B0
:1029500028F0C6F90D460B46D4498D426FF0350676
:10296000024673DC2C15C5F3130505F51521A4F2F9
:10297000FF3401F6647101F48011344404EB115406
:1029800081F07F5181F4401141EA05031046194658
:102990000022C74B27F0ECFFAB1CC3F31303022B41
:1029A00082468B464FF0000257DC002328F000FCE3
:1029B000002840F0F180A8A3D3E9002350465946EF
:1029C00028F08EF902460B460020BA4927F0D0FFC6
:1029D000524606460F465B465046594628F080F957
:1029E00002460B463046394628F07AF906460F462D
:1029F000002C00F00281204628F008F998A3D3E9C2
:102A000000238046894628F06BF997A3D3E9002379
:102A100004460D464046494628F062F902460B46F8
:102A20003046394627F0A4FF52465B4627F0A0FF08
:102A300002460B462046294627F09AFF07B0BDE81C
:102A4000F08F9A498D424FF000068BDD10461946F3
:102A500027F090FF07B0BDE8F08F4FF0804327F0DC
:102A600089FF02460B465046594628F063FA06464F
:102A700020460F4628F0CAF83246CDE904013B460D
:102A800030463946CDE9026728F02AF902460B465E
:102A9000CDE9002328F024F975A3D3E900230646E5
:102AA0000F4628F01DF974A3D3E9002327F062FF35
:102AB00032463B4628F014F971A3D3E9002327F0EE
:102AC00059FF32463B4628F00BF96FA3D3E90023A8
:102AD00027F050FFDDE9002328F002F96CA3D3E9C9
:102AE0000023CDE900013046394628F0F9F86AA301
:102AF000D3E9002327F03EFF32463B4628F0F0F8AA
:102B000067A3D3E9002327F035FF32463B4628F080
:102B1000E7F8A5F5C22802460B46C5F5D725DDE93D
:102B2000000127F027FFA8F27A48513545EA080549
:102B3000002D06460F464BDD5E4B0022504659469F
:102B400028F0CEF852465B4628F0CAF880468946FF
:102B50003046394642464B4627F00CFFDDE902235A
:102B600028F0BEF806460F46002C56D102460B460A
:102B70004046494627F0FCFE02460B465046594661
:102B800027F0F6FE66E7002200234B49002028F0DC
:102B9000D1F907B0BDE8F08F002C57D0204628F0BF
:102BA00035F82FA3D3E9002306460F4628F098F8FE
:102BB0002DA3D3E9002304460D463046394628F0BC
:102BC0008FF802460B462046294627F0D3FE41E700
:102BD00002460B465046594627F0CAFEDDE902235D
:102BE00028F07EF806460F463CB1DDE904891CA3B7
:102BF000D3E900234046494605E732463B46504666
:102C0000594627F0B5FE07B0BDE8F08F27F0B0FEBB
:102C10000022002328F08EF91CE711A3D3E900233A
:102C2000DDE9040128F05CF80FA3D3E90023044692
:102C30000D46DDE9040128F053F832463B4627F003
:102C400099FE02460B4640464946EBE6002000212D
:102C500000E700BFAFF30080555555555555D53F9A
:102C60000000E0FE422EE63F763C7935EF39EA3D42
:102C700044523EDF12F1C23FDE03CB966446C73FAB
:102C8000599322942449D23F935555555555E53FC4
:102C90009FC678D0099AC33FAF788E1DC571CC3FCF
:102CA00004FA97999999D93F00005043FFFFEF7FAD
:102CB0000000F03F0000E03F000050C300000000B3
:102CC0002DE9F04F21F00048B8F1795F85B09246C8
:102CD0009B4606460F466DD228F0B2FA002800F057
:102CE000EE8032463B463046394627F0F9FF76A360
:102CF000D3E9002304460D4627F0F2FF74A3D3E97D
:102D0000002327F037FE22462B4627F0E9FF72A367
:102D1000D3E9002327F02CFE22462B4627F0E0FFC4
:102D20006FA3D3E9002327F025FE22462B4627F088
:102D3000D7FF6DA3D3E9002327F01AFE22462B46C6
:102D400027F0CEFF6AA3D3E9002327F013FE224623
:102D50002B4627F0C5FFCDE90001694B0022204634
:102D6000294627F0BDFFDDE900238046894620463D
:102D7000294627F0B5FF44464D46804689465246CF
:102D80005B463046394627F0ABFF02460B464046CD
:102D9000494627F0EDFD02460B462046294627F01E
:102DA000E7FD02460B460020564927F0E1FD05B03D
:102DB000BDE8F08F02460B4627F092FF42A3D3E90D
:102DC000002304460D4627F08BFF41A3D3E90023DF
:102DD00027F0D0FD22462B4627F082FF3EA3D3E901
:102DE000002327F0C5FD22462B4627F079FF3CA3A0
:102DF000D3E9002327F0BEFD22462B4627F070FFC3
:102E000039A3D3E9002327F0B3FD22462B4627F050
:102E100067FF37A3D3E9002327F0ACFD2B462246FA
:102E200027F05EFF384B9845CDE9000195D9374B27
:102E300098453BD8A8F5001300223249002090465F
:102E4000994627F095FDCDE902012D4B0022204641
:102E5000294627F045FF42464B4627F089FDDDE92C
:102E60000023804689462046294627F039FF4446FC
:102E70004D468046894652465B463046394627F0E5
:102E80002FFF02460B464046494627F071FD024699
:102E90000B462046294627F06BFD02460B46DDE92E
:102EA000020127F065FD05B0BDE8F08F9FED127BB4
:102EB000DFF85C908DED027B4FF00008C5E711490B
:102EC000002005B0BDE8F08FD43888BEE9FAA8BD6F
:102ED000C4B1B4BD9EEE213EAD529C804F7E923E69
:102EE0009015CB19A001FA3E7751C1166CC1563F1F
:102EF0004C5555555555A53F000000000000E73FD3
:102F00000000E03F0000F03F3233D33F0000E93FD4
:102F10000000D23F000000002DE9F04FBE4B21F031
:102F2000004A9A4583B004460D4612D90AF1404A38
:102F30000AF5801A5AEA000A00F0FD8002460B46A4
:102F400027F016FD02460B4627F0F4FF03B0BDE85C
:102F5000F08FB24B9A458B460FD8BAF1795F80F06B
:102F6000658191A3D3E9002327F004FDAC4B002237
:102F700028F046F9002840F012812046294621F029
:102F800087FC02460B460020A54927F0F1FCA54B23
:102F9000002227F0A5FE86A3D3E9002304460D46B0
:102FA00027F09EFE84A3D3E9002327F0E3FC22460A
:102FB0002B4627F095FE82A3D3E9002327F0D8FC07
:102FC00022462B4627F08CFE7FA3D3E9002327F06F
:102FD000D1FC22462B4627F083FE7DA3D3E90023B4
:102FE00027F0C6FC22462B4627F07AFE7AA3D3E9C7
:102FF000002327F0BFFC22462B4627F071FE78A362
:10300000D3E90023CDE900012046294627F068FED8
:1030100075A3D3E9002327F0ABFC22462B4627F00B
:103020005FFE73A3D3E9002327F0A4FC22462B46BE
:1030300027F056FE70A3D3E9002327F099FC22461F
:103040002B4627F04DFE764B002227F093FC0646D8
:103050000F462046294620F0A9FC3B46804689467B
:103060003246DDE9000127F065FF6F4B9A45CDE957
:10307000000146464F4677D832464B4630464946D1
:1030800027F078FCDDE9002327F02AFE4FF0000846
:10309000CDE9000142464B464046494627F020FE16
:1030A00002460B462046294627F062FC424604466B
:1030B0000D464B463046494627F05CFC02460B461F
:1030C0002046294627F036FF02460B4627F052FCE1
:1030D00002460B464AA1D1E9000127F049FC02460D
:1030E0000B46DDE9000127F043FC424604460D464D
:1030F0004B464046394627F03DFC02460B4642A16E
:10310000D1E9000127F034FC02460B46204629464F
:1031100027F02EFC02460B463BA1D1E9000127F027
:1031200027FCBBF1000F3FF711AF01F10043194637
:1031300003B0BDE8F08F36A3D3E9002327F0D0FD1C
:1031400002460B462046294614461D462CA3D3E9C9
:10315000002327F0C5FD02460B462046294627F0EE
:1031600009FC03B0BDE8F08F02460B4640464946D5
:1031700027F0B6FD42464B4627F0FCFB02460B46C5
:1031800027F0F8FB1EA3D3E9002327F0F1FB02464A
:103190000B461FA1D1E9000127F0EAFBC1E7204659
:1031A0002946D3E6AFF300809C7500883CE4377E67
:1031B00009F7FD0DE13D023F88B20175E0EF493F9F
:1031C0003B8F68B52882A43F5544880E55C1C93F3E
:1031D0007D6FEB0312D6D43F555555555555C53F18
:1031E00082922EB1C5B8B33F59018D1B6C06E63FE4
:1031F000C88A599CE52A00404B2D8A1C273A034077
:10320000075C143326A6913C182D4454FB21E93F5A
:10321000182D4454FB21F93FFFFFEF3FFFFFDF3F35
:103220000000F03F0000E03F3233EF3F02460B4624
:1032300027F056FD37A3D3E9002306460F4627F0B3
:103240004FFD36A3D3E9002327F094FB32463B46DB
:1032500027F046FD33A3D3E9002327F089FB32464C
:103260003B4627F03DFD31A3D3E9002327F082FB45
:1032700032463B4627F034FD2EA3D3E9002327F046
:1032800077FB32463B4627F02BFD2CA3D3E90023E6
:1032900027F070FB32463B4627F022FD29A3D3E9F5
:1032A0000023804689463046394627F019FD27A37A
:1032B000D3E9002327F05CFB32463B4627F010FDA4
:1032C00024A3D3E9002327F055FB32463B4627F0E1
:1032D00007FD22A3D3E9002327F04AFB32463B46F1
:1032E00027F0FEFC0A4B002227F044FB02460B4667
:1032F0004046494627F01EFE22462B4627F0F0FCAA
:1033000022462B4627F036FB03B0BDE8F08F00BF06
:103310000000F03F09F7FD0DE13D023F88B2017565
:10332000E0EF493F3B8F68B52882A43F5544880EA3
:1033300055C1C93F7D6FEB0312D6D43F5555555546
:103340005555C53F82922EB1C5B8B33F59018D1B6B
:103350006C06E63FC88A599CE52A00404B2D8A1C22
:10336000273A0340000000002DE9F84FC44E21F039
:103370000043B34204460D460DD903F1404303F523
:103380008013034340F0B980002940F3C08000203F
:103390000021BDE8F88FBB4EB34208D8BA4A934229
:1033A00000F2BA809CA1D1E90001BDE8F88F0029A4
:1033B000C0F2708122462B46B449002027F0D8FA8B
:1033C000B34B002227F08CFC04460D4620F0EEFAA9
:1033D00093A3D3E90023894680462946204627F057
:1033E0007FFC91A3D3E9002327F0C4FA22462B46A1
:1033F00027F076FC8EA3D3E9002327F0B9FA224602
:103400002B4627F06DFC8CA3D3E9002327F0B2FAFA
:1034100022462B4627F064FC89A3D3E9002327F03A
:10342000A7FA22462B4627F05BFC87A3D3E90023AB
:1034300027F0A0FA22462B4627F052FC84A3D3E9BA
:10344000002382468B462046294627F049FC82A36A
:10345000D3E9002327F08CFA22462B4627F040FCC4
:103460007FA3D3E9002327F085FA22462B4627F0D5
:1034700037FC7DA3D3E9002327F07AFA22462B46B6
:1034800027F02EFC814B002227F074FA02460B46EF
:103490005046594627F04EFD42464B4627F020FC49
:1034A000002682468B4632464B463046494627F038
:1034B00017FC02460B462046294627F059FA3246A9
:1034C00004460D464B464046494627F053FA02460D
:1034D0000B462046294627F02DFD02460B46504656
:1034E000594627F047FA32464B4627F043FA024640
:1034F0000B4627F03FFABDE8F88F02460B4627F04F
:1035000037FA02460B4627F015FDBDE8F88F58A1A3
:10351000D1E90001BDE8F88F02460B4627F0E0FB39
:103520003FA3D3E9002306460F4627F0D9FB3EA36D
:10353000D3E9002327F01EFA32463B4627F0D0FBA2
:103540003BA3D3E9002327F013FA32463B4627F08A
:10355000C7FB39A3D3E9002327F00CFA32463B46D8
:1035600027F0BEFB36A3D3E9002327F001FA324649
:103570003B4627F0B5FB34A3D3E9002327F0FAF943
:1035800032463B4627F0ACFB31A3D3E9002380460B
:1035900089463046394627F0A3FB2FA3D3E9002301
:1035A00027F0E6F932463B4627F09AFB2CA3D3E9F5
:1035B000002327F0DFF932463B4627F091FB2AA390
:1035C000D3E9002327F0D4F932463B4627F088FBA5
:1035D0002E4B002227F0CEF902460B4640464946C4
:1035E00027F0A8FC22462B4627F07AFB02460B4622
:1035F00021A1D1E9000127F0BBF902460B46204684
:10360000294627F0B5F902460B4603A1D1E900018E
:1036100027F0AEF9BDE8F88F182D4454FB21F93F8F
:1036200009F7FD0DE13D023F88B20175E0EF493F2A
:103630003B8F68B52882A43F5544880E55C1C93FC9
:103640007D6FEB0312D6D43F555555555555C53FA3
:1036500082922EB1C5B8B33F59018D1B6C06E63F6F
:10366000C88A599CE52A00404B2D8A1C273A034002
:10367000182D4454FB210940075C143326A6913CC5
:10368000FFFFEF3FFFFFDF3F0000603C0000F03F27
:103690000000E03F5E4B002227F06CF95D4B0022FA
:1036A00027F01EFB42A3D3E9002304460D4627F072
:1036B00017FB41A3D3E9002327F05CF922462B46F0
:1036C00027F00EFB3EA3D3E9002327F051F9224651
:1036D0002B4627F005FB3CA3D3E9002327F04AF94A
:1036E00022462B4627F0FCFA39A3D3E9002327F022
:1036F0003FF922462B4627F0F3FA37A3D3E90023FC
:1037000027F038F922462B4627F0EAFA34A3D3E90A
:10371000002306460F462046294627F0E1FA32A349
:10372000D3E9002327F024F922462B4627F0D8FAC4
:103730002FA3D3E9002327F01DF922462B4627F0BB
:10374000CFFA2DA3D3E9002327F012F922462B4606
:1037500027F0C6FA2E4B002227F00CF98046894646
:103760002046294620F022F9424604460D464B46A3
:103770003046394627F0DEFB22462B4627F0B0FACA
:103780001FA3D3E9002327F0F3F822462B4627F0A6
:10379000F1F802460B4627F0EDF802460B461AA157
:1037A000D1E9000127F0E4F8BDE8F88FAFF300801D
:1037B00009F7FD0DE13D023F88B20175E0EF493F99
:1037C0003B8F68B52882A43F5544880E55C1C93F38
:1037D0007D6FEB0312D6D43F555555555555C53F12
:1037E00082922EB1C5B8B33F59018D1B6C06E63FDE
:1037F000C88A599CE52A00404B2D8A1C273A034071
:10380000075C143326A6913C182D4454FB21094033
:103810000000F03F0000E03F2DE9F04F9B46D64B03
:1038200021F000479F4287B09246804689460E4667
:1038300051D827F005FD0446002871D1109B42465F
:10384000013313433B4300F0E581109B012B00F053
:10385000EE8152465B464046494627F08BF80B46C0
:103860000246C64900201F4627F064FB42464B46ED
:10387000804689462046394627F07AF802460B46AC
:103880005046594627F074F822464B4627F028FA4E
:1038900002460B4616462046224639461F464B46F0
:1038A00027F01EFAB64B002227F064F802460B46BA
:1038B0003046394627F05EF842464B4627F010FA6C
:1038C00022464B4627F056F804460D462046294628
:1038D00007B0BDE8F08FAB4B9F4221D9002905DA34
:1038E00001F1004399460BF100439B4642464B468B
:1038F00083A1D1E9000127F03BF852465B4604461C
:103900000D4681A1D1E9000127F032F822462B466D
:1039100027F030F84FF0000A804689464FF0000B40
:1039200042464B464046494627F0DAF902460B46E6
:10393000CDE9002327F0D4F9DDE9002304460D4644
:103940004046494627F0CCF971A3D3E90023CDE9DD
:1039500002012046294627F0C3F96FA3D3E90023CB
:1039600027F008F822462B4627F0BAF96CA3D3E9D2
:10397000002326F0FFFF22462B4627F0B1F96AA369
:10398000D3E9002326F0F6FF22462B4627F0A8F9BC
:1039900067A3D3E9002326F0EDFF22462B4627F04C
:1039A0009FF965A3D3E9002326F0E4FFDDE90023B6
:1039B00027F096F962A3D3E90023CDE9040120465C
:1039C000294627F08DF960A3D3E9002326F0D2FF22
:1039D00022462B4627F084F95DA3D3E9002326F085
:1039E000C9FF22462B4627F07BF95BA3D3E90023CE
:1039F00026F0C0FF22462B4627F072F958A3D3E9E0
:103A0000002326F0B7FF22462B4627F069F956A37C
:103A1000D3E9002326F0AEFF02460B46DDE90401A0
:103A200026F0A8FFDDE9022327F05AF952465B464B
:103A300026F0A0FFDDE9002327F052F952465B464D
:103A400026F098FF4AA3D3E9002304460D46DDE99A
:103A5000020127F045F922462B4626F08BFF8246CD
:103A60008B465B4640464946524626F083FF454B0F
:103A70009F4204460D4600F28780109B012B37D0F1
:103A8000002602460B460F4600203C49CDE9006760
:103A900027F050FA42460D4604464B46DDE9000148
:103AA00026F066FF02460B465046594626F060FF58
:103AB0002B46324627F014F92B468046894632467B
:103AC000DDE9000127F00CF92D4B002226F052FF12
:103AD00002460B464046494626F04CFF22462B46FE
:103AE00027F0FEF82B46324626F044FF04460D46EA
:103AF0002046294607B0BDE8F08F00BFAFF3008035
:103B0000182D4454FB21E93F075C143326A6813C61
:103B1000D47ABF74702AFB3EE9A7F0320FB8123F87
:103B200068108D1AF726303F1583E0FEC8DB573F3B
:103B300093846EE9E326823FFE41B31BBAA1AB3FFB
:103B4000735360DBCB75F3BEA69237A0887E143F1B
:103B50000165F2F2D844433F280356C9226D6D3FF8
:103B600037D60684F464963F7AFE10111111C13FD6
:103B7000635555555555D53FFFFF2F3E0000F0BF0B
:103B80000000F03F2794E53F109827F03FF82246C9
:103B9000CDE900012B462046294627F0A1F8024630
:103BA0000B462046294614461D46DDE9002326F033
:103BB000E1FE02460B462046294627F0BBF9524655
:103BC0005B4626F0D5FE02460B464046494626F0A7
:103BD000CFFE02460B4626F0CDFE02460B46DDE93F
:103BE000000126F0C5FE4FEAA67808F00208044658
:103BF000C8F101000D4627F009F802460B462046A1
:103C0000294627F06DF804460D462046294607B0A0
:103C1000BDE8F08F4046494620F03AFE02460B468A
:103C20000020044927F086F904460D4660E7444623
:103C30004D465DE70000F03F2DE9D04FD04E21F01A
:103C40000043B34284B082468B4601F0004411D950
:103C5000CC4EB34240F2C980CB4EB34240F2BD805D
:103C6000C1F31302024300F0D48102460B4626F052
:103C700081FEE4E0C54A934200F2E480C44A9342E4
:103C800040F245810024C34B00225046594627F09C
:103C900027F806460F4632463B465046594627F01F
:103CA0001FF89FA3D3E900238046894627F018F820
:103CB0009DA3D3E9002326F05DFE42464B4627F044
:103CC0000FF89BA3D3E9002326F052FE42464B4651
:103CD00027F006F898A3D3E9002326F04BFE4246CE
:103CE0004B4626F0FDFF96A3D3E9002326F040FEC5
:103CF00042464B4626F0F4FFA74B002226F03AFE40
:103D000002460B4630463946CDE9002326F0E8FF4F
:103D100002460B460020A14926F02AFE06460F4621
:103D200032463B46DDE9000126F022FE32463B46A4
:103D300006460F465046594626F0D2FF02460B462D
:103D40000020974926F014FE02460B4630463946BD
:103D500027F0F0F842464B4626F0C2FF02460B46DB
:103D6000002C5ED0DDE9026732463B4626F000FEBD
:103D700052465B4626F0B4FF32463B4626F0F8FD3D
:103D80004B46424626F0F4FD631C06460F4600F003
:103D90003181012C00F00A81631C392B4FEA045653
:103DA00000F2A480132C00F3458152465B464FF489
:103DB000001726F0DDFD47FA04F4C4F17F594FF0F7
:103DC000000809F5401902460B464046494626F0D0
:103DD000CFFD711804B0BDE8D08F5BA3D3E90023F9
:103DE00027F00EFA002840F04681002C53D058A34B
:103DF000D3E900235046594626F0BCFD002200239B
:103E000027F0E0F9002840F0078153A3D3E900230D
:103E10005046594626F064FF02460B460020614991
:103E200044E05046594626F05BFF42464B4626F09A
:103E30009FFD02460B465046594626F099FD04B0B8
:103E4000BDE8D08F584A934200F2E98044A3D3E9F9
:103E50000023002C00F0C48026F08CFD0FF208191E
:103E6000D9E9008906460F464FF0FF3442464B46DB
:103E70003046394626F07CFD82468B4652465B46EC
:103E80003046394626F074FD42464B4626F070FD1A
:103E9000CDE90201F7E630A3D3E9002350465946A5
:103EA00026F01EFF0B463B490246002026F062FD2D
:103EB00027F0C6F9044626F0A9FE29A3D3E900237A
:103EC0008046894626F00CFF02460B46504659466E
:103ED00026F04EFD26A3D3E9002306460F464046B2
:103EE000494626F0FDFE80468946BFE752465B46BE
:103EF00026F03EFD02460B460020274926F038FDFD
:103F0000731819460022244B26F032FD97E71AA3B6
:103F1000D3E9002326F02EFD02460B4687E700BFBB
:103F20002DC3096EB7FD8ABE3952E686CACFD03E90
:103F3000B7DBAA9E19CE143F8555FE19A0015A3F42
:103F4000F41011111111A13FEF39FAFE422E8640F3
:103F500059F3F8C21F6EA501FE822B654715F73F86
:103F60000000E0FE422EE63F763C7935EF39EABDAF
:103F7000763C7935EF39EA3D9C7500883CE4377E24
:103F800079684340412E8640FFFFEF7F422ED63FA7
:103F9000FFFF8F3C0000E03F0000F03F00000840C2
:103FA000000018400000E0BFB1A2F03F3A4B0022F1
:103FB0005046594627F006F900284DD0374B504659
:103FC0005946002226F0D6FC02460B4630463946BA
:103FD00026F0CEFC00224FF0404326F081FE2EE773
:103FE00026F0C6FC0FF2A009D9E9008906460F4663
:103FF00001243BE702460B465046594626F0B8FCE2
:10400000264B002226F06CFE244B002226F0B0FC4A
:1040100015E7002C3FF413AF214900200FE71CA344
:10402000D3E9002326F05CFE02460B46002044B391
:104030001C493BE7C4F57F7403342305002226F0B6
:1040400099FC02460B465046594626F091FC164B09
:10405000002226F08FFCBCE632463B4650465946CD
:1040600026F086FC02460B4626F084FC0E4B00220E
:1040700026F080FCE3E6002004B0BDE8D04F20F03D
:1040800035BC064912E700BF763C7935EF39EA3D89
:10409000FE822B654715F73F0000D0BF0000E03FD0
:1040A0000000F0BF0000E0BF0000F03F0000000093
:1040B000594A2DE9F84321F00046964204460D4640
:1040C0005CD8564B0029ACBFDFF86891DFF86C91E3
:1040D0009E424FF0000812D9514B9E4240F28E8012
:1040E000504B9E4256D901339E4250D048A3D3E94B
:1040F00000232046294626F0F3FDBDE8F8834A4B0D
:104100009E425ED842A3D3E9002326F033FC474BFE
:10411000002227F075F8B8BB2046294620F0B8FBEE
:10412000FFF78AFD04460D4622462B4620462946C7
:1041300026F020FC224606460F462B4620462946FE
:1041400026F0CEFD02460B462046294614461D4663
:104150000022364B26F00EFC02460B46204629462E
:1041600026F0E8FE02460B463046394626F000FCB3
:1041700042464B4626F0B4FDBDE8F88302460B46A6
:1041800026F0F8FBBDE8F88320462946FAE7284BDD
:104190009842ABD82046294620F07AFB254B0022D6
:1041A00026F09EFDFDF7A4FE04460D4622462B4652
:1041B0004046494626F094FD22462B4626F090FDC7
:1041C000E0E720F065FBFFF737FD184B00220446BF
:1041D0000D4626F0CFFB0B4617498E420246A3D967
:1041E0002046294626F0A6FE22462B4626F0C2FB94
:1041F00042464B4626F074FDBDE8F88320F048FBAC
:10420000FDF776FE42464B4626F06AFDBAE700BF50
:104210003374AC3C1F7BAC7FFFFFEF7FFFFF35406B
:10422000412E8640CD338640FFFF2F3E0000F03FF9
:104230007DF8B98F0000E03FFFFFEF3F0000E0BFD7
:1042400038B5124B1D682A6B04461AB10023C2E927
:10425000044338BD18200DF0CDF80246286378B12C
:1042600001200021C2E90401094B0A480A49916072
:10427000C2E900030B2393810023C2E9044338BD44
:10428000064B0748462122F067F800BF8C0000204B
:1042900034126DE60E33CDABECDE050028220300B0
:1042A000402203001C4B10B51C68226B8AB11369B5
:1042B0001A4954691A4803FB01F100FB0411A3FBDE
:1042C0000030013341EB0001C2E9043121F000402C
:1042D00010BD18200DF08EF80246206388B1114CF5
:1042E000114B0E48114991609FED097BC2E90043D3
:1042F0000B2393810E4B014682ED047BC2E904310E
:1043000010BD0C4B0C48522122F026F8AFF3008070
:1043100001000000000000008C0000202DF4515826
:104320002D7F954C0E33CDAB34126DE6ECDE0500DF
:104330002E7F954C2822030040220300000000003D
:104340002DE9F04F9FB00F46002107921A910022ED
:104350000021CDE9041283463A461992904612F89C
:1043600001ABBAF12D0F5FD801A151F82AF000BFBF
:10437000B9450000294400002944000029440000F8
:104380002944000029440000294400002944000079
:10439000294400005B4300005B4300005B430000D6
:1043A0005B4300005B4300002944000029440000F7
:1043B0002944000029440000294400002944000049
:1043C0002944000029440000294400002944000039
:1043D0002944000029440000294400002944000029
:1043E0002944000029440000294400002944000019
:1043F0005B430000294400002944000029440000D8
:1044000029440000294400002944000029440000F8
:104410002944000029440000294400007548000098
:10442000294400008F48000000220892BAF1300FA2
:1044300000F0858000230993BAF12F0F564640F211
:1044400012854FF0000940464D464C4618E0082CB6
:10445000C8BF09EB890900F10100C8BF0AEB490A8E
:104460001990C8BFAAF1300990F800A0D8BFA3F1F5
:104470003005BAF12F0F04F10104564640F3A8802D
:1044800005EB8503BAF1390F0AEB4303DFDDAC49D5
:10449000012224F05BF9002868D11998431C199374
:1044A000417818460A46002C40F0EB80302A08BFBD
:1044B000034640F0D7851946013319931A78302AFC
:1044C000F9D0C0F101000144A2F13100082800F246
:1044D000C68101310F910021303A98460A9101249A
:1044E00005EB850502EB450500210133199318788A
:1044F000A0F13002092A01F1010600F27E84002AAF
:1045000000F08C870F98012E30440F9000F08487C4
:1045100004F1010C604606E075000130061B013E07
:10452000B14240F38F84461E082E05EB8506F3DD6D
:104530001028DCBF09EB89094FEA4909EDE798F833
:10454000012002F0DF02582A18BF434600F012840F
:104550000133199393F800A0BAF1300FF8D09846C0
:10456000BAF1000F0ED00123099365E7BAF1650F88
:104570001AD0BAF1450F17D0002C2FD1099B002B70
:1045800000F0BC804FF000084FF00009079A0AB114
:10459000199B1360089BB3B109F10043994640464B
:1045A00049461FB0BDE8F08F002C78D10A940F94D3
:1045B000099B002B40F0E2824FF000084FF0000909
:1045C000079B03B11F60404649461FB0BDE8F08F0E
:1045D0005B49012224F0BAF800284ED0284626F084
:1045E00005FB092CCDE9040140F3CD820023102CFA
:1045F000A2460E93A8BF4FF0100A0A9412930F938D
:10460000504B03EBCA0353E9122326F069FB06461D
:1046100048460F4626F0EAFA02460B46304639462F
:1046200026F0A8F90F2CCDE9040100F3AC800E9B15
:10463000002B00F0A8820E9B40F38E82162B40F3D5
:1046400065840E9AC4F125039342C0F29C803D4DCF
:10465000C4F10F0405EBC401DDE90423D1E9000135
:1046600026F03EFB0E9B1C1B05EBC405D5E9002381
:1046700026F036FB8046894688E7199A531C199321
:104680005178A1F13000092800F2DE8002460028AE
:1046900000F0BD8601210A94A4460F91D4E30021C5
:1046A000199B0A940F918C465A1C19925E782B2EF6
:1046B00000F0C7802D2E00F0BE804FF0000AA6F15A
:1046C0003007092F37D8302E199A40F0E580013293
:1046D00019921678302EFAD0A6F13100082840F24F
:1046E000D98000221292002C34D1099A0A437FF417
:1046F00049AFBCF1000F40F03F841F46692E00F027
:10470000188400F31184492E00F013844E2E7FF498
:1047100053AF0D4919A824F0EFF900283FF44CAF2E
:10472000199B1B78282B00F06D85084820F086FA2D
:10473000804689462AE7002219931292D3E700BFE8
:10474000AC220300180A0300BC2203000C22030061
:10475000002312930A9A1346002A08BF23460A939D
:104760000F9A129B102CA3EB020328460E93A2462D
:10477000A8BF4FF0100A26F039FA092CCDE9040140
:104780003FF73EAF53E70E9BA4EB0A0A9A44BAF1F7
:10479000000F40F3A9802AF00F071AF00F0A40F02B
:1047A0004283B7F59A7F00F3DC83102FDFF880A1F6
:1047B0004FEA271600F04C85DDE904234FF0000C8A
:1047C0005746E14616F0010F1046194607D0D7E9C3
:1047D000002326F085FA4FF0010C02460B467610B6
:1047E000012E09F1010907F10807EBD1BCF1000F17
:1047F00001D0CDE90423059BA3F1547305930AEB83
:10480000C90ADDE90423DAE9000126F069FA454B1B
:10481000CDE904010B400A4643498B4200F2A183D3
:10482000A1F580118B4240F2AF84404B4FF0FF3234
:10483000CDE904235AE04FF0010A9A1C19929E78A0
:104840003DE74FF0000AF8E701F0DF0145297FF46A
:10485000C5AE00210A940F914FF0010C24E702F03D
:10486000DF02452A7FF48EAE00240A940F944FF0A5
:10487000010C19E70022089208F10102199298F838
:1048800001A0BAF1000F3FF497AE9046CEE50122A9
:104890000892F1E7A6F13007501C199056782F2E98
:1048A00040F3F68286460E9208E0013019909EF899
:1048B00001602F2EA2F1300706DD864607EB870246
:1048C000392E06EB4202F0DD0E9A801A082840F3DA
:1048D000DF8244F61F621292BAF1000F3FF403AF79
:1048E000129A52421292FEE640F0D98200230993B6
:1048F0000A9A009523464146584624F031FE13900B
:10490000002800F02E830F9B129A9B1A0E9A002A01
:10491000A8BF00230F9322EAE272002314921E46DE
:104920009946DAE00000F07F0000A07CFFFFEF7FF7
:10493000080B0300D21A1F2AA4EB020400F396818D
:1049400001239340109300231593099B25443C4475
:10495000A7421D443B46A8BF2346AB42A8BF2B46F7
:10496000002B02DDE41AED1AFF1A0F9B002B00F357
:104970001D81002C00F334810E9B002B00F36C8111
:10498000002D00F35A81002F08DD31463A46584683
:1049900024F0EEFF0646002800F058811A9952468E
:1049A000584625F079F88146002800F04F81002311
:1049B000C268C3603146129225F04CF80028C0F25C
:1049C000E883059B984600F08C833146484625F0E5
:1049D000FFF900224FF0804304460D4626F0FCFB11
:1049E000002800F0D380129B002B40F04C81049BE8
:1049F000002B40F0EF81C8F31303002B40F08A81B5
:104A0000A94B00222046294626F0DCFB002840F076
:104A10003883A64B00222046294626F061F90A4633
:104A20000146CDE9101202F100430C900D93A04F06
:104A3000A04B08EA07079F42DDE90C4500F04281E0
:104A4000099B13B3B7F1D46F1FD893A3D3E9002305
:104A5000DDE9100126F0C0FBA0B1DDE9100126F070
:104A600017FC012838BF012026F0C0F8129BCDE9C1
:104A70001001002B40F0878201F10043169017933C
:104A8000DDE9164505F1D663DD1BDDE90A0125F0F8
:104A9000BDF802460B462046294626F021F9DDE9FD
:104AA0000A2325F067FFCDE904010C46099B23B9D1
:104AB0007F4B23409F4200F036811A99584624F0DC
:104AC000DDFC5146584624F0D9FC3146584624F0C6
:104AD000D5FC4946584624F0D1FC139C58466168E1
:104AE00024F08CFC8246002800F0B080226902325B
:104AF000920004F10C010C3021F066FB9DED047B6B
:104B00001CAB01931BAB0093584653EC172B8DED58
:104B10000A7B25F001F91A9000286AD00121584635
:104B200024F0E2FD0646002800F090801B9B002B3D
:104B30007FDB0F9A149D9F18099A1C9C9B1A234493
:104B40005D4A013B9342C4F13604FFF6F3AE002305
:104B5000159301231093F8E61633FFF614AE0F9B5E
:104B6000129A9A1A554B03EBC203DDE90401D3E90B
:104B7000002326F0DFF98046894607E5A446002495
:104B8000199B214690E5DDE90489FFE4474B204667
:104B90002946002226F0A4F8129BCDE91001002B33
:104BA0006CD101F100430C900D9340E731461A4659
:104BB000584624F065FE06461A98D6B1024631469C
:104BC000584624F0A7FD034612931A988BB101466C
:104BD000584624F053FC129B1A93002C7FF7CCAE5E
:104BE0001A992246584624F0C3FE1A9000287FF4F2
:104BF000C3AE5746CDF83890B2462223DFF8B090C6
:104C0000CBF800304FF000080146584624F036FC3F
:104C10003946584624F032FC5146584624F02EFCC2
:104C20001399584624F02AFC0E99584624F026FC85
:104C3000ACE4149A0F9FD51A7EE751462A4658468F
:104C400024F096FE824600287FF49DAE57461A98BF
:104C5000CDF83890B246D0E75146149A584624F021
:104C60000FFE824600287FF48BAEEFE7144AD21A7B
:104C7000012303FA02F21592109366E69DED107B74
:104C80008DED0C7BD3E69FED067B8DED0C7B8DEDE2
:104C9000107BCCE6AFF300800000C0FFFFFFDF41D8
:104CA000000000000000F03F0000F03F0000E03F87
:104CB0000000F07F0000E07F02FCFFFF180A030005
:104CC000E2FBFFFFA8F154730593DDE9044520469C
:104CD000294624F09BFFDDE90C2326F001F822464B
:104CE0002B4625F047FEB44AB44B0A409A42CDE920
:104CF000040140F29480DDE90A0103F15473994202
:104D000002D1B0F1FF3FA1D0AD4C4FF0FF33CDE960
:104D10000434D2E69FED9E7B8DED0C7B9FED9E7B58
:104D20008DED107B83E6DDE910783846414626F0AC
:104D300037FB25F0A7FF02460B463846414625F0D3
:104D400017FE049F129DC4F313043D432C430746F2
:104D500088462DD192A3D3E9002326F033FA002808
:104D60003FF4ABAECDF83890DDE904895746B24642
:104D70001A9849E70293089B01931AAB0093914A52
:104D80001BAB19A9584621F09BFD10F00F050446F6
:104D90003FF4F8AB062D40F0218108F1010319938F
:104DA00000234FF000084FF000090893FFF7EEBB17
:104DB0007DA3D3E9002326F005FA0028D2D17CA3F5
:104DC000D3E900233846414626F01AFA00283FF47A
:104DD00074AEC7E7049B012B9CD14346002B99D1AD
:104DE0005746CDF83890B24622231A98CBF80030B7
:104DF0004FF000084FF0000906E700F0DF004528FB
:104E000000F0B380002C7FF4A3AC099B19434FF052
:104E100000084FF000093FF4D3ABFFF7B7BB01F137
:104E20005474059442E6684901EBCA01DDE90423A4
:104E3000D1E9000125F054FFCDE90401002F3FF432
:104E400055ADAEE401398C44BCF1080F0CF10104FE
:104E50007FF746AB102CDCBF09EB890902EB49094F
:104E60000021FFF742BB59490122404623F06EFC66
:104E700040B9814619980346013019905A784D4639
:104E8000FFF714BB099B002B3FF496ABFFF77ABBEF
:104E900044F61F629742A8BF174612971CE5CAF155
:104EA000000A4FEA2A171AF00F0A0DD0464B03EBFF
:104EB000CA03DDE90401D3E9002326F03BF8CDE97C
:104EC0000401002F3FF412AD1F2F00F30581DDE92F
:104ED000042317F0100118BF6A2117F0010F099180
:104EE0003B4E104619460FD0D6E9002325F0F8FEB8
:104EF0007F1002460B4600F0D28017F0010F06F13A
:104F0000080610461946EFD17F10F6E70E982E4995
:104F100001EBC001DDE90423D1E9000125F0E0FE49
:104F200080468946FFF732BB6E2E3FF4F2ABFFF7A7
:104F300043BB284919A823F0DFFD00283FF43CAB10
:104F4000199B2549013B19A8199323F0D5FD10B9E8
:104F5000199B01331993DFF860904FF00008FFF7B9
:104F600015BB2223CBF80030F5E7002C00F03A8285
:104F70004FF0010CFFF798BB4FF000084FF000090D
:104F80001F46FFF71DBB9DED107B8DED167B77E572
:104F9000000000000000F0BF000000000000F03F33
:104FA0009535A094FFFFCF3F9535A094FFFFDF3FDD
:104FB00035E5AF350000E03F0000F07FFFFF9F7C4C
:104FC000FFFFEF7FB8090300180A0300AC220300BB
:104FD000E0090300B0220300B42203001A9A3AB198
:104FE00035211CA824F03EFF1A99584624F046FAB1
:104FF000013D042D00F21582DFE805F0032E2B2081
:1050000003001C9B04931B9B03F233421D9B23F460
:10501000801343EA02530593E20502D543F00043AF
:105020000593B34A1A40DDE90489002A7FF4AEAA49
:1050300023F0FAFB22230360FFF7A8BA4FF0FF32F8
:105040006FF00043CDE90423E3057FF59CAD059B9C
:10505000E4E7A74B0593F7E7DDE91C121D9BCDE9BB
:105060000412D9E7A2F13103082B13D922F0200250
:10507000452A7FF407AF00230A930F930124FFF71B
:1050800097BA9FED977B8DED0C7B9FED977B8DED18
:10509000107BCCE4012103460F91FFF71CBA099B5A
:1050A000CDE904017BB1C1F30A52C2F16B03002BBD
:1050B00009DD1F2B40F3FD80342B049740F36481FE
:1050C0004FF05C730593DDE904010022002326F014
:1050D0006FF800283FF40CAC2223CBF80030FFF728
:1050E00051BA5746C3F31302B2461E46129BCDF87F
:1050F0003890DDF840C0DDF854E07E49DDE90A89EA
:10510000002B00F093808A4200F0FA80BEF1000F7D
:1051100000F0E0801EEA060F32D04046494624F0F7
:1051200075FD099B002B00F03781C6F30A53C3F1CC
:105130006B03002B40F353811C0504F17F530022C5
:1051400003F5401325F0CCFD02460B464046494688
:1051500025F010FC80468946674B404649460022B0
:1051600025F0BEFD624B0B4080468946002B7FF444
:10517000FFAD2223CBF80030FAE51EEA060F72D10C
:10518000099B002BE8D1F3E502F154730593FFF777
:10519000ADBBDDE90445129ACDF83890224357465D
:1051A0004B46B246DDE90A89EAD1C5F313022E4621
:1051B000002AE5D125F00044240D2405B4F1D66F72
:1051C000DED95A6912B91A69012AD9DD0E9901226C
:1051D000584624F0CDFB51460E9024F03BFC0028AD
:1051E000CEDD099B002B00F0AB80A4F580146FEAA4
:1051F00014536FEA035305934FF0FF330493DDE933
:105200000489A9E73D4919A81CAA23F091FC0528A7
:105210007FF48BAA1D9B43F0FF4343F4E003059307
:105220001C9B0493DDE90489FFF7B0B9A2B9DDE95D
:105230000434002B45D1099B002B00F081802C4CBD
:105240003440B4F1D66FD0D8B4F15C7F84D8CBE5CC
:105250004FF00009FFF7CFBABEF1000F8DD1049BCC
:105260001CEA030F8CD04046494624F0CFFC099B32
:10527000002B55D0C6F30A53C3F16B03002B40F348
:10528000AB801C0504F17F53002203F5401325F089
:1052900027FD02460B464046494625F069FB0022A1
:1052A00000238046894625F083FF00283FF454AF51
:1052B0009AE54FF0FF3202FA03F3049A1A4004927F
:1052C00001E7BEF1000F7FF458AF13EA0C0F3FF473
:1052D00057AFC8E7049B1CEA030F3FF451AF1CE72C
:1052E000000000000000E0BF000000000000E03F00
:1052F0000000F07FFFFF0F0000005039CC090300D1
:10530000DDE90445099B214653BB234601332ED0DA
:10531000BEF1000F6AD01EEA060F3FF429ADFCE68D
:1053200002460B464046494625F022FB0022002358
:105330008046894625F03CFF00283FF419AD53E52F
:105340003E4A1A983240A2F580126FEA12536FEA71
:10535000035305934FF0FF330493DDE9048953E4CD
:10536000364A3240B2F1D46F20D9621C27D1344A78
:10537000964240D0314A324002F580130593002313
:105380000493DDE90489FBE6C2F14B024FF0FF33E1
:1053900093400B40059396E602460B46404649462D
:1053A00025F0E8FA804689461A982DE4120DC2F1DC
:1053B0006B024FF0FF3000FA02F29442D7D0BEF1F8
:1053C000000F04D01EEA060F3FF4C6AEA5E611EAB0
:1053D0000C0F3FF4C1AEA0E602460B465BE7024667
:1053E0000B46B3E600293FF449AEC1E514EA0C0FC1
:1053F0003FF4BEAC91E60131BCD122231A98DFF80C
:105400003C90CBF800304FF00008FFF7FDBB0F9049
:105410000A940121FFF769B8A44615E53146FFF764
:1054200064B8E10505D54FF000430593DDE9048933
:10543000FEE54FF000084FF00009F9E50000F07FAD
:10544000FFFFEF7F014BFEF77BBF00BFE8000020AE
:1054500010B4054C8446134620685DF8044B0A4698
:105460006146FEF76DBF00BF8C00002010B4054CF4
:10547000054B84460A4620685DF8044B6146FEF7FA
:105480005FBF00BF8C000020E80000202DE9F04144
:10549000DFF8A480044613462DED028B0A46D8F8A7
:1054A00000002146FEF74CFF02460B4604460D461F
:1054B00025F0B0FE50BB2046294625F009FF08EE36
:1054C000100ADFED1A7AB0EEC87AB4EE677AF1EE20
:1054D00010FA15DD25F00047154B4FF0FF3220463E
:1054E000394625F097FE38B9114B4FF0FF32204670
:1054F000394625F071FE18B1D8F8003022221A6022
:1055000018EE100ABDEC028BBDE8F081002D0948B1
:1055100006DA20F0BFFB07EE900AB1EE678AEFE7EC
:10552000BDEC028BBDE8F04120F0B4BBFFFF7F7FF4
:10553000FFFFEF7F0C2203008C0000202DE9F843D1
:10554000264F274B04460A4638682146FEF7F8FEE8
:1055500002460B4604460D4625F05CFE88BB2046FD
:10556000294625F0B5FE07EE100ADFED1E7AB0EEF3
:10557000C77AB4EE677AF1EE10FA064617DD25F029
:105580000049194B4FF0FF322046494625F042FEB4
:1055900038B9154B204649464FF0FF3225F01CFE26
:1055A00028B13B6822221A603046BDE8F88316F025
:1055B000FF4FF9D10D4B2B40002BF2D13046BDE807
:1055C000F883002D0A4804DA20F064FB80F00046DE
:1055D000EAE7BDE8F84320F05DBB00BF8C00002087
:1055E000E8000020FFFF7F7FFFFFEF7F0000F07FDC
:1055F0000C2203000348044B834202D0034B03B147
:105600001847704780020020800200200000000040
:105610000548064B1B1AD90F01EBA301491002D014
:10562000034B03B11847704780020020800200201E
:105630000000000010B5064C237843B9FFF7DAFFED
:10564000044B13B10448AFF300800123237010BD55
:1056500070190020000000007868030008B5044BB2
:105660001BB104490448AFF30080BDE80840CFE710
:10567000000000007419002078680300A3F5803A48
:10568000704700BF154B002B08BF114B9D46FFF71D
:10569000F5FF00218B460F461148124A121A22F0DC
:1056A000B3FF0C4B002B00D098470B4B002B00D0C6
:1056B00098470020002104000D000B4804F0ECFB8B
:1056C00023F086FC2000290002F0DCFD23F0E4F941
:1056D00000000800000000000000000000000220A0
:1056E00000040020F41E0020A16102006FF47D7010
:1056F000704700BF064B10B50446D3F83009036865
:105700005B6A98470146204627F0A3FA012010BDA6
:1057100000050020064B10B50446D3F82C09036899
:105720009B6A98470146204627F093FA012010BD56
:1057300000050020064B10B50446D3F82C09036879
:105740001B6A98470146204627F083FA012010BDC6
:105750000005002008B5024927F09FFA012008BD86
:10576000DE34030008B5012129F0D0FB0BF01CFC4E
:10577000002008BD38B50121054629F0C7FB441EAD
:10578000032C0CD8094B0A4953F8243003EB43038C
:10579000284601EBC30127F0F1FA012038BD054A84
:1057A000012128461AF03CF9ECE700BFB8340300A9
:1057B00028080020300B030010B50121044629F011
:1057C000A5FB054900EB400001EBC001204627F096
:1057D000D5FA012010BD00BF2808002008B50249F5
:1057E00027F0CCFA012008BD5017002010B5044660
:1057F00004F0DAF90146204627F04FFA012010BDE7
:1058000030B583B00F49044601A805F0BBFB0E4933
:1058100001A807F0BFF840B1204627F00DFA01A813
:1058200007F074F8012003B030BD01A807F0C8F8F4
:10583000054601A807F0C8F829460246204627F089
:1058400014FAECE7080E00206C1A002030B583B083
:105850006A460121044629F01CFB009A00230146F8
:1058600001A807F05BF801A9074805F0CFFB054642
:1058700001A807F04BF8B5FA85F12046490927F051
:1058800073FA012003B030BD080E0020074B10B59D
:105890000446D3F830090368DB6A9847B0FA80F110
:1058A0004909204627F060FA012010BD00050020BC
:1058B000074B10B50446D3F8300903689B6A984734
:1058C000B0FA80F14909204627F04EFA012010BDB8
:1058D0000005002010B50121044629F017FB074BF5
:1058E0000146D3F8300903681B6A9847B0FA80F183
:1058F0004909204627F038FA012010BD0005002094
:10590000074B10B50446D3F830090368DB699847A4
:10591000B0FA80F14909204627F026FA012010BD8F
:1059200000050020074B10B50446D3F82C09036886
:105930001B6B9847B0FA80F14909204627F014FA0A
:10594000012010BD00050020074B10B50446D3F818
:105950002C090368DB6A9847B0FA80F149092046B0
:1059600027F002FA012010BD0005002010B501212A
:10597000044629F0CBFA074B0146D3F82C090368FB
:105980005B6A9847B0FA80F14909204627F0ECF9A4
:10599000012010BD0005002010B50121044629F0AA
:1059A000B5FA074B0146D3F82C090368DB69984721
:1059B000B0FA80F14909204627F0D6F9012010BD40
:1059C0000005002070B50121044629F09FFA02214C
:1059D0000546204629F09AFA03210646204629F07A
:1059E00095FA32B2C3B229B2054811F0F7FAB0FA0B
:1059F00080F14909204627F0B7F9012070BD00BFAA
:105A0000040D002010B504460DF0BCFD01462046F3
:105A100027F01FF9012010BD10B50121044629F01F
:105A200075FA0BF05BFE0146204627F012F90120C3
:105A300010BD00BF10B50446044805F023FA014626
:105A4000204627F006F9012010BD00BFF00D002010
:105A500010B50121044629F059FAC1B2054805F0F4
:105A6000FFF9B0FA80F14909204627F07DF90120BD
:105A700010BD00BFF00D002010B50446054805F02C
:105A800089F9B0FA80F14909204627F06DF9012023
:105A900010BD00BFF00D002010B50446054805F00C
:105AA000F1F8B0FA80F14909204627F05DF90120AC
:105AB00010BD00BFF00D002010B50121044629F0F3
:105AC00025FA0146054805F033F8B0FA80F1490996
:105AD000204627F049F9012010BD00BFF00D00203D
